{"contracts/N2D-ERC6551-Account.sol":{"ERC6551Account":{"abi":[{"inputs":[],"stateMutability":"nonpayable","type":"constructor"},{"inputs":[{"internalType":"uint256","name":"_size","type":"uint256"},{"internalType":"uint256","name":"_start","type":"uint256"},{"internalType":"uint256","name":"_end","type":"uint256"}],"name":"InvalidCodeAtRange","type":"error"},{"inputs":[],"name":"ReentrancyGuardReentrantCall","type":"error"},{"anonymous":false,"inputs":[{"indexed":true,"internalType":"address","name":"target","type":"address"},{"indexed":true,"internalType":"uint256","name":"value","type":"uint256"},{"indexed":false,"internalType":"bytes","name":"data","type":"bytes"}],"name":"TransactionExecuted","type":"event"},{"inputs":[{"internalType":"address","name":"to","type":"address"},{"internalType":"uint256","name":"value","type":"uint256"},{"internalType":"bytes","name":"data","type":"bytes"}],"name":"executeCall","outputs":[{"internalType":"bytes","name":"result","type":"bytes"}],"stateMutability":"payable","type":"function"},{"inputs":[{"internalType":"bytes32","name":"hash","type":"bytes32"},{"internalType":"bytes","name":"signature","type":"bytes"}],"name":"isValidSignature","outputs":[{"internalType":"bytes4","name":"magicValue","type":"bytes4"}],"stateMutability":"view","type":"function"},{"inputs":[],"name":"nftInfo","outputs":[{"internalType":"uint256","name":"chainId","type":"uint256"},{"internalType":"address","name":"tokenContract","type":"address"},{"internalType":"uint256","name":"tokenId","type":"uint256"}],"stateMutability":"view","type":"function"},{"inputs":[],"name":"nonce","outputs":[{"internalType":"uint256","name":"","type":"uint256"}],"stateMutability":"view","type":"function"},{"inputs":[{"internalType":"address","name":"operator","type":"address"},{"internalType":"address","name":"from","type":"address"},{"internalType":"uint256[]","name":"ids","type":"uint256[]"},{"internalType":"uint256[]","name":"values","type":"uint256[]"},{"internalType":"bytes","name":"data","type":"bytes"}],"name":"onERC1155BatchReceived","outputs":[{"internalType":"bytes4","name":"","type":"bytes4"}],"stateMutability":"view","type":"function"},{"inputs":[{"internalType":"address","name":"operator","type":"address"},{"internalType":"address","name":"from","type":"address"},{"internalType":"uint256","name":"id","type":"uint256"},{"internalType":"uint256","name":"value","type":"uint256"},{"internalType":"bytes","name":"data","type":"bytes"}],"name":"onERC1155Received","outputs":[{"internalType":"bytes4","name":"","type":"bytes4"}],"stateMutability":"view","type":"function"},{"inputs":[{"internalType":"address","name":"operator","type":"address"},{"internalType":"address","name":"from","type":"address"},{"internalType":"uint256","name":"tokenId","type":"uint256"},{"internalType":"bytes","name":"data","type":"bytes"}],"name":"onERC721Received","outputs":[{"internalType":"bytes4","name":"","type":"bytes4"}],"stateMutability":"pure","type":"function"},{"inputs":[],"name":"owner","outputs":[{"internalType":"address","name":"","type":"address"}],"stateMutability":"view","type":"function"},{"inputs":[{"internalType":"address payable","name":"to","type":"address"},{"internalType":"uint256","name":"amount","type":"uint256"}],"name":"send","outputs":[],"stateMutability":"payable","type":"function"},{"inputs":[{"internalType":"address","name":"to","type":"address"},{"internalType":"uint256","name":"amount","type":"uint256"},{"internalType":"contract IERC20","name":"erc20contract","type":"address"}],"name":"sendCustom","outputs":[],"stateMutability":"nonpayable","type":"function"},{"inputs":[{"internalType":"bytes4","name":"interfaceId","type":"bytes4"}],"name":"supportsInterface","outputs":[{"internalType":"bool","name":"","type":"bool"}],"stateMutability":"view","type":"function"},{"stateMutability":"payable","type":"receive"}],"devdoc":{"errors":{"ReentrancyGuardReentrantCall()":[{"details":"Unauthorized reentrant call."}]},"kind":"dev","methods":{"isValidSignature(bytes32,bytes)":{"details":"Should return whether the signature provided is valid for the provided data","params":{"hash":"Hash of the data to be signed","signature":"Signature byte array associated with _data"}},"onERC1155BatchReceived(address,address,uint256[],uint256[],bytes)":{"details":"Handles the receipt of a multiple ERC-1155 token types. This function is called at the end of a `safeBatchTransferFrom` after the balances have been updated. NOTE: To accept the transfer(s), this must return `bytes4(keccak256(\"onERC1155BatchReceived(address,address,uint256[],uint256[],bytes)\"))` (i.e. 0xbc197c81, or its own function selector).","params":{"data":"Additional data with no specified format","from":"The address which previously owned the token","ids":"An array containing ids of each token being transferred (order and length must match values array)","operator":"The address which initiated the batch transfer (i.e. msg.sender)","values":"An array containing amounts of each token being transferred (order and length must match ids array)"},"returns":{"_0":"`bytes4(keccak256(\"onERC1155BatchReceived(address,address,uint256[],uint256[],bytes)\"))` if transfer is allowed"}},"onERC1155Received(address,address,uint256,uint256,bytes)":{"details":"Handles the receipt of a single ERC-1155 token type. This function is called at the end of a `safeTransferFrom` after the balance has been updated. NOTE: To accept the transfer, this must return `bytes4(keccak256(\"onERC1155Received(address,address,uint256,uint256,bytes)\"))` (i.e. 0xf23a6e61, or its own function selector).","params":{"data":"Additional data with no specified format","from":"The address which previously owned the token","id":"The ID of the token being transferred","operator":"The address which initiated the transfer (i.e. msg.sender)","value":"The amount of tokens being transferred"},"returns":{"_0":"`bytes4(keccak256(\"onERC1155Received(address,address,uint256,uint256,bytes)\"))` if transfer is allowed"}},"onERC721Received(address,address,uint256,bytes)":{"details":"Whenever an {IERC721} `tokenId` token is transferred to this contract via {IERC721-safeTransferFrom} by `operator` from `from`, this function is called. It must return its Solidity selector to confirm the token transfer. If any other value is returned or the interface is not implemented by the recipient, the transfer will be reverted. The selector can be obtained in Solidity with `IERC721Receiver.onERC721Received.selector`."},"supportsInterface(bytes4)":{"details":"Returns true if this contract implements the interface defined by `interfaceId`. See the corresponding https://eips.ethereum.org/EIPS/eip-165#how-interfaces-are-identified[ERC section] to learn more about how these ids are created. This function call must use less than 30 000 gas."}},"version":1},"evm":{"bytecode":{"linkReferences":{},"object":"608060405234801561001057600080fd5b5060016000819055506001600260007f01ffc9a7000000000000000000000000000000000000000000000000000000007bffffffffffffffffffffffffffffffffffffffffffffffffffffffff19167bffffffffffffffffffffffffffffffffffffffffffffffffffffffff1916815260200190815260200160002060006101000a81548160ff0219169083151502179055506001600260007f0955a9ec000000000000000000000000000000000000000000000000000000007bffffffffffffffffffffffffffffffffffffffffffffffffffffffff19167bffffffffffffffffffffffffffffffffffffffffffffffffffffffff1916815260200190815260200160002060006101000a81548160ff021916908315150217905550611dbd8061013c6000396000f3fe6080604052600436106100a05760003560e01c80639e5d4c49116100645780639e5d4c49146101b7578063affed0e0146101e7578063b553fe1e14610212578063bc197c811461023f578063d0679d341461027c578063f23a6e6114610298576100a7565b806301ffc9a7146100ac578063150b7a02146100e95780631626ba7e146101265780638447305a146101635780638da5cb5b1461018c576100a7565b366100a757005b600080fd5b3480156100b857600080fd5b506100d360048036038101906100ce9190610f91565b6102d5565b6040516100e09190610fd9565b60405180910390f35b3480156100f557600080fd5b50610110600480360381019061010b91906110ed565b61033d565b60405161011d9190611184565b60405180910390f35b34801561013257600080fd5b5061014d60048036038101906101489190611316565b610352565b60405161015a9190611184565b60405180910390f35b34801561016f57600080fd5b5061018a600480360381019061018591906113b0565b61038e565b005b34801561019857600080fd5b506101a16105e0565b6040516101ae9190611412565b60405180910390f35b6101d160048036038101906101cc919061142d565b6106f1565b6040516101de9190611520565b60405180910390f35b3480156101f357600080fd5b506101fc61089a565b6040516102099190611551565b60405180910390f35b34801561021e57600080fd5b506102276108a4565b6040516102369392919061156c565b60405180910390f35b34801561024b57600080fd5b50610266600480360381019061026191906115f9565b6108fa565b6040516102739190611184565b60405180910390f35b61029660048036038101906102919190611713565b610912565b005b3480156102a457600080fd5b506102bf60048036038101906102ba9190611753565b610aac565b6040516102cc9190611184565b60405180910390f35b600060026000837bffffffffffffffffffffffffffffffffffffffffffffffffffffffff19167bffffffffffffffffffffffffffffffffffffffffffffffffffffffff1916815260200190815260200160002060009054906101000a900460ff169050919050565b600063150b7a0260e01b905095945050505050565b6000806103676103606105e0565b8585610ac2565b9050801561037f57631626ba7e60e01b915050610388565b600060e01b9150505b92915050565b610396610b71565b61039e6105e0565b73ffffffffffffffffffffffffffffffffffffffff163373ffffffffffffffffffffffffffffffffffffffff161461040b576040517f08c379a00000000000000000000000000000000000000000000000000000000081526004016104029061184a565b60405180910390fd5b600073ffffffffffffffffffffffffffffffffffffffff168373ffffffffffffffffffffffffffffffffffffffff160361047a576040517f08c379a0000000000000000000000000000000000000000000000000000000008152600401610471906118b6565b60405180910390fd5b60008173ffffffffffffffffffffffffffffffffffffffff166370a08231306040518263ffffffff1660e01b81526004016104b59190611412565b602060405180830381865afa1580156104d2573d6000803e3d6000fd5b505050506040513d601f19601f820116820180604052508101906104f691906118eb565b90508281101561053b576040517f08c379a000000000000000000000000000000000000000000000000000000000815260040161053290611964565b60405180910390fd5b6001600081548092919061054e906119b3565b91905055508173ffffffffffffffffffffffffffffffffffffffff1663a9059cbb85856040518363ffffffff1660e01b815260040161058e9291906119fb565b6020604051808303816000875af11580156105ad573d6000803e3d6000fd5b505050506040513d601f19601f820116820180604052508101906105d19190611a50565b50506105db610bb7565b505050565b6000806000803073ffffffffffffffffffffffffffffffffffffffff1663b553fe1e6040518163ffffffff1660e01b8152600401606060405180830381865afa158015610631573d6000803e3d6000fd5b505050506040513d601f19601f820116820180604052508101906106559190611a92565b92509250925046831461066e57600093505050506106ee565b8173ffffffffffffffffffffffffffffffffffffffff16636352211e826040518263ffffffff1660e01b81526004016106a79190611551565b602060405180830381865afa1580156106c4573d6000803e3d6000fd5b505050506040513d601f19601f820116820180604052508101906106e89190611ae5565b93505050505b90565b60606106fb610b71565b6107036105e0565b73ffffffffffffffffffffffffffffffffffffffff163373ffffffffffffffffffffffffffffffffffffffff1614610770576040517f08c379a00000000000000000000000000000000000000000000000000000000081526004016107679061184a565b60405180910390fd5b600073ffffffffffffffffffffffffffffffffffffffff168573ffffffffffffffffffffffffffffffffffffffff16036107df576040517f08c379a00000000000000000000000000000000000000000000000000000000081526004016107d6906118b6565b60405180910390fd5b600160008154809291906107f2906119b3565b919050555060008573ffffffffffffffffffffffffffffffffffffffff16856107d05a61081f9190611b12565b908686604051610830929190611b76565b600060405180830381858888f193505050503d806000811461086e576040519150601f19603f3d011682016040523d82523d6000602084013e610873565b606091505b5080935081925050508061088957815160208301fd5b50610892610bb7565b949350505050565b6000600154905090565b6000806000803073ffffffffffffffffffffffffffffffffffffffff163b90506108db306060836108d59190611b12565b83610bc1565b8060200190518101906108ee9190611ba4565b93509350935050909192565b600063bc197c8160e01b905098975050505050505050565b61091a610b71565b6109226105e0565b73ffffffffffffffffffffffffffffffffffffffff163373ffffffffffffffffffffffffffffffffffffffff161461098f576040517f08c379a00000000000000000000000000000000000000000000000000000000081526004016109869061184a565b60405180910390fd5b600073ffffffffffffffffffffffffffffffffffffffff168273ffffffffffffffffffffffffffffffffffffffff16036109fe576040517f08c379a00000000000000000000000000000000000000000000000000000000081526004016109f5906118b6565b60405180910390fd5b80471015610a41576040517f08c379a0000000000000000000000000000000000000000000000000000000008152600401610a3890611964565b60405180910390fd5b60016000815480929190610a54906119b3565b91905055508173ffffffffffffffffffffffffffffffffffffffff166108fc829081150290604051600060405180830381858888f19350505050158015610a9f573d6000803e3d6000fd5b50610aa8610bb7565b5050565b600063f23a6e6160e01b90509695505050505050565b6000808473ffffffffffffffffffffffffffffffffffffffff163b03610b5c57600080610aef8585610ca6565b509150915060006003811115610b0857610b07611bf7565b5b816003811115610b1b57610b1a611bf7565b5b148015610b5357508573ffffffffffffffffffffffffffffffffffffffff168273ffffffffffffffffffffffffffffffffffffffff16145b92505050610b6a565b610b67848484610d02565b90505b9392505050565b600260005403610bad576040517f3ee5aeb500000000000000000000000000000000000000000000000000000000815260040160405180910390fd5b6002600081905550565b6001600081905550565b60606000610bce85610e26565b905060008103610bf05760405180602001604052806000815250915050610c9f565b80841115610c105760405180602001604052806000815250915050610c9f565b83831015610c59578084846040517f2c4a89fa000000000000000000000000000000000000000000000000000000008152600401610c5093929190611c26565b60405180910390fd5b60008484039050600085830390506000828210610c765782610c78565b815b90506040519450601f19601f60208301011685016040528085528087602087018a3c505050505b9392505050565b60008060006041845103610ceb5760008060006020870151925060408701519150606087015160001a9050610cdd88828585610e31565b955095509550505050610cfb565b60006002855160001b9250925092505b9250925092565b60008060008573ffffffffffffffffffffffffffffffffffffffff168585604051602401610d31929190611c6c565b604051602081830303815290604052631626ba7e60e01b6020820180517bffffffffffffffffffffffffffffffffffffffffffffffffffffffff8381831617835250505050604051610d839190611ccd565b600060405180830381855afa9150503d8060008114610dbe576040519150601f19603f3d011682016040523d82523d6000602084013e610dc3565b606091505b5091509150818015610dd757506020815110155b8015610e1b5750631626ba7e60e01b7bffffffffffffffffffffffffffffffffffffffffffffffffffffffff191681806020019051810190610e199190611cf9565b145b925050509392505050565b6000813b9050919050565b60008060007f7fffffffffffffffffffffffffffffff5d576e7357a4501ddfe92f46681b20a08460001c1115610e71576000600385925092509250610f1b565b600060018888888860405160008152602001604052604051610e969493929190611d42565b6020604051602081039080840390855afa158015610eb8573d6000803e3d6000fd5b505050602060405103519050600073ffffffffffffffffffffffffffffffffffffffff168173ffffffffffffffffffffffffffffffffffffffff1603610f0c57600060016000801b93509350935050610f1b565b8060008060001b935093509350505b9450945094915050565b6000604051905090565b600080fd5b600080fd5b60007fffffffff0000000000000000000000000000000000000000000000000000000082169050919050565b610f6e81610f39565b8114610f7957600080fd5b50565b600081359050610f8b81610f65565b92915050565b600060208284031215610fa757610fa6610f2f565b5b6000610fb584828501610f7c565b91505092915050565b60008115159050919050565b610fd381610fbe565b82525050565b6000602082019050610fee6000830184610fca565b92915050565b600073ffffffffffffffffffffffffffffffffffffffff82169050919050565b600061101f82610ff4565b9050919050565b61102f81611014565b811461103a57600080fd5b50565b60008135905061104c81611026565b92915050565b6000819050919050565b61106581611052565b811461107057600080fd5b50565b6000813590506110828161105c565b92915050565b600080fd5b600080fd5b600080fd5b60008083601f8401126110ad576110ac611088565b5b8235905067ffffffffffffffff8111156110ca576110c961108d565b5b6020830191508360018202830111156110e6576110e5611092565b5b9250929050565b60008060008060006080868803121561110957611108610f2f565b5b60006111178882890161103d565b95505060206111288882890161103d565b945050604061113988828901611073565b935050606086013567ffffffffffffffff81111561115a57611159610f34565b5b61116688828901611097565b92509250509295509295909350565b61117e81610f39565b82525050565b60006020820190506111996000830184611175565b92915050565b6000819050919050565b6111b28161119f565b81146111bd57600080fd5b50565b6000813590506111cf816111a9565b92915050565b600080fd5b6000601f19601f8301169050919050565b7f4e487b7100000000000000000000000000000000000000000000000000000000600052604160045260246000fd5b611223826111da565b810181811067ffffffffffffffff82111715611242576112416111eb565b5b80604052505050565b6000611255610f25565b9050611261828261121a565b919050565b600067ffffffffffffffff821115611281576112806111eb565b5b61128a826111da565b9050602081019050919050565b82818337600083830152505050565b60006112b96112b484611266565b61124b565b9050828152602081018484840111156112d5576112d46111d5565b5b6112e0848285611297565b509392505050565b600082601f8301126112fd576112fc611088565b5b813561130d8482602086016112a6565b91505092915050565b6000806040838503121561132d5761132c610f2f565b5b600061133b858286016111c0565b925050602083013567ffffffffffffffff81111561135c5761135b610f34565b5b611368858286016112e8565b9150509250929050565b600061137d82611014565b9050919050565b61138d81611372565b811461139857600080fd5b50565b6000813590506113aa81611384565b92915050565b6000806000606084860312156113c9576113c8610f2f565b5b60006113d78682870161103d565b93505060206113e886828701611073565b92505060406113f98682870161139b565b9150509250925092565b61140c81611014565b82525050565b60006020820190506114276000830184611403565b92915050565b6000806000806060858703121561144757611446610f2f565b5b60006114558782880161103d565b945050602061146687828801611073565b935050604085013567ffffffffffffffff81111561148757611486610f34565b5b61149387828801611097565b925092505092959194509250565b600081519050919050565b600082825260208201905092915050565b60005b838110156114db5780820151818401526020810190506114c0565b60008484015250505050565b60006114f2826114a1565b6114fc81856114ac565b935061150c8185602086016114bd565b611515816111da565b840191505092915050565b6000602082019050818103600083015261153a81846114e7565b905092915050565b61154b81611052565b82525050565b60006020820190506115666000830184611542565b92915050565b60006060820190506115816000830186611542565b61158e6020830185611403565b61159b6040830184611542565b949350505050565b60008083601f8401126115b9576115b8611088565b5b8235905067ffffffffffffffff8111156115d6576115d561108d565b5b6020830191508360208202830111156115f2576115f1611092565b5b9250929050565b60008060008060008060008060a0898b03121561161957611618610f2f565b5b60006116278b828c0161103d565b98505060206116388b828c0161103d565b975050604089013567ffffffffffffffff81111561165957611658610f34565b5b6116658b828c016115a3565b9650965050606089013567ffffffffffffffff81111561168857611687610f34565b5b6116948b828c016115a3565b9450945050608089013567ffffffffffffffff8111156116b7576116b6610f34565b5b6116c38b828c01611097565b92509250509295985092959890939650565b60006116e082610ff4565b9050919050565b6116f0816116d5565b81146116fb57600080fd5b50565b60008135905061170d816116e7565b92915050565b6000806040838503121561172a57611729610f2f565b5b6000611738858286016116fe565b925050602061174985828601611073565b9150509250929050565b60008060008060008060a087890312156117705761176f610f2f565b5b600061177e89828a0161103d565b965050602061178f89828a0161103d565b95505060406117a089828a01611073565b94505060606117b189828a01611073565b935050608087013567ffffffffffffffff8111156117d2576117d1610f34565b5b6117de89828a01611097565b92509250509295509295509295565b600082825260208201905092915050565b7f4e6f7420746f6b656e206f776e65720000000000000000000000000000000000600082015250565b6000611834600f836117ed565b915061183f826117fe565b602082019050919050565b6000602082019050818103600083015261186381611827565b9050919050565b7f496e76616c696420746172676574206164647265737300000000000000000000600082015250565b60006118a06016836117ed565b91506118ab8261186a565b602082019050919050565b600060208201905081810360008301526118cf81611893565b9050919050565b6000815190506118e58161105c565b92915050565b60006020828403121561190157611900610f2f565b5b600061190f848285016118d6565b91505092915050565b7f496e73756666696369656e742066756e64730000000000000000000000000000600082015250565b600061194e6012836117ed565b915061195982611918565b602082019050919050565b6000602082019050818103600083015261197d81611941565b9050919050565b7f4e487b7100000000000000000000000000000000000000000000000000000000600052601160045260246000fd5b60006119be82611052565b91507fffffffffffffffffffffffffffffffffffffffffffffffffffffffffffffffff82036119f0576119ef611984565b5b600182019050919050565b6000604082019050611a106000830185611403565b611a1d6020830184611542565b9392505050565b611a2d81610fbe565b8114611a3857600080fd5b50565b600081519050611a4a81611a24565b92915050565b600060208284031215611a6657611a65610f2f565b5b6000611a7484828501611a3b565b91505092915050565b600081519050611a8c81611026565b92915050565b600080600060608486031215611aab57611aaa610f2f565b5b6000611ab9868287016118d6565b9350506020611aca86828701611a7d565b9250506040611adb868287016118d6565b9150509250925092565b600060208284031215611afb57611afa610f2f565b5b6000611b0984828501611a7d565b91505092915050565b6000611b1d82611052565b9150611b2883611052565b9250828203905081811115611b4057611b3f611984565b5b92915050565b600081905092915050565b6000611b5d8385611b46565b9350611b6a838584611297565b82840190509392505050565b6000611b83828486611b51565b91508190509392505050565b600081519050611b9e816116e7565b92915050565b600080600060608486031215611bbd57611bbc610f2f565b5b6000611bcb868287016118d6565b9350506020611bdc86828701611b8f565b9250506040611bed868287016118d6565b9150509250925092565b7f4e487b7100000000000000000000000000000000000000000000000000000000600052602160045260246000fd5b6000606082019050611c3b6000830186611542565b611c486020830185611542565b611c556040830184611542565b949350505050565b611c668161119f565b82525050565b6000604082019050611c816000830185611c5d565b8181036020830152611c9381846114e7565b90509392505050565b6000611ca7826114a1565b611cb18185611b46565b9350611cc18185602086016114bd565b80840191505092915050565b6000611cd98284611c9c565b915081905092915050565b600081519050611cf3816111a9565b92915050565b600060208284031215611d0f57611d0e610f2f565b5b6000611d1d84828501611ce4565b91505092915050565b600060ff82169050919050565b611d3c81611d26565b82525050565b6000608082019050611d576000830187611c5d565b611d646020830186611d33565b611d716040830185611c5d565b611d7e6060830184611c5d565b9594505050505056fea264697066735822122005602eae0f087dc72eed6b5d9101f8249c05ceec570f2ba060ae3399520100b364736f6c634300081b0033","opcodes":"PUSH1 0x80 PUSH1 0x40 MSTORE CALLVALUE DUP1 ISZERO PUSH2 0x10 JUMPI PUSH1 0x0 DUP1 REVERT JUMPDEST POP PUSH1 0x1 PUSH1 0x0 DUP2 SWAP1 SSTORE POP PUSH1 0x1 PUSH1 0x2 PUSH1 0x0 PUSH32 0x1FFC9A700000000000000000000000000000000000000000000000000000000 PUSH28 0xFFFFFFFFFFFFFFFFFFFFFFFFFFFFFFFFFFFFFFFFFFFFFFFFFFFFFFFF NOT AND PUSH28 0xFFFFFFFFFFFFFFFFFFFFFFFFFFFFFFFFFFFFFFFFFFFFFFFFFFFFFFFF NOT AND DUP2 MSTORE PUSH1 0x20 ADD SWAP1 DUP2 MSTORE PUSH1 0x20 ADD PUSH1 0x0 KECCAK256 PUSH1 0x0 PUSH2 0x100 EXP DUP2 SLOAD DUP2 PUSH1 0xFF MUL NOT AND SWAP1 DUP4 ISZERO ISZERO MUL OR SWAP1 SSTORE POP PUSH1 0x1 PUSH1 0x2 PUSH1 0x0 PUSH32 0x955A9EC00000000000000000000000000000000000000000000000000000000 PUSH28 0xFFFFFFFFFFFFFFFFFFFFFFFFFFFFFFFFFFFFFFFFFFFFFFFFFFFFFFFF NOT AND PUSH28 0xFFFFFFFFFFFFFFFFFFFFFFFFFFFFFFFFFFFFFFFFFFFFFFFFFFFFFFFF NOT AND DUP2 MSTORE PUSH1 0x20 ADD SWAP1 DUP2 MSTORE PUSH1 0x20 ADD PUSH1 0x0 KECCAK256 PUSH1 0x0 PUSH2 0x100 EXP DUP2 SLOAD DUP2 PUSH1 0xFF MUL NOT AND SWAP1 DUP4 ISZERO ISZERO MUL OR SWAP1 SSTORE POP PUSH2 0x1DBD DUP1 PUSH2 0x13C PUSH1 0x0 CODECOPY PUSH1 0x0 RETURN INVALID PUSH1 0x80 PUSH1 0x40 MSTORE PUSH1 0x4 CALLDATASIZE LT PUSH2 0xA0 JUMPI PUSH1 0x0 CALLDATALOAD PUSH1 0xE0 SHR DUP1 PUSH4 0x9E5D4C49 GT PUSH2 0x64 JUMPI DUP1 PUSH4 0x9E5D4C49 EQ PUSH2 0x1B7 JUMPI DUP1 PUSH4 0xAFFED0E0 EQ PUSH2 0x1E7 JUMPI DUP1 PUSH4 0xB553FE1E EQ PUSH2 0x212 JUMPI DUP1 PUSH4 0xBC197C81 EQ PUSH2 0x23F JUMPI DUP1 PUSH4 0xD0679D34 EQ PUSH2 0x27C JUMPI DUP1 PUSH4 0xF23A6E61 EQ PUSH2 0x298 JUMPI PUSH2 0xA7 JUMP JUMPDEST DUP1 PUSH4 0x1FFC9A7 EQ PUSH2 0xAC JUMPI DUP1 PUSH4 0x150B7A02 EQ PUSH2 0xE9 JUMPI DUP1 PUSH4 0x1626BA7E EQ PUSH2 0x126 JUMPI DUP1 PUSH4 0x8447305A EQ PUSH2 0x163 JUMPI DUP1 PUSH4 0x8DA5CB5B EQ PUSH2 0x18C JUMPI PUSH2 0xA7 JUMP JUMPDEST CALLDATASIZE PUSH2 0xA7 JUMPI STOP JUMPDEST PUSH1 0x0 DUP1 REVERT JUMPDEST CALLVALUE DUP1 ISZERO PUSH2 0xB8 JUMPI PUSH1 0x0 DUP1 REVERT JUMPDEST POP PUSH2 0xD3 PUSH1 0x4 DUP1 CALLDATASIZE SUB DUP2 ADD SWAP1 PUSH2 0xCE SWAP2 SWAP1 PUSH2 0xF91 JUMP JUMPDEST PUSH2 0x2D5 JUMP JUMPDEST PUSH1 0x40 MLOAD PUSH2 0xE0 SWAP2 SWAP1 PUSH2 0xFD9 JUMP JUMPDEST PUSH1 0x40 MLOAD DUP1 SWAP2 SUB SWAP1 RETURN JUMPDEST CALLVALUE DUP1 ISZERO PUSH2 0xF5 JUMPI PUSH1 0x0 DUP1 REVERT JUMPDEST POP PUSH2 0x110 PUSH1 0x4 DUP1 CALLDATASIZE SUB DUP2 ADD SWAP1 PUSH2 0x10B SWAP2 SWAP1 PUSH2 0x10ED JUMP JUMPDEST PUSH2 0x33D JUMP JUMPDEST PUSH1 0x40 MLOAD PUSH2 0x11D SWAP2 SWAP1 PUSH2 0x1184 JUMP JUMPDEST PUSH1 0x40 MLOAD DUP1 SWAP2 SUB SWAP1 RETURN JUMPDEST CALLVALUE DUP1 ISZERO PUSH2 0x132 JUMPI PUSH1 0x0 DUP1 REVERT JUMPDEST POP PUSH2 0x14D PUSH1 0x4 DUP1 CALLDATASIZE SUB DUP2 ADD SWAP1 PUSH2 0x148 SWAP2 SWAP1 PUSH2 0x1316 JUMP JUMPDEST PUSH2 0x352 JUMP JUMPDEST PUSH1 0x40 MLOAD PUSH2 0x15A SWAP2 SWAP1 PUSH2 0x1184 JUMP JUMPDEST PUSH1 0x40 MLOAD DUP1 SWAP2 SUB SWAP1 RETURN JUMPDEST CALLVALUE DUP1 ISZERO PUSH2 0x16F JUMPI PUSH1 0x0 DUP1 REVERT JUMPDEST POP PUSH2 0x18A PUSH1 0x4 DUP1 CALLDATASIZE SUB DUP2 ADD SWAP1 PUSH2 0x185 SWAP2 SWAP1 PUSH2 0x13B0 JUMP JUMPDEST PUSH2 0x38E JUMP JUMPDEST STOP JUMPDEST CALLVALUE DUP1 ISZERO PUSH2 0x198 JUMPI PUSH1 0x0 DUP1 REVERT JUMPDEST POP PUSH2 0x1A1 PUSH2 0x5E0 JUMP JUMPDEST PUSH1 0x40 MLOAD PUSH2 0x1AE SWAP2 SWAP1 PUSH2 0x1412 JUMP JUMPDEST PUSH1 0x40 MLOAD DUP1 SWAP2 SUB SWAP1 RETURN JUMPDEST PUSH2 0x1D1 PUSH1 0x4 DUP1 CALLDATASIZE SUB DUP2 ADD SWAP1 PUSH2 0x1CC SWAP2 SWAP1 PUSH2 0x142D JUMP JUMPDEST PUSH2 0x6F1 JUMP JUMPDEST PUSH1 0x40 MLOAD PUSH2 0x1DE SWAP2 SWAP1 PUSH2 0x1520 JUMP JUMPDEST PUSH1 0x40 MLOAD DUP1 SWAP2 SUB SWAP1 RETURN JUMPDEST CALLVALUE DUP1 ISZERO PUSH2 0x1F3 JUMPI PUSH1 0x0 DUP1 REVERT JUMPDEST POP PUSH2 0x1FC PUSH2 0x89A JUMP JUMPDEST PUSH1 0x40 MLOAD PUSH2 0x209 SWAP2 SWAP1 PUSH2 0x1551 JUMP JUMPDEST PUSH1 0x40 MLOAD DUP1 SWAP2 SUB SWAP1 RETURN JUMPDEST CALLVALUE DUP1 ISZERO PUSH2 0x21E JUMPI PUSH1 0x0 DUP1 REVERT JUMPDEST POP PUSH2 0x227 PUSH2 0x8A4 JUMP JUMPDEST PUSH1 0x40 MLOAD PUSH2 0x236 SWAP4 SWAP3 SWAP2 SWAP1 PUSH2 0x156C JUMP JUMPDEST PUSH1 0x40 MLOAD DUP1 SWAP2 SUB SWAP1 RETURN JUMPDEST CALLVALUE DUP1 ISZERO PUSH2 0x24B JUMPI PUSH1 0x0 DUP1 REVERT JUMPDEST POP PUSH2 0x266 PUSH1 0x4 DUP1 CALLDATASIZE SUB DUP2 ADD SWAP1 PUSH2 0x261 SWAP2 SWAP1 PUSH2 0x15F9 JUMP JUMPDEST PUSH2 0x8FA JUMP JUMPDEST PUSH1 0x40 MLOAD PUSH2 0x273 SWAP2 SWAP1 PUSH2 0x1184 JUMP JUMPDEST PUSH1 0x40 MLOAD DUP1 SWAP2 SUB SWAP1 RETURN JUMPDEST PUSH2 0x296 PUSH1 0x4 DUP1 CALLDATASIZE SUB DUP2 ADD SWAP1 PUSH2 0x291 SWAP2 SWAP1 PUSH2 0x1713 JUMP JUMPDEST PUSH2 0x912 JUMP JUMPDEST STOP JUMPDEST CALLVALUE DUP1 ISZERO PUSH2 0x2A4 JUMPI PUSH1 0x0 DUP1 REVERT JUMPDEST POP PUSH2 0x2BF PUSH1 0x4 DUP1 CALLDATASIZE SUB DUP2 ADD SWAP1 PUSH2 0x2BA SWAP2 SWAP1 PUSH2 0x1753 JUMP JUMPDEST PUSH2 0xAAC JUMP JUMPDEST PUSH1 0x40 MLOAD PUSH2 0x2CC SWAP2 SWAP1 PUSH2 0x1184 JUMP JUMPDEST PUSH1 0x40 MLOAD DUP1 SWAP2 SUB SWAP1 RETURN JUMPDEST PUSH1 0x0 PUSH1 0x2 PUSH1 0x0 DUP4 PUSH28 0xFFFFFFFFFFFFFFFFFFFFFFFFFFFFFFFFFFFFFFFFFFFFFFFFFFFFFFFF NOT AND PUSH28 0xFFFFFFFFFFFFFFFFFFFFFFFFFFFFFFFFFFFFFFFFFFFFFFFFFFFFFFFF NOT AND DUP2 MSTORE PUSH1 0x20 ADD SWAP1 DUP2 MSTORE PUSH1 0x20 ADD PUSH1 0x0 KECCAK256 PUSH1 0x0 SWAP1 SLOAD SWAP1 PUSH2 0x100 EXP SWAP1 DIV PUSH1 0xFF AND SWAP1 POP SWAP2 SWAP1 POP JUMP JUMPDEST PUSH1 0x0 PUSH4 0x150B7A02 PUSH1 0xE0 SHL SWAP1 POP SWAP6 SWAP5 POP POP POP POP POP JUMP JUMPDEST PUSH1 0x0 DUP1 PUSH2 0x367 PUSH2 0x360 PUSH2 0x5E0 JUMP JUMPDEST DUP6 DUP6 PUSH2 0xAC2 JUMP JUMPDEST SWAP1 POP DUP1 ISZERO PUSH2 0x37F JUMPI PUSH4 0x1626BA7E PUSH1 0xE0 SHL SWAP2 POP POP PUSH2 0x388 JUMP JUMPDEST PUSH1 0x0 PUSH1 0xE0 SHL SWAP2 POP POP JUMPDEST SWAP3 SWAP2 POP POP JUMP JUMPDEST PUSH2 0x396 PUSH2 0xB71 JUMP JUMPDEST PUSH2 0x39E PUSH2 0x5E0 JUMP JUMPDEST PUSH20 0xFFFFFFFFFFFFFFFFFFFFFFFFFFFFFFFFFFFFFFFF AND CALLER PUSH20 0xFFFFFFFFFFFFFFFFFFFFFFFFFFFFFFFFFFFFFFFF AND EQ PUSH2 0x40B JUMPI PUSH1 0x40 MLOAD PUSH32 0x8C379A000000000000000000000000000000000000000000000000000000000 DUP2 MSTORE PUSH1 0x4 ADD PUSH2 0x402 SWAP1 PUSH2 0x184A JUMP JUMPDEST PUSH1 0x40 MLOAD DUP1 SWAP2 SUB SWAP1 REVERT JUMPDEST PUSH1 0x0 PUSH20 0xFFFFFFFFFFFFFFFFFFFFFFFFFFFFFFFFFFFFFFFF AND DUP4 PUSH20 0xFFFFFFFFFFFFFFFFFFFFFFFFFFFFFFFFFFFFFFFF AND SUB PUSH2 0x47A JUMPI PUSH1 0x40 MLOAD PUSH32 0x8C379A000000000000000000000000000000000000000000000000000000000 DUP2 MSTORE PUSH1 0x4 ADD PUSH2 0x471 SWAP1 PUSH2 0x18B6 JUMP JUMPDEST PUSH1 0x40 MLOAD DUP1 SWAP2 SUB SWAP1 REVERT JUMPDEST PUSH1 0x0 DUP2 PUSH20 0xFFFFFFFFFFFFFFFFFFFFFFFFFFFFFFFFFFFFFFFF AND PUSH4 0x70A08231 ADDRESS PUSH1 0x40 MLOAD DUP3 PUSH4 0xFFFFFFFF AND PUSH1 0xE0 SHL DUP2 MSTORE PUSH1 0x4 ADD PUSH2 0x4B5 SWAP2 SWAP1 PUSH2 0x1412 JUMP JUMPDEST PUSH1 0x20 PUSH1 0x40 MLOAD DUP1 DUP4 SUB DUP2 DUP7 GAS STATICCALL ISZERO DUP1 ISZERO PUSH2 0x4D2 JUMPI RETURNDATASIZE PUSH1 0x0 DUP1 RETURNDATACOPY RETURNDATASIZE PUSH1 0x0 REVERT JUMPDEST POP POP POP POP PUSH1 0x40 MLOAD RETURNDATASIZE PUSH1 0x1F NOT PUSH1 0x1F DUP3 ADD AND DUP3 ADD DUP1 PUSH1 0x40 MSTORE POP DUP2 ADD SWAP1 PUSH2 0x4F6 SWAP2 SWAP1 PUSH2 0x18EB JUMP JUMPDEST SWAP1 POP DUP3 DUP2 LT ISZERO PUSH2 0x53B JUMPI PUSH1 0x40 MLOAD PUSH32 0x8C379A000000000000000000000000000000000000000000000000000000000 DUP2 MSTORE PUSH1 0x4 ADD PUSH2 0x532 SWAP1 PUSH2 0x1964 JUMP JUMPDEST PUSH1 0x40 MLOAD DUP1 SWAP2 SUB SWAP1 REVERT JUMPDEST PUSH1 0x1 PUSH1 0x0 DUP2 SLOAD DUP1 SWAP3 SWAP2 SWAP1 PUSH2 0x54E SWAP1 PUSH2 0x19B3 JUMP JUMPDEST SWAP2 SWAP1 POP SSTORE POP DUP2 PUSH20 0xFFFFFFFFFFFFFFFFFFFFFFFFFFFFFFFFFFFFFFFF AND PUSH4 0xA9059CBB DUP6 DUP6 PUSH1 0x40 MLOAD DUP4 PUSH4 0xFFFFFFFF AND PUSH1 0xE0 SHL DUP2 MSTORE PUSH1 0x4 ADD PUSH2 0x58E SWAP3 SWAP2 SWAP1 PUSH2 0x19FB JUMP JUMPDEST PUSH1 0x20 PUSH1 0x40 MLOAD DUP1 DUP4 SUB DUP2 PUSH1 0x0 DUP8 GAS CALL ISZERO DUP1 ISZERO PUSH2 0x5AD JUMPI RETURNDATASIZE PUSH1 0x0 DUP1 RETURNDATACOPY RETURNDATASIZE PUSH1 0x0 REVERT JUMPDEST POP POP POP POP PUSH1 0x40 MLOAD RETURNDATASIZE PUSH1 0x1F NOT PUSH1 0x1F DUP3 ADD AND DUP3 ADD DUP1 PUSH1 0x40 MSTORE POP DUP2 ADD SWAP1 PUSH2 0x5D1 SWAP2 SWAP1 PUSH2 0x1A50 JUMP JUMPDEST POP POP PUSH2 0x5DB PUSH2 0xBB7 JUMP JUMPDEST POP POP POP JUMP JUMPDEST PUSH1 0x0 DUP1 PUSH1 0x0 DUP1 ADDRESS PUSH20 0xFFFFFFFFFFFFFFFFFFFFFFFFFFFFFFFFFFFFFFFF AND PUSH4 0xB553FE1E PUSH1 0x40 MLOAD DUP2 PUSH4 0xFFFFFFFF AND PUSH1 0xE0 SHL DUP2 MSTORE PUSH1 0x4 ADD PUSH1 0x60 PUSH1 0x40 MLOAD DUP1 DUP4 SUB DUP2 DUP7 GAS STATICCALL ISZERO DUP1 ISZERO PUSH2 0x631 JUMPI RETURNDATASIZE PUSH1 0x0 DUP1 RETURNDATACOPY RETURNDATASIZE PUSH1 0x0 REVERT JUMPDEST POP POP POP POP PUSH1 0x40 MLOAD RETURNDATASIZE PUSH1 0x1F NOT PUSH1 0x1F DUP3 ADD AND DUP3 ADD DUP1 PUSH1 0x40 MSTORE POP DUP2 ADD SWAP1 PUSH2 0x655 SWAP2 SWAP1 PUSH2 0x1A92 JUMP JUMPDEST SWAP3 POP SWAP3 POP SWAP3 POP CHAINID DUP4 EQ PUSH2 0x66E JUMPI PUSH1 0x0 SWAP4 POP POP POP POP PUSH2 0x6EE JUMP JUMPDEST DUP2 PUSH20 0xFFFFFFFFFFFFFFFFFFFFFFFFFFFFFFFFFFFFFFFF AND PUSH4 0x6352211E DUP3 PUSH1 0x40 MLOAD DUP3 PUSH4 0xFFFFFFFF AND PUSH1 0xE0 SHL DUP2 MSTORE PUSH1 0x4 ADD PUSH2 0x6A7 SWAP2 SWAP1 PUSH2 0x1551 JUMP JUMPDEST PUSH1 0x20 PUSH1 0x40 MLOAD DUP1 DUP4 SUB DUP2 DUP7 GAS STATICCALL ISZERO DUP1 ISZERO PUSH2 0x6C4 JUMPI RETURNDATASIZE PUSH1 0x0 DUP1 RETURNDATACOPY RETURNDATASIZE PUSH1 0x0 REVERT JUMPDEST POP POP POP POP PUSH1 0x40 MLOAD RETURNDATASIZE PUSH1 0x1F NOT PUSH1 0x1F DUP3 ADD AND DUP3 ADD DUP1 PUSH1 0x40 MSTORE POP DUP2 ADD SWAP1 PUSH2 0x6E8 SWAP2 SWAP1 PUSH2 0x1AE5 JUMP JUMPDEST SWAP4 POP POP POP POP JUMPDEST SWAP1 JUMP JUMPDEST PUSH1 0x60 PUSH2 0x6FB PUSH2 0xB71 JUMP JUMPDEST PUSH2 0x703 PUSH2 0x5E0 JUMP JUMPDEST PUSH20 0xFFFFFFFFFFFFFFFFFFFFFFFFFFFFFFFFFFFFFFFF AND CALLER PUSH20 0xFFFFFFFFFFFFFFFFFFFFFFFFFFFFFFFFFFFFFFFF AND EQ PUSH2 0x770 JUMPI PUSH1 0x40 MLOAD PUSH32 0x8C379A000000000000000000000000000000000000000000000000000000000 DUP2 MSTORE PUSH1 0x4 ADD PUSH2 0x767 SWAP1 PUSH2 0x184A JUMP JUMPDEST PUSH1 0x40 MLOAD DUP1 SWAP2 SUB SWAP1 REVERT JUMPDEST PUSH1 0x0 PUSH20 0xFFFFFFFFFFFFFFFFFFFFFFFFFFFFFFFFFFFFFFFF AND DUP6 PUSH20 0xFFFFFFFFFFFFFFFFFFFFFFFFFFFFFFFFFFFFFFFF AND SUB PUSH2 0x7DF JUMPI PUSH1 0x40 MLOAD PUSH32 0x8C379A000000000000000000000000000000000000000000000000000000000 DUP2 MSTORE PUSH1 0x4 ADD PUSH2 0x7D6 SWAP1 PUSH2 0x18B6 JUMP JUMPDEST PUSH1 0x40 MLOAD DUP1 SWAP2 SUB SWAP1 REVERT JUMPDEST PUSH1 0x1 PUSH1 0x0 DUP2 SLOAD DUP1 SWAP3 SWAP2 SWAP1 PUSH2 0x7F2 SWAP1 PUSH2 0x19B3 JUMP JUMPDEST SWAP2 SWAP1 POP SSTORE POP PUSH1 0x0 DUP6 PUSH20 0xFFFFFFFFFFFFFFFFFFFFFFFFFFFFFFFFFFFFFFFF AND DUP6 PUSH2 0x7D0 GAS PUSH2 0x81F SWAP2 SWAP1 PUSH2 0x1B12 JUMP JUMPDEST SWAP1 DUP7 DUP7 PUSH1 0x40 MLOAD PUSH2 0x830 SWAP3 SWAP2 SWAP1 PUSH2 0x1B76 JUMP JUMPDEST PUSH1 0x0 PUSH1 0x40 MLOAD DUP1 DUP4 SUB DUP2 DUP6 DUP9 DUP9 CALL SWAP4 POP POP POP POP RETURNDATASIZE DUP1 PUSH1 0x0 DUP2 EQ PUSH2 0x86E JUMPI PUSH1 0x40 MLOAD SWAP2 POP PUSH1 0x1F NOT PUSH1 0x3F RETURNDATASIZE ADD AND DUP3 ADD PUSH1 0x40 MSTORE RETURNDATASIZE DUP3 MSTORE RETURNDATASIZE PUSH1 0x0 PUSH1 0x20 DUP5 ADD RETURNDATACOPY PUSH2 0x873 JUMP JUMPDEST PUSH1 0x60 SWAP2 POP JUMPDEST POP DUP1 SWAP4 POP DUP2 SWAP3 POP POP POP DUP1 PUSH2 0x889 JUMPI DUP2 MLOAD PUSH1 0x20 DUP4 ADD REVERT JUMPDEST POP PUSH2 0x892 PUSH2 0xBB7 JUMP JUMPDEST SWAP5 SWAP4 POP POP POP POP JUMP JUMPDEST PUSH1 0x0 PUSH1 0x1 SLOAD SWAP1 POP SWAP1 JUMP JUMPDEST PUSH1 0x0 DUP1 PUSH1 0x0 DUP1 ADDRESS PUSH20 0xFFFFFFFFFFFFFFFFFFFFFFFFFFFFFFFFFFFFFFFF AND EXTCODESIZE SWAP1 POP PUSH2 0x8DB ADDRESS PUSH1 0x60 DUP4 PUSH2 0x8D5 SWAP2 SWAP1 PUSH2 0x1B12 JUMP JUMPDEST DUP4 PUSH2 0xBC1 JUMP JUMPDEST DUP1 PUSH1 0x20 ADD SWAP1 MLOAD DUP2 ADD SWAP1 PUSH2 0x8EE SWAP2 SWAP1 PUSH2 0x1BA4 JUMP JUMPDEST SWAP4 POP SWAP4 POP SWAP4 POP POP SWAP1 SWAP2 SWAP3 JUMP JUMPDEST PUSH1 0x0 PUSH4 0xBC197C81 PUSH1 0xE0 SHL SWAP1 POP SWAP9 SWAP8 POP POP POP POP POP POP POP POP JUMP JUMPDEST PUSH2 0x91A PUSH2 0xB71 JUMP JUMPDEST PUSH2 0x922 PUSH2 0x5E0 JUMP JUMPDEST PUSH20 0xFFFFFFFFFFFFFFFFFFFFFFFFFFFFFFFFFFFFFFFF AND CALLER PUSH20 0xFFFFFFFFFFFFFFFFFFFFFFFFFFFFFFFFFFFFFFFF AND EQ PUSH2 0x98F JUMPI PUSH1 0x40 MLOAD PUSH32 0x8C379A000000000000000000000000000000000000000000000000000000000 DUP2 MSTORE PUSH1 0x4 ADD PUSH2 0x986 SWAP1 PUSH2 0x184A JUMP JUMPDEST PUSH1 0x40 MLOAD DUP1 SWAP2 SUB SWAP1 REVERT JUMPDEST PUSH1 0x0 PUSH20 0xFFFFFFFFFFFFFFFFFFFFFFFFFFFFFFFFFFFFFFFF AND DUP3 PUSH20 0xFFFFFFFFFFFFFFFFFFFFFFFFFFFFFFFFFFFFFFFF AND SUB PUSH2 0x9FE JUMPI PUSH1 0x40 MLOAD PUSH32 0x8C379A000000000000000000000000000000000000000000000000000000000 DUP2 MSTORE PUSH1 0x4 ADD PUSH2 0x9F5 SWAP1 PUSH2 0x18B6 JUMP JUMPDEST PUSH1 0x40 MLOAD DUP1 SWAP2 SUB SWAP1 REVERT JUMPDEST DUP1 SELFBALANCE LT ISZERO PUSH2 0xA41 JUMPI PUSH1 0x40 MLOAD PUSH32 0x8C379A000000000000000000000000000000000000000000000000000000000 DUP2 MSTORE PUSH1 0x4 ADD PUSH2 0xA38 SWAP1 PUSH2 0x1964 JUMP JUMPDEST PUSH1 0x40 MLOAD DUP1 SWAP2 SUB SWAP1 REVERT JUMPDEST PUSH1 0x1 PUSH1 0x0 DUP2 SLOAD DUP1 SWAP3 SWAP2 SWAP1 PUSH2 0xA54 SWAP1 PUSH2 0x19B3 JUMP JUMPDEST SWAP2 SWAP1 POP SSTORE POP DUP2 PUSH20 0xFFFFFFFFFFFFFFFFFFFFFFFFFFFFFFFFFFFFFFFF AND PUSH2 0x8FC DUP3 SWAP1 DUP2 ISZERO MUL SWAP1 PUSH1 0x40 MLOAD PUSH1 0x0 PUSH1 0x40 MLOAD DUP1 DUP4 SUB DUP2 DUP6 DUP9 DUP9 CALL SWAP4 POP POP POP POP ISZERO DUP1 ISZERO PUSH2 0xA9F JUMPI RETURNDATASIZE PUSH1 0x0 DUP1 RETURNDATACOPY RETURNDATASIZE PUSH1 0x0 REVERT JUMPDEST POP PUSH2 0xAA8 PUSH2 0xBB7 JUMP JUMPDEST POP POP JUMP JUMPDEST PUSH1 0x0 PUSH4 0xF23A6E61 PUSH1 0xE0 SHL SWAP1 POP SWAP7 SWAP6 POP POP POP POP POP POP JUMP JUMPDEST PUSH1 0x0 DUP1 DUP5 PUSH20 0xFFFFFFFFFFFFFFFFFFFFFFFFFFFFFFFFFFFFFFFF AND EXTCODESIZE SUB PUSH2 0xB5C JUMPI PUSH1 0x0 DUP1 PUSH2 0xAEF DUP6 DUP6 PUSH2 0xCA6 JUMP JUMPDEST POP SWAP2 POP SWAP2 POP PUSH1 0x0 PUSH1 0x3 DUP2 GT ISZERO PUSH2 0xB08 JUMPI PUSH2 0xB07 PUSH2 0x1BF7 JUMP JUMPDEST JUMPDEST DUP2 PUSH1 0x3 DUP2 GT ISZERO PUSH2 0xB1B JUMPI PUSH2 0xB1A PUSH2 0x1BF7 JUMP JUMPDEST JUMPDEST EQ DUP1 ISZERO PUSH2 0xB53 JUMPI POP DUP6 PUSH20 0xFFFFFFFFFFFFFFFFFFFFFFFFFFFFFFFFFFFFFFFF AND DUP3 PUSH20 0xFFFFFFFFFFFFFFFFFFFFFFFFFFFFFFFFFFFFFFFF AND EQ JUMPDEST SWAP3 POP POP POP PUSH2 0xB6A JUMP JUMPDEST PUSH2 0xB67 DUP5 DUP5 DUP5 PUSH2 0xD02 JUMP JUMPDEST SWAP1 POP JUMPDEST SWAP4 SWAP3 POP POP POP JUMP JUMPDEST PUSH1 0x2 PUSH1 0x0 SLOAD SUB PUSH2 0xBAD JUMPI PUSH1 0x40 MLOAD PUSH32 0x3EE5AEB500000000000000000000000000000000000000000000000000000000 DUP2 MSTORE PUSH1 0x4 ADD PUSH1 0x40 MLOAD DUP1 SWAP2 SUB SWAP1 REVERT JUMPDEST PUSH1 0x2 PUSH1 0x0 DUP2 SWAP1 SSTORE POP JUMP JUMPDEST PUSH1 0x1 PUSH1 0x0 DUP2 SWAP1 SSTORE POP JUMP JUMPDEST PUSH1 0x60 PUSH1 0x0 PUSH2 0xBCE DUP6 PUSH2 0xE26 JUMP JUMPDEST SWAP1 POP PUSH1 0x0 DUP2 SUB PUSH2 0xBF0 JUMPI PUSH1 0x40 MLOAD DUP1 PUSH1 0x20 ADD PUSH1 0x40 MSTORE DUP1 PUSH1 0x0 DUP2 MSTORE POP SWAP2 POP POP PUSH2 0xC9F JUMP JUMPDEST DUP1 DUP5 GT ISZERO PUSH2 0xC10 JUMPI PUSH1 0x40 MLOAD DUP1 PUSH1 0x20 ADD PUSH1 0x40 MSTORE DUP1 PUSH1 0x0 DUP2 MSTORE POP SWAP2 POP POP PUSH2 0xC9F JUMP JUMPDEST DUP4 DUP4 LT ISZERO PUSH2 0xC59 JUMPI DUP1 DUP5 DUP5 PUSH1 0x40 MLOAD PUSH32 0x2C4A89FA00000000000000000000000000000000000000000000000000000000 DUP2 MSTORE PUSH1 0x4 ADD PUSH2 0xC50 SWAP4 SWAP3 SWAP2 SWAP1 PUSH2 0x1C26 JUMP JUMPDEST PUSH1 0x40 MLOAD DUP1 SWAP2 SUB SWAP1 REVERT JUMPDEST PUSH1 0x0 DUP5 DUP5 SUB SWAP1 POP PUSH1 0x0 DUP6 DUP4 SUB SWAP1 POP PUSH1 0x0 DUP3 DUP3 LT PUSH2 0xC76 JUMPI DUP3 PUSH2 0xC78 JUMP JUMPDEST DUP2 JUMPDEST SWAP1 POP PUSH1 0x40 MLOAD SWAP5 POP PUSH1 0x1F NOT PUSH1 0x1F PUSH1 0x20 DUP4 ADD ADD AND DUP6 ADD PUSH1 0x40 MSTORE DUP1 DUP6 MSTORE DUP1 DUP8 PUSH1 0x20 DUP8 ADD DUP11 EXTCODECOPY POP POP POP POP JUMPDEST SWAP4 SWAP3 POP POP POP JUMP JUMPDEST PUSH1 0x0 DUP1 PUSH1 0x0 PUSH1 0x41 DUP5 MLOAD SUB PUSH2 0xCEB JUMPI PUSH1 0x0 DUP1 PUSH1 0x0 PUSH1 0x20 DUP8 ADD MLOAD SWAP3 POP PUSH1 0x40 DUP8 ADD MLOAD SWAP2 POP PUSH1 0x60 DUP8 ADD MLOAD PUSH1 0x0 BYTE SWAP1 POP PUSH2 0xCDD DUP9 DUP3 DUP6 DUP6 PUSH2 0xE31 JUMP JUMPDEST SWAP6 POP SWAP6 POP SWAP6 POP POP POP POP PUSH2 0xCFB JUMP JUMPDEST PUSH1 0x0 PUSH1 0x2 DUP6 MLOAD PUSH1 0x0 SHL SWAP3 POP SWAP3 POP SWAP3 POP JUMPDEST SWAP3 POP SWAP3 POP SWAP3 JUMP JUMPDEST PUSH1 0x0 DUP1 PUSH1 0x0 DUP6 PUSH20 0xFFFFFFFFFFFFFFFFFFFFFFFFFFFFFFFFFFFFFFFF AND DUP6 DUP6 PUSH1 0x40 MLOAD PUSH1 0x24 ADD PUSH2 0xD31 SWAP3 SWAP2 SWAP1 PUSH2 0x1C6C JUMP JUMPDEST PUSH1 0x40 MLOAD PUSH1 0x20 DUP2 DUP4 SUB SUB DUP2 MSTORE SWAP1 PUSH1 0x40 MSTORE PUSH4 0x1626BA7E PUSH1 0xE0 SHL PUSH1 0x20 DUP3 ADD DUP1 MLOAD PUSH28 0xFFFFFFFFFFFFFFFFFFFFFFFFFFFFFFFFFFFFFFFFFFFFFFFFFFFFFFFF DUP4 DUP2 DUP4 AND OR DUP4 MSTORE POP POP POP POP PUSH1 0x40 MLOAD PUSH2 0xD83 SWAP2 SWAP1 PUSH2 0x1CCD JUMP JUMPDEST PUSH1 0x0 PUSH1 0x40 MLOAD DUP1 DUP4 SUB DUP2 DUP6 GAS STATICCALL SWAP2 POP POP RETURNDATASIZE DUP1 PUSH1 0x0 DUP2 EQ PUSH2 0xDBE JUMPI PUSH1 0x40 MLOAD SWAP2 POP PUSH1 0x1F NOT PUSH1 0x3F RETURNDATASIZE ADD AND DUP3 ADD PUSH1 0x40 MSTORE RETURNDATASIZE DUP3 MSTORE RETURNDATASIZE PUSH1 0x0 PUSH1 0x20 DUP5 ADD RETURNDATACOPY PUSH2 0xDC3 JUMP JUMPDEST PUSH1 0x60 SWAP2 POP JUMPDEST POP SWAP2 POP SWAP2 POP DUP2 DUP1 ISZERO PUSH2 0xDD7 JUMPI POP PUSH1 0x20 DUP2 MLOAD LT ISZERO JUMPDEST DUP1 ISZERO PUSH2 0xE1B JUMPI POP PUSH4 0x1626BA7E PUSH1 0xE0 SHL PUSH28 0xFFFFFFFFFFFFFFFFFFFFFFFFFFFFFFFFFFFFFFFFFFFFFFFFFFFFFFFF NOT AND DUP2 DUP1 PUSH1 0x20 ADD SWAP1 MLOAD DUP2 ADD SWAP1 PUSH2 0xE19 SWAP2 SWAP1 PUSH2 0x1CF9 JUMP JUMPDEST EQ JUMPDEST SWAP3 POP POP POP SWAP4 SWAP3 POP POP POP JUMP JUMPDEST PUSH1 0x0 DUP2 EXTCODESIZE SWAP1 POP SWAP2 SWAP1 POP JUMP JUMPDEST PUSH1 0x0 DUP1 PUSH1 0x0 PUSH32 0x7FFFFFFFFFFFFFFFFFFFFFFFFFFFFFFF5D576E7357A4501DDFE92F46681B20A0 DUP5 PUSH1 0x0 SHR GT ISZERO PUSH2 0xE71 JUMPI PUSH1 0x0 PUSH1 0x3 DUP6 SWAP3 POP SWAP3 POP SWAP3 POP PUSH2 0xF1B JUMP JUMPDEST PUSH1 0x0 PUSH1 0x1 DUP9 DUP9 DUP9 DUP9 PUSH1 0x40 MLOAD PUSH1 0x0 DUP2 MSTORE PUSH1 0x20 ADD PUSH1 0x40 MSTORE PUSH1 0x40 MLOAD PUSH2 0xE96 SWAP5 SWAP4 SWAP3 SWAP2 SWAP1 PUSH2 0x1D42 JUMP JUMPDEST PUSH1 0x20 PUSH1 0x40 MLOAD PUSH1 0x20 DUP2 SUB SWAP1 DUP1 DUP5 SUB SWAP1 DUP6 GAS STATICCALL ISZERO DUP1 ISZERO PUSH2 0xEB8 JUMPI RETURNDATASIZE PUSH1 0x0 DUP1 RETURNDATACOPY RETURNDATASIZE PUSH1 0x0 REVERT JUMPDEST POP POP POP PUSH1 0x20 PUSH1 0x40 MLOAD SUB MLOAD SWAP1 POP PUSH1 0x0 PUSH20 0xFFFFFFFFFFFFFFFFFFFFFFFFFFFFFFFFFFFFFFFF AND DUP2 PUSH20 0xFFFFFFFFFFFFFFFFFFFFFFFFFFFFFFFFFFFFFFFF AND SUB PUSH2 0xF0C JUMPI PUSH1 0x0 PUSH1 0x1 PUSH1 0x0 DUP1 SHL SWAP4 POP SWAP4 POP SWAP4 POP POP PUSH2 0xF1B JUMP JUMPDEST DUP1 PUSH1 0x0 DUP1 PUSH1 0x0 SHL SWAP4 POP SWAP4 POP SWAP4 POP POP JUMPDEST SWAP5 POP SWAP5 POP SWAP5 SWAP2 POP POP JUMP JUMPDEST PUSH1 0x0 PUSH1 0x40 MLOAD SWAP1 POP SWAP1 JUMP JUMPDEST PUSH1 0x0 DUP1 REVERT JUMPDEST PUSH1 0x0 DUP1 REVERT JUMPDEST PUSH1 0x0 PUSH32 0xFFFFFFFF00000000000000000000000000000000000000000000000000000000 DUP3 AND SWAP1 POP SWAP2 SWAP1 POP JUMP JUMPDEST PUSH2 0xF6E DUP2 PUSH2 0xF39 JUMP JUMPDEST DUP2 EQ PUSH2 0xF79 JUMPI PUSH1 0x0 DUP1 REVERT JUMPDEST POP JUMP JUMPDEST PUSH1 0x0 DUP2 CALLDATALOAD SWAP1 POP PUSH2 0xF8B DUP2 PUSH2 0xF65 JUMP JUMPDEST SWAP3 SWAP2 POP POP JUMP JUMPDEST PUSH1 0x0 PUSH1 0x20 DUP3 DUP5 SUB SLT ISZERO PUSH2 0xFA7 JUMPI PUSH2 0xFA6 PUSH2 0xF2F JUMP JUMPDEST JUMPDEST PUSH1 0x0 PUSH2 0xFB5 DUP5 DUP3 DUP6 ADD PUSH2 0xF7C JUMP JUMPDEST SWAP2 POP POP SWAP3 SWAP2 POP POP JUMP JUMPDEST PUSH1 0x0 DUP2 ISZERO ISZERO SWAP1 POP SWAP2 SWAP1 POP JUMP JUMPDEST PUSH2 0xFD3 DUP2 PUSH2 0xFBE JUMP JUMPDEST DUP3 MSTORE POP POP JUMP JUMPDEST PUSH1 0x0 PUSH1 0x20 DUP3 ADD SWAP1 POP PUSH2 0xFEE PUSH1 0x0 DUP4 ADD DUP5 PUSH2 0xFCA JUMP JUMPDEST SWAP3 SWAP2 POP POP JUMP JUMPDEST PUSH1 0x0 PUSH20 0xFFFFFFFFFFFFFFFFFFFFFFFFFFFFFFFFFFFFFFFF DUP3 AND SWAP1 POP SWAP2 SWAP1 POP JUMP JUMPDEST PUSH1 0x0 PUSH2 0x101F DUP3 PUSH2 0xFF4 JUMP JUMPDEST SWAP1 POP SWAP2 SWAP1 POP JUMP JUMPDEST PUSH2 0x102F DUP2 PUSH2 0x1014 JUMP JUMPDEST DUP2 EQ PUSH2 0x103A JUMPI PUSH1 0x0 DUP1 REVERT JUMPDEST POP JUMP JUMPDEST PUSH1 0x0 DUP2 CALLDATALOAD SWAP1 POP PUSH2 0x104C DUP2 PUSH2 0x1026 JUMP JUMPDEST SWAP3 SWAP2 POP POP JUMP JUMPDEST PUSH1 0x0 DUP2 SWAP1 POP SWAP2 SWAP1 POP JUMP JUMPDEST PUSH2 0x1065 DUP2 PUSH2 0x1052 JUMP JUMPDEST DUP2 EQ PUSH2 0x1070 JUMPI PUSH1 0x0 DUP1 REVERT JUMPDEST POP JUMP JUMPDEST PUSH1 0x0 DUP2 CALLDATALOAD SWAP1 POP PUSH2 0x1082 DUP2 PUSH2 0x105C JUMP JUMPDEST SWAP3 SWAP2 POP POP JUMP JUMPDEST PUSH1 0x0 DUP1 REVERT JUMPDEST PUSH1 0x0 DUP1 REVERT JUMPDEST PUSH1 0x0 DUP1 REVERT JUMPDEST PUSH1 0x0 DUP1 DUP4 PUSH1 0x1F DUP5 ADD SLT PUSH2 0x10AD JUMPI PUSH2 0x10AC PUSH2 0x1088 JUMP JUMPDEST JUMPDEST DUP3 CALLDATALOAD SWAP1 POP PUSH8 0xFFFFFFFFFFFFFFFF DUP2 GT ISZERO PUSH2 0x10CA JUMPI PUSH2 0x10C9 PUSH2 0x108D JUMP JUMPDEST JUMPDEST PUSH1 0x20 DUP4 ADD SWAP2 POP DUP4 PUSH1 0x1 DUP3 MUL DUP4 ADD GT ISZERO PUSH2 0x10E6 JUMPI PUSH2 0x10E5 PUSH2 0x1092 JUMP JUMPDEST JUMPDEST SWAP3 POP SWAP3 SWAP1 POP JUMP JUMPDEST PUSH1 0x0 DUP1 PUSH1 0x0 DUP1 PUSH1 0x0 PUSH1 0x80 DUP7 DUP9 SUB SLT ISZERO PUSH2 0x1109 JUMPI PUSH2 0x1108 PUSH2 0xF2F JUMP JUMPDEST JUMPDEST PUSH1 0x0 PUSH2 0x1117 DUP9 DUP3 DUP10 ADD PUSH2 0x103D JUMP JUMPDEST SWAP6 POP POP PUSH1 0x20 PUSH2 0x1128 DUP9 DUP3 DUP10 ADD PUSH2 0x103D JUMP JUMPDEST SWAP5 POP POP PUSH1 0x40 PUSH2 0x1139 DUP9 DUP3 DUP10 ADD PUSH2 0x1073 JUMP JUMPDEST SWAP4 POP POP PUSH1 0x60 DUP7 ADD CALLDATALOAD PUSH8 0xFFFFFFFFFFFFFFFF DUP2 GT ISZERO PUSH2 0x115A JUMPI PUSH2 0x1159 PUSH2 0xF34 JUMP JUMPDEST JUMPDEST PUSH2 0x1166 DUP9 DUP3 DUP10 ADD PUSH2 0x1097 JUMP JUMPDEST SWAP3 POP SWAP3 POP POP SWAP3 SWAP6 POP SWAP3 SWAP6 SWAP1 SWAP4 POP JUMP JUMPDEST PUSH2 0x117E DUP2 PUSH2 0xF39 JUMP JUMPDEST DUP3 MSTORE POP POP JUMP JUMPDEST PUSH1 0x0 PUSH1 0x20 DUP3 ADD SWAP1 POP PUSH2 0x1199 PUSH1 0x0 DUP4 ADD DUP5 PUSH2 0x1175 JUMP JUMPDEST SWAP3 SWAP2 POP POP JUMP JUMPDEST PUSH1 0x0 DUP2 SWAP1 POP SWAP2 SWAP1 POP JUMP JUMPDEST PUSH2 0x11B2 DUP2 PUSH2 0x119F JUMP JUMPDEST DUP2 EQ PUSH2 0x11BD JUMPI PUSH1 0x0 DUP1 REVERT JUMPDEST POP JUMP JUMPDEST PUSH1 0x0 DUP2 CALLDATALOAD SWAP1 POP PUSH2 0x11CF DUP2 PUSH2 0x11A9 JUMP JUMPDEST SWAP3 SWAP2 POP POP JUMP JUMPDEST PUSH1 0x0 DUP1 REVERT JUMPDEST PUSH1 0x0 PUSH1 0x1F NOT PUSH1 0x1F DUP4 ADD AND SWAP1 POP SWAP2 SWAP1 POP JUMP JUMPDEST PUSH32 0x4E487B7100000000000000000000000000000000000000000000000000000000 PUSH1 0x0 MSTORE PUSH1 0x41 PUSH1 0x4 MSTORE PUSH1 0x24 PUSH1 0x0 REVERT JUMPDEST PUSH2 0x1223 DUP3 PUSH2 0x11DA JUMP JUMPDEST DUP2 ADD DUP2 DUP2 LT PUSH8 0xFFFFFFFFFFFFFFFF DUP3 GT OR ISZERO PUSH2 0x1242 JUMPI PUSH2 0x1241 PUSH2 0x11EB JUMP JUMPDEST JUMPDEST DUP1 PUSH1 0x40 MSTORE POP POP POP JUMP JUMPDEST PUSH1 0x0 PUSH2 0x1255 PUSH2 0xF25 JUMP JUMPDEST SWAP1 POP PUSH2 0x1261 DUP3 DUP3 PUSH2 0x121A JUMP JUMPDEST SWAP2 SWAP1 POP JUMP JUMPDEST PUSH1 0x0 PUSH8 0xFFFFFFFFFFFFFFFF DUP3 GT ISZERO PUSH2 0x1281 JUMPI PUSH2 0x1280 PUSH2 0x11EB JUMP JUMPDEST JUMPDEST PUSH2 0x128A DUP3 PUSH2 0x11DA JUMP JUMPDEST SWAP1 POP PUSH1 0x20 DUP2 ADD SWAP1 POP SWAP2 SWAP1 POP JUMP JUMPDEST DUP3 DUP2 DUP4 CALLDATACOPY PUSH1 0x0 DUP4 DUP4 ADD MSTORE POP POP POP JUMP JUMPDEST PUSH1 0x0 PUSH2 0x12B9 PUSH2 0x12B4 DUP5 PUSH2 0x1266 JUMP JUMPDEST PUSH2 0x124B JUMP JUMPDEST SWAP1 POP DUP3 DUP2 MSTORE PUSH1 0x20 DUP2 ADD DUP5 DUP5 DUP5 ADD GT ISZERO PUSH2 0x12D5 JUMPI PUSH2 0x12D4 PUSH2 0x11D5 JUMP JUMPDEST JUMPDEST PUSH2 0x12E0 DUP5 DUP3 DUP6 PUSH2 0x1297 JUMP JUMPDEST POP SWAP4 SWAP3 POP POP POP JUMP JUMPDEST PUSH1 0x0 DUP3 PUSH1 0x1F DUP4 ADD SLT PUSH2 0x12FD JUMPI PUSH2 0x12FC PUSH2 0x1088 JUMP JUMPDEST JUMPDEST DUP2 CALLDATALOAD PUSH2 0x130D DUP5 DUP3 PUSH1 0x20 DUP7 ADD PUSH2 0x12A6 JUMP JUMPDEST SWAP2 POP POP SWAP3 SWAP2 POP POP JUMP JUMPDEST PUSH1 0x0 DUP1 PUSH1 0x40 DUP4 DUP6 SUB SLT ISZERO PUSH2 0x132D JUMPI PUSH2 0x132C PUSH2 0xF2F JUMP JUMPDEST JUMPDEST PUSH1 0x0 PUSH2 0x133B DUP6 DUP3 DUP7 ADD PUSH2 0x11C0 JUMP JUMPDEST SWAP3 POP POP PUSH1 0x20 DUP4 ADD CALLDATALOAD PUSH8 0xFFFFFFFFFFFFFFFF DUP2 GT ISZERO PUSH2 0x135C JUMPI PUSH2 0x135B PUSH2 0xF34 JUMP JUMPDEST JUMPDEST PUSH2 0x1368 DUP6 DUP3 DUP7 ADD PUSH2 0x12E8 JUMP JUMPDEST SWAP2 POP POP SWAP3 POP SWAP3 SWAP1 POP JUMP JUMPDEST PUSH1 0x0 PUSH2 0x137D DUP3 PUSH2 0x1014 JUMP JUMPDEST SWAP1 POP SWAP2 SWAP1 POP JUMP JUMPDEST PUSH2 0x138D DUP2 PUSH2 0x1372 JUMP JUMPDEST DUP2 EQ PUSH2 0x1398 JUMPI PUSH1 0x0 DUP1 REVERT JUMPDEST POP JUMP JUMPDEST PUSH1 0x0 DUP2 CALLDATALOAD SWAP1 POP PUSH2 0x13AA DUP2 PUSH2 0x1384 JUMP JUMPDEST SWAP3 SWAP2 POP POP JUMP JUMPDEST PUSH1 0x0 DUP1 PUSH1 0x0 PUSH1 0x60 DUP5 DUP7 SUB SLT ISZERO PUSH2 0x13C9 JUMPI PUSH2 0x13C8 PUSH2 0xF2F JUMP JUMPDEST JUMPDEST PUSH1 0x0 PUSH2 0x13D7 DUP7 DUP3 DUP8 ADD PUSH2 0x103D JUMP JUMPDEST SWAP4 POP POP PUSH1 0x20 PUSH2 0x13E8 DUP7 DUP3 DUP8 ADD PUSH2 0x1073 JUMP JUMPDEST SWAP3 POP POP PUSH1 0x40 PUSH2 0x13F9 DUP7 DUP3 DUP8 ADD PUSH2 0x139B JUMP JUMPDEST SWAP2 POP POP SWAP3 POP SWAP3 POP SWAP3 JUMP JUMPDEST PUSH2 0x140C DUP2 PUSH2 0x1014 JUMP JUMPDEST DUP3 MSTORE POP POP JUMP JUMPDEST PUSH1 0x0 PUSH1 0x20 DUP3 ADD SWAP1 POP PUSH2 0x1427 PUSH1 0x0 DUP4 ADD DUP5 PUSH2 0x1403 JUMP JUMPDEST SWAP3 SWAP2 POP POP JUMP JUMPDEST PUSH1 0x0 DUP1 PUSH1 0x0 DUP1 PUSH1 0x60 DUP6 DUP8 SUB SLT ISZERO PUSH2 0x1447 JUMPI PUSH2 0x1446 PUSH2 0xF2F JUMP JUMPDEST JUMPDEST PUSH1 0x0 PUSH2 0x1455 DUP8 DUP3 DUP9 ADD PUSH2 0x103D JUMP JUMPDEST SWAP5 POP POP PUSH1 0x20 PUSH2 0x1466 DUP8 DUP3 DUP9 ADD PUSH2 0x1073 JUMP JUMPDEST SWAP4 POP POP PUSH1 0x40 DUP6 ADD CALLDATALOAD PUSH8 0xFFFFFFFFFFFFFFFF DUP2 GT ISZERO PUSH2 0x1487 JUMPI PUSH2 0x1486 PUSH2 0xF34 JUMP JUMPDEST JUMPDEST PUSH2 0x1493 DUP8 DUP3 DUP9 ADD PUSH2 0x1097 JUMP JUMPDEST SWAP3 POP SWAP3 POP POP SWAP3 SWAP6 SWAP2 SWAP5 POP SWAP3 POP JUMP JUMPDEST PUSH1 0x0 DUP2 MLOAD SWAP1 POP SWAP2 SWAP1 POP JUMP JUMPDEST PUSH1 0x0 DUP3 DUP3 MSTORE PUSH1 0x20 DUP3 ADD SWAP1 POP SWAP3 SWAP2 POP POP JUMP JUMPDEST PUSH1 0x0 JUMPDEST DUP4 DUP2 LT ISZERO PUSH2 0x14DB JUMPI DUP1 DUP3 ADD MLOAD DUP2 DUP5 ADD MSTORE PUSH1 0x20 DUP2 ADD SWAP1 POP PUSH2 0x14C0 JUMP JUMPDEST PUSH1 0x0 DUP5 DUP5 ADD MSTORE POP POP POP POP JUMP JUMPDEST PUSH1 0x0 PUSH2 0x14F2 DUP3 PUSH2 0x14A1 JUMP JUMPDEST PUSH2 0x14FC DUP2 DUP6 PUSH2 0x14AC JUMP JUMPDEST SWAP4 POP PUSH2 0x150C DUP2 DUP6 PUSH1 0x20 DUP7 ADD PUSH2 0x14BD JUMP JUMPDEST PUSH2 0x1515 DUP2 PUSH2 0x11DA JUMP JUMPDEST DUP5 ADD SWAP2 POP POP SWAP3 SWAP2 POP POP JUMP JUMPDEST PUSH1 0x0 PUSH1 0x20 DUP3 ADD SWAP1 POP DUP2 DUP2 SUB PUSH1 0x0 DUP4 ADD MSTORE PUSH2 0x153A DUP2 DUP5 PUSH2 0x14E7 JUMP JUMPDEST SWAP1 POP SWAP3 SWAP2 POP POP JUMP JUMPDEST PUSH2 0x154B DUP2 PUSH2 0x1052 JUMP JUMPDEST DUP3 MSTORE POP POP JUMP JUMPDEST PUSH1 0x0 PUSH1 0x20 DUP3 ADD SWAP1 POP PUSH2 0x1566 PUSH1 0x0 DUP4 ADD DUP5 PUSH2 0x1542 JUMP JUMPDEST SWAP3 SWAP2 POP POP JUMP JUMPDEST PUSH1 0x0 PUSH1 0x60 DUP3 ADD SWAP1 POP PUSH2 0x1581 PUSH1 0x0 DUP4 ADD DUP7 PUSH2 0x1542 JUMP JUMPDEST PUSH2 0x158E PUSH1 0x20 DUP4 ADD DUP6 PUSH2 0x1403 JUMP JUMPDEST PUSH2 0x159B PUSH1 0x40 DUP4 ADD DUP5 PUSH2 0x1542 JUMP JUMPDEST SWAP5 SWAP4 POP POP POP POP JUMP JUMPDEST PUSH1 0x0 DUP1 DUP4 PUSH1 0x1F DUP5 ADD SLT PUSH2 0x15B9 JUMPI PUSH2 0x15B8 PUSH2 0x1088 JUMP JUMPDEST JUMPDEST DUP3 CALLDATALOAD SWAP1 POP PUSH8 0xFFFFFFFFFFFFFFFF DUP2 GT ISZERO PUSH2 0x15D6 JUMPI PUSH2 0x15D5 PUSH2 0x108D JUMP JUMPDEST JUMPDEST PUSH1 0x20 DUP4 ADD SWAP2 POP DUP4 PUSH1 0x20 DUP3 MUL DUP4 ADD GT ISZERO PUSH2 0x15F2 JUMPI PUSH2 0x15F1 PUSH2 0x1092 JUMP JUMPDEST JUMPDEST SWAP3 POP SWAP3 SWAP1 POP JUMP JUMPDEST PUSH1 0x0 DUP1 PUSH1 0x0 DUP1 PUSH1 0x0 DUP1 PUSH1 0x0 DUP1 PUSH1 0xA0 DUP10 DUP12 SUB SLT ISZERO PUSH2 0x1619 JUMPI PUSH2 0x1618 PUSH2 0xF2F JUMP JUMPDEST JUMPDEST PUSH1 0x0 PUSH2 0x1627 DUP12 DUP3 DUP13 ADD PUSH2 0x103D JUMP JUMPDEST SWAP9 POP POP PUSH1 0x20 PUSH2 0x1638 DUP12 DUP3 DUP13 ADD PUSH2 0x103D JUMP JUMPDEST SWAP8 POP POP PUSH1 0x40 DUP10 ADD CALLDATALOAD PUSH8 0xFFFFFFFFFFFFFFFF DUP2 GT ISZERO PUSH2 0x1659 JUMPI PUSH2 0x1658 PUSH2 0xF34 JUMP JUMPDEST JUMPDEST PUSH2 0x1665 DUP12 DUP3 DUP13 ADD PUSH2 0x15A3 JUMP JUMPDEST SWAP7 POP SWAP7 POP POP PUSH1 0x60 DUP10 ADD CALLDATALOAD PUSH8 0xFFFFFFFFFFFFFFFF DUP2 GT ISZERO PUSH2 0x1688 JUMPI PUSH2 0x1687 PUSH2 0xF34 JUMP JUMPDEST JUMPDEST PUSH2 0x1694 DUP12 DUP3 DUP13 ADD PUSH2 0x15A3 JUMP JUMPDEST SWAP5 POP SWAP5 POP POP PUSH1 0x80 DUP10 ADD CALLDATALOAD PUSH8 0xFFFFFFFFFFFFFFFF DUP2 GT ISZERO PUSH2 0x16B7 JUMPI PUSH2 0x16B6 PUSH2 0xF34 JUMP JUMPDEST JUMPDEST PUSH2 0x16C3 DUP12 DUP3 DUP13 ADD PUSH2 0x1097 JUMP JUMPDEST SWAP3 POP SWAP3 POP POP SWAP3 SWAP6 SWAP9 POP SWAP3 SWAP6 SWAP9 SWAP1 SWAP4 SWAP7 POP JUMP JUMPDEST PUSH1 0x0 PUSH2 0x16E0 DUP3 PUSH2 0xFF4 JUMP JUMPDEST SWAP1 POP SWAP2 SWAP1 POP JUMP JUMPDEST PUSH2 0x16F0 DUP2 PUSH2 0x16D5 JUMP JUMPDEST DUP2 EQ PUSH2 0x16FB JUMPI PUSH1 0x0 DUP1 REVERT JUMPDEST POP JUMP JUMPDEST PUSH1 0x0 DUP2 CALLDATALOAD SWAP1 POP PUSH2 0x170D DUP2 PUSH2 0x16E7 JUMP JUMPDEST SWAP3 SWAP2 POP POP JUMP JUMPDEST PUSH1 0x0 DUP1 PUSH1 0x40 DUP4 DUP6 SUB SLT ISZERO PUSH2 0x172A JUMPI PUSH2 0x1729 PUSH2 0xF2F JUMP JUMPDEST JUMPDEST PUSH1 0x0 PUSH2 0x1738 DUP6 DUP3 DUP7 ADD PUSH2 0x16FE JUMP JUMPDEST SWAP3 POP POP PUSH1 0x20 PUSH2 0x1749 DUP6 DUP3 DUP7 ADD PUSH2 0x1073 JUMP JUMPDEST SWAP2 POP POP SWAP3 POP SWAP3 SWAP1 POP JUMP JUMPDEST PUSH1 0x0 DUP1 PUSH1 0x0 DUP1 PUSH1 0x0 DUP1 PUSH1 0xA0 DUP8 DUP10 SUB SLT ISZERO PUSH2 0x1770 JUMPI PUSH2 0x176F PUSH2 0xF2F JUMP JUMPDEST JUMPDEST PUSH1 0x0 PUSH2 0x177E DUP10 DUP3 DUP11 ADD PUSH2 0x103D JUMP JUMPDEST SWAP7 POP POP PUSH1 0x20 PUSH2 0x178F DUP10 DUP3 DUP11 ADD PUSH2 0x103D JUMP JUMPDEST SWAP6 POP POP PUSH1 0x40 PUSH2 0x17A0 DUP10 DUP3 DUP11 ADD PUSH2 0x1073 JUMP JUMPDEST SWAP5 POP POP PUSH1 0x60 PUSH2 0x17B1 DUP10 DUP3 DUP11 ADD PUSH2 0x1073 JUMP JUMPDEST SWAP4 POP POP PUSH1 0x80 DUP8 ADD CALLDATALOAD PUSH8 0xFFFFFFFFFFFFFFFF DUP2 GT ISZERO PUSH2 0x17D2 JUMPI PUSH2 0x17D1 PUSH2 0xF34 JUMP JUMPDEST JUMPDEST PUSH2 0x17DE DUP10 DUP3 DUP11 ADD PUSH2 0x1097 JUMP JUMPDEST SWAP3 POP SWAP3 POP POP SWAP3 SWAP6 POP SWAP3 SWAP6 POP SWAP3 SWAP6 JUMP JUMPDEST PUSH1 0x0 DUP3 DUP3 MSTORE PUSH1 0x20 DUP3 ADD SWAP1 POP SWAP3 SWAP2 POP POP JUMP JUMPDEST PUSH32 0x4E6F7420746F6B656E206F776E65720000000000000000000000000000000000 PUSH1 0x0 DUP3 ADD MSTORE POP JUMP JUMPDEST PUSH1 0x0 PUSH2 0x1834 PUSH1 0xF DUP4 PUSH2 0x17ED JUMP JUMPDEST SWAP2 POP PUSH2 0x183F DUP3 PUSH2 0x17FE JUMP JUMPDEST PUSH1 0x20 DUP3 ADD SWAP1 POP SWAP2 SWAP1 POP JUMP JUMPDEST PUSH1 0x0 PUSH1 0x20 DUP3 ADD SWAP1 POP DUP2 DUP2 SUB PUSH1 0x0 DUP4 ADD MSTORE PUSH2 0x1863 DUP2 PUSH2 0x1827 JUMP JUMPDEST SWAP1 POP SWAP2 SWAP1 POP JUMP JUMPDEST PUSH32 0x496E76616C696420746172676574206164647265737300000000000000000000 PUSH1 0x0 DUP3 ADD MSTORE POP JUMP JUMPDEST PUSH1 0x0 PUSH2 0x18A0 PUSH1 0x16 DUP4 PUSH2 0x17ED JUMP JUMPDEST SWAP2 POP PUSH2 0x18AB DUP3 PUSH2 0x186A JUMP JUMPDEST PUSH1 0x20 DUP3 ADD SWAP1 POP SWAP2 SWAP1 POP JUMP JUMPDEST PUSH1 0x0 PUSH1 0x20 DUP3 ADD SWAP1 POP DUP2 DUP2 SUB PUSH1 0x0 DUP4 ADD MSTORE PUSH2 0x18CF DUP2 PUSH2 0x1893 JUMP JUMPDEST SWAP1 POP SWAP2 SWAP1 POP JUMP JUMPDEST PUSH1 0x0 DUP2 MLOAD SWAP1 POP PUSH2 0x18E5 DUP2 PUSH2 0x105C JUMP JUMPDEST SWAP3 SWAP2 POP POP JUMP JUMPDEST PUSH1 0x0 PUSH1 0x20 DUP3 DUP5 SUB SLT ISZERO PUSH2 0x1901 JUMPI PUSH2 0x1900 PUSH2 0xF2F JUMP JUMPDEST JUMPDEST PUSH1 0x0 PUSH2 0x190F DUP5 DUP3 DUP6 ADD PUSH2 0x18D6 JUMP JUMPDEST SWAP2 POP POP SWAP3 SWAP2 POP POP JUMP JUMPDEST PUSH32 0x496E73756666696369656E742066756E64730000000000000000000000000000 PUSH1 0x0 DUP3 ADD MSTORE POP JUMP JUMPDEST PUSH1 0x0 PUSH2 0x194E PUSH1 0x12 DUP4 PUSH2 0x17ED JUMP JUMPDEST SWAP2 POP PUSH2 0x1959 DUP3 PUSH2 0x1918 JUMP JUMPDEST PUSH1 0x20 DUP3 ADD SWAP1 POP SWAP2 SWAP1 POP JUMP JUMPDEST PUSH1 0x0 PUSH1 0x20 DUP3 ADD SWAP1 POP DUP2 DUP2 SUB PUSH1 0x0 DUP4 ADD MSTORE PUSH2 0x197D DUP2 PUSH2 0x1941 JUMP JUMPDEST SWAP1 POP SWAP2 SWAP1 POP JUMP JUMPDEST PUSH32 0x4E487B7100000000000000000000000000000000000000000000000000000000 PUSH1 0x0 MSTORE PUSH1 0x11 PUSH1 0x4 MSTORE PUSH1 0x24 PUSH1 0x0 REVERT JUMPDEST PUSH1 0x0 PUSH2 0x19BE DUP3 PUSH2 0x1052 JUMP JUMPDEST SWAP2 POP PUSH32 0xFFFFFFFFFFFFFFFFFFFFFFFFFFFFFFFFFFFFFFFFFFFFFFFFFFFFFFFFFFFFFFFF DUP3 SUB PUSH2 0x19F0 JUMPI PUSH2 0x19EF PUSH2 0x1984 JUMP JUMPDEST JUMPDEST PUSH1 0x1 DUP3 ADD SWAP1 POP SWAP2 SWAP1 POP JUMP JUMPDEST PUSH1 0x0 PUSH1 0x40 DUP3 ADD SWAP1 POP PUSH2 0x1A10 PUSH1 0x0 DUP4 ADD DUP6 PUSH2 0x1403 JUMP JUMPDEST PUSH2 0x1A1D PUSH1 0x20 DUP4 ADD DUP5 PUSH2 0x1542 JUMP JUMPDEST SWAP4 SWAP3 POP POP POP JUMP JUMPDEST PUSH2 0x1A2D DUP2 PUSH2 0xFBE JUMP JUMPDEST DUP2 EQ PUSH2 0x1A38 JUMPI PUSH1 0x0 DUP1 REVERT JUMPDEST POP JUMP JUMPDEST PUSH1 0x0 DUP2 MLOAD SWAP1 POP PUSH2 0x1A4A DUP2 PUSH2 0x1A24 JUMP JUMPDEST SWAP3 SWAP2 POP POP JUMP JUMPDEST PUSH1 0x0 PUSH1 0x20 DUP3 DUP5 SUB SLT ISZERO PUSH2 0x1A66 JUMPI PUSH2 0x1A65 PUSH2 0xF2F JUMP JUMPDEST JUMPDEST PUSH1 0x0 PUSH2 0x1A74 DUP5 DUP3 DUP6 ADD PUSH2 0x1A3B JUMP JUMPDEST SWAP2 POP POP SWAP3 SWAP2 POP POP JUMP JUMPDEST PUSH1 0x0 DUP2 MLOAD SWAP1 POP PUSH2 0x1A8C DUP2 PUSH2 0x1026 JUMP JUMPDEST SWAP3 SWAP2 POP POP JUMP JUMPDEST PUSH1 0x0 DUP1 PUSH1 0x0 PUSH1 0x60 DUP5 DUP7 SUB SLT ISZERO PUSH2 0x1AAB JUMPI PUSH2 0x1AAA PUSH2 0xF2F JUMP JUMPDEST JUMPDEST PUSH1 0x0 PUSH2 0x1AB9 DUP7 DUP3 DUP8 ADD PUSH2 0x18D6 JUMP JUMPDEST SWAP4 POP POP PUSH1 0x20 PUSH2 0x1ACA DUP7 DUP3 DUP8 ADD PUSH2 0x1A7D JUMP JUMPDEST SWAP3 POP POP PUSH1 0x40 PUSH2 0x1ADB DUP7 DUP3 DUP8 ADD PUSH2 0x18D6 JUMP JUMPDEST SWAP2 POP POP SWAP3 POP SWAP3 POP SWAP3 JUMP JUMPDEST PUSH1 0x0 PUSH1 0x20 DUP3 DUP5 SUB SLT ISZERO PUSH2 0x1AFB JUMPI PUSH2 0x1AFA PUSH2 0xF2F JUMP JUMPDEST JUMPDEST PUSH1 0x0 PUSH2 0x1B09 DUP5 DUP3 DUP6 ADD PUSH2 0x1A7D JUMP JUMPDEST SWAP2 POP POP SWAP3 SWAP2 POP POP JUMP JUMPDEST PUSH1 0x0 PUSH2 0x1B1D DUP3 PUSH2 0x1052 JUMP JUMPDEST SWAP2 POP PUSH2 0x1B28 DUP4 PUSH2 0x1052 JUMP JUMPDEST SWAP3 POP DUP3 DUP3 SUB SWAP1 POP DUP2 DUP2 GT ISZERO PUSH2 0x1B40 JUMPI PUSH2 0x1B3F PUSH2 0x1984 JUMP JUMPDEST JUMPDEST SWAP3 SWAP2 POP POP JUMP JUMPDEST PUSH1 0x0 DUP2 SWAP1 POP SWAP3 SWAP2 POP POP JUMP JUMPDEST PUSH1 0x0 PUSH2 0x1B5D DUP4 DUP6 PUSH2 0x1B46 JUMP JUMPDEST SWAP4 POP PUSH2 0x1B6A DUP4 DUP6 DUP5 PUSH2 0x1297 JUMP JUMPDEST DUP3 DUP5 ADD SWAP1 POP SWAP4 SWAP3 POP POP POP JUMP JUMPDEST PUSH1 0x0 PUSH2 0x1B83 DUP3 DUP5 DUP7 PUSH2 0x1B51 JUMP JUMPDEST SWAP2 POP DUP2 SWAP1 POP SWAP4 SWAP3 POP POP POP JUMP JUMPDEST PUSH1 0x0 DUP2 MLOAD SWAP1 POP PUSH2 0x1B9E DUP2 PUSH2 0x16E7 JUMP JUMPDEST SWAP3 SWAP2 POP POP JUMP JUMPDEST PUSH1 0x0 DUP1 PUSH1 0x0 PUSH1 0x60 DUP5 DUP7 SUB SLT ISZERO PUSH2 0x1BBD JUMPI PUSH2 0x1BBC PUSH2 0xF2F JUMP JUMPDEST JUMPDEST PUSH1 0x0 PUSH2 0x1BCB DUP7 DUP3 DUP8 ADD PUSH2 0x18D6 JUMP JUMPDEST SWAP4 POP POP PUSH1 0x20 PUSH2 0x1BDC DUP7 DUP3 DUP8 ADD PUSH2 0x1B8F JUMP JUMPDEST SWAP3 POP POP PUSH1 0x40 PUSH2 0x1BED DUP7 DUP3 DUP8 ADD PUSH2 0x18D6 JUMP JUMPDEST SWAP2 POP POP SWAP3 POP SWAP3 POP SWAP3 JUMP JUMPDEST PUSH32 0x4E487B7100000000000000000000000000000000000000000000000000000000 PUSH1 0x0 MSTORE PUSH1 0x21 PUSH1 0x4 MSTORE PUSH1 0x24 PUSH1 0x0 REVERT JUMPDEST PUSH1 0x0 PUSH1 0x60 DUP3 ADD SWAP1 POP PUSH2 0x1C3B PUSH1 0x0 DUP4 ADD DUP7 PUSH2 0x1542 JUMP JUMPDEST PUSH2 0x1C48 PUSH1 0x20 DUP4 ADD DUP6 PUSH2 0x1542 JUMP JUMPDEST PUSH2 0x1C55 PUSH1 0x40 DUP4 ADD DUP5 PUSH2 0x1542 JUMP JUMPDEST SWAP5 SWAP4 POP POP POP POP JUMP JUMPDEST PUSH2 0x1C66 DUP2 PUSH2 0x119F JUMP JUMPDEST DUP3 MSTORE POP POP JUMP JUMPDEST PUSH1 0x0 PUSH1 0x40 DUP3 ADD SWAP1 POP PUSH2 0x1C81 PUSH1 0x0 DUP4 ADD DUP6 PUSH2 0x1C5D JUMP JUMPDEST DUP2 DUP2 SUB PUSH1 0x20 DUP4 ADD MSTORE PUSH2 0x1C93 DUP2 DUP5 PUSH2 0x14E7 JUMP JUMPDEST SWAP1 POP SWAP4 SWAP3 POP POP POP JUMP JUMPDEST PUSH1 0x0 PUSH2 0x1CA7 DUP3 PUSH2 0x14A1 JUMP JUMPDEST PUSH2 0x1CB1 DUP2 DUP6 PUSH2 0x1B46 JUMP JUMPDEST SWAP4 POP PUSH2 0x1CC1 DUP2 DUP6 PUSH1 0x20 DUP7 ADD PUSH2 0x14BD JUMP JUMPDEST DUP1 DUP5 ADD SWAP2 POP POP SWAP3 SWAP2 POP POP JUMP JUMPDEST PUSH1 0x0 PUSH2 0x1CD9 DUP3 DUP5 PUSH2 0x1C9C JUMP JUMPDEST SWAP2 POP DUP2 SWAP1 POP SWAP3 SWAP2 POP POP JUMP JUMPDEST PUSH1 0x0 DUP2 MLOAD SWAP1 POP PUSH2 0x1CF3 DUP2 PUSH2 0x11A9 JUMP JUMPDEST SWAP3 SWAP2 POP POP JUMP JUMPDEST PUSH1 0x0 PUSH1 0x20 DUP3 DUP5 SUB SLT ISZERO PUSH2 0x1D0F JUMPI PUSH2 0x1D0E PUSH2 0xF2F JUMP JUMPDEST JUMPDEST PUSH1 0x0 PUSH2 0x1D1D DUP5 DUP3 DUP6 ADD PUSH2 0x1CE4 JUMP JUMPDEST SWAP2 POP POP SWAP3 SWAP2 POP POP JUMP JUMPDEST PUSH1 0x0 PUSH1 0xFF DUP3 AND SWAP1 POP SWAP2 SWAP1 POP JUMP JUMPDEST PUSH2 0x1D3C DUP2 PUSH2 0x1D26 JUMP JUMPDEST DUP3 MSTORE POP POP JUMP JUMPDEST PUSH1 0x0 PUSH1 0x80 DUP3 ADD SWAP1 POP PUSH2 0x1D57 PUSH1 0x0 DUP4 ADD DUP8 PUSH2 0x1C5D JUMP JUMPDEST PUSH2 0x1D64 PUSH1 0x20 DUP4 ADD DUP7 PUSH2 0x1D33 JUMP JUMPDEST PUSH2 0x1D71 PUSH1 0x40 DUP4 ADD DUP6 PUSH2 0x1C5D JUMP JUMPDEST PUSH2 0x1D7E PUSH1 0x60 DUP4 ADD DUP5 PUSH2 0x1C5D JUMP JUMPDEST SWAP6 SWAP5 POP POP POP POP POP JUMP INVALID LOG2 PUSH5 0x6970667358 0x22 SLT KECCAK256 SDIV PUSH1 0x2E 0xAE 0xF ADDMOD PUSH30 0xC72EED6B5D9101F8249C05CEEC570F2BA060AE3399520100B364736F6C63 NUMBER STOP ADDMOD SHL STOP CALLER "},"gasEstimates":{"creation":{"codeDepositCost":"1522600","executionCost":"72429","totalCost":"1595029"},"external":{"executeCall(address,uint256,bytes)":"infinite","isValidSignature(bytes32,bytes)":"infinite","nftInfo()":"infinite","nonce()":"2459","onERC1155BatchReceived(address,address,uint256[],uint256[],bytes)":"infinite","onERC1155Received(address,address,uint256,uint256,bytes)":"infinite","onERC721Received(address,address,uint256,bytes)":"infinite","owner()":"infinite","send(address,uint256)":"infinite","sendCustom(address,uint256,address)":"infinite","supportsInterface(bytes4)":"2847"}},"methodIdentifiers":{"executeCall(address,uint256,bytes)":"9e5d4c49","isValidSignature(bytes32,bytes)":"1626ba7e","nftInfo()":"b553fe1e","nonce()":"affed0e0","onERC1155BatchReceived(address,address,uint256[],uint256[],bytes)":"bc197c81","onERC1155Received(address,address,uint256,uint256,bytes)":"f23a6e61","onERC721Received(address,address,uint256,bytes)":"150b7a02","owner()":"8da5cb5b","send(address,uint256)":"d0679d34","sendCustom(address,uint256,address)":"8447305a","supportsInterface(bytes4)":"01ffc9a7"}},"storageLayout":{"storage":[{"astId":1184,"contract":"contracts/N2D-ERC6551-Account.sol:ERC6551Account","label":"_status","offset":0,"slot":"0","type":"t_uint256"},{"astId":1743,"contract":"contracts/N2D-ERC6551-Account.sol:ERC6551Account","label":"_nonce","offset":0,"slot":"1","type":"t_uint256"},{"astId":1747,"contract":"contracts/N2D-ERC6551-Account.sol:ERC6551Account","label":"_supportedInterfaces","offset":0,"slot":"2","type":"t_mapping(t_bytes4,t_bool)"}],"types":{"t_bool":{"encoding":"inplace","label":"bool","numberOfBytes":"1"},"t_bytes4":{"encoding":"inplace","label":"bytes4","numberOfBytes":"4"},"t_mapping(t_bytes4,t_bool)":{"encoding":"mapping","key":"t_bytes4","label":"mapping(bytes4 => bool)","numberOfBytes":"32","value":"t_bool"},"t_uint256":{"encoding":"inplace","label":"uint256","numberOfBytes":"32"}}},"userdoc":{"kind":"user","methods":{},"version":1}}}}