{
  "_format": "hh-sol-artifact-1",
  "contractName": "ERC6551Account",
  "sourceName": "contracts/N2D-ERC6551-Account.sol",
  "abi": [
    {
      "inputs": [],
      "stateMutability": "nonpayable",
      "type": "constructor"
    },
    {
      "inputs": [
        {
          "internalType": "uint256",
          "name": "_size",
          "type": "uint256"
        },
        {
          "internalType": "uint256",
          "name": "_start",
          "type": "uint256"
        },
        {
          "internalType": "uint256",
          "name": "_end",
          "type": "uint256"
        }
      ],
      "name": "InvalidCodeAtRange",
      "type": "error"
    },
    {
      "anonymous": false,
      "inputs": [
        {
          "indexed": true,
          "internalType": "address",
          "name": "target",
          "type": "address"
        },
        {
          "indexed": true,
          "internalType": "uint256",
          "name": "value",
          "type": "uint256"
        },
        {
          "indexed": false,
          "internalType": "bytes",
          "name": "data",
          "type": "bytes"
        }
      ],
      "name": "TransactionExecuted",
      "type": "event"
    },
    {
      "inputs": [
        {
          "internalType": "address",
          "name": "to",
          "type": "address"
        },
        {
          "internalType": "uint256",
          "name": "value",
          "type": "uint256"
        },
        {
          "internalType": "bytes",
          "name": "data",
          "type": "bytes"
        }
      ],
      "name": "executeCall",
      "outputs": [
        {
          "internalType": "bytes",
          "name": "result",
          "type": "bytes"
        }
      ],
      "stateMutability": "payable",
      "type": "function"
    },
    {
      "inputs": [
        {
          "internalType": "bytes32",
          "name": "hash",
          "type": "bytes32"
        },
        {
          "internalType": "bytes",
          "name": "signature",
          "type": "bytes"
        }
      ],
      "name": "isValidSignature",
      "outputs": [
        {
          "internalType": "bytes4",
          "name": "magicValue",
          "type": "bytes4"
        }
      ],
      "stateMutability": "view",
      "type": "function"
    },
    {
      "inputs": [],
      "name": "nftInfo",
      "outputs": [
        {
          "internalType": "uint256",
          "name": "chainId",
          "type": "uint256"
        },
        {
          "internalType": "address",
          "name": "tokenContract",
          "type": "address"
        },
        {
          "internalType": "uint256",
          "name": "tokenId",
          "type": "uint256"
        }
      ],
      "stateMutability": "view",
      "type": "function"
    },
    {
      "inputs": [],
      "name": "nonce",
      "outputs": [
        {
          "internalType": "uint256",
          "name": "",
          "type": "uint256"
        }
      ],
      "stateMutability": "view",
      "type": "function"
    },
    {
      "inputs": [
        {
          "internalType": "address",
          "name": "",
          "type": "address"
        },
        {
          "internalType": "address",
          "name": "",
          "type": "address"
        },
        {
          "internalType": "uint256",
          "name": "",
          "type": "uint256"
        },
        {
          "internalType": "bytes",
          "name": "",
          "type": "bytes"
        }
      ],
      "name": "onERC721Received",
      "outputs": [
        {
          "internalType": "bytes4",
          "name": "",
          "type": "bytes4"
        }
      ],
      "stateMutability": "pure",
      "type": "function"
    },
    {
      "inputs": [],
      "name": "owner",
      "outputs": [
        {
          "internalType": "address",
          "name": "",
          "type": "address"
        }
      ],
      "stateMutability": "view",
      "type": "function"
    },
    {
      "inputs": [
        {
          "internalType": "address payable",
          "name": "to",
          "type": "address"
        },
        {
          "internalType": "uint256",
          "name": "amount",
          "type": "uint256"
        }
      ],
      "name": "send",
      "outputs": [],
      "stateMutability": "payable",
      "type": "function"
    },
    {
      "inputs": [
        {
          "internalType": "address",
          "name": "to",
          "type": "address"
        },
        {
          "internalType": "uint256",
          "name": "amount",
          "type": "uint256"
        },
        {
          "internalType": "contract IERC20",
          "name": "erc20contract",
          "type": "address"
        }
      ],
      "name": "sendCustom",
      "outputs": [],
      "stateMutability": "nonpayable",
      "type": "function"
    },
    {
      "inputs": [
        {
          "internalType": "bytes4",
          "name": "interfaceId",
          "type": "bytes4"
        }
      ],
      "name": "supportsInterface",
      "outputs": [
        {
          "internalType": "bool",
          "name": "",
          "type": "bool"
        }
      ],
      "stateMutability": "view",
      "type": "function"
    },
    {
      "stateMutability": "payable",
      "type": "receive"
    }
  ],
  "bytecode": "0x608060405234801561001057600080fd5b5060018060007f01ffc9a7000000000000000000000000000000000000000000000000000000007bffffffffffffffffffffffffffffffffffffffffffffffffffffffff19167bffffffffffffffffffffffffffffffffffffffffffffffffffffffff1916815260200190815260200160002060006101000a81548160ff02191690831515021790555060018060007f0955a9ec000000000000000000000000000000000000000000000000000000007bffffffffffffffffffffffffffffffffffffffffffffffffffffffff19167bffffffffffffffffffffffffffffffffffffffffffffffffffffffff1916815260200190815260200160002060006101000a81548160ff021916908315150217905550611aaf806101326000396000f3fe60806040526004361061008a5760003560e01c80638da5cb5b116100595780638da5cb5b146101765780639e5d4c49146101a1578063affed0e0146101d1578063b553fe1e146101fc578063d0679d341461022957610091565b806301ffc9a714610096578063150b7a02146100d35780631626ba7e146101105780638447305a1461014d57610091565b3661009157005b600080fd5b3480156100a257600080fd5b506100bd60048036038101906100b89190610e4f565b610245565b6040516100ca9190610e97565b60405180910390f35b3480156100df57600080fd5b506100fa60048036038101906100f59190610fab565b6102ad565b6040516101079190611042565b60405180910390f35b34801561011c57600080fd5b50610137600480360381019061013291906111d4565b6102c2565b6040516101449190611042565b60405180910390f35b34801561015957600080fd5b50610174600480360381019061016f919061126e565b6102fe565b005b34801561018257600080fd5b5061018b61053f565b60405161019891906112d0565b60405180910390f35b6101bb60048036038101906101b691906112eb565b610650565b6040516101c891906113de565b60405180910390f35b3480156101dd57600080fd5b506101e66107e8565b6040516101f3919061140f565b60405180910390f35b34801561020857600080fd5b506102116107f1565b6040516102209392919061142a565b60405180910390f35b610243600480360381019061023e919061149f565b610847565b005b600060016000837bffffffffffffffffffffffffffffffffffffffffffffffffffffffff19167bffffffffffffffffffffffffffffffffffffffffffffffffffffffff1916815260200190815260200160002060009054906101000a900460ff169050919050565b600063150b7a0260e01b905095945050505050565b6000806102d76102d061053f565b85856109d0565b905080156102ef57631626ba7e60e01b9150506102f8565b600060e01b9150505b92915050565b61030661053f565b73ffffffffffffffffffffffffffffffffffffffff163373ffffffffffffffffffffffffffffffffffffffff1614610373576040517f08c379a000000000000000000000000000000000000000000000000000000000815260040161036a9061153c565b60405180910390fd5b600073ffffffffffffffffffffffffffffffffffffffff168373ffffffffffffffffffffffffffffffffffffffff16036103e2576040517f08c379a00000000000000000000000000000000000000000000000000000000081526004016103d9906115a8565b60405180910390fd5b60008173ffffffffffffffffffffffffffffffffffffffff166370a08231306040518263ffffffff1660e01b815260040161041d91906112d0565b602060405180830381865afa15801561043a573d6000803e3d6000fd5b505050506040513d601f19601f8201168201806040525081019061045e91906115dd565b9050828110156104a3576040517f08c379a000000000000000000000000000000000000000000000000000000000815260040161049a90611656565b60405180910390fd5b6000808154809291906104b5906116a5565b91905055508173ffffffffffffffffffffffffffffffffffffffff1663a9059cbb85856040518363ffffffff1660e01b81526004016104f59291906116ed565b6020604051808303816000875af1158015610514573d6000803e3d6000fd5b505050506040513d601f19601f820116820180604052508101906105389190611742565b5050505050565b6000806000803073ffffffffffffffffffffffffffffffffffffffff1663b553fe1e6040518163ffffffff1660e01b8152600401606060405180830381865afa158015610590573d6000803e3d6000fd5b505050506040513d601f19601f820116820180604052508101906105b49190611784565b9250925092504683146105cd576000935050505061064d565b8173ffffffffffffffffffffffffffffffffffffffff16636352211e826040518263ffffffff1660e01b8152600401610606919061140f565b602060405180830381865afa158015610623573d6000803e3d6000fd5b505050506040513d601f19601f8201168201806040525081019061064791906117d7565b93505050505b90565b606061065a61053f565b73ffffffffffffffffffffffffffffffffffffffff163373ffffffffffffffffffffffffffffffffffffffff16146106c7576040517f08c379a00000000000000000000000000000000000000000000000000000000081526004016106be9061153c565b60405180910390fd5b600073ffffffffffffffffffffffffffffffffffffffff168573ffffffffffffffffffffffffffffffffffffffff1603610736576040517f08c379a000000000000000000000000000000000000000000000000000000000815260040161072d906115a8565b60405180910390fd5b600080815480929190610748906116a5565b919050555060008573ffffffffffffffffffffffffffffffffffffffff16856107d05a6107759190611804565b908686604051610786929190611868565b600060405180830381858888f193505050503d80600081146107c4576040519150601f19603f3d011682016040523d82523d6000602084013e6107c9565b606091505b508093508192505050806107df57815160208301fd5b50949350505050565b60008054905090565b6000806000803073ffffffffffffffffffffffffffffffffffffffff163b9050610828306060836108229190611804565b83610a7f565b80602001905181019061083b9190611896565b93509350935050909192565b61084f61053f565b73ffffffffffffffffffffffffffffffffffffffff163373ffffffffffffffffffffffffffffffffffffffff16146108bc576040517f08c379a00000000000000000000000000000000000000000000000000000000081526004016108b39061153c565b60405180910390fd5b600073ffffffffffffffffffffffffffffffffffffffff168273ffffffffffffffffffffffffffffffffffffffff160361092b576040517f08c379a0000000000000000000000000000000000000000000000000000000008152600401610922906115a8565b60405180910390fd5b8047101561096e576040517f08c379a000000000000000000000000000000000000000000000000000000000815260040161096590611656565b60405180910390fd5b600080815480929190610980906116a5565b91905055508173ffffffffffffffffffffffffffffffffffffffff166108fc829081150290604051600060405180830381858888f193505050501580156109cb573d6000803e3d6000fd5b505050565b6000808473ffffffffffffffffffffffffffffffffffffffff163b03610a6a576000806109fd8585610b64565b509150915060006003811115610a1657610a156118e9565b5b816003811115610a2957610a286118e9565b5b148015610a6157508573ffffffffffffffffffffffffffffffffffffffff168273ffffffffffffffffffffffffffffffffffffffff16145b92505050610a78565b610a75848484610bc0565b90505b9392505050565b60606000610a8c85610ce4565b905060008103610aae5760405180602001604052806000815250915050610b5d565b80841115610ace5760405180602001604052806000815250915050610b5d565b83831015610b17578084846040517f2c4a89fa000000000000000000000000000000000000000000000000000000008152600401610b0e93929190611918565b60405180910390fd5b60008484039050600085830390506000828210610b345782610b36565b815b90506040519450601f19601f60208301011685016040528085528087602087018a3c505050505b9392505050565b60008060006041845103610ba95760008060006020870151925060408701519150606087015160001a9050610b9b88828585610cef565b955095509550505050610bb9565b60006002855160001b9250925092505b9250925092565b60008060008573ffffffffffffffffffffffffffffffffffffffff168585604051602401610bef92919061195e565b604051602081830303815290604052631626ba7e60e01b6020820180517bffffffffffffffffffffffffffffffffffffffffffffffffffffffff8381831617835250505050604051610c4191906119bf565b600060405180830381855afa9150503d8060008114610c7c576040519150601f19603f3d011682016040523d82523d6000602084013e610c81565b606091505b5091509150818015610c9557506020815110155b8015610cd95750631626ba7e60e01b7bffffffffffffffffffffffffffffffffffffffffffffffffffffffff191681806020019051810190610cd791906119eb565b145b925050509392505050565b6000813b9050919050565b60008060007f7fffffffffffffffffffffffffffffff5d576e7357a4501ddfe92f46681b20a08460001c1115610d2f576000600385925092509250610dd9565b600060018888888860405160008152602001604052604051610d549493929190611a34565b6020604051602081039080840390855afa158015610d76573d6000803e3d6000fd5b505050602060405103519050600073ffffffffffffffffffffffffffffffffffffffff168173ffffffffffffffffffffffffffffffffffffffff1603610dca57600060016000801b93509350935050610dd9565b8060008060001b935093509350505b9450945094915050565b6000604051905090565b600080fd5b600080fd5b60007fffffffff0000000000000000000000000000000000000000000000000000000082169050919050565b610e2c81610df7565b8114610e3757600080fd5b50565b600081359050610e4981610e23565b92915050565b600060208284031215610e6557610e64610ded565b5b6000610e7384828501610e3a565b91505092915050565b60008115159050919050565b610e9181610e7c565b82525050565b6000602082019050610eac6000830184610e88565b92915050565b600073ffffffffffffffffffffffffffffffffffffffff82169050919050565b6000610edd82610eb2565b9050919050565b610eed81610ed2565b8114610ef857600080fd5b50565b600081359050610f0a81610ee4565b92915050565b6000819050919050565b610f2381610f10565b8114610f2e57600080fd5b50565b600081359050610f4081610f1a565b92915050565b600080fd5b600080fd5b600080fd5b60008083601f840112610f6b57610f6a610f46565b5b8235905067ffffffffffffffff811115610f8857610f87610f4b565b5b602083019150836001820283011115610fa457610fa3610f50565b5b9250929050565b600080600080600060808688031215610fc757610fc6610ded565b5b6000610fd588828901610efb565b9550506020610fe688828901610efb565b9450506040610ff788828901610f31565b935050606086013567ffffffffffffffff81111561101857611017610df2565b5b61102488828901610f55565b92509250509295509295909350565b61103c81610df7565b82525050565b60006020820190506110576000830184611033565b92915050565b6000819050919050565b6110708161105d565b811461107b57600080fd5b50565b60008135905061108d81611067565b92915050565b600080fd5b6000601f19601f8301169050919050565b7f4e487b7100000000000000000000000000000000000000000000000000000000600052604160045260246000fd5b6110e182611098565b810181811067ffffffffffffffff82111715611100576110ff6110a9565b5b80604052505050565b6000611113610de3565b905061111f82826110d8565b919050565b600067ffffffffffffffff82111561113f5761113e6110a9565b5b61114882611098565b9050602081019050919050565b82818337600083830152505050565b600061117761117284611124565b611109565b90508281526020810184848401111561119357611192611093565b5b61119e848285611155565b509392505050565b600082601f8301126111bb576111ba610f46565b5b81356111cb848260208601611164565b91505092915050565b600080604083850312156111eb576111ea610ded565b5b60006111f98582860161107e565b925050602083013567ffffffffffffffff81111561121a57611219610df2565b5b611226858286016111a6565b9150509250929050565b600061123b82610ed2565b9050919050565b61124b81611230565b811461125657600080fd5b50565b60008135905061126881611242565b92915050565b60008060006060848603121561128757611286610ded565b5b600061129586828701610efb565b93505060206112a686828701610f31565b92505060406112b786828701611259565b9150509250925092565b6112ca81610ed2565b82525050565b60006020820190506112e560008301846112c1565b92915050565b6000806000806060858703121561130557611304610ded565b5b600061131387828801610efb565b945050602061132487828801610f31565b935050604085013567ffffffffffffffff81111561134557611344610df2565b5b61135187828801610f55565b925092505092959194509250565b600081519050919050565b600082825260208201905092915050565b60005b8381101561139957808201518184015260208101905061137e565b60008484015250505050565b60006113b08261135f565b6113ba818561136a565b93506113ca81856020860161137b565b6113d381611098565b840191505092915050565b600060208201905081810360008301526113f881846113a5565b905092915050565b61140981610f10565b82525050565b60006020820190506114246000830184611400565b92915050565b600060608201905061143f6000830186611400565b61144c60208301856112c1565b6114596040830184611400565b949350505050565b600061146c82610eb2565b9050919050565b61147c81611461565b811461148757600080fd5b50565b60008135905061149981611473565b92915050565b600080604083850312156114b6576114b5610ded565b5b60006114c48582860161148a565b92505060206114d585828601610f31565b9150509250929050565b600082825260208201905092915050565b7f4e6f7420746f6b656e206f776e65720000000000000000000000000000000000600082015250565b6000611526600f836114df565b9150611531826114f0565b602082019050919050565b6000602082019050818103600083015261155581611519565b9050919050565b7f496e76616c696420746172676574206164647265737300000000000000000000600082015250565b60006115926016836114df565b915061159d8261155c565b602082019050919050565b600060208201905081810360008301526115c181611585565b9050919050565b6000815190506115d781610f1a565b92915050565b6000602082840312156115f3576115f2610ded565b5b6000611601848285016115c8565b91505092915050565b7f496e73756666696369656e742066756e64730000000000000000000000000000600082015250565b60006116406012836114df565b915061164b8261160a565b602082019050919050565b6000602082019050818103600083015261166f81611633565b9050919050565b7f4e487b7100000000000000000000000000000000000000000000000000000000600052601160045260246000fd5b60006116b082610f10565b91507fffffffffffffffffffffffffffffffffffffffffffffffffffffffffffffffff82036116e2576116e1611676565b5b600182019050919050565b600060408201905061170260008301856112c1565b61170f6020830184611400565b9392505050565b61171f81610e7c565b811461172a57600080fd5b50565b60008151905061173c81611716565b92915050565b60006020828403121561175857611757610ded565b5b60006117668482850161172d565b91505092915050565b60008151905061177e81610ee4565b92915050565b60008060006060848603121561179d5761179c610ded565b5b60006117ab868287016115c8565b93505060206117bc8682870161176f565b92505060406117cd868287016115c8565b9150509250925092565b6000602082840312156117ed576117ec610ded565b5b60006117fb8482850161176f565b91505092915050565b600061180f82610f10565b915061181a83610f10565b925082820390508181111561183257611831611676565b5b92915050565b600081905092915050565b600061184f8385611838565b935061185c838584611155565b82840190509392505050565b6000611875828486611843565b91508190509392505050565b60008151905061189081611473565b92915050565b6000806000606084860312156118af576118ae610ded565b5b60006118bd868287016115c8565b93505060206118ce86828701611881565b92505060406118df868287016115c8565b9150509250925092565b7f4e487b7100000000000000000000000000000000000000000000000000000000600052602160045260246000fd5b600060608201905061192d6000830186611400565b61193a6020830185611400565b6119476040830184611400565b949350505050565b6119588161105d565b82525050565b6000604082019050611973600083018561194f565b818103602083015261198581846113a5565b90509392505050565b60006119998261135f565b6119a38185611838565b93506119b381856020860161137b565b80840191505092915050565b60006119cb828461198e565b915081905092915050565b6000815190506119e581611067565b92915050565b600060208284031215611a0157611a00610ded565b5b6000611a0f848285016119d6565b91505092915050565b600060ff82169050919050565b611a2e81611a18565b82525050565b6000608082019050611a49600083018761194f565b611a566020830186611a25565b611a63604083018561194f565b611a70606083018461194f565b9594505050505056fea2646970667358221220f60cb4d04ba102db405366856bfa31c69ed239f6f898cd4d49fd7f095213658364736f6c634300081b0033",
  "linkReferences": {},
  "deployedLinkReferences": {}
}