{
  "_format": "hh-sol-artifact-1",
  "contractName": "ERC6551Account",
  "sourceName": "contracts/N2D-ERC6551-Account.sol",
  "abi": [
    {
      "inputs": [],
      "stateMutability": "nonpayable",
      "type": "constructor"
    },
    {
      "inputs": [
        {
          "internalType": "uint256",
          "name": "_size",
          "type": "uint256"
        },
        {
          "internalType": "uint256",
          "name": "_start",
          "type": "uint256"
        },
        {
          "internalType": "uint256",
          "name": "_end",
          "type": "uint256"
        }
      ],
      "name": "InvalidCodeAtRange",
      "type": "error"
    },
    {
      "inputs": [],
      "name": "ReentrancyGuardReentrantCall",
      "type": "error"
    },
    {
      "anonymous": false,
      "inputs": [
        {
          "indexed": true,
          "internalType": "address",
          "name": "target",
          "type": "address"
        },
        {
          "indexed": true,
          "internalType": "uint256",
          "name": "value",
          "type": "uint256"
        },
        {
          "indexed": false,
          "internalType": "bytes",
          "name": "data",
          "type": "bytes"
        }
      ],
      "name": "TransactionExecuted",
      "type": "event"
    },
    {
      "inputs": [
        {
          "internalType": "address",
          "name": "to",
          "type": "address"
        },
        {
          "internalType": "uint256",
          "name": "value",
          "type": "uint256"
        },
        {
          "internalType": "bytes",
          "name": "data",
          "type": "bytes"
        }
      ],
      "name": "executeCall",
      "outputs": [
        {
          "internalType": "bytes",
          "name": "result",
          "type": "bytes"
        }
      ],
      "stateMutability": "payable",
      "type": "function"
    },
    {
      "inputs": [
        {
          "internalType": "bytes32",
          "name": "hash",
          "type": "bytes32"
        },
        {
          "internalType": "bytes",
          "name": "signature",
          "type": "bytes"
        }
      ],
      "name": "isValidSignature",
      "outputs": [
        {
          "internalType": "bytes4",
          "name": "magicValue",
          "type": "bytes4"
        }
      ],
      "stateMutability": "view",
      "type": "function"
    },
    {
      "inputs": [],
      "name": "nftInfo",
      "outputs": [
        {
          "internalType": "uint256",
          "name": "chainId",
          "type": "uint256"
        },
        {
          "internalType": "address",
          "name": "tokenContract",
          "type": "address"
        },
        {
          "internalType": "uint256",
          "name": "tokenId",
          "type": "uint256"
        }
      ],
      "stateMutability": "view",
      "type": "function"
    },
    {
      "inputs": [],
      "name": "nonce",
      "outputs": [
        {
          "internalType": "uint256",
          "name": "",
          "type": "uint256"
        }
      ],
      "stateMutability": "view",
      "type": "function"
    },
    {
      "inputs": [
        {
          "internalType": "address",
          "name": "operator",
          "type": "address"
        },
        {
          "internalType": "address",
          "name": "from",
          "type": "address"
        },
        {
          "internalType": "uint256[]",
          "name": "ids",
          "type": "uint256[]"
        },
        {
          "internalType": "uint256[]",
          "name": "values",
          "type": "uint256[]"
        },
        {
          "internalType": "bytes",
          "name": "data",
          "type": "bytes"
        }
      ],
      "name": "onERC1155BatchReceived",
      "outputs": [
        {
          "internalType": "bytes4",
          "name": "",
          "type": "bytes4"
        }
      ],
      "stateMutability": "view",
      "type": "function"
    },
    {
      "inputs": [
        {
          "internalType": "address",
          "name": "operator",
          "type": "address"
        },
        {
          "internalType": "address",
          "name": "from",
          "type": "address"
        },
        {
          "internalType": "uint256",
          "name": "id",
          "type": "uint256"
        },
        {
          "internalType": "uint256",
          "name": "value",
          "type": "uint256"
        },
        {
          "internalType": "bytes",
          "name": "data",
          "type": "bytes"
        }
      ],
      "name": "onERC1155Received",
      "outputs": [
        {
          "internalType": "bytes4",
          "name": "",
          "type": "bytes4"
        }
      ],
      "stateMutability": "view",
      "type": "function"
    },
    {
      "inputs": [
        {
          "internalType": "address",
          "name": "",
          "type": "address"
        },
        {
          "internalType": "address",
          "name": "",
          "type": "address"
        },
        {
          "internalType": "uint256",
          "name": "",
          "type": "uint256"
        },
        {
          "internalType": "bytes",
          "name": "",
          "type": "bytes"
        }
      ],
      "name": "onERC721Received",
      "outputs": [
        {
          "internalType": "bytes4",
          "name": "",
          "type": "bytes4"
        }
      ],
      "stateMutability": "pure",
      "type": "function"
    },
    {
      "inputs": [],
      "name": "owner",
      "outputs": [
        {
          "internalType": "address",
          "name": "",
          "type": "address"
        }
      ],
      "stateMutability": "view",
      "type": "function"
    },
    {
      "inputs": [
        {
          "internalType": "address payable",
          "name": "to",
          "type": "address"
        },
        {
          "internalType": "uint256",
          "name": "amount",
          "type": "uint256"
        }
      ],
      "name": "send",
      "outputs": [],
      "stateMutability": "payable",
      "type": "function"
    },
    {
      "inputs": [
        {
          "internalType": "address",
          "name": "to",
          "type": "address"
        },
        {
          "internalType": "uint256",
          "name": "amount",
          "type": "uint256"
        },
        {
          "internalType": "contract IERC20",
          "name": "erc20contract",
          "type": "address"
        }
      ],
      "name": "sendCustom",
      "outputs": [],
      "stateMutability": "nonpayable",
      "type": "function"
    },
    {
      "inputs": [
        {
          "internalType": "bytes4",
          "name": "interfaceId",
          "type": "bytes4"
        }
      ],
      "name": "supportsInterface",
      "outputs": [
        {
          "internalType": "bool",
          "name": "",
          "type": "bool"
        }
      ],
      "stateMutability": "view",
      "type": "function"
    },
    {
      "stateMutability": "payable",
      "type": "receive"
    }
  ],
  "bytecode": "0x608060405234801561001057600080fd5b5060016000819055506001600260007f01ffc9a7000000000000000000000000000000000000000000000000000000007bffffffffffffffffffffffffffffffffffffffffffffffffffffffff19167bffffffffffffffffffffffffffffffffffffffffffffffffffffffff1916815260200190815260200160002060006101000a81548160ff0219169083151502179055506001600260007f0955a9ec000000000000000000000000000000000000000000000000000000007bffffffffffffffffffffffffffffffffffffffffffffffffffffffff19167bffffffffffffffffffffffffffffffffffffffffffffffffffffffff1916815260200190815260200160002060006101000a81548160ff021916908315150217905550611dbd8061013c6000396000f3fe6080604052600436106100a05760003560e01c80639e5d4c49116100645780639e5d4c49146101b7578063affed0e0146101e7578063b553fe1e14610212578063bc197c811461023f578063d0679d341461027c578063f23a6e6114610298576100a7565b806301ffc9a7146100ac578063150b7a02146100e95780631626ba7e146101265780638447305a146101635780638da5cb5b1461018c576100a7565b366100a757005b600080fd5b3480156100b857600080fd5b506100d360048036038101906100ce9190610f91565b6102d5565b6040516100e09190610fd9565b60405180910390f35b3480156100f557600080fd5b50610110600480360381019061010b91906110ed565b61033d565b60405161011d9190611184565b60405180910390f35b34801561013257600080fd5b5061014d60048036038101906101489190611316565b610352565b60405161015a9190611184565b60405180910390f35b34801561016f57600080fd5b5061018a600480360381019061018591906113b0565b61038e565b005b34801561019857600080fd5b506101a16105e0565b6040516101ae9190611412565b60405180910390f35b6101d160048036038101906101cc919061142d565b6106f1565b6040516101de9190611520565b60405180910390f35b3480156101f357600080fd5b506101fc61089a565b6040516102099190611551565b60405180910390f35b34801561021e57600080fd5b506102276108a4565b6040516102369392919061156c565b60405180910390f35b34801561024b57600080fd5b50610266600480360381019061026191906115f9565b6108fa565b6040516102739190611184565b60405180910390f35b61029660048036038101906102919190611713565b610912565b005b3480156102a457600080fd5b506102bf60048036038101906102ba9190611753565b610aac565b6040516102cc9190611184565b60405180910390f35b600060026000837bffffffffffffffffffffffffffffffffffffffffffffffffffffffff19167bffffffffffffffffffffffffffffffffffffffffffffffffffffffff1916815260200190815260200160002060009054906101000a900460ff169050919050565b600063150b7a0260e01b905095945050505050565b6000806103676103606105e0565b8585610ac2565b9050801561037f57631626ba7e60e01b915050610388565b600060e01b9150505b92915050565b610396610b71565b61039e6105e0565b73ffffffffffffffffffffffffffffffffffffffff163373ffffffffffffffffffffffffffffffffffffffff161461040b576040517f08c379a00000000000000000000000000000000000000000000000000000000081526004016104029061184a565b60405180910390fd5b600073ffffffffffffffffffffffffffffffffffffffff168373ffffffffffffffffffffffffffffffffffffffff160361047a576040517f08c379a0000000000000000000000000000000000000000000000000000000008152600401610471906118b6565b60405180910390fd5b60008173ffffffffffffffffffffffffffffffffffffffff166370a08231306040518263ffffffff1660e01b81526004016104b59190611412565b602060405180830381865afa1580156104d2573d6000803e3d6000fd5b505050506040513d601f19601f820116820180604052508101906104f691906118eb565b90508281101561053b576040517f08c379a000000000000000000000000000000000000000000000000000000000815260040161053290611964565b60405180910390fd5b6001600081548092919061054e906119b3565b91905055508173ffffffffffffffffffffffffffffffffffffffff1663a9059cbb85856040518363ffffffff1660e01b815260040161058e9291906119fb565b6020604051808303816000875af11580156105ad573d6000803e3d6000fd5b505050506040513d601f19601f820116820180604052508101906105d19190611a50565b50506105db610bb7565b505050565b6000806000803073ffffffffffffffffffffffffffffffffffffffff1663b553fe1e6040518163ffffffff1660e01b8152600401606060405180830381865afa158015610631573d6000803e3d6000fd5b505050506040513d601f19601f820116820180604052508101906106559190611a92565b92509250925046831461066e57600093505050506106ee565b8173ffffffffffffffffffffffffffffffffffffffff16636352211e826040518263ffffffff1660e01b81526004016106a79190611551565b602060405180830381865afa1580156106c4573d6000803e3d6000fd5b505050506040513d601f19601f820116820180604052508101906106e89190611ae5565b93505050505b90565b60606106fb610b71565b6107036105e0565b73ffffffffffffffffffffffffffffffffffffffff163373ffffffffffffffffffffffffffffffffffffffff1614610770576040517f08c379a00000000000000000000000000000000000000000000000000000000081526004016107679061184a565b60405180910390fd5b600073ffffffffffffffffffffffffffffffffffffffff168573ffffffffffffffffffffffffffffffffffffffff16036107df576040517f08c379a00000000000000000000000000000000000000000000000000000000081526004016107d6906118b6565b60405180910390fd5b600160008154809291906107f2906119b3565b919050555060008573ffffffffffffffffffffffffffffffffffffffff16856107d05a61081f9190611b12565b908686604051610830929190611b76565b600060405180830381858888f193505050503d806000811461086e576040519150601f19603f3d011682016040523d82523d6000602084013e610873565b606091505b5080935081925050508061088957815160208301fd5b50610892610bb7565b949350505050565b6000600154905090565b6000806000803073ffffffffffffffffffffffffffffffffffffffff163b90506108db306060836108d59190611b12565b83610bc1565b8060200190518101906108ee9190611ba4565b93509350935050909192565b600063bc197c8160e01b905098975050505050505050565b61091a610b71565b6109226105e0565b73ffffffffffffffffffffffffffffffffffffffff163373ffffffffffffffffffffffffffffffffffffffff161461098f576040517f08c379a00000000000000000000000000000000000000000000000000000000081526004016109869061184a565b60405180910390fd5b600073ffffffffffffffffffffffffffffffffffffffff168273ffffffffffffffffffffffffffffffffffffffff16036109fe576040517f08c379a00000000000000000000000000000000000000000000000000000000081526004016109f5906118b6565b60405180910390fd5b80471015610a41576040517f08c379a0000000000000000000000000000000000000000000000000000000008152600401610a3890611964565b60405180910390fd5b60016000815480929190610a54906119b3565b91905055508173ffffffffffffffffffffffffffffffffffffffff166108fc829081150290604051600060405180830381858888f19350505050158015610a9f573d6000803e3d6000fd5b50610aa8610bb7565b5050565b600063f23a6e6160e01b90509695505050505050565b6000808473ffffffffffffffffffffffffffffffffffffffff163b03610b5c57600080610aef8585610ca6565b509150915060006003811115610b0857610b07611bf7565b5b816003811115610b1b57610b1a611bf7565b5b148015610b5357508573ffffffffffffffffffffffffffffffffffffffff168273ffffffffffffffffffffffffffffffffffffffff16145b92505050610b6a565b610b67848484610d02565b90505b9392505050565b600260005403610bad576040517f3ee5aeb500000000000000000000000000000000000000000000000000000000815260040160405180910390fd5b6002600081905550565b6001600081905550565b60606000610bce85610e26565b905060008103610bf05760405180602001604052806000815250915050610c9f565b80841115610c105760405180602001604052806000815250915050610c9f565b83831015610c59578084846040517f2c4a89fa000000000000000000000000000000000000000000000000000000008152600401610c5093929190611c26565b60405180910390fd5b60008484039050600085830390506000828210610c765782610c78565b815b90506040519450601f19601f60208301011685016040528085528087602087018a3c505050505b9392505050565b60008060006041845103610ceb5760008060006020870151925060408701519150606087015160001a9050610cdd88828585610e31565b955095509550505050610cfb565b60006002855160001b9250925092505b9250925092565b60008060008573ffffffffffffffffffffffffffffffffffffffff168585604051602401610d31929190611c6c565b604051602081830303815290604052631626ba7e60e01b6020820180517bffffffffffffffffffffffffffffffffffffffffffffffffffffffff8381831617835250505050604051610d839190611ccd565b600060405180830381855afa9150503d8060008114610dbe576040519150601f19603f3d011682016040523d82523d6000602084013e610dc3565b606091505b5091509150818015610dd757506020815110155b8015610e1b5750631626ba7e60e01b7bffffffffffffffffffffffffffffffffffffffffffffffffffffffff191681806020019051810190610e199190611cf9565b145b925050509392505050565b6000813b9050919050565b60008060007f7fffffffffffffffffffffffffffffff5d576e7357a4501ddfe92f46681b20a08460001c1115610e71576000600385925092509250610f1b565b600060018888888860405160008152602001604052604051610e969493929190611d42565b6020604051602081039080840390855afa158015610eb8573d6000803e3d6000fd5b505050602060405103519050600073ffffffffffffffffffffffffffffffffffffffff168173ffffffffffffffffffffffffffffffffffffffff1603610f0c57600060016000801b93509350935050610f1b565b8060008060001b935093509350505b9450945094915050565b6000604051905090565b600080fd5b600080fd5b60007fffffffff0000000000000000000000000000000000000000000000000000000082169050919050565b610f6e81610f39565b8114610f7957600080fd5b50565b600081359050610f8b81610f65565b92915050565b600060208284031215610fa757610fa6610f2f565b5b6000610fb584828501610f7c565b91505092915050565b60008115159050919050565b610fd381610fbe565b82525050565b6000602082019050610fee6000830184610fca565b92915050565b600073ffffffffffffffffffffffffffffffffffffffff82169050919050565b600061101f82610ff4565b9050919050565b61102f81611014565b811461103a57600080fd5b50565b60008135905061104c81611026565b92915050565b6000819050919050565b61106581611052565b811461107057600080fd5b50565b6000813590506110828161105c565b92915050565b600080fd5b600080fd5b600080fd5b60008083601f8401126110ad576110ac611088565b5b8235905067ffffffffffffffff8111156110ca576110c961108d565b5b6020830191508360018202830111156110e6576110e5611092565b5b9250929050565b60008060008060006080868803121561110957611108610f2f565b5b60006111178882890161103d565b95505060206111288882890161103d565b945050604061113988828901611073565b935050606086013567ffffffffffffffff81111561115a57611159610f34565b5b61116688828901611097565b92509250509295509295909350565b61117e81610f39565b82525050565b60006020820190506111996000830184611175565b92915050565b6000819050919050565b6111b28161119f565b81146111bd57600080fd5b50565b6000813590506111cf816111a9565b92915050565b600080fd5b6000601f19601f8301169050919050565b7f4e487b7100000000000000000000000000000000000000000000000000000000600052604160045260246000fd5b611223826111da565b810181811067ffffffffffffffff82111715611242576112416111eb565b5b80604052505050565b6000611255610f25565b9050611261828261121a565b919050565b600067ffffffffffffffff821115611281576112806111eb565b5b61128a826111da565b9050602081019050919050565b82818337600083830152505050565b60006112b96112b484611266565b61124b565b9050828152602081018484840111156112d5576112d46111d5565b5b6112e0848285611297565b509392505050565b600082601f8301126112fd576112fc611088565b5b813561130d8482602086016112a6565b91505092915050565b6000806040838503121561132d5761132c610f2f565b5b600061133b858286016111c0565b925050602083013567ffffffffffffffff81111561135c5761135b610f34565b5b611368858286016112e8565b9150509250929050565b600061137d82611014565b9050919050565b61138d81611372565b811461139857600080fd5b50565b6000813590506113aa81611384565b92915050565b6000806000606084860312156113c9576113c8610f2f565b5b60006113d78682870161103d565b93505060206113e886828701611073565b92505060406113f98682870161139b565b9150509250925092565b61140c81611014565b82525050565b60006020820190506114276000830184611403565b92915050565b6000806000806060858703121561144757611446610f2f565b5b60006114558782880161103d565b945050602061146687828801611073565b935050604085013567ffffffffffffffff81111561148757611486610f34565b5b61149387828801611097565b925092505092959194509250565b600081519050919050565b600082825260208201905092915050565b60005b838110156114db5780820151818401526020810190506114c0565b60008484015250505050565b60006114f2826114a1565b6114fc81856114ac565b935061150c8185602086016114bd565b611515816111da565b840191505092915050565b6000602082019050818103600083015261153a81846114e7565b905092915050565b61154b81611052565b82525050565b60006020820190506115666000830184611542565b92915050565b60006060820190506115816000830186611542565b61158e6020830185611403565b61159b6040830184611542565b949350505050565b60008083601f8401126115b9576115b8611088565b5b8235905067ffffffffffffffff8111156115d6576115d561108d565b5b6020830191508360208202830111156115f2576115f1611092565b5b9250929050565b60008060008060008060008060a0898b03121561161957611618610f2f565b5b60006116278b828c0161103d565b98505060206116388b828c0161103d565b975050604089013567ffffffffffffffff81111561165957611658610f34565b5b6116658b828c016115a3565b9650965050606089013567ffffffffffffffff81111561168857611687610f34565b5b6116948b828c016115a3565b9450945050608089013567ffffffffffffffff8111156116b7576116b6610f34565b5b6116c38b828c01611097565b92509250509295985092959890939650565b60006116e082610ff4565b9050919050565b6116f0816116d5565b81146116fb57600080fd5b50565b60008135905061170d816116e7565b92915050565b6000806040838503121561172a57611729610f2f565b5b6000611738858286016116fe565b925050602061174985828601611073565b9150509250929050565b60008060008060008060a087890312156117705761176f610f2f565b5b600061177e89828a0161103d565b965050602061178f89828a0161103d565b95505060406117a089828a01611073565b94505060606117b189828a01611073565b935050608087013567ffffffffffffffff8111156117d2576117d1610f34565b5b6117de89828a01611097565b92509250509295509295509295565b600082825260208201905092915050565b7f4e6f7420746f6b656e206f776e65720000000000000000000000000000000000600082015250565b6000611834600f836117ed565b915061183f826117fe565b602082019050919050565b6000602082019050818103600083015261186381611827565b9050919050565b7f496e76616c696420746172676574206164647265737300000000000000000000600082015250565b60006118a06016836117ed565b91506118ab8261186a565b602082019050919050565b600060208201905081810360008301526118cf81611893565b9050919050565b6000815190506118e58161105c565b92915050565b60006020828403121561190157611900610f2f565b5b600061190f848285016118d6565b91505092915050565b7f496e73756666696369656e742066756e64730000000000000000000000000000600082015250565b600061194e6012836117ed565b915061195982611918565b602082019050919050565b6000602082019050818103600083015261197d81611941565b9050919050565b7f4e487b7100000000000000000000000000000000000000000000000000000000600052601160045260246000fd5b60006119be82611052565b91507fffffffffffffffffffffffffffffffffffffffffffffffffffffffffffffffff82036119f0576119ef611984565b5b600182019050919050565b6000604082019050611a106000830185611403565b611a1d6020830184611542565b9392505050565b611a2d81610fbe565b8114611a3857600080fd5b50565b600081519050611a4a81611a24565b92915050565b600060208284031215611a6657611a65610f2f565b5b6000611a7484828501611a3b565b91505092915050565b600081519050611a8c81611026565b92915050565b600080600060608486031215611aab57611aaa610f2f565b5b6000611ab9868287016118d6565b9350506020611aca86828701611a7d565b9250506040611adb868287016118d6565b9150509250925092565b600060208284031215611afb57611afa610f2f565b5b6000611b0984828501611a7d565b91505092915050565b6000611b1d82611052565b9150611b2883611052565b9250828203905081811115611b4057611b3f611984565b5b92915050565b600081905092915050565b6000611b5d8385611b46565b9350611b6a838584611297565b82840190509392505050565b6000611b83828486611b51565b91508190509392505050565b600081519050611b9e816116e7565b92915050565b600080600060608486031215611bbd57611bbc610f2f565b5b6000611bcb868287016118d6565b9350506020611bdc86828701611b8f565b9250506040611bed868287016118d6565b9150509250925092565b7f4e487b7100000000000000000000000000000000000000000000000000000000600052602160045260246000fd5b6000606082019050611c3b6000830186611542565b611c486020830185611542565b611c556040830184611542565b949350505050565b611c668161119f565b82525050565b6000604082019050611c816000830185611c5d565b8181036020830152611c9381846114e7565b90509392505050565b6000611ca7826114a1565b611cb18185611b46565b9350611cc18185602086016114bd565b80840191505092915050565b6000611cd98284611c9c565b915081905092915050565b600081519050611cf3816111a9565b92915050565b600060208284031215611d0f57611d0e610f2f565b5b6000611d1d84828501611ce4565b91505092915050565b600060ff82169050919050565b611d3c81611d26565b82525050565b6000608082019050611d576000830187611c5d565b611d646020830186611d33565b611d716040830185611c5d565b611d7e6060830184611c5d565b9594505050505056fea26469706673582212207542bec212a71f56f9e59560f7557d93dc0ad55411c7fd2af36b69c9376d829564736f6c634300081b0033",
  "linkReferences": {},
  "deployedLinkReferences": {}
}