{
  "_format": "hh-sol-artifact-1",
  "contractName": "ERC6551Account",
  "sourceName": "contracts/N2D-ERC6551-Account.sol",
  "abi": [
    {
      "inputs": [],
      "name": "ERC6551Account__ExternalCallFailed",
      "type": "error"
    },
    {
      "inputs": [],
      "name": "ERC6551Account__FailedDueToZeroAddressTransfer",
      "type": "error"
    },
    {
      "inputs": [],
      "name": "ERC6551Account__IncorrectArraySize",
      "type": "error"
    },
    {
      "inputs": [],
      "name": "ERC6551Account__LowBalanceToTransferFunds",
      "type": "error"
    },
    {
      "inputs": [],
      "name": "ERC6551Account__LowERC20TokenBalance",
      "type": "error"
    },
    {
      "inputs": [],
      "name": "ERC6551Account__NotOwner",
      "type": "error"
    },
    {
      "inputs": [
        {
          "internalType": "uint256",
          "name": "_size",
          "type": "uint256"
        },
        {
          "internalType": "uint256",
          "name": "_start",
          "type": "uint256"
        },
        {
          "internalType": "uint256",
          "name": "_end",
          "type": "uint256"
        }
      ],
      "name": "InvalidCodeAtRange",
      "type": "error"
    },
    {
      "inputs": [],
      "name": "ReentrancyGuardReentrantCall",
      "type": "error"
    },
    {
      "anonymous": false,
      "inputs": [
        {
          "indexed": true,
          "internalType": "address",
          "name": "target",
          "type": "address"
        },
        {
          "indexed": true,
          "internalType": "uint256",
          "name": "value",
          "type": "uint256"
        },
        {
          "indexed": false,
          "internalType": "bytes",
          "name": "data",
          "type": "bytes"
        }
      ],
      "name": "TransactionExecuted",
      "type": "event"
    },
    {
      "stateMutability": "payable",
      "type": "fallback"
    },
    {
      "inputs": [
        {
          "internalType": "address[]",
          "name": "to",
          "type": "address[]"
        },
        {
          "internalType": "uint256[]",
          "name": "amounts",
          "type": "uint256[]"
        }
      ],
      "name": "batchTransferEth",
      "outputs": [],
      "stateMutability": "payable",
      "type": "function"
    },
    {
      "inputs": [
        {
          "internalType": "address",
          "name": "to",
          "type": "address"
        },
        {
          "internalType": "uint256",
          "name": "value",
          "type": "uint256"
        },
        {
          "internalType": "bytes",
          "name": "data",
          "type": "bytes"
        }
      ],
      "name": "executeCall",
      "outputs": [
        {
          "internalType": "bytes",
          "name": "result",
          "type": "bytes"
        }
      ],
      "stateMutability": "payable",
      "type": "function"
    },
    {
      "inputs": [
        {
          "internalType": "bytes32",
          "name": "hash",
          "type": "bytes32"
        },
        {
          "internalType": "bytes",
          "name": "signature",
          "type": "bytes"
        }
      ],
      "name": "isValidSignature",
      "outputs": [
        {
          "internalType": "bytes4",
          "name": "signValues",
          "type": "bytes4"
        }
      ],
      "stateMutability": "view",
      "type": "function"
    },
    {
      "inputs": [],
      "name": "nftInfo",
      "outputs": [
        {
          "internalType": "uint256",
          "name": "chainId",
          "type": "uint256"
        },
        {
          "internalType": "address",
          "name": "tokenContract",
          "type": "address"
        },
        {
          "internalType": "uint256",
          "name": "tokenId",
          "type": "uint256"
        }
      ],
      "stateMutability": "view",
      "type": "function"
    },
    {
      "inputs": [],
      "name": "nonce",
      "outputs": [
        {
          "internalType": "uint256",
          "name": "",
          "type": "uint256"
        }
      ],
      "stateMutability": "view",
      "type": "function"
    },
    {
      "inputs": [],
      "name": "owner",
      "outputs": [
        {
          "internalType": "address",
          "name": "",
          "type": "address"
        }
      ],
      "stateMutability": "view",
      "type": "function"
    },
    {
      "inputs": [
        {
          "internalType": "address",
          "name": "to",
          "type": "address"
        },
        {
          "internalType": "uint256",
          "name": "amount",
          "type": "uint256"
        },
        {
          "internalType": "contract IERC20",
          "name": "erc20contract",
          "type": "address"
        }
      ],
      "name": "sendCustomErcTransfer",
      "outputs": [],
      "stateMutability": "nonpayable",
      "type": "function"
    },
    {
      "inputs": [
        {
          "internalType": "address payable",
          "name": "to",
          "type": "address"
        },
        {
          "internalType": "uint256",
          "name": "amount",
          "type": "uint256"
        }
      ],
      "name": "simpleEthTransferAccount",
      "outputs": [],
      "stateMutability": "payable",
      "type": "function"
    },
    {
      "inputs": [
        {
          "internalType": "bytes4",
          "name": "interfaceId",
          "type": "bytes4"
        }
      ],
      "name": "supportsInterface",
      "outputs": [
        {
          "internalType": "bool",
          "name": "",
          "type": "bool"
        }
      ],
      "stateMutability": "pure",
      "type": "function"
    },
    {
      "stateMutability": "payable",
      "type": "receive"
    }
  ],
  "bytecode": "0x608060405234801561001057600080fd5b506001600081905550611dbb806100286000396000f3fe60806040526004361061008a5760003560e01c80633b3b687c116100595780633b3b687c146101525780638da5cb5b1461016e5780639e5d4c4914610199578063affed0e0146101c9578063b553fe1e146101f457610091565b806301ffc9a7146100935780631626ba7e146100d057806318a70da91461010d57806324bd11e21461012957610091565b3661009157005b005b34801561009f57600080fd5b506100ba60048036038101906100b591906111bc565b610221565b6040516100c79190611204565b60405180910390f35b3480156100dc57600080fd5b506100f760048036038101906100f2919061139b565b6102f3565b6040516101049190611406565b60405180910390f35b610127600480360381019061012291906114b5565b61034b565b005b34801561013557600080fd5b50610150600480360381019061014b9190611571565b61050f565b005b61016c6004803603810190610167919061167a565b61072e565b005b34801561017a57600080fd5b506101836109d8565b604051610190919061170a565b60405180910390f35b6101b360048036038101906101ae919061177b565b610ae9565b6040516101c0919061186e565b60405180910390f35b3480156101d557600080fd5b506101de610c92565b6040516101eb919061189f565b60405180910390f35b34801561020057600080fd5b50610209610c97565b604051610218939291906118ba565b60405180910390f35b60007f01ffc9a7000000000000000000000000000000000000000000000000000000007bffffffffffffffffffffffffffffffffffffffffffffffffffffffff1916827bffffffffffffffffffffffffffffffffffffffffffffffffffffffff191614806102ec57507f0955a9ec000000000000000000000000000000000000000000000000000000007bffffffffffffffffffffffffffffffffffffffffffffffffffffffff1916827bffffffffffffffffffffffffffffffffffffffffffffffffffffffff1916145b9050919050565b6000806103086103016109d8565b8585610ced565b9050801561032057631626ba7e60e01b915050610345565b7f656e6400000000000000000000000000000000000000000000000000000000009150505b92915050565b610353610d9c565b600073ffffffffffffffffffffffffffffffffffffffff168273ffffffffffffffffffffffffffffffffffffffff16036103b9576040517fc269116200000000000000000000000000000000000000000000000000000000815260040160405180910390fd5b6103c16109d8565b73ffffffffffffffffffffffffffffffffffffffff163373ffffffffffffffffffffffffffffffffffffffff1614610425576040517fffb4324a00000000000000000000000000000000000000000000000000000000815260040160405180910390fd5b8047101561045f576040517f3ecc75d000000000000000000000000000000000000000000000000000000000815260040160405180910390fd5b60008273ffffffffffffffffffffffffffffffffffffffff168260405161048590611922565b60006040518083038185875af1925050503d80600081146104c2576040519150601f19603f3d011682016040523d82523d6000602084013e6104c7565b606091505b5050905080610502576040517f73c632db00000000000000000000000000000000000000000000000000000000815260040160405180910390fd5b5061050b610de2565b5050565b610517610d9c565b600073ffffffffffffffffffffffffffffffffffffffff168373ffffffffffffffffffffffffffffffffffffffff160361057d576040517fc269116200000000000000000000000000000000000000000000000000000000815260040160405180910390fd5b6105856109d8565b73ffffffffffffffffffffffffffffffffffffffff163373ffffffffffffffffffffffffffffffffffffffff16146105e9576040517fffb4324a00000000000000000000000000000000000000000000000000000000815260040160405180910390fd5b60008173ffffffffffffffffffffffffffffffffffffffff166370a08231306040518263ffffffff1660e01b8152600401610624919061170a565b602060405180830381865afa158015610641573d6000803e3d6000fd5b505050506040513d601f19601f82011682018060405250810190610665919061194c565b9050828110156106a1576040517fc82bbf7400000000000000000000000000000000000000000000000000000000815260040160405180910390fd5b8173ffffffffffffffffffffffffffffffffffffffff1663a9059cbb85856040518363ffffffff1660e01b81526004016106dc929190611979565b6020604051808303816000875af11580156106fb573d6000803e3d6000fd5b505050506040513d601f19601f8201168201806040525081019061071f91906119ce565b5050610729610de2565b505050565b610736610d9c565b61073e6109d8565b73ffffffffffffffffffffffffffffffffffffffff163373ffffffffffffffffffffffffffffffffffffffff16146107a2576040517fffb4324a00000000000000000000000000000000000000000000000000000000815260040160405180910390fd5b600084849050905060008383905090508082146107eb576040517f116c1ed200000000000000000000000000000000000000000000000000000000815260040160405180910390fd5b60005b828110156109c757848482818110610809576108086119fb565b5b90506020020135471015610849576040517f3ecc75d000000000000000000000000000000000000000000000000000000000815260040160405180910390fd5b600073ffffffffffffffffffffffffffffffffffffffff16878783818110610874576108736119fb565b5b90506020020160208101906108899190611a2a565b73ffffffffffffffffffffffffffffffffffffffff16036108d6576040517fc269116200000000000000000000000000000000000000000000000000000000815260040160405180910390fd5b60008787838181106108eb576108ea6119fb565b5b90506020020160208101906109009190611a2a565b73ffffffffffffffffffffffffffffffffffffffff16868684818110610929576109286119fb565b5b9050602002013560405161093c90611922565b60006040518083038185875af1925050503d8060008114610979576040519150601f19603f3d011682016040523d82523d6000602084013e61097e565b606091505b50509050806109b9576040517f73c632db00000000000000000000000000000000000000000000000000000000815260040160405180910390fd5b5080806001019150506107ee565b5050506109d2610de2565b50505050565b6000806000803073ffffffffffffffffffffffffffffffffffffffff1663b553fe1e6040518163ffffffff1660e01b8152600401606060405180830381865afa158015610a29573d6000803e3d6000fd5b505050506040513d601f19601f82011682018060405250810190610a4d9190611a6c565b925092509250468314610a665760009350505050610ae6565b8173ffffffffffffffffffffffffffffffffffffffff16636352211e826040518263ffffffff1660e01b8152600401610a9f919061189f565b602060405180830381865afa158015610abc573d6000803e3d6000fd5b505050506040513d601f19601f82011682018060405250810190610ae09190611abf565b93505050505b90565b6060610af3610d9c565b600073ffffffffffffffffffffffffffffffffffffffff168573ffffffffffffffffffffffffffffffffffffffff1603610b59576040517fc269116200000000000000000000000000000000000000000000000000000000815260040160405180910390fd5b610b616109d8565b73ffffffffffffffffffffffffffffffffffffffff163373ffffffffffffffffffffffffffffffffffffffff1614610bc5576040517fffb4324a00000000000000000000000000000000000000000000000000000000815260040160405180910390fd5b83471015610bff576040517f3ecc75d000000000000000000000000000000000000000000000000000000000815260040160405180910390fd5b60008573ffffffffffffffffffffffffffffffffffffffff16858585604051610c29929190611b11565b60006040518083038185875af1925050503d8060008114610c66576040519150601f19603f3d011682016040523d82523d6000602084013e610c6b565b606091505b50809350819250505080610c8157815160208301fd5b50610c8a610de2565b949350505050565b600090565b6000806000803073ffffffffffffffffffffffffffffffffffffffff163b9050610cce30606083610cc89190611b59565b83610dec565b806020019051810190610ce19190611ba2565b93509350935050909192565b6000808473ffffffffffffffffffffffffffffffffffffffff163b03610d8757600080610d1a8585610ed1565b509150915060006003811115610d3357610d32611bf5565b5b816003811115610d4657610d45611bf5565b5b148015610d7e57508573ffffffffffffffffffffffffffffffffffffffff168273ffffffffffffffffffffffffffffffffffffffff16145b92505050610d95565b610d92848484610f2d565b90505b9392505050565b600260005403610dd8576040517f3ee5aeb500000000000000000000000000000000000000000000000000000000815260040160405180910390fd5b6002600081905550565b6001600081905550565b60606000610df985611051565b905060008103610e1b5760405180602001604052806000815250915050610eca565b80841115610e3b5760405180602001604052806000815250915050610eca565b83831015610e84578084846040517f2c4a89fa000000000000000000000000000000000000000000000000000000008152600401610e7b93929190611c24565b60405180910390fd5b60008484039050600085830390506000828210610ea15782610ea3565b815b90506040519450601f19601f60208301011685016040528085528087602087018a3c505050505b9392505050565b60008060006041845103610f165760008060006020870151925060408701519150606087015160001a9050610f088882858561105c565b955095509550505050610f26565b60006002855160001b9250925092505b9250925092565b60008060008573ffffffffffffffffffffffffffffffffffffffff168585604051602401610f5c929190611c6a565b604051602081830303815290604052631626ba7e60e01b6020820180517bffffffffffffffffffffffffffffffffffffffffffffffffffffffff8381831617835250505050604051610fae9190611ccb565b600060405180830381855afa9150503d8060008114610fe9576040519150601f19603f3d011682016040523d82523d6000602084013e610fee565b606091505b509150915081801561100257506020815110155b80156110465750631626ba7e60e01b7bffffffffffffffffffffffffffffffffffffffffffffffffffffffff1916818060200190518101906110449190611cf7565b145b925050509392505050565b6000813b9050919050565b60008060007f7fffffffffffffffffffffffffffffff5d576e7357a4501ddfe92f46681b20a08460001c111561109c576000600385925092509250611146565b6000600188888888604051600081526020016040526040516110c19493929190611d40565b6020604051602081039080840390855afa1580156110e3573d6000803e3d6000fd5b505050602060405103519050600073ffffffffffffffffffffffffffffffffffffffff168173ffffffffffffffffffffffffffffffffffffffff160361113757600060016000801b93509350935050611146565b8060008060001b935093509350505b9450945094915050565b6000604051905090565b600080fd5b600080fd5b60007fffffffff0000000000000000000000000000000000000000000000000000000082169050919050565b61119981611164565b81146111a457600080fd5b50565b6000813590506111b681611190565b92915050565b6000602082840312156111d2576111d161115a565b5b60006111e0848285016111a7565b91505092915050565b60008115159050919050565b6111fe816111e9565b82525050565b600060208201905061121960008301846111f5565b92915050565b6000819050919050565b6112328161121f565b811461123d57600080fd5b50565b60008135905061124f81611229565b92915050565b600080fd5b600080fd5b6000601f19601f8301169050919050565b7f4e487b7100000000000000000000000000000000000000000000000000000000600052604160045260246000fd5b6112a88261125f565b810181811067ffffffffffffffff821117156112c7576112c6611270565b5b80604052505050565b60006112da611150565b90506112e6828261129f565b919050565b600067ffffffffffffffff82111561130657611305611270565b5b61130f8261125f565b9050602081019050919050565b82818337600083830152505050565b600061133e611339846112eb565b6112d0565b90508281526020810184848401111561135a5761135961125a565b5b61136584828561131c565b509392505050565b600082601f83011261138257611381611255565b5b813561139284826020860161132b565b91505092915050565b600080604083850312156113b2576113b161115a565b5b60006113c085828601611240565b925050602083013567ffffffffffffffff8111156113e1576113e061115f565b5b6113ed8582860161136d565b9150509250929050565b61140081611164565b82525050565b600060208201905061141b60008301846113f7565b92915050565b600073ffffffffffffffffffffffffffffffffffffffff82169050919050565b600061144c82611421565b9050919050565b61145c81611441565b811461146757600080fd5b50565b60008135905061147981611453565b92915050565b6000819050919050565b6114928161147f565b811461149d57600080fd5b50565b6000813590506114af81611489565b92915050565b600080604083850312156114cc576114cb61115a565b5b60006114da8582860161146a565b92505060206114eb858286016114a0565b9150509250929050565b600061150082611421565b9050919050565b611510816114f5565b811461151b57600080fd5b50565b60008135905061152d81611507565b92915050565b600061153e826114f5565b9050919050565b61154e81611533565b811461155957600080fd5b50565b60008135905061156b81611545565b92915050565b60008060006060848603121561158a5761158961115a565b5b60006115988682870161151e565b93505060206115a9868287016114a0565b92505060406115ba8682870161155c565b9150509250925092565b600080fd5b600080fd5b60008083601f8401126115e4576115e3611255565b5b8235905067ffffffffffffffff811115611601576116006115c4565b5b60208301915083602082028301111561161d5761161c6115c9565b5b9250929050565b60008083601f84011261163a57611639611255565b5b8235905067ffffffffffffffff811115611657576116566115c4565b5b602083019150836020820283011115611673576116726115c9565b5b9250929050565b600080600080604085870312156116945761169361115a565b5b600085013567ffffffffffffffff8111156116b2576116b161115f565b5b6116be878288016115ce565b9450945050602085013567ffffffffffffffff8111156116e1576116e061115f565b5b6116ed87828801611624565b925092505092959194509250565b611704816114f5565b82525050565b600060208201905061171f60008301846116fb565b92915050565b60008083601f84011261173b5761173a611255565b5b8235905067ffffffffffffffff811115611758576117576115c4565b5b602083019150836001820283011115611774576117736115c9565b5b9250929050565b600080600080606085870312156117955761179461115a565b5b60006117a38782880161151e565b94505060206117b4878288016114a0565b935050604085013567ffffffffffffffff8111156117d5576117d461115f565b5b6117e187828801611725565b925092505092959194509250565b600081519050919050565b600082825260208201905092915050565b60005b8381101561182957808201518184015260208101905061180e565b60008484015250505050565b6000611840826117ef565b61184a81856117fa565b935061185a81856020860161180b565b6118638161125f565b840191505092915050565b600060208201905081810360008301526118888184611835565b905092915050565b6118998161147f565b82525050565b60006020820190506118b46000830184611890565b92915050565b60006060820190506118cf6000830186611890565b6118dc60208301856116fb565b6118e96040830184611890565b949350505050565b600081905092915050565b50565b600061190c6000836118f1565b9150611917826118fc565b600082019050919050565b600061192d826118ff565b9150819050919050565b60008151905061194681611489565b92915050565b6000602082840312156119625761196161115a565b5b600061197084828501611937565b91505092915050565b600060408201905061198e60008301856116fb565b61199b6020830184611890565b9392505050565b6119ab816111e9565b81146119b657600080fd5b50565b6000815190506119c8816119a2565b92915050565b6000602082840312156119e4576119e361115a565b5b60006119f2848285016119b9565b91505092915050565b7f4e487b7100000000000000000000000000000000000000000000000000000000600052603260045260246000fd5b600060208284031215611a4057611a3f61115a565b5b6000611a4e8482850161151e565b91505092915050565b600081519050611a6681611507565b92915050565b600080600060608486031215611a8557611a8461115a565b5b6000611a9386828701611937565b9350506020611aa486828701611a57565b9250506040611ab586828701611937565b9150509250925092565b600060208284031215611ad557611ad461115a565b5b6000611ae384828501611a57565b91505092915050565b6000611af883856118f1565b9350611b0583858461131c565b82840190509392505050565b6000611b1e828486611aec565b91508190509392505050565b7f4e487b7100000000000000000000000000000000000000000000000000000000600052601160045260246000fd5b6000611b648261147f565b9150611b6f8361147f565b9250828203905081811115611b8757611b86611b2a565b5b92915050565b600081519050611b9c81611453565b92915050565b600080600060608486031215611bbb57611bba61115a565b5b6000611bc986828701611937565b9350506020611bda86828701611b8d565b9250506040611beb86828701611937565b9150509250925092565b7f4e487b7100000000000000000000000000000000000000000000000000000000600052602160045260246000fd5b6000606082019050611c396000830186611890565b611c466020830185611890565b611c536040830184611890565b949350505050565b611c648161121f565b82525050565b6000604082019050611c7f6000830185611c5b565b8181036020830152611c918184611835565b90509392505050565b6000611ca5826117ef565b611caf81856118f1565b9350611cbf81856020860161180b565b80840191505092915050565b6000611cd78284611c9a565b915081905092915050565b600081519050611cf181611229565b92915050565b600060208284031215611d0d57611d0c61115a565b5b6000611d1b84828501611ce2565b91505092915050565b600060ff82169050919050565b611d3a81611d24565b82525050565b6000608082019050611d556000830187611c5b565b611d626020830186611d31565b611d6f6040830185611c5b565b611d7c6060830184611c5b565b9594505050505056fea2646970667358221220e3f86cad4d11789bec9de6435741998b0cd4841efdda4786a2782a600c18263064736f6c63430008180033",
  "linkReferences": {},
  "deployedLinkReferences": {}
}