{
  "_format": "hh-sol-artifact-1",
  "contractName": "ERC6551Account",
  "sourceName": "contracts/N2D-ERC6551-Account.sol",
  "abi": [
    {
      "inputs": [],
      "stateMutability": "nonpayable",
      "type": "constructor"
    },
    {
      "inputs": [
        {
          "internalType": "uint256",
          "name": "_size",
          "type": "uint256"
        },
        {
          "internalType": "uint256",
          "name": "_start",
          "type": "uint256"
        },
        {
          "internalType": "uint256",
          "name": "_end",
          "type": "uint256"
        }
      ],
      "name": "InvalidCodeAtRange",
      "type": "error"
    },
    {
      "anonymous": false,
      "inputs": [
        {
          "indexed": true,
          "internalType": "address",
          "name": "target",
          "type": "address"
        },
        {
          "indexed": true,
          "internalType": "uint256",
          "name": "value",
          "type": "uint256"
        },
        {
          "indexed": false,
          "internalType": "bytes",
          "name": "data",
          "type": "bytes"
        }
      ],
      "name": "TransactionExecuted",
      "type": "event"
    },
    {
      "inputs": [
        {
          "internalType": "address",
          "name": "to",
          "type": "address"
        },
        {
          "internalType": "uint256",
          "name": "value",
          "type": "uint256"
        },
        {
          "internalType": "bytes",
          "name": "data",
          "type": "bytes"
        }
      ],
      "name": "executeCall",
      "outputs": [
        {
          "internalType": "bytes",
          "name": "result",
          "type": "bytes"
        }
      ],
      "stateMutability": "payable",
      "type": "function"
    },
    {
      "inputs": [
        {
          "internalType": "bytes32",
          "name": "hash",
          "type": "bytes32"
        },
        {
          "internalType": "bytes",
          "name": "signature",
          "type": "bytes"
        }
      ],
      "name": "isValidSignature",
      "outputs": [
        {
          "internalType": "bytes4",
          "name": "magicValue",
          "type": "bytes4"
        }
      ],
      "stateMutability": "view",
      "type": "function"
    },
    {
      "inputs": [],
      "name": "nftInfo",
      "outputs": [
        {
          "internalType": "uint256",
          "name": "chainId",
          "type": "uint256"
        },
        {
          "internalType": "address",
          "name": "tokenContract",
          "type": "address"
        },
        {
          "internalType": "uint256",
          "name": "tokenId",
          "type": "uint256"
        }
      ],
      "stateMutability": "view",
      "type": "function"
    },
    {
      "inputs": [],
      "name": "nonce",
      "outputs": [
        {
          "internalType": "uint256",
          "name": "",
          "type": "uint256"
        }
      ],
      "stateMutability": "view",
      "type": "function"
    },
    {
      "inputs": [],
      "name": "owner",
      "outputs": [
        {
          "internalType": "address",
          "name": "",
          "type": "address"
        }
      ],
      "stateMutability": "view",
      "type": "function"
    },
    {
      "inputs": [
        {
          "internalType": "address payable",
          "name": "to",
          "type": "address"
        },
        {
          "internalType": "uint256",
          "name": "amount",
          "type": "uint256"
        }
      ],
      "name": "send",
      "outputs": [],
      "stateMutability": "payable",
      "type": "function"
    },
    {
      "inputs": [
        {
          "internalType": "address",
          "name": "to",
          "type": "address"
        },
        {
          "internalType": "uint256",
          "name": "amount",
          "type": "uint256"
        },
        {
          "internalType": "contract IERC20",
          "name": "erc20contract",
          "type": "address"
        }
      ],
      "name": "sendCustom",
      "outputs": [],
      "stateMutability": "nonpayable",
      "type": "function"
    },
    {
      "inputs": [
        {
          "internalType": "bytes4",
          "name": "interfaceId",
          "type": "bytes4"
        }
      ],
      "name": "supportsInterface",
      "outputs": [
        {
          "internalType": "bool",
          "name": "",
          "type": "bool"
        }
      ],
      "stateMutability": "view",
      "type": "function"
    },
    {
      "stateMutability": "payable",
      "type": "receive"
    }
  ],
  "bytecode": "0x608060405234801561001057600080fd5b5060018060007f01ffc9a7000000000000000000000000000000000000000000000000000000007bffffffffffffffffffffffffffffffffffffffffffffffffffffffff19167bffffffffffffffffffffffffffffffffffffffffffffffffffffffff1916815260200190815260200160002060006101000a81548160ff02191690831515021790555060018060007f0955a9ec000000000000000000000000000000000000000000000000000000007bffffffffffffffffffffffffffffffffffffffffffffffffffffffff19167bffffffffffffffffffffffffffffffffffffffffffffffffffffffff1916815260200190815260200160002060006101000a81548160ff0219169083151502179055506119ca806101326000396000f3fe60806040526004361061007f5760003560e01c80639e5d4c491161004e5780639e5d4c4914610159578063affed0e014610189578063b553fe1e146101b4578063d0679d34146101e157610086565b806301ffc9a71461008b5780631626ba7e146100c85780638447305a146101055780638da5cb5b1461012e57610086565b3661008657005b600080fd5b34801561009757600080fd5b506100b260048036038101906100ad9190610df2565b6101fd565b6040516100bf9190610e3a565b60405180910390f35b3480156100d457600080fd5b506100ef60048036038101906100ea9190610fd1565b610265565b6040516100fc919061103c565b60405180910390f35b34801561011157600080fd5b5061012c60048036038101906101279190611129565b6102a1565b005b34801561013a57600080fd5b506101436104e2565b604051610150919061118b565b60405180910390f35b610173600480360381019061016e9190611206565b6105f3565b60405161018091906112f9565b60405180910390f35b34801561019557600080fd5b5061019e61078b565b6040516101ab919061132a565b60405180910390f35b3480156101c057600080fd5b506101c9610794565b6040516101d893929190611345565b60405180910390f35b6101fb60048036038101906101f691906113ba565b6107ea565b005b600060016000837bffffffffffffffffffffffffffffffffffffffffffffffffffffffff19167bffffffffffffffffffffffffffffffffffffffffffffffffffffffff1916815260200190815260200160002060009054906101000a900460ff169050919050565b60008061027a6102736104e2565b8585610973565b9050801561029257631626ba7e60e01b91505061029b565b600060e01b9150505b92915050565b6102a96104e2565b73ffffffffffffffffffffffffffffffffffffffff163373ffffffffffffffffffffffffffffffffffffffff1614610316576040517f08c379a000000000000000000000000000000000000000000000000000000000815260040161030d90611457565b60405180910390fd5b600073ffffffffffffffffffffffffffffffffffffffff168373ffffffffffffffffffffffffffffffffffffffff1603610385576040517f08c379a000000000000000000000000000000000000000000000000000000000815260040161037c906114c3565b60405180910390fd5b60008173ffffffffffffffffffffffffffffffffffffffff166370a08231306040518263ffffffff1660e01b81526004016103c0919061118b565b602060405180830381865afa1580156103dd573d6000803e3d6000fd5b505050506040513d601f19601f8201168201806040525081019061040191906114f8565b905082811015610446576040517f08c379a000000000000000000000000000000000000000000000000000000000815260040161043d90611571565b60405180910390fd5b600080815480929190610458906115c0565b91905055508173ffffffffffffffffffffffffffffffffffffffff1663a9059cbb85856040518363ffffffff1660e01b8152600401610498929190611608565b6020604051808303816000875af11580156104b7573d6000803e3d6000fd5b505050506040513d601f19601f820116820180604052508101906104db919061165d565b5050505050565b6000806000803073ffffffffffffffffffffffffffffffffffffffff1663b553fe1e6040518163ffffffff1660e01b8152600401606060405180830381865afa158015610533573d6000803e3d6000fd5b505050506040513d601f19601f82011682018060405250810190610557919061169f565b92509250925046831461057057600093505050506105f0565b8173ffffffffffffffffffffffffffffffffffffffff16636352211e826040518263ffffffff1660e01b81526004016105a9919061132a565b602060405180830381865afa1580156105c6573d6000803e3d6000fd5b505050506040513d601f19601f820116820180604052508101906105ea91906116f2565b93505050505b90565b60606105fd6104e2565b73ffffffffffffffffffffffffffffffffffffffff163373ffffffffffffffffffffffffffffffffffffffff161461066a576040517f08c379a000000000000000000000000000000000000000000000000000000000815260040161066190611457565b60405180910390fd5b600073ffffffffffffffffffffffffffffffffffffffff168573ffffffffffffffffffffffffffffffffffffffff16036106d9576040517f08c379a00000000000000000000000000000000000000000000000000000000081526004016106d0906114c3565b60405180910390fd5b6000808154809291906106eb906115c0565b919050555060008573ffffffffffffffffffffffffffffffffffffffff16856107d05a610718919061171f565b908686604051610729929190611783565b600060405180830381858888f193505050503d8060008114610767576040519150601f19603f3d011682016040523d82523d6000602084013e61076c565b606091505b5080935081925050508061078257815160208301fd5b50949350505050565b60008054905090565b6000806000803073ffffffffffffffffffffffffffffffffffffffff163b90506107cb306060836107c5919061171f565b83610a22565b8060200190518101906107de91906117b1565b93509350935050909192565b6107f26104e2565b73ffffffffffffffffffffffffffffffffffffffff163373ffffffffffffffffffffffffffffffffffffffff161461085f576040517f08c379a000000000000000000000000000000000000000000000000000000000815260040161085690611457565b60405180910390fd5b600073ffffffffffffffffffffffffffffffffffffffff168273ffffffffffffffffffffffffffffffffffffffff16036108ce576040517f08c379a00000000000000000000000000000000000000000000000000000000081526004016108c5906114c3565b60405180910390fd5b80471015610911576040517f08c379a000000000000000000000000000000000000000000000000000000000815260040161090890611571565b60405180910390fd5b600080815480929190610923906115c0565b91905055508173ffffffffffffffffffffffffffffffffffffffff166108fc829081150290604051600060405180830381858888f1935050505015801561096e573d6000803e3d6000fd5b505050565b6000808473ffffffffffffffffffffffffffffffffffffffff163b03610a0d576000806109a08585610b07565b5091509150600060038111156109b9576109b8611804565b5b8160038111156109cc576109cb611804565b5b148015610a0457508573ffffffffffffffffffffffffffffffffffffffff168273ffffffffffffffffffffffffffffffffffffffff16145b92505050610a1b565b610a18848484610b63565b90505b9392505050565b60606000610a2f85610c87565b905060008103610a515760405180602001604052806000815250915050610b00565b80841115610a715760405180602001604052806000815250915050610b00565b83831015610aba578084846040517f2c4a89fa000000000000000000000000000000000000000000000000000000008152600401610ab193929190611833565b60405180910390fd5b60008484039050600085830390506000828210610ad75782610ad9565b815b90506040519450601f19601f60208301011685016040528085528087602087018a3c505050505b9392505050565b60008060006041845103610b4c5760008060006020870151925060408701519150606087015160001a9050610b3e88828585610c92565b955095509550505050610b5c565b60006002855160001b9250925092505b9250925092565b60008060008573ffffffffffffffffffffffffffffffffffffffff168585604051602401610b92929190611879565b604051602081830303815290604052631626ba7e60e01b6020820180517bffffffffffffffffffffffffffffffffffffffffffffffffffffffff8381831617835250505050604051610be491906118da565b600060405180830381855afa9150503d8060008114610c1f576040519150601f19603f3d011682016040523d82523d6000602084013e610c24565b606091505b5091509150818015610c3857506020815110155b8015610c7c5750631626ba7e60e01b7bffffffffffffffffffffffffffffffffffffffffffffffffffffffff191681806020019051810190610c7a9190611906565b145b925050509392505050565b6000813b9050919050565b60008060007f7fffffffffffffffffffffffffffffff5d576e7357a4501ddfe92f46681b20a08460001c1115610cd2576000600385925092509250610d7c565b600060018888888860405160008152602001604052604051610cf7949392919061194f565b6020604051602081039080840390855afa158015610d19573d6000803e3d6000fd5b505050602060405103519050600073ffffffffffffffffffffffffffffffffffffffff168173ffffffffffffffffffffffffffffffffffffffff1603610d6d57600060016000801b93509350935050610d7c565b8060008060001b935093509350505b9450945094915050565b6000604051905090565b600080fd5b600080fd5b60007fffffffff0000000000000000000000000000000000000000000000000000000082169050919050565b610dcf81610d9a565b8114610dda57600080fd5b50565b600081359050610dec81610dc6565b92915050565b600060208284031215610e0857610e07610d90565b5b6000610e1684828501610ddd565b91505092915050565b60008115159050919050565b610e3481610e1f565b82525050565b6000602082019050610e4f6000830184610e2b565b92915050565b6000819050919050565b610e6881610e55565b8114610e7357600080fd5b50565b600081359050610e8581610e5f565b92915050565b600080fd5b600080fd5b6000601f19601f8301169050919050565b7f4e487b7100000000000000000000000000000000000000000000000000000000600052604160045260246000fd5b610ede82610e95565b810181811067ffffffffffffffff82111715610efd57610efc610ea6565b5b80604052505050565b6000610f10610d86565b9050610f1c8282610ed5565b919050565b600067ffffffffffffffff821115610f3c57610f3b610ea6565b5b610f4582610e95565b9050602081019050919050565b82818337600083830152505050565b6000610f74610f6f84610f21565b610f06565b905082815260208101848484011115610f9057610f8f610e90565b5b610f9b848285610f52565b509392505050565b600082601f830112610fb857610fb7610e8b565b5b8135610fc8848260208601610f61565b91505092915050565b60008060408385031215610fe857610fe7610d90565b5b6000610ff685828601610e76565b925050602083013567ffffffffffffffff81111561101757611016610d95565b5b61102385828601610fa3565b9150509250929050565b61103681610d9a565b82525050565b6000602082019050611051600083018461102d565b92915050565b600073ffffffffffffffffffffffffffffffffffffffff82169050919050565b600061108282611057565b9050919050565b61109281611077565b811461109d57600080fd5b50565b6000813590506110af81611089565b92915050565b6000819050919050565b6110c8816110b5565b81146110d357600080fd5b50565b6000813590506110e5816110bf565b92915050565b60006110f682611077565b9050919050565b611106816110eb565b811461111157600080fd5b50565b600081359050611123816110fd565b92915050565b60008060006060848603121561114257611141610d90565b5b6000611150868287016110a0565b9350506020611161868287016110d6565b925050604061117286828701611114565b9150509250925092565b61118581611077565b82525050565b60006020820190506111a0600083018461117c565b92915050565b600080fd5b600080fd5b60008083601f8401126111c6576111c5610e8b565b5b8235905067ffffffffffffffff8111156111e3576111e26111a6565b5b6020830191508360018202830111156111ff576111fe6111ab565b5b9250929050565b600080600080606085870312156112205761121f610d90565b5b600061122e878288016110a0565b945050602061123f878288016110d6565b935050604085013567ffffffffffffffff8111156112605761125f610d95565b5b61126c878288016111b0565b925092505092959194509250565b600081519050919050565b600082825260208201905092915050565b60005b838110156112b4578082015181840152602081019050611299565b60008484015250505050565b60006112cb8261127a565b6112d58185611285565b93506112e5818560208601611296565b6112ee81610e95565b840191505092915050565b6000602082019050818103600083015261131381846112c0565b905092915050565b611324816110b5565b82525050565b600060208201905061133f600083018461131b565b92915050565b600060608201905061135a600083018661131b565b611367602083018561117c565b611374604083018461131b565b949350505050565b600061138782611057565b9050919050565b6113978161137c565b81146113a257600080fd5b50565b6000813590506113b48161138e565b92915050565b600080604083850312156113d1576113d0610d90565b5b60006113df858286016113a5565b92505060206113f0858286016110d6565b9150509250929050565b600082825260208201905092915050565b7f4e6f7420746f6b656e206f776e65720000000000000000000000000000000000600082015250565b6000611441600f836113fa565b915061144c8261140b565b602082019050919050565b6000602082019050818103600083015261147081611434565b9050919050565b7f496e76616c696420746172676574206164647265737300000000000000000000600082015250565b60006114ad6016836113fa565b91506114b882611477565b602082019050919050565b600060208201905081810360008301526114dc816114a0565b9050919050565b6000815190506114f2816110bf565b92915050565b60006020828403121561150e5761150d610d90565b5b600061151c848285016114e3565b91505092915050565b7f496e73756666696369656e742066756e64730000000000000000000000000000600082015250565b600061155b6012836113fa565b915061156682611525565b602082019050919050565b6000602082019050818103600083015261158a8161154e565b9050919050565b7f4e487b7100000000000000000000000000000000000000000000000000000000600052601160045260246000fd5b60006115cb826110b5565b91507fffffffffffffffffffffffffffffffffffffffffffffffffffffffffffffffff82036115fd576115fc611591565b5b600182019050919050565b600060408201905061161d600083018561117c565b61162a602083018461131b565b9392505050565b61163a81610e1f565b811461164557600080fd5b50565b60008151905061165781611631565b92915050565b60006020828403121561167357611672610d90565b5b600061168184828501611648565b91505092915050565b60008151905061169981611089565b92915050565b6000806000606084860312156116b8576116b7610d90565b5b60006116c6868287016114e3565b93505060206116d78682870161168a565b92505060406116e8868287016114e3565b9150509250925092565b60006020828403121561170857611707610d90565b5b60006117168482850161168a565b91505092915050565b600061172a826110b5565b9150611735836110b5565b925082820390508181111561174d5761174c611591565b5b92915050565b600081905092915050565b600061176a8385611753565b9350611777838584610f52565b82840190509392505050565b600061179082848661175e565b91508190509392505050565b6000815190506117ab8161138e565b92915050565b6000806000606084860312156117ca576117c9610d90565b5b60006117d8868287016114e3565b93505060206117e98682870161179c565b92505060406117fa868287016114e3565b9150509250925092565b7f4e487b7100000000000000000000000000000000000000000000000000000000600052602160045260246000fd5b6000606082019050611848600083018661131b565b611855602083018561131b565b611862604083018461131b565b949350505050565b61187381610e55565b82525050565b600060408201905061188e600083018561186a565b81810360208301526118a081846112c0565b90509392505050565b60006118b48261127a565b6118be8185611753565b93506118ce818560208601611296565b80840191505092915050565b60006118e682846118a9565b915081905092915050565b60008151905061190081610e5f565b92915050565b60006020828403121561191c5761191b610d90565b5b600061192a848285016118f1565b91505092915050565b600060ff82169050919050565b61194981611933565b82525050565b6000608082019050611964600083018761186a565b6119716020830186611940565b61197e604083018561186a565b61198b606083018461186a565b9594505050505056fea2646970667358221220d06a90e35f2126f5ceeb4c666337ec2d4cedbff10b2b538b5f686b890e0a1eee64736f6c634300081b0033",
  "linkReferences": {},
  "deployedLinkReferences": {}
}