{"abi":[{"type":"constructor","inputs":[],"stateMutability":"nonpayable"},{"type":"function","name":"Mint","inputs":[],"outputs":[],"stateMutability":"nonpayable"},{"type":"function","name":"approve","inputs":[{"name":"to","type":"address","internalType":"address"},{"name":"tokenId","type":"uint256","internalType":"uint256"}],"outputs":[],"stateMutability":"nonpayable"},{"type":"function","name":"balanceOf","inputs":[{"name":"owner","type":"address","internalType":"address"}],"outputs":[{"name":"","type":"uint256","internalType":"uint256"}],"stateMutability":"view"},{"type":"function","name":"getApproved","inputs":[{"name":"tokenId","type":"uint256","internalType":"uint256"}],"outputs":[{"name":"","type":"address","internalType":"address"}],"stateMutability":"view"},{"type":"function","name":"isApprovedForAll","inputs":[{"name":"owner","type":"address","internalType":"address"},{"name":"operator","type":"address","internalType":"address"}],"outputs":[{"name":"","type":"bool","internalType":"bool"}],"stateMutability":"view"},{"type":"function","name":"name","inputs":[],"outputs":[{"name":"","type":"string","internalType":"string"}],"stateMutability":"view"},{"type":"function","name":"ownerOf","inputs":[{"name":"tokenId","type":"uint256","internalType":"uint256"}],"outputs":[{"name":"","type":"address","internalType":"address"}],"stateMutability":"view"},{"type":"function","name":"safeTransferFrom","inputs":[{"name":"from","type":"address","internalType":"address"},{"name":"to","type":"address","internalType":"address"},{"name":"tokenId","type":"uint256","internalType":"uint256"}],"outputs":[],"stateMutability":"nonpayable"},{"type":"function","name":"safeTransferFrom","inputs":[{"name":"from","type":"address","internalType":"address"},{"name":"to","type":"address","internalType":"address"},{"name":"tokenId","type":"uint256","internalType":"uint256"},{"name":"data","type":"bytes","internalType":"bytes"}],"outputs":[],"stateMutability":"nonpayable"},{"type":"function","name":"setApprovalForAll","inputs":[{"name":"operator","type":"address","internalType":"address"},{"name":"approved","type":"bool","internalType":"bool"}],"outputs":[],"stateMutability":"nonpayable"},{"type":"function","name":"supportsInterface","inputs":[{"name":"interfaceId","type":"bytes4","internalType":"bytes4"}],"outputs":[{"name":"","type":"bool","internalType":"bool"}],"stateMutability":"view"},{"type":"function","name":"symbol","inputs":[],"outputs":[{"name":"","type":"string","internalType":"string"}],"stateMutability":"view"},{"type":"function","name":"tokenByIndex","inputs":[{"name":"index","type":"uint256","internalType":"uint256"}],"outputs":[{"name":"","type":"uint256","internalType":"uint256"}],"stateMutability":"view"},{"type":"function","name":"tokenOfOwnerByIndex","inputs":[{"name":"owner","type":"address","internalType":"address"},{"name":"index","type":"uint256","internalType":"uint256"}],"outputs":[{"name":"","type":"uint256","internalType":"uint256"}],"stateMutability":"view"},{"type":"function","name":"tokenURI","inputs":[{"name":"tokenId","type":"uint256","internalType":"uint256"}],"outputs":[{"name":"","type":"string","internalType":"string"}],"stateMutability":"view"},{"type":"function","name":"totalSupply","inputs":[],"outputs":[{"name":"","type":"uint256","internalType":"uint256"}],"stateMutability":"view"},{"type":"function","name":"transferFrom","inputs":[{"name":"from","type":"address","internalType":"address"},{"name":"to","type":"address","internalType":"address"},{"name":"tokenId","type":"uint256","internalType":"uint256"}],"outputs":[],"stateMutability":"nonpayable"},{"type":"function","name":"walletOfOwner","inputs":[{"name":"_owner","type":"address","internalType":"address"}],"outputs":[{"name":"","type":"uint256[]","internalType":"uint256[]"}],"stateMutability":"view"},{"type":"event","name":"Approval","inputs":[{"name":"owner","type":"address","indexed":true,"internalType":"address"},{"name":"approved","type":"address","indexed":true,"internalType":"address"},{"name":"tokenId","type":"uint256","indexed":true,"internalType":"uint256"}],"anonymous":false},{"type":"event","name":"ApprovalForAll","inputs":[{"name":"owner","type":"address","indexed":true,"internalType":"address"},{"name":"operator","type":"address","indexed":true,"internalType":"address"},{"name":"approved","type":"bool","indexed":false,"internalType":"bool"}],"anonymous":false},{"type":"event","name":"Transfer","inputs":[{"name":"from","type":"address","indexed":true,"internalType":"address"},{"name":"to","type":"address","indexed":true,"internalType":"address"},{"name":"tokenId","type":"uint256","indexed":true,"internalType":"uint256"}],"anonymous":false},{"type":"error","name":"ERC721EnumerableForbiddenBatchMint","inputs":[]},{"type":"error","name":"ERC721IncorrectOwner","inputs":[{"name":"sender","type":"address","internalType":"address"},{"name":"tokenId","type":"uint256","internalType":"uint256"},{"name":"owner","type":"address","internalType":"address"}]},{"type":"error","name":"ERC721InsufficientApproval","inputs":[{"name":"operator","type":"address","internalType":"address"},{"name":"tokenId","type":"uint256","internalType":"uint256"}]},{"type":"error","name":"ERC721InvalidApprover","inputs":[{"name":"approver","type":"address","internalType":"address"}]},{"type":"error","name":"ERC721InvalidOperator","inputs":[{"name":"operator","type":"address","internalType":"address"}]},{"type":"error","name":"ERC721InvalidOwner","inputs":[{"name":"owner","type":"address","internalType":"address"}]},{"type":"error","name":"ERC721InvalidReceiver","inputs":[{"name":"receiver","type":"address","internalType":"address"}]},{"type":"error","name":"ERC721InvalidSender","inputs":[{"name":"sender","type":"address","internalType":"address"}]},{"type":"error","name":"ERC721NonexistentToken","inputs":[{"name":"tokenId","type":"uint256","internalType":"uint256"}]},{"type":"error","name":"ERC721OutOfBoundsIndex","inputs":[{"name":"owner","type":"address","internalType":"address"},{"name":"index","type":"uint256","internalType":"uint256"}]}],"bytecode":{"object":"0x608060405234801561000f575f5ffd5b506040518060400160405280601681526020017f4e657432446576204e465420436f6c6c656374696f6e000000000000000000008152506040518060400160405280600381526020017f4e32440000000000000000000000000000000000000000000000000000000000815250815f908161008a91906102df565b50806001908161009a91906102df565b5050506103ae565b5f81519050919050565b7f4e487b71000000000000000000000000000000000000000000000000000000005f52604160045260245ffd5b7f4e487b71000000000000000000000000000000000000000000000000000000005f52602260045260245ffd5b5f600282049050600182168061011d57607f821691505b6020821081036101305761012f6100d9565b5b50919050565b5f819050815f5260205f209050919050565b5f6020601f8301049050919050565b5f82821b905092915050565b5f600883026101927fffffffffffffffffffffffffffffffffffffffffffffffffffffffffffffffff82610157565b61019c8683610157565b95508019841693508086168417925050509392505050565b5f819050919050565b5f819050919050565b5f6101e06101db6101d6846101b4565b6101bd565b6101b4565b9050919050565b5f819050919050565b6101f9836101c6565b61020d610205826101e7565b848454610163565b825550505050565b5f5f905090565b610224610215565b61022f8184846101f0565b505050565b5b81811015610252576102475f8261021c565b600181019050610235565b5050565b601f8211156102975761026881610136565b61027184610148565b81016020851015610280578190505b61029461028c85610148565b830182610234565b50505b505050565b5f82821c905092915050565b5f6102b75f198460080261029c565b1980831691505092915050565b5f6102cf83836102a8565b9150826002028217905092915050565b6102e8826100a2565b67ffffffffffffffff811115610301576103006100ac565b5b61030b8254610106565b610316828285610256565b5f60209050601f831160018114610347575f8415610335578287015190505b61033f85826102c4565b8655506103a6565b601f19841661035586610136565b5f5b8281101561037c57848901518255600182019150602085019450602081019050610357565b868310156103995784890151610395601f8916826102a8565b8355505b6001600288020188555050505b505050505050565b612555806103bb5f395ff3fe608060405234801561000f575f5ffd5b5060043610610114575f3560e01c8063438b6300116100a057806395d89b411161006f57806395d89b4114610302578063a22cb46514610320578063b88d4fde1461033c578063c87b56dd14610358578063e985e9c51461038857610114565b8063438b6300146102425780634f6ccce7146102725780636352211e146102a257806370a08231146102d257610114565b806318160ddd116100e757806318160ddd146101b257806323b872dd146101d05780632f745c59146101ec57806334c738841461021c57806342842e0e1461022657610114565b806301ffc9a71461011857806306fdde0314610148578063081812fc14610166578063095ea7b314610196575b5f5ffd5b610132600480360381019061012d9190611c6f565b6103b8565b60405161013f9190611cb4565b60405180910390f35b610150610431565b60405161015d9190611d3d565b60405180910390f35b610180600480360381019061017b9190611d90565b6104c0565b60405161018d9190611dfa565b60405180910390f35b6101b060048036038101906101ab9190611e3d565b6104db565b005b6101ba6104f1565b6040516101c79190611e8a565b60405180910390f35b6101ea60048036038101906101e59190611ea3565b6104fd565b005b61020660048036038101906102019190611e3d565b6105fc565b6040516102139190611e8a565b60405180910390f35b6102246106a0565b005b610240600480360381019061023b9190611ea3565b6106b3565b005b61025c60048036038101906102579190611ef3565b6106d2565b6040516102699190611fd5565b60405180910390f35b61028c60048036038101906102879190611d90565b610777565b6040516102999190611e8a565b60405180910390f35b6102bc60048036038101906102b79190611d90565b6107e9565b6040516102c99190611dfa565b60405180910390f35b6102ec60048036038101906102e79190611ef3565b6107fa565b6040516102f99190611e8a565b60405180910390f35b61030a6108b0565b6040516103179190611d3d565b60405180910390f35b61033a6004803603810190610335919061201f565b610940565b005b61035660048036038101906103519190612189565b610956565b005b610372600480360381019061036d9190611d90565b61097b565b60405161037f9190611d3d565b60405180910390f35b6103a2600480360381019061039d9190612209565b6109e1565b6040516103af9190611cb4565b60405180910390f35b5f7f780e9d63000000000000000000000000000000000000000000000000000000007bffffffffffffffffffffffffffffffffffffffffffffffffffffffff1916827bffffffffffffffffffffffffffffffffffffffffffffffffffffffff1916148061042a575061042982610a6f565b5b9050919050565b60605f805461043f90612274565b80601f016020809104026020016040519081016040528092919081815260200182805461046b90612274565b80156104b65780601f1061048d576101008083540402835291602001916104b6565b820191905f5260205f20905b81548152906001019060200180831161049957829003601f168201915b5050505050905090565b5f6104ca82610b50565b506104d482610bd6565b9050919050565b6104ed82826104e8610c0f565b610c16565b5050565b5f600880549050905090565b5f73ffffffffffffffffffffffffffffffffffffffff168273ffffffffffffffffffffffffffffffffffffffff160361056d575f6040517f64a0ae920000000000000000000000000000000000000000000000000000000081526004016105649190611dfa565b60405180910390fd5b5f610580838361057b610c0f565b610c28565b90508373ffffffffffffffffffffffffffffffffffffffff168173ffffffffffffffffffffffffffffffffffffffff16146105f6578382826040517f64283d7b0000000000000000000000000000000000000000000000000000000081526004016105ed939291906122a4565b60405180910390fd5b50505050565b5f610606836107fa565b821061064b5782826040517fa57d13dc0000000000000000000000000000000000000000000000000000000081526004016106429291906122d9565b60405180910390fd5b60065f8473ffffffffffffffffffffffffffffffffffffffff1673ffffffffffffffffffffffffffffffffffffffff1681526020019081526020015f205f8381526020019081526020015f2054905092915050565b6106b1336106ac6104f1565b610d42565b565b6106cd83838360405180602001604052805f815250610956565b505050565b60605f6106de836107fa565b90505f8167ffffffffffffffff8111156106fb576106fa612065565b5b6040519080825280602002602001820160405280156107295781602001602082028036833780820191505090505b5090505f5b8281101561076c5761074085826105fc565b82828151811061075357610752612300565b5b602002602001018181525050808060010191505061072e565b508092505050919050565b5f6107806104f1565b82106107c5575f826040517fa57d13dc0000000000000000000000000000000000000000000000000000000081526004016107bc9291906122d9565b60405180910390fd5b600882815481106107d9576107d8612300565b5b905f5260205f2001549050919050565b5f6107f382610b50565b9050919050565b5f5f73ffffffffffffffffffffffffffffffffffffffff168273ffffffffffffffffffffffffffffffffffffffff160361086b575f6040517f89c62b640000000000000000000000000000000000000000000000000000000081526004016108629190611dfa565b60405180910390fd5b60035f8373ffffffffffffffffffffffffffffffffffffffff1673ffffffffffffffffffffffffffffffffffffffff1681526020019081526020015f20549050919050565b6060600180546108bf90612274565b80601f01602080910402602001604051908101604052809291908181526020018280546108eb90612274565b80156109365780601f1061090d57610100808354040283529160200191610936565b820191905f5260205f20905b81548152906001019060200180831161091957829003601f168201915b5050505050905090565b61095261094b610c0f565b8383610d5f565b5050565b6109618484846104fd565b61097561096c610c0f565b85858585610ec8565b50505050565b606061098682610b50565b505f610990611074565b90505f8151116109ae5760405180602001604052805f8152506109d9565b806109b88461108a565b6040516020016109c9929190612367565b6040516020818303038152906040525b915050919050565b5f60055f8473ffffffffffffffffffffffffffffffffffffffff1673ffffffffffffffffffffffffffffffffffffffff1681526020019081526020015f205f8373ffffffffffffffffffffffffffffffffffffffff1673ffffffffffffffffffffffffffffffffffffffff1681526020019081526020015f205f9054906101000a900460ff16905092915050565b5f7f80ac58cd000000000000000000000000000000000000000000000000000000007bffffffffffffffffffffffffffffffffffffffffffffffffffffffff1916827bffffffffffffffffffffffffffffffffffffffffffffffffffffffff19161480610b3957507f5b5e139f000000000000000000000000000000000000000000000000000000007bffffffffffffffffffffffffffffffffffffffffffffffffffffffff1916827bffffffffffffffffffffffffffffffffffffffffffffffffffffffff1916145b80610b495750610b4882611154565b5b9050919050565b5f5f610b5b836111bd565b90505f73ffffffffffffffffffffffffffffffffffffffff168173ffffffffffffffffffffffffffffffffffffffff1603610bcd57826040517f7e273289000000000000000000000000000000000000000000000000000000008152600401610bc49190611e8a565b60405180910390fd5b80915050919050565b5f60045f8381526020019081526020015f205f9054906101000a900473ffffffffffffffffffffffffffffffffffffffff169050919050565b5f33905090565b610c2383838360016111f6565b505050565b5f5f610c358585856113b5565b90505f73ffffffffffffffffffffffffffffffffffffffff168173ffffffffffffffffffffffffffffffffffffffff1603610c7857610c73846115c0565b610cb7565b8473ffffffffffffffffffffffffffffffffffffffff168173ffffffffffffffffffffffffffffffffffffffff1614610cb657610cb58185611604565b5b5b5f73ffffffffffffffffffffffffffffffffffffffff168573ffffffffffffffffffffffffffffffffffffffff1603610cf857610cf3846116db565b610d37565b8473ffffffffffffffffffffffffffffffffffffffff168173ffffffffffffffffffffffffffffffffffffffff1614610d3657610d35858561179b565b5b5b809150509392505050565b610d5b828260405180602001604052805f81525061181f565b5050565b5f73ffffffffffffffffffffffffffffffffffffffff168273ffffffffffffffffffffffffffffffffffffffff1603610dcf57816040517f5b08ba18000000000000000000000000000000000000000000000000000000008152600401610dc69190611dfa565b60405180910390fd5b8060055f8573ffffffffffffffffffffffffffffffffffffffff1673ffffffffffffffffffffffffffffffffffffffff1681526020019081526020015f205f8473ffffffffffffffffffffffffffffffffffffffff1673ffffffffffffffffffffffffffffffffffffffff1681526020019081526020015f205f6101000a81548160ff0219169083151502179055508173ffffffffffffffffffffffffffffffffffffffff168373ffffffffffffffffffffffffffffffffffffffff167f17307eab39ab6107e8899845ad3d59bd9653f200f220920489ca2b5937696c3183604051610ebb9190611cb4565b60405180910390a3505050565b5f8373ffffffffffffffffffffffffffffffffffffffff163b111561106d578273ffffffffffffffffffffffffffffffffffffffff1663150b7a02868685856040518563ffffffff1660e01b8152600401610f2694939291906123dc565b6020604051808303815f875af1925050508015610f6157506040513d601f19601f82011682018060405250810190610f5e919061243a565b60015b610fe2573d805f8114610f8f576040519150601f19603f3d011682016040523d82523d5f602084013e610f94565b606091505b505f815103610fda57836040517f64a0ae92000000000000000000000000000000000000000000000000000000008152600401610fd19190611dfa565b60405180910390fd5b805181602001fd5b63150b7a0260e01b7bffffffffffffffffffffffffffffffffffffffffffffffffffffffff1916817bffffffffffffffffffffffffffffffffffffffffffffffffffffffff19161461106b57836040517f64a0ae920000000000000000000000000000000000000000000000000000000081526004016110629190611dfa565b60405180910390fd5b505b5050505050565b606060405180602001604052805f815250905090565b60605f600161109884611842565b0190505f8167ffffffffffffffff8111156110b6576110b5612065565b5b6040519080825280601f01601f1916602001820160405280156110e85781602001600182028036833780820191505090505b5090505f82602001820190505b600115611149578080600190039150507f3031323334353637383961626364656600000000000000000000000000000000600a86061a8153600a858161113e5761113d612465565b5b0494505f85036110f5575b819350505050919050565b5f7f01ffc9a7000000000000000000000000000000000000000000000000000000007bffffffffffffffffffffffffffffffffffffffffffffffffffffffff1916827bffffffffffffffffffffffffffffffffffffffffffffffffffffffff1916149050919050565b5f60025f8381526020019081526020015f205f9054906101000a900473ffffffffffffffffffffffffffffffffffffffff169050919050565b808061122e57505f73ffffffffffffffffffffffffffffffffffffffff168273ffffffffffffffffffffffffffffffffffffffff1614155b15611360575f61123d84610b50565b90505f73ffffffffffffffffffffffffffffffffffffffff168373ffffffffffffffffffffffffffffffffffffffff16141580156112a757508273ffffffffffffffffffffffffffffffffffffffff168173ffffffffffffffffffffffffffffffffffffffff1614155b80156112ba57506112b881846109e1565b155b156112fc57826040517fa9fbf51f0000000000000000000000000000000000000000000000000000000081526004016112f39190611dfa565b60405180910390fd5b811561135e57838573ffffffffffffffffffffffffffffffffffffffff168273ffffffffffffffffffffffffffffffffffffffff167f8c5be1e5ebec7d5bd14f71427d1e84f3dd0314c0f7b2291e5b200ac8c7c3b92560405160405180910390a45b505b8360045f8581526020019081526020015f205f6101000a81548173ffffffffffffffffffffffffffffffffffffffff021916908373ffffffffffffffffffffffffffffffffffffffff16021790555050505050565b5f5f6113c0846111bd565b90505f73ffffffffffffffffffffffffffffffffffffffff168373ffffffffffffffffffffffffffffffffffffffff161461140157611400818486611993565b5b5f73ffffffffffffffffffffffffffffffffffffffff168173ffffffffffffffffffffffffffffffffffffffff161461148c576114405f855f5f6111f6565b600160035f8373ffffffffffffffffffffffffffffffffffffffff1673ffffffffffffffffffffffffffffffffffffffff1681526020019081526020015f205f82825403925050819055505b5f73ffffffffffffffffffffffffffffffffffffffff168573ffffffffffffffffffffffffffffffffffffffff161461150b57600160035f8773ffffffffffffffffffffffffffffffffffffffff1673ffffffffffffffffffffffffffffffffffffffff1681526020019081526020015f205f82825401925050819055505b8460025f8681526020019081526020015f205f6101000a81548173ffffffffffffffffffffffffffffffffffffffff021916908373ffffffffffffffffffffffffffffffffffffffff160217905550838573ffffffffffffffffffffffffffffffffffffffff168273ffffffffffffffffffffffffffffffffffffffff167fddf252ad1be2c89b69c2b068fc378daa952ba7f163c4a11628f55a4df523b3ef60405160405180910390a4809150509392505050565b60088054905060095f8381526020019081526020015f2081905550600881908060018154018082558091505060019003905f5260205f20015f909190919091505550565b5f61160e836107fa565b90505f60075f8481526020019081526020015f205490505f60065f8673ffffffffffffffffffffffffffffffffffffffff1673ffffffffffffffffffffffffffffffffffffffff1681526020019081526020015f2090508282146116ad575f815f8581526020019081526020015f2054905080825f8581526020019081526020015f20819055508260075f8381526020019081526020015f2081905550505b60075f8581526020019081526020015f205f9055805f8481526020019081526020015f205f90555050505050565b5f60016008805490506116ee91906124bf565b90505f60095f8481526020019081526020015f205490505f6008838154811061171a57611719612300565b5b905f5260205f2001549050806008838154811061173a57611739612300565b5b905f5260205f2001819055508160095f8381526020019081526020015f208190555060095f8581526020019081526020015f205f90556008805480611782576117816124f2565b5b600190038181905f5260205f20015f9055905550505050565b5f60016117a7846107fa565b6117b191906124bf565b90508160065f8573ffffffffffffffffffffffffffffffffffffffff1673ffffffffffffffffffffffffffffffffffffffff1681526020019081526020015f205f8381526020019081526020015f20819055508060075f8481526020019081526020015f2081905550505050565b6118298383611a56565b61183d611834610c0f565b5f858585610ec8565b505050565b5f5f5f90507a184f03e93ff9f4daa797ed6e38ed64bf6a1f010000000000000000831061189e577a184f03e93ff9f4daa797ed6e38ed64bf6a1f010000000000000000838161189457611893612465565b5b0492506040810190505b6d04ee2d6d415b85acef810000000083106118db576d04ee2d6d415b85acef810000000083816118d1576118d0612465565b5b0492506020810190505b662386f26fc10000831061190a57662386f26fc100008381611900576118ff612465565b5b0492506010810190505b6305f5e1008310611933576305f5e100838161192957611928612465565b5b0492506008810190505b612710831061195857612710838161194e5761194d612465565b5b0492506004810190505b6064831061197b576064838161197157611970612465565b5b0492506002810190505b600a831061198a576001810190505b80915050919050565b61199e838383611b49565b611a51575f73ffffffffffffffffffffffffffffffffffffffff168373ffffffffffffffffffffffffffffffffffffffff1603611a1257806040517f7e273289000000000000000000000000000000000000000000000000000000008152600401611a099190611e8a565b60405180910390fd5b81816040517f177e802f000000000000000000000000000000000000000000000000000000008152600401611a489291906122d9565b60405180910390fd5b505050565b5f73ffffffffffffffffffffffffffffffffffffffff168273ffffffffffffffffffffffffffffffffffffffff1603611ac6575f6040517f64a0ae92000000000000000000000000000000000000000000000000000000008152600401611abd9190611dfa565b60405180910390fd5b5f611ad283835f610c28565b90505f73ffffffffffffffffffffffffffffffffffffffff168173ffffffffffffffffffffffffffffffffffffffff1614611b44575f6040517f73c6ac6e000000000000000000000000000000000000000000000000000000008152600401611b3b9190611dfa565b60405180910390fd5b505050565b5f5f73ffffffffffffffffffffffffffffffffffffffff168373ffffffffffffffffffffffffffffffffffffffff1614158015611c0057508273ffffffffffffffffffffffffffffffffffffffff168473ffffffffffffffffffffffffffffffffffffffff161480611bc15750611bc084846109e1565b5b80611bff57508273ffffffffffffffffffffffffffffffffffffffff16611be783610bd6565b73ffffffffffffffffffffffffffffffffffffffff16145b5b90509392505050565b5f604051905090565b5f5ffd5b5f5ffd5b5f7fffffffff0000000000000000000000000000000000000000000000000000000082169050919050565b611c4e81611c1a565b8114611c58575f5ffd5b50565b5f81359050611c6981611c45565b92915050565b5f60208284031215611c8457611c83611c12565b5b5f611c9184828501611c5b565b91505092915050565b5f8115159050919050565b611cae81611c9a565b82525050565b5f602082019050611cc75f830184611ca5565b92915050565b5f81519050919050565b5f82825260208201905092915050565b8281835e5f83830152505050565b5f601f19601f8301169050919050565b5f611d0f82611ccd565b611d198185611cd7565b9350611d29818560208601611ce7565b611d3281611cf5565b840191505092915050565b5f6020820190508181035f830152611d558184611d05565b905092915050565b5f819050919050565b611d6f81611d5d565b8114611d79575f5ffd5b50565b5f81359050611d8a81611d66565b92915050565b5f60208284031215611da557611da4611c12565b5b5f611db284828501611d7c565b91505092915050565b5f73ffffffffffffffffffffffffffffffffffffffff82169050919050565b5f611de482611dbb565b9050919050565b611df481611dda565b82525050565b5f602082019050611e0d5f830184611deb565b92915050565b611e1c81611dda565b8114611e26575f5ffd5b50565b5f81359050611e3781611e13565b92915050565b5f5f60408385031215611e5357611e52611c12565b5b5f611e6085828601611e29565b9250506020611e7185828601611d7c565b9150509250929050565b611e8481611d5d565b82525050565b5f602082019050611e9d5f830184611e7b565b92915050565b5f5f5f60608486031215611eba57611eb9611c12565b5b5f611ec786828701611e29565b9350506020611ed886828701611e29565b9250506040611ee986828701611d7c565b9150509250925092565b5f60208284031215611f0857611f07611c12565b5b5f611f1584828501611e29565b91505092915050565b5f81519050919050565b5f82825260208201905092915050565b5f819050602082019050919050565b611f5081611d5d565b82525050565b5f611f618383611f47565b60208301905092915050565b5f602082019050919050565b5f611f8382611f1e565b611f8d8185611f28565b9350611f9883611f38565b805f5b83811015611fc8578151611faf8882611f56565b9750611fba83611f6d565b925050600181019050611f9b565b5085935050505092915050565b5f6020820190508181035f830152611fed8184611f79565b905092915050565b611ffe81611c9a565b8114612008575f5ffd5b50565b5f8135905061201981611ff5565b92915050565b5f5f6040838503121561203557612034611c12565b5b5f61204285828601611e29565b92505060206120538582860161200b565b9150509250929050565b5f5ffd5b5f5ffd5b7f4e487b71000000000000000000000000000000000000000000000000000000005f52604160045260245ffd5b61209b82611cf5565b810181811067ffffffffffffffff821117156120ba576120b9612065565b5b80604052505050565b5f6120cc611c09565b90506120d88282612092565b919050565b5f67ffffffffffffffff8211156120f7576120f6612065565b5b61210082611cf5565b9050602081019050919050565b828183375f83830152505050565b5f61212d612128846120dd565b6120c3565b90508281526020810184848401111561214957612148612061565b5b61215484828561210d565b509392505050565b5f82601f8301126121705761216f61205d565b5b813561218084826020860161211b565b91505092915050565b5f5f5f5f608085870312156121a1576121a0611c12565b5b5f6121ae87828801611e29565b94505060206121bf87828801611e29565b93505060406121d087828801611d7c565b925050606085013567ffffffffffffffff8111156121f1576121f0611c16565b5b6121fd8782880161215c565b91505092959194509250565b5f5f6040838503121561221f5761221e611c12565b5b5f61222c85828601611e29565b925050602061223d85828601611e29565b9150509250929050565b7f4e487b71000000000000000000000000000000000000000000000000000000005f52602260045260245ffd5b5f600282049050600182168061228b57607f821691505b60208210810361229e5761229d612247565b5b50919050565b5f6060820190506122b75f830186611deb565b6122c46020830185611e7b565b6122d16040830184611deb565b949350505050565b5f6040820190506122ec5f830185611deb565b6122f96020830184611e7b565b9392505050565b7f4e487b71000000000000000000000000000000000000000000000000000000005f52603260045260245ffd5b5f81905092915050565b5f61234182611ccd565b61234b818561232d565b935061235b818560208601611ce7565b80840191505092915050565b5f6123728285612337565b915061237e8284612337565b91508190509392505050565b5f81519050919050565b5f82825260208201905092915050565b5f6123ae8261238a565b6123b88185612394565b93506123c8818560208601611ce7565b6123d181611cf5565b840191505092915050565b5f6080820190506123ef5f830187611deb565b6123fc6020830186611deb565b6124096040830185611e7b565b818103606083015261241b81846123a4565b905095945050505050565b5f8151905061243481611c45565b92915050565b5f6020828403121561244f5761244e611c12565b5b5f61245c84828501612426565b91505092915050565b7f4e487b71000000000000000000000000000000000000000000000000000000005f52601260045260245ffd5b7f4e487b71000000000000000000000000000000000000000000000000000000005f52601160045260245ffd5b5f6124c982611d5d565b91506124d483611d5d565b92508282039050818111156124ec576124eb612492565b5b92915050565b7f4e487b71000000000000000000000000000000000000000000000000000000005f52603160045260245ffdfea26469706673582212206b8568fdac6fc91985ad29711a6780fabbde78969eedf2f757d621b868f934e064736f6c634300081c0033","linkReferences":{}},"methodIdentifiers":{"Mint()":"34c73884","approve(address,uint256)":"095ea7b3","balanceOf(address)":"70a08231","getApproved(uint256)":"081812fc","isApprovedForAll(address,address)":"e985e9c5","name()":"06fdde03","ownerOf(uint256)":"6352211e","safeTransferFrom(address,address,uint256)":"42842e0e","safeTransferFrom(address,address,uint256,bytes)":"b88d4fde","setApprovalForAll(address,bool)":"a22cb465","supportsInterface(bytes4)":"01ffc9a7","symbol()":"95d89b41","tokenByIndex(uint256)":"4f6ccce7","tokenOfOwnerByIndex(address,uint256)":"2f745c59","tokenURI(uint256)":"c87b56dd","totalSupply()":"18160ddd","transferFrom(address,address,uint256)":"23b872dd","walletOfOwner(address)":"438b6300"},"id":7}