{"abi":[{"type":"constructor","inputs":[],"stateMutability":"nonpayable"},{"type":"function","name":"Mint","inputs":[],"outputs":[],"stateMutability":"nonpayable"},{"type":"function","name":"approve","inputs":[{"name":"to","type":"address","internalType":"address"},{"name":"tokenId","type":"uint256","internalType":"uint256"}],"outputs":[],"stateMutability":"nonpayable"},{"type":"function","name":"balanceOf","inputs":[{"name":"owner","type":"address","internalType":"address"}],"outputs":[{"name":"","type":"uint256","internalType":"uint256"}],"stateMutability":"view"},{"type":"function","name":"getApproved","inputs":[{"name":"tokenId","type":"uint256","internalType":"uint256"}],"outputs":[{"name":"","type":"address","internalType":"address"}],"stateMutability":"view"},{"type":"function","name":"isApprovedForAll","inputs":[{"name":"owner","type":"address","internalType":"address"},{"name":"operator","type":"address","internalType":"address"}],"outputs":[{"name":"","type":"bool","internalType":"bool"}],"stateMutability":"view"},{"type":"function","name":"name","inputs":[],"outputs":[{"name":"","type":"string","internalType":"string"}],"stateMutability":"view"},{"type":"function","name":"ownerOf","inputs":[{"name":"tokenId","type":"uint256","internalType":"uint256"}],"outputs":[{"name":"","type":"address","internalType":"address"}],"stateMutability":"view"},{"type":"function","name":"safeTransferFrom","inputs":[{"name":"from","type":"address","internalType":"address"},{"name":"to","type":"address","internalType":"address"},{"name":"tokenId","type":"uint256","internalType":"uint256"}],"outputs":[],"stateMutability":"nonpayable"},{"type":"function","name":"safeTransferFrom","inputs":[{"name":"from","type":"address","internalType":"address"},{"name":"to","type":"address","internalType":"address"},{"name":"tokenId","type":"uint256","internalType":"uint256"},{"name":"data","type":"bytes","internalType":"bytes"}],"outputs":[],"stateMutability":"nonpayable"},{"type":"function","name":"setApprovalForAll","inputs":[{"name":"operator","type":"address","internalType":"address"},{"name":"approved","type":"bool","internalType":"bool"}],"outputs":[],"stateMutability":"nonpayable"},{"type":"function","name":"supportsInterface","inputs":[{"name":"interfaceId","type":"bytes4","internalType":"bytes4"}],"outputs":[{"name":"","type":"bool","internalType":"bool"}],"stateMutability":"view"},{"type":"function","name":"symbol","inputs":[],"outputs":[{"name":"","type":"string","internalType":"string"}],"stateMutability":"view"},{"type":"function","name":"tokenByIndex","inputs":[{"name":"index","type":"uint256","internalType":"uint256"}],"outputs":[{"name":"","type":"uint256","internalType":"uint256"}],"stateMutability":"view"},{"type":"function","name":"tokenOfOwnerByIndex","inputs":[{"name":"owner","type":"address","internalType":"address"},{"name":"index","type":"uint256","internalType":"uint256"}],"outputs":[{"name":"","type":"uint256","internalType":"uint256"}],"stateMutability":"view"},{"type":"function","name":"tokenURI","inputs":[{"name":"tokenId","type":"uint256","internalType":"uint256"}],"outputs":[{"name":"","type":"string","internalType":"string"}],"stateMutability":"view"},{"type":"function","name":"totalSupply","inputs":[],"outputs":[{"name":"","type":"uint256","internalType":"uint256"}],"stateMutability":"view"},{"type":"function","name":"transferFrom","inputs":[{"name":"from","type":"address","internalType":"address"},{"name":"to","type":"address","internalType":"address"},{"name":"tokenId","type":"uint256","internalType":"uint256"}],"outputs":[],"stateMutability":"nonpayable"},{"type":"function","name":"walletOfOwner","inputs":[{"name":"_owner","type":"address","internalType":"address"}],"outputs":[{"name":"","type":"uint256[]","internalType":"uint256[]"}],"stateMutability":"view"},{"type":"event","name":"Approval","inputs":[{"name":"owner","type":"address","indexed":true,"internalType":"address"},{"name":"approved","type":"address","indexed":true,"internalType":"address"},{"name":"tokenId","type":"uint256","indexed":true,"internalType":"uint256"}],"anonymous":false},{"type":"event","name":"ApprovalForAll","inputs":[{"name":"owner","type":"address","indexed":true,"internalType":"address"},{"name":"operator","type":"address","indexed":true,"internalType":"address"},{"name":"approved","type":"bool","indexed":false,"internalType":"bool"}],"anonymous":false},{"type":"event","name":"Transfer","inputs":[{"name":"from","type":"address","indexed":true,"internalType":"address"},{"name":"to","type":"address","indexed":true,"internalType":"address"},{"name":"tokenId","type":"uint256","indexed":true,"internalType":"uint256"}],"anonymous":false},{"type":"error","name":"ERC721EnumerableForbiddenBatchMint","inputs":[]},{"type":"error","name":"ERC721IncorrectOwner","inputs":[{"name":"sender","type":"address","internalType":"address"},{"name":"tokenId","type":"uint256","internalType":"uint256"},{"name":"owner","type":"address","internalType":"address"}]},{"type":"error","name":"ERC721InsufficientApproval","inputs":[{"name":"operator","type":"address","internalType":"address"},{"name":"tokenId","type":"uint256","internalType":"uint256"}]},{"type":"error","name":"ERC721InvalidApprover","inputs":[{"name":"approver","type":"address","internalType":"address"}]},{"type":"error","name":"ERC721InvalidOperator","inputs":[{"name":"operator","type":"address","internalType":"address"}]},{"type":"error","name":"ERC721InvalidOwner","inputs":[{"name":"owner","type":"address","internalType":"address"}]},{"type":"error","name":"ERC721InvalidReceiver","inputs":[{"name":"receiver","type":"address","internalType":"address"}]},{"type":"error","name":"ERC721InvalidSender","inputs":[{"name":"sender","type":"address","internalType":"address"}]},{"type":"error","name":"ERC721NonexistentToken","inputs":[{"name":"tokenId","type":"uint256","internalType":"uint256"}]},{"type":"error","name":"ERC721OutOfBoundsIndex","inputs":[{"name":"owner","type":"address","internalType":"address"},{"name":"index","type":"uint256","internalType":"uint256"}]}],"bytecode":{"object":"0x608060405234801561001057600080fd5b506040518060400160405280601681526020017f4e657432446576204e465420436f6c6c656374696f6e0000000000000000000081525060405180604001604052806003815260200162138c9160ea1b81525081600090816100729190610126565b50600161007f8282610126565b5050506101e4565b634e487b7160e01b600052604160045260246000fd5b600181811c908216806100b157607f821691505b6020821081036100d157634e487b7160e01b600052602260045260246000fd5b50919050565b601f82111561012157806000526020600020601f840160051c810160208510156100fe5750805b601f840160051c820191505b8181101561011e576000815560010161010a565b50505b505050565b81516001600160401b0381111561013f5761013f610087565b6101538161014d845461009d565b846100d7565b6020601f821160018114610187576000831561016f5750848201515b600019600385901b1c1916600184901b17845561011e565b600084815260208120601f198516915b828110156101b75787850151825560209485019460019092019101610197565b50848210156101d55786840151600019600387901b60f8161c191681555b50505050600190811b01905550565b61148e806101f36000396000f3fe608060405234801561001057600080fd5b50600436106101165760003560e01c8063438b6300116100a257806395d89b411161007157806395d89b4114610244578063a22cb4651461024c578063b88d4fde1461025f578063c87b56dd14610272578063e985e9c51461028557600080fd5b8063438b6300146101eb5780634f6ccce71461020b5780636352211e1461021e57806370a082311461023157600080fd5b806318160ddd116100e957806318160ddd1461019857806323b872dd146101aa5780632f745c59146101bd57806334c73884146101d057806342842e0e146101d857600080fd5b806301ffc9a71461011b57806306fdde0314610143578063081812fc14610158578063095ea7b314610183575b600080fd5b61012e610129366004611065565b610298565b60405190151581526020015b60405180910390f35b61014b6102c3565b60405161013a91906110d2565b61016b6101663660046110e5565b610355565b6040516001600160a01b03909116815260200161013a565b61019661019136600461111a565b61037e565b005b6008545b60405190815260200161013a565b6101966101b8366004611144565b61038d565b61019c6101cb36600461111a565b61041d565b610196610482565b6101966101e6366004611144565b610496565b6101fe6101f9366004611181565b6104b6565b60405161013a919061119c565b61019c6102193660046110e5565b61054e565b61016b61022c3660046110e5565b6105a7565b61019c61023f366004611181565b6105b2565b61014b6105fa565b61019661025a3660046111df565b610609565b61019661026d366004611231565b610614565b61014b6102803660046110e5565b61062c565b61012e610293366004611315565b6106a1565b60006001600160e01b0319821663780e9d6360e01b14806102bd57506102bd826106cf565b92915050565b6060600080546102d290611348565b80601f01602080910402602001604051908101604052809291908181526020018280546102fe90611348565b801561034b5780601f106103205761010080835404028352916020019161034b565b820191906000526020600020905b81548152906001019060200180831161032e57829003601f168201915b5050505050905090565b60006103608261071f565b506000828152600460205260409020546001600160a01b03166102bd565b610389828233610758565b5050565b6001600160a01b0382166103bc57604051633250574960e11b8152600060048201526024015b60405180910390fd5b60006103c9838333610765565b9050836001600160a01b0316816001600160a01b031614610417576040516364283d7b60e01b81526001600160a01b03808616600483015260248201849052821660448201526064016103b3565b50505050565b6000610428836105b2565b82106104595760405163295f44f760e21b81526001600160a01b0384166004820152602481018390526044016103b3565b506001600160a01b03919091166000908152600660209081526040808320938352929052205490565b6104943361048f60085490565b61083a565b565b6104b183838360405180602001604052806000815250610614565b505050565b606060006104c3836105b2565b905060008167ffffffffffffffff8111156104e0576104e061121b565b604051908082528060200260200182016040528015610509578160200160208202803683370190505b50905060005b8281101561054657610521858261041d565b82828151811061053357610533611382565b602090810291909101015260010161050f565b509392505050565b600061055960085490565b82106105825760405163295f44f760e21b815260006004820152602481018390526044016103b3565b6008828154811061059557610595611382565b90600052602060002001549050919050565b60006102bd8261071f565b60006001600160a01b0382166105de576040516322718ad960e21b8152600060048201526024016103b3565b506001600160a01b031660009081526003602052604090205490565b6060600180546102d290611348565b610389338383610854565b61061f84848461038d565b61041733858585856108f3565b60606106378261071f565b50600061064f60408051602081019091526000815290565b9050600081511161066f576040518060200160405280600081525061069a565b8061067984610a1e565b60405160200161068a929190611398565b6040516020818303038152906040525b9392505050565b6001600160a01b03918216600090815260056020908152604080832093909416825291909152205460ff1690565b60006001600160e01b031982166380ac58cd60e01b148061070057506001600160e01b03198216635b5e139f60e01b145b806102bd57506301ffc9a760e01b6001600160e01b03198316146102bd565b6000818152600260205260408120546001600160a01b0316806102bd57604051637e27328960e01b8152600481018490526024016103b3565b6104b18383836001610ab1565b600080610773858585610bb7565b90506001600160a01b0381166107d0576107cb84600880546000838152600960205260408120829055600182018355919091527ff3f7a9fe364faab93b216da50a3214154f22a0a2b415b23a84c8169e8b636ee30155565b6107f3565b846001600160a01b0316816001600160a01b0316146107f3576107f38185610cb0565b6001600160a01b03851661080f5761080a84610d31565b610832565b846001600160a01b0316816001600160a01b031614610832576108328585610de0565b949350505050565b610389828260405180602001604052806000815250610e30565b6001600160a01b03821661088657604051630b61174360e31b81526001600160a01b03831660048201526024016103b3565b6001600160a01b03838116600081815260056020908152604080832094871680845294825291829020805460ff191686151590811790915591519182527f17307eab39ab6107e8899845ad3d59bd9653f200f220920489ca2b5937696c31910160405180910390a3505050565b6001600160a01b0383163b15610a1757604051630a85bd0160e11b81526001600160a01b0384169063150b7a02906109359088908890879087906004016113c7565b6020604051808303816000875af1925050508015610970575060408051601f3d908101601f1916820190925261096d91810190611404565b60015b6109d9573d80801561099e576040519150601f19603f3d011682016040523d82523d6000602084013e6109a3565b606091505b5080516000036109d157604051633250574960e11b81526001600160a01b03851660048201526024016103b3565b805181602001fd5b6001600160e01b03198116630a85bd0160e11b14610a1557604051633250574960e11b81526001600160a01b03851660048201526024016103b3565b505b5050505050565b60606000610a2b83610e48565b600101905060008167ffffffffffffffff811115610a4b57610a4b61121b565b6040519080825280601f01601f191660200182016040528015610a75576020820181803683370190505b5090508181016020015b600019016f181899199a1a9b1b9c1cb0b131b232b360811b600a86061a8153600a8504945084610a7f57509392505050565b8080610ac557506001600160a01b03821615155b15610b87576000610ad58461071f565b90506001600160a01b03831615801590610b015750826001600160a01b0316816001600160a01b031614155b8015610b145750610b1281846106a1565b155b15610b3d5760405163a9fbf51f60e01b81526001600160a01b03841660048201526024016103b3565b8115610b855783856001600160a01b0316826001600160a01b03167f8c5be1e5ebec7d5bd14f71427d1e84f3dd0314c0f7b2291e5b200ac8c7c3b92560405160405180910390a45b505b5050600090815260046020526040902080546001600160a01b0319166001600160a01b0392909216919091179055565b6000828152600260205260408120546001600160a01b0390811690831615610be457610be4818486610f20565b6001600160a01b03811615610c2257610c01600085600080610ab1565b6001600160a01b038116600090815260036020526040902080546000190190555b6001600160a01b03851615610c51576001600160a01b0385166000908152600360205260409020805460010190555b60008481526002602052604080822080546001600160a01b0319166001600160a01b0389811691821790925591518793918516917fddf252ad1be2c89b69c2b068fc378daa952ba7f163c4a11628f55a4df523b3ef91a4949350505050565b6000610cbb836105b2565b6000838152600760209081526040808320546001600160a01b0388168452600690925290912091925090818314610d1257600083815260208281526040808320548584528184208190558352600790915290208290555b6000938452600760209081526040808620869055938552525081205550565b600854600090610d4390600190611421565b60008381526009602052604081205460088054939450909284908110610d6b57610d6b611382565b906000526020600020015490508060088381548110610d8c57610d8c611382565b6000918252602080832090910192909255828152600990915260408082208490558582528120556008805480610dc457610dc4611442565b6001900381819060005260206000200160009055905550505050565b60006001610ded846105b2565b610df79190611421565b6001600160a01b039093166000908152600660209081526040808320868452825280832085905593825260079052919091209190915550565b610e3a8383610f84565b6104b13360008585856108f3565b60008072184f03e93ff9f4daa797ed6e38ed64bf6a1f0160401b8310610e875772184f03e93ff9f4daa797ed6e38ed64bf6a1f0160401b830492506040015b6d04ee2d6d415b85acef81000000008310610eb3576d04ee2d6d415b85acef8100000000830492506020015b662386f26fc100008310610ed157662386f26fc10000830492506010015b6305f5e1008310610ee9576305f5e100830492506008015b6127108310610efd57612710830492506004015b60648310610f0f576064830492506002015b600a83106102bd5760010192915050565b610f2b838383610fe9565b6104b1576001600160a01b038316610f5957604051637e27328960e01b8152600481018290526024016103b3565b60405163177e802f60e01b81526001600160a01b0383166004820152602481018290526044016103b3565b6001600160a01b038216610fae57604051633250574960e11b8152600060048201526024016103b3565b6000610fbc83836000610765565b90506001600160a01b038116156104b1576040516339e3563760e11b8152600060048201526024016103b3565b60006001600160a01b038316158015906108325750826001600160a01b0316846001600160a01b03161480611023575061102384846106a1565b806108325750506000908152600460205260409020546001600160a01b03908116911614919050565b6001600160e01b03198116811461106257600080fd5b50565b60006020828403121561107757600080fd5b813561069a8161104c565b60005b8381101561109d578181015183820152602001611085565b50506000910152565b600081518084526110be816020860160208601611082565b601f01601f19169290920160200192915050565b60208152600061069a60208301846110a6565b6000602082840312156110f757600080fd5b5035919050565b80356001600160a01b038116811461111557600080fd5b919050565b6000806040838503121561112d57600080fd5b611136836110fe565b946020939093013593505050565b60008060006060848603121561115957600080fd5b611162846110fe565b9250611170602085016110fe565b929592945050506040919091013590565b60006020828403121561119357600080fd5b61069a826110fe565b602080825282518282018190526000918401906040840190835b818110156111d45783518352602093840193909201916001016111b6565b509095945050505050565b600080604083850312156111f257600080fd5b6111fb836110fe565b91506020830135801515811461121057600080fd5b809150509250929050565b634e487b7160e01b600052604160045260246000fd5b6000806000806080858703121561124757600080fd5b611250856110fe565b935061125e602086016110fe565b925060408501359150606085013567ffffffffffffffff81111561128157600080fd5b8501601f8101871361129257600080fd5b803567ffffffffffffffff8111156112ac576112ac61121b565b604051601f8201601f19908116603f0116810167ffffffffffffffff811182821017156112db576112db61121b565b6040528181528282016020018910156112f357600080fd5b8160208401602083013760006020838301015280935050505092959194509250565b6000806040838503121561132857600080fd5b611331836110fe565b915061133f602084016110fe565b90509250929050565b600181811c9082168061135c57607f821691505b60208210810361137c57634e487b7160e01b600052602260045260246000fd5b50919050565b634e487b7160e01b600052603260045260246000fd5b600083516113aa818460208801611082565b8351908301906113be818360208801611082565b01949350505050565b6001600160a01b03858116825284166020820152604081018390526080606082018190526000906113fa908301846110a6565b9695505050505050565b60006020828403121561141657600080fd5b815161069a8161104c565b818103818111156102bd57634e487b7160e01b600052601160045260246000fd5b634e487b7160e01b600052603160045260246000fdfea264697066735822122097759006c4699e0fec411dab2e04557327355aba5d27bd12ab0d11bef4b32eed64736f6c634300081b0033","linkReferences":{}},"methodIdentifiers":{"Mint()":"34c73884","approve(address,uint256)":"095ea7b3","balanceOf(address)":"70a08231","getApproved(uint256)":"081812fc","isApprovedForAll(address,address)":"e985e9c5","name()":"06fdde03","ownerOf(uint256)":"6352211e","safeTransferFrom(address,address,uint256)":"42842e0e","safeTransferFrom(address,address,uint256,bytes)":"b88d4fde","setApprovalForAll(address,bool)":"a22cb465","supportsInterface(bytes4)":"01ffc9a7","symbol()":"95d89b41","tokenByIndex(uint256)":"4f6ccce7","tokenOfOwnerByIndex(address,uint256)":"2f745c59","tokenURI(uint256)":"c87b56dd","totalSupply()":"18160ddd","transferFrom(address,address,uint256)":"23b872dd","walletOfOwner(address)":"438b6300"},"id":0}