{"abi":[{"type":"constructor","inputs":[{"name":"initialOwner","type":"address","internalType":"address"}],"stateMutability":"nonpayable"},{"type":"function","name":"approve","inputs":[{"name":"to","type":"address","internalType":"address"},{"name":"tokenId","type":"uint256","internalType":"uint256"}],"outputs":[],"stateMutability":"nonpayable"},{"type":"function","name":"balanceOf","inputs":[{"name":"owner","type":"address","internalType":"address"}],"outputs":[{"name":"","type":"uint256","internalType":"uint256"}],"stateMutability":"view"},{"type":"function","name":"baseExtension","inputs":[],"outputs":[{"name":"","type":"string","internalType":"string"}],"stateMutability":"view"},{"type":"function","name":"baseURI","inputs":[],"outputs":[{"name":"","type":"string","internalType":"string"}],"stateMutability":"view"},{"type":"function","name":"getApproved","inputs":[{"name":"tokenId","type":"uint256","internalType":"uint256"}],"outputs":[{"name":"","type":"address","internalType":"address"}],"stateMutability":"view"},{"type":"function","name":"isApprovedForAll","inputs":[{"name":"owner","type":"address","internalType":"address"},{"name":"operator","type":"address","internalType":"address"}],"outputs":[{"name":"","type":"bool","internalType":"bool"}],"stateMutability":"view"},{"type":"function","name":"maxMintAmount","inputs":[],"outputs":[{"name":"","type":"uint256","internalType":"uint256"}],"stateMutability":"view"},{"type":"function","name":"maxSupply","inputs":[],"outputs":[{"name":"","type":"uint256","internalType":"uint256"}],"stateMutability":"view"},{"type":"function","name":"mint","inputs":[{"name":"_to","type":"address","internalType":"address"},{"name":"_mintAmount","type":"uint256","internalType":"uint256"}],"outputs":[],"stateMutability":"payable"},{"type":"function","name":"name","inputs":[],"outputs":[{"name":"","type":"string","internalType":"string"}],"stateMutability":"view"},{"type":"function","name":"owner","inputs":[],"outputs":[{"name":"","type":"address","internalType":"address"}],"stateMutability":"view"},{"type":"function","name":"ownerOf","inputs":[{"name":"tokenId","type":"uint256","internalType":"uint256"}],"outputs":[{"name":"","type":"address","internalType":"address"}],"stateMutability":"view"},{"type":"function","name":"pause","inputs":[{"name":"_state","type":"bool","internalType":"bool"}],"outputs":[],"stateMutability":"nonpayable"},{"type":"function","name":"paused","inputs":[],"outputs":[{"name":"","type":"bool","internalType":"bool"}],"stateMutability":"view"},{"type":"function","name":"renounceOwnership","inputs":[],"outputs":[],"stateMutability":"nonpayable"},{"type":"function","name":"safeTransferFrom","inputs":[{"name":"from","type":"address","internalType":"address"},{"name":"to","type":"address","internalType":"address"},{"name":"tokenId","type":"uint256","internalType":"uint256"}],"outputs":[],"stateMutability":"nonpayable"},{"type":"function","name":"safeTransferFrom","inputs":[{"name":"from","type":"address","internalType":"address"},{"name":"to","type":"address","internalType":"address"},{"name":"tokenId","type":"uint256","internalType":"uint256"},{"name":"data","type":"bytes","internalType":"bytes"}],"outputs":[],"stateMutability":"nonpayable"},{"type":"function","name":"setApprovalForAll","inputs":[{"name":"operator","type":"address","internalType":"address"},{"name":"approved","type":"bool","internalType":"bool"}],"outputs":[],"stateMutability":"nonpayable"},{"type":"function","name":"setBaseExtension","inputs":[{"name":"_newBaseExtension","type":"string","internalType":"string"}],"outputs":[],"stateMutability":"nonpayable"},{"type":"function","name":"setBaseURI","inputs":[{"name":"_newBaseURI","type":"string","internalType":"string"}],"outputs":[],"stateMutability":"nonpayable"},{"type":"function","name":"setmaxMintAmount","inputs":[{"name":"_newmaxMintAmount","type":"uint256","internalType":"uint256"}],"outputs":[],"stateMutability":"nonpayable"},{"type":"function","name":"supportsInterface","inputs":[{"name":"interfaceId","type":"bytes4","internalType":"bytes4"}],"outputs":[{"name":"","type":"bool","internalType":"bool"}],"stateMutability":"view"},{"type":"function","name":"symbol","inputs":[],"outputs":[{"name":"","type":"string","internalType":"string"}],"stateMutability":"view"},{"type":"function","name":"tokenByIndex","inputs":[{"name":"index","type":"uint256","internalType":"uint256"}],"outputs":[{"name":"","type":"uint256","internalType":"uint256"}],"stateMutability":"view"},{"type":"function","name":"tokenOfOwnerByIndex","inputs":[{"name":"owner","type":"address","internalType":"address"},{"name":"index","type":"uint256","internalType":"uint256"}],"outputs":[{"name":"","type":"uint256","internalType":"uint256"}],"stateMutability":"view"},{"type":"function","name":"tokenURI","inputs":[{"name":"tokenId","type":"uint256","internalType":"uint256"}],"outputs":[{"name":"","type":"string","internalType":"string"}],"stateMutability":"view"},{"type":"function","name":"totalSupply","inputs":[],"outputs":[{"name":"","type":"uint256","internalType":"uint256"}],"stateMutability":"view"},{"type":"function","name":"transferFrom","inputs":[{"name":"from","type":"address","internalType":"address"},{"name":"to","type":"address","internalType":"address"},{"name":"tokenId","type":"uint256","internalType":"uint256"}],"outputs":[],"stateMutability":"nonpayable"},{"type":"function","name":"transferOwnership","inputs":[{"name":"newOwner","type":"address","internalType":"address"}],"outputs":[],"stateMutability":"nonpayable"},{"type":"function","name":"walletOfOwner","inputs":[{"name":"_owner","type":"address","internalType":"address"}],"outputs":[{"name":"","type":"uint256[]","internalType":"uint256[]"}],"stateMutability":"view"},{"type":"function","name":"withdraw","inputs":[],"outputs":[],"stateMutability":"payable"},{"type":"event","name":"Approval","inputs":[{"name":"owner","type":"address","indexed":true,"internalType":"address"},{"name":"approved","type":"address","indexed":true,"internalType":"address"},{"name":"tokenId","type":"uint256","indexed":true,"internalType":"uint256"}],"anonymous":false},{"type":"event","name":"ApprovalForAll","inputs":[{"name":"owner","type":"address","indexed":true,"internalType":"address"},{"name":"operator","type":"address","indexed":true,"internalType":"address"},{"name":"approved","type":"bool","indexed":false,"internalType":"bool"}],"anonymous":false},{"type":"event","name":"OwnershipTransferred","inputs":[{"name":"previousOwner","type":"address","indexed":true,"internalType":"address"},{"name":"newOwner","type":"address","indexed":true,"internalType":"address"}],"anonymous":false},{"type":"event","name":"Transfer","inputs":[{"name":"from","type":"address","indexed":true,"internalType":"address"},{"name":"to","type":"address","indexed":true,"internalType":"address"},{"name":"tokenId","type":"uint256","indexed":true,"internalType":"uint256"}],"anonymous":false},{"type":"error","name":"ERC721EnumerableForbiddenBatchMint","inputs":[]},{"type":"error","name":"ERC721IncorrectOwner","inputs":[{"name":"sender","type":"address","internalType":"address"},{"name":"tokenId","type":"uint256","internalType":"uint256"},{"name":"owner","type":"address","internalType":"address"}]},{"type":"error","name":"ERC721InsufficientApproval","inputs":[{"name":"operator","type":"address","internalType":"address"},{"name":"tokenId","type":"uint256","internalType":"uint256"}]},{"type":"error","name":"ERC721InvalidApprover","inputs":[{"name":"approver","type":"address","internalType":"address"}]},{"type":"error","name":"ERC721InvalidOperator","inputs":[{"name":"operator","type":"address","internalType":"address"}]},{"type":"error","name":"ERC721InvalidOwner","inputs":[{"name":"owner","type":"address","internalType":"address"}]},{"type":"error","name":"ERC721InvalidReceiver","inputs":[{"name":"receiver","type":"address","internalType":"address"}]},{"type":"error","name":"ERC721InvalidSender","inputs":[{"name":"sender","type":"address","internalType":"address"}]},{"type":"error","name":"ERC721NonexistentToken","inputs":[{"name":"tokenId","type":"uint256","internalType":"uint256"}]},{"type":"error","name":"ERC721OutOfBoundsIndex","inputs":[{"name":"owner","type":"address","internalType":"address"},{"name":"index","type":"uint256","internalType":"uint256"}]},{"type":"error","name":"OwnableInvalidOwner","inputs":[{"name":"owner","type":"address","internalType":"address"}]},{"type":"error","name":"OwnableUnauthorizedAccount","inputs":[{"name":"account","type":"address","internalType":"address"}]}],"bytecode":{"object":"0x60c06040526005608090815264173539b7b760d91b60a052600c906100249082610207565b506103e8600d556004600e55600f805460ff1916905534801561004657600080fd5b50604051611f71380380611f71833981016040819052610065916102c5565b806040518060400160405280601681526020017f4e657432446576204e465420436f6c6c656374696f6e0000000000000000000081525060405180604001604052806003815260200162138c9160ea1b81525081600090816100c79190610207565b5060016100d48282610207565b5050506001600160a01b03811661010557604051631e4fbdf760e01b81526000600482015260240160405180910390fd5b61010e81610116565b506102f59050565b600a80546001600160a01b038381166001600160a01b0319831681179093556040519116919082907f8be0079c531659141344cd1fd0a4f28419497f9722a3daafe3b4186f6b6457e090600090a35050565b634e487b7160e01b600052604160045260246000fd5b600181811c9082168061019257607f821691505b6020821081036101b257634e487b7160e01b600052602260045260246000fd5b50919050565b601f82111561020257806000526020600020601f840160051c810160208510156101df5750805b601f840160051c820191505b818110156101ff57600081556001016101eb565b50505b505050565b81516001600160401b0381111561022057610220610168565b6102348161022e845461017e565b846101b8565b6020601f82116001811461026857600083156102505750848201515b600019600385901b1c1916600184901b1784556101ff565b600084815260208120601f198516915b828110156102985787850151825560209485019460019092019101610278565b50848210156102b65786840151600019600387901b60f8161c191681555b50505050600190811b01905550565b6000602082840312156102d757600080fd5b81516001600160a01b03811681146102ee57600080fd5b9392505050565b611c6d806103046000396000f3fe6080604052600436106101d85760003560e01c80635c975abb11610102578063a22cb46511610095578063d5abeb0111610064578063d5abeb0114610517578063da3ef23f1461052d578063e985e9c51461054d578063f2fde38b1461056d57600080fd5b8063a22cb465146104a2578063b88d4fde146104c2578063c6682862146104e2578063c87b56dd146104f757600080fd5b8063715018a6116100d1578063715018a61461043a5780637f00c7a61461044f5780638da5cb5b1461046f57806395d89b411461048d57600080fd5b80635c975abb146103cb5780636352211e146103e55780636c0360eb1461040557806370a082311461041a57600080fd5b806323b872dd1161017a57806342842e0e1161014957806342842e0e1461033e578063438b63001461035e5780634f6ccce71461038b57806355f804b3146103ab57600080fd5b806323b872dd146102e35780632f745c59146103035780633ccfd60b1461032357806340c10f191461032b57600080fd5b8063081812fc116101b6578063081812fc14610256578063095ea7b31461028e57806318160ddd146102ae578063239c70ae146102cd57600080fd5b806301ffc9a7146101dd57806302329a291461021257806306fdde0314610234575b600080fd5b3480156101e957600080fd5b506101fd6101f8366004611624565b61058d565b60405190151581526020015b60405180910390f35b34801561021e57600080fd5b5061023261022d366004611656565b6105b8565b005b34801561024057600080fd5b506102496105d3565b60405161020991906116c1565b34801561026257600080fd5b506102766102713660046116d4565b610665565b6040516001600160a01b039091168152602001610209565b34801561029a57600080fd5b506102326102a9366004611704565b61068e565b3480156102ba57600080fd5b506008545b604051908152602001610209565b3480156102d957600080fd5b506102bf600e5481565b3480156102ef57600080fd5b506102326102fe36600461172e565b61069d565b34801561030f57600080fd5b506102bf61031e366004611704565b61072d565b610232610792565b610232610339366004611704565b6107c0565b34801561034a57600080fd5b5061023261035936600461172e565b610841565b34801561036a57600080fd5b5061037e61037936600461176b565b610861565b6040516102099190611786565b34801561039757600080fd5b506102bf6103a63660046116d4565b6108f9565b3480156103b757600080fd5b506102326103c6366004611859565b610952565b3480156103d757600080fd5b50600f546101fd9060ff1681565b3480156103f157600080fd5b506102766104003660046116d4565b610966565b34801561041157600080fd5b50610249610971565b34801561042657600080fd5b506102bf61043536600461176b565b6109ff565b34801561044657600080fd5b50610232610a47565b34801561045b57600080fd5b5061023261046a3660046116d4565b610a59565b34801561047b57600080fd5b50600a546001600160a01b0316610276565b34801561049957600080fd5b50610249610a66565b3480156104ae57600080fd5b506102326104bd3660046118a2565b610a75565b3480156104ce57600080fd5b506102326104dd3660046118d5565b610a80565b3480156104ee57600080fd5b50610249610a98565b34801561050357600080fd5b506102496105123660046116d4565b610aa5565b34801561052357600080fd5b506102bf600d5481565b34801561053957600080fd5b50610232610548366004611859565b610b83565b34801561055957600080fd5b506101fd610568366004611951565b610b97565b34801561057957600080fd5b5061023261058836600461176b565b610bc5565b60006001600160e01b0319821663780e9d6360e01b14806105b257506105b282610c03565b92915050565b6105c0610c53565b600f805460ff1916911515919091179055565b6060600080546105e29061197b565b80601f016020809104026020016040519081016040528092919081815260200182805461060e9061197b565b801561065b5780601f106106305761010080835404028352916020019161065b565b820191906000526020600020905b81548152906001019060200180831161063e57829003601f168201915b5050505050905090565b600061067082610c80565b506000828152600460205260409020546001600160a01b03166105b2565b610699828233610cb9565b5050565b6001600160a01b0382166106cc57604051633250574960e11b8152600060048201526024015b60405180910390fd5b60006106d9838333610cc6565b9050836001600160a01b0316816001600160a01b031614610727576040516364283d7b60e01b81526001600160a01b03808616600483015260248201849052821660448201526064016106c3565b50505050565b6000610738836109ff565b82106107695760405163295f44f760e21b81526001600160a01b0384166004820152602481018390526044016106c3565b506001600160a01b03919091166000908152600660209081526040808320938352929052205490565b61079a610c53565b60405133904780156108fc02916000818181858888f193505050506107be57600080fd5b565b60006107cb60085490565b600f5490915060ff16156107de57600080fd5b600082116107eb57600080fd5b600e548211156107fa57600080fd5b600d5461080783836119cb565b111561081257600080fd5b60015b8281116107275761082f8461082a83856119cb565b610d9b565b80610839816119de565b915050610815565b61085c83838360405180602001604052806000815250610a80565b505050565b6060600061086e836109ff565b905060008167ffffffffffffffff81111561088b5761088b6117c9565b6040519080825280602002602001820160405280156108b4578160200160208202803683370190505b50905060005b828110156108f1576108cc858261072d565b8282815181106108de576108de6119f7565b60209081029190910101526001016108ba565b509392505050565b600061090460085490565b821061092d5760405163295f44f760e21b815260006004820152602481018390526044016106c3565b60088281548110610940576109406119f7565b90600052602060002001549050919050565b61095a610c53565b600b6106998282611a54565b60006105b282610c80565b600b805461097e9061197b565b80601f01602080910402602001604051908101604052809291908181526020018280546109aa9061197b565b80156109f75780601f106109cc576101008083540402835291602001916109f7565b820191906000526020600020905b8154815290600101906020018083116109da57829003601f168201915b505050505081565b60006001600160a01b038216610a2b576040516322718ad960e21b8152600060048201526024016106c3565b506001600160a01b031660009081526003602052604090205490565b610a4f610c53565b6107be6000610db5565b610a61610c53565b600e55565b6060600180546105e29061197b565b610699338383610e07565b610a8b84848461069d565b6107273385858585610ea6565b600c805461097e9061197b565b6000818152600260205260409020546060906001600160a01b0316610b245760405162461bcd60e51b815260206004820152602f60248201527f4552433732314d657461646174613a2055524920717565727920666f72206e6f60448201526e3732bc34b9ba32b73a103a37b5b2b760891b60648201526084016106c3565b6000610b2e610fd1565b90506000815111610b4e5760405180602001604052806000815250610b7c565b80610b5884610fe0565b600c604051602001610b6c93929190611b13565b6040516020818303038152906040525b9392505050565b610b8b610c53565b600c6106998282611a54565b6001600160a01b03918216600090815260056020908152604080832093909416825291909152205460ff1690565b610bcd610c53565b6001600160a01b038116610bf757604051631e4fbdf760e01b8152600060048201526024016106c3565b610c0081610db5565b50565b60006001600160e01b031982166380ac58cd60e01b1480610c3457506001600160e01b03198216635b5e139f60e01b145b806105b257506301ffc9a760e01b6001600160e01b03198316146105b2565b600a546001600160a01b031633146107be5760405163118cdaa760e01b81523360048201526024016106c3565b6000818152600260205260408120546001600160a01b0316806105b257604051637e27328960e01b8152600481018490526024016106c3565b61085c8383836001611073565b600080610cd4858585611179565b90506001600160a01b038116610d3157610d2c84600880546000838152600960205260408120829055600182018355919091527ff3f7a9fe364faab93b216da50a3214154f22a0a2b415b23a84c8169e8b636ee30155565b610d54565b846001600160a01b0316816001600160a01b031614610d5457610d548185611272565b6001600160a01b038516610d7057610d6b846112f3565b610d93565b846001600160a01b0316816001600160a01b031614610d9357610d9385856113a2565b949350505050565b6106998282604051806020016040528060008152506113f2565b600a80546001600160a01b038381166001600160a01b0319831681179093556040519116919082907f8be0079c531659141344cd1fd0a4f28419497f9722a3daafe3b4186f6b6457e090600090a35050565b6001600160a01b038216610e3957604051630b61174360e31b81526001600160a01b03831660048201526024016106c3565b6001600160a01b03838116600081815260056020908152604080832094871680845294825291829020805460ff191686151590811790915591519182527f17307eab39ab6107e8899845ad3d59bd9653f200f220920489ca2b5937696c31910160405180910390a3505050565b6001600160a01b0383163b15610fca57604051630a85bd0160e11b81526001600160a01b0384169063150b7a0290610ee8908890889087908790600401611bb4565b6020604051808303816000875af1925050508015610f23575060408051601f3d908101601f19168201909252610f2091810190611bf1565b60015b610f8c573d808015610f51576040519150601f19603f3d011682016040523d82523d6000602084013e610f56565b606091505b508051600003610f8457604051633250574960e11b81526001600160a01b03851660048201526024016106c3565b805181602001fd5b6001600160e01b03198116630a85bd0160e11b14610fc857604051633250574960e11b81526001600160a01b03851660048201526024016106c3565b505b5050505050565b6060600b80546105e29061197b565b60606000610fed8361140a565b600101905060008167ffffffffffffffff81111561100d5761100d6117c9565b6040519080825280601f01601f191660200182016040528015611037576020820181803683370190505b5090508181016020015b600019016f181899199a1a9b1b9c1cb0b131b232b360811b600a86061a8153600a850494508461104157509392505050565b808061108757506001600160a01b03821615155b1561114957600061109784610c80565b90506001600160a01b038316158015906110c35750826001600160a01b0316816001600160a01b031614155b80156110d657506110d48184610b97565b155b156110ff5760405163a9fbf51f60e01b81526001600160a01b03841660048201526024016106c3565b81156111475783856001600160a01b0316826001600160a01b03167f8c5be1e5ebec7d5bd14f71427d1e84f3dd0314c0f7b2291e5b200ac8c7c3b92560405160405180910390a45b505b5050600090815260046020526040902080546001600160a01b0319166001600160a01b0392909216919091179055565b6000828152600260205260408120546001600160a01b03908116908316156111a6576111a68184866114e2565b6001600160a01b038116156111e4576111c3600085600080611073565b6001600160a01b038116600090815260036020526040902080546000190190555b6001600160a01b03851615611213576001600160a01b0385166000908152600360205260409020805460010190555b60008481526002602052604080822080546001600160a01b0319166001600160a01b0389811691821790925591518793918516917fddf252ad1be2c89b69c2b068fc378daa952ba7f163c4a11628f55a4df523b3ef91a4949350505050565b600061127d836109ff565b6000838152600760209081526040808320546001600160a01b03881684526006909252909120919250908183146112d457600083815260208281526040808320548584528184208190558352600790915290208290555b6000938452600760209081526040808620869055938552525081205550565b60085460009061130590600190611c0e565b6000838152600960205260408120546008805493945090928490811061132d5761132d6119f7565b90600052602060002001549050806008838154811061134e5761134e6119f7565b600091825260208083209091019290925582815260099091526040808220849055858252812055600880548061138657611386611c21565b6001900381819060005260206000200160009055905550505050565b600060016113af846109ff565b6113b99190611c0e565b6001600160a01b039093166000908152600660209081526040808320868452825280832085905593825260079052919091209190915550565b6113fc8383611546565b61085c336000858585610ea6565b60008072184f03e93ff9f4daa797ed6e38ed64bf6a1f0160401b83106114495772184f03e93ff9f4daa797ed6e38ed64bf6a1f0160401b830492506040015b6d04ee2d6d415b85acef81000000008310611475576d04ee2d6d415b85acef8100000000830492506020015b662386f26fc10000831061149357662386f26fc10000830492506010015b6305f5e10083106114ab576305f5e100830492506008015b61271083106114bf57612710830492506004015b606483106114d1576064830492506002015b600a83106105b25760010192915050565b6114ed8383836115ab565b61085c576001600160a01b03831661151b57604051637e27328960e01b8152600481018290526024016106c3565b60405163177e802f60e01b81526001600160a01b0383166004820152602481018290526044016106c3565b6001600160a01b03821661157057604051633250574960e11b8152600060048201526024016106c3565b600061157e83836000610cc6565b90506001600160a01b0381161561085c576040516339e3563760e11b8152600060048201526024016106c3565b60006001600160a01b03831615801590610d935750826001600160a01b0316846001600160a01b031614806115e557506115e58484610b97565b80610d935750506000908152600460205260409020546001600160a01b03908116911614919050565b6001600160e01b031981168114610c0057600080fd5b60006020828403121561163657600080fd5b8135610b7c8161160e565b8035801515811461165157600080fd5b919050565b60006020828403121561166857600080fd5b610b7c82611641565b60005b8381101561168c578181015183820152602001611674565b50506000910152565b600081518084526116ad816020860160208601611671565b601f01601f19169290920160200192915050565b602081526000610b7c6020830184611695565b6000602082840312156116e657600080fd5b5035919050565b80356001600160a01b038116811461165157600080fd5b6000806040838503121561171757600080fd5b611720836116ed565b946020939093013593505050565b60008060006060848603121561174357600080fd5b61174c846116ed565b925061175a602085016116ed565b929592945050506040919091013590565b60006020828403121561177d57600080fd5b610b7c826116ed565b602080825282518282018190526000918401906040840190835b818110156117be5783518352602093840193909201916001016117a0565b509095945050505050565b634e487b7160e01b600052604160045260246000fd5b60008067ffffffffffffffff8411156117fa576117fa6117c9565b50604051601f19601f85018116603f0116810181811067ffffffffffffffff82111715611829576118296117c9565b60405283815290508082840185101561184157600080fd5b83836020830137600060208583010152509392505050565b60006020828403121561186b57600080fd5b813567ffffffffffffffff81111561188257600080fd5b8201601f8101841361189357600080fd5b610d93848235602084016117df565b600080604083850312156118b557600080fd5b6118be836116ed565b91506118cc60208401611641565b90509250929050565b600080600080608085870312156118eb57600080fd5b6118f4856116ed565b9350611902602086016116ed565b925060408501359150606085013567ffffffffffffffff81111561192557600080fd5b8501601f8101871361193657600080fd5b611945878235602084016117df565b91505092959194509250565b6000806040838503121561196457600080fd5b61196d836116ed565b91506118cc602084016116ed565b600181811c9082168061198f57607f821691505b6020821081036119af57634e487b7160e01b600052602260045260246000fd5b50919050565b634e487b7160e01b600052601160045260246000fd5b808201808211156105b2576105b26119b5565b6000600182016119f0576119f06119b5565b5060010190565b634e487b7160e01b600052603260045260246000fd5b601f82111561085c57806000526020600020601f840160051c81016020851015611a345750805b601f840160051c820191505b81811015610fca5760008155600101611a40565b815167ffffffffffffffff811115611a6e57611a6e6117c9565b611a8281611a7c845461197b565b84611a0d565b6020601f821160018114611ab65760008315611a9e5750848201515b600019600385901b1c1916600184901b178455610fca565b600084815260208120601f198516915b82811015611ae65787850151825560209485019460019092019101611ac6565b5084821015611b045786840151600019600387901b60f8161c191681555b50505050600190811b01905550565b60008451611b25818460208901611671565b845190830190611b39818360208901611671565b8454910190600090611b4a8161197b565b600182168015611b615760018114611b7657611ba6565b60ff1983168552811515820285019350611ba6565b87600052602060002060005b83811015611b9e57815487820152600190910190602001611b82565b505081850193505b509198975050505050505050565b6001600160a01b0385811682528416602082015260408101839052608060608201819052600090611be790830184611695565b9695505050505050565b600060208284031215611c0357600080fd5b8151610b7c8161160e565b818103818111156105b2576105b26119b5565b634e487b7160e01b600052603160045260246000fdfea2646970667358221220face039ab005ae080db09dd11e4eae9b430a15f4def20a9534fe3139aac98ea164736f6c634300081b0033","linkReferences":{}},"methodIdentifiers":{"approve(address,uint256)":"095ea7b3","balanceOf(address)":"70a08231","baseExtension()":"c6682862","baseURI()":"6c0360eb","getApproved(uint256)":"081812fc","isApprovedForAll(address,address)":"e985e9c5","maxMintAmount()":"239c70ae","maxSupply()":"d5abeb01","mint(address,uint256)":"40c10f19","name()":"06fdde03","owner()":"8da5cb5b","ownerOf(uint256)":"6352211e","pause(bool)":"02329a29","paused()":"5c975abb","renounceOwnership()":"715018a6","safeTransferFrom(address,address,uint256)":"42842e0e","safeTransferFrom(address,address,uint256,bytes)":"b88d4fde","setApprovalForAll(address,bool)":"a22cb465","setBaseExtension(string)":"da3ef23f","setBaseURI(string)":"55f804b3","setmaxMintAmount(uint256)":"7f00c7a6","supportsInterface(bytes4)":"01ffc9a7","symbol()":"95d89b41","tokenByIndex(uint256)":"4f6ccce7","tokenOfOwnerByIndex(address,uint256)":"2f745c59","tokenURI(uint256)":"c87b56dd","totalSupply()":"18160ddd","transferFrom(address,address,uint256)":"23b872dd","transferOwnership(address)":"f2fde38b","walletOfOwner(address)":"438b6300","withdraw()":"3ccfd60b"},"id":4}