{"abi":[{"type":"receive","stateMutability":"payable"},{"type":"function","name":"executeCall","inputs":[{"name":"to","type":"address","internalType":"address"},{"name":"value","type":"uint256","internalType":"uint256"},{"name":"data","type":"bytes","internalType":"bytes"}],"outputs":[{"name":"result","type":"bytes","internalType":"bytes"}],"stateMutability":"payable"},{"type":"function","name":"isValidSignature","inputs":[{"name":"hash","type":"bytes32","internalType":"bytes32"},{"name":"signature","type":"bytes","internalType":"bytes"}],"outputs":[{"name":"signValues","type":"bytes4","internalType":"bytes4"}],"stateMutability":"view"},{"type":"function","name":"nftInfo","inputs":[],"outputs":[{"name":"chainId","type":"uint256","internalType":"uint256"},{"name":"tokenContract","type":"address","internalType":"address"},{"name":"tokenId","type":"uint256","internalType":"uint256"}],"stateMutability":"view"},{"type":"function","name":"nonce","inputs":[],"outputs":[{"name":"","type":"uint256","internalType":"uint256"}],"stateMutability":"view"},{"type":"function","name":"owner","inputs":[],"outputs":[{"name":"","type":"address","internalType":"address"}],"stateMutability":"view"},{"type":"function","name":"send","inputs":[{"name":"to","type":"address","internalType":"address payable"},{"name":"amount","type":"uint256","internalType":"uint256"}],"outputs":[],"stateMutability":"payable"},{"type":"function","name":"sendCustom","inputs":[{"name":"to","type":"address","internalType":"address"},{"name":"amount","type":"uint256","internalType":"uint256"},{"name":"erc20contract","type":"address","internalType":"contract IERC20"}],"outputs":[],"stateMutability":"nonpayable"},{"type":"function","name":"supportsInterface","inputs":[{"name":"interfaceId","type":"bytes4","internalType":"bytes4"}],"outputs":[{"name":"","type":"bool","internalType":"bool"}],"stateMutability":"pure"},{"type":"event","name":"TransactionExecuted","inputs":[{"name":"target","type":"address","indexed":true,"internalType":"address"},{"name":"value","type":"uint256","indexed":true,"internalType":"uint256"},{"name":"data","type":"bytes","indexed":false,"internalType":"bytes"}],"anonymous":false},{"type":"error","name":"InvalidCodeAtRange","inputs":[{"name":"_size","type":"uint256","internalType":"uint256"},{"name":"_start","type":"uint256","internalType":"uint256"},{"name":"_end","type":"uint256","internalType":"uint256"}]}],"bytecode":{"object":"0x6080604052348015600f57600080fd5b50610d598061001f6000396000f3fe60806040526004361061007f5760003560e01c80639e5d4c491161004e5780639e5d4c4914610148578063affed0e014610168578063b553fe1e14610184578063d0679d34146101bc57600080fd5b806301ffc9a71461008b5780631626ba7e146100c05780638447305a146100f95780638da5cb5b1461011b57600080fd5b3661008657005b600080fd5b34801561009757600080fd5b506100ab6100a636600461096b565b6101cf565b60405190151581526020015b60405180910390f35b3480156100cc57600080fd5b506100e06100db3660046109ab565b610206565b6040516001600160e01b031990911681526020016100b7565b34801561010557600080fd5b50610119610114366004610a86565b610242565b005b34801561012757600080fd5b506101306103af565b6040516001600160a01b0390911681526020016100b7565b61015b610156366004610ac8565b61049f565b6040516100b79190610ba4565b34801561017457600080fd5b50604051600081526020016100b7565b34801561019057600080fd5b50610199610553565b604080519384526001600160a01b039092166020840152908201526060016100b7565b6101196101ca366004610bb7565b61058f565b60006001600160e01b031982166301ffc9a760e01b148061020057506001600160e01b031982166302556a7b60e21b145b92915050565b60008061021b6102146103af565b8585610647565b905080156102335750630b135d3f60e11b9050610200565b5062195b9960ea1b9392505050565b61024a6103af565b6001600160a01b0316336001600160a01b0316146102835760405162461bcd60e51b815260040161027a90610be3565b60405180910390fd5b6040516370a0823160e01b81523060048201526000906001600160a01b038316906370a0823190602401602060405180830381865afa1580156102ca573d6000803e3d6000fd5b505050506040513d601f19601f820116820180604052508101906102ee9190610c0c565b9050828110156103355760405162461bcd60e51b8152602060048201526012602482015271496e73756666696369656e742066756e647360701b604482015260640161027a565b60405163a9059cbb60e01b81526001600160a01b0385811660048301526024820185905283169063a9059cbb906044016020604051808303816000875af1158015610384573d6000803e3d6000fd5b505050506040513d601f19601f820116820180604052508101906103a89190610c25565b5050505050565b600080600080306001600160a01b031663b553fe1e6040518163ffffffff1660e01b8152600401606060405180830381865afa1580156103f3573d6000803e3d6000fd5b505050506040513d601f19601f820116820180604052508101906104179190610c47565b92509250925046831461042e576000935050505090565b6040516331a9108f60e11b8152600481018290526001600160a01b03831690636352211e90602401602060405180830381865afa158015610473573d6000803e3d6000fd5b505050506040513d601f19601f820116820180604052508101906104979190610c82565b935050505090565b60606104a96103af565b6001600160a01b0316336001600160a01b0316146104d95760405162461bcd60e51b815260040161027a90610be3565b6000856001600160a01b03168585856040516104f6929190610c9f565b60006040518083038185875af1925050503d8060008114610533576040519150601f19603f3d011682016040523d82523d6000602084013e610538565b606091505b50925090508061054a57815160208301fd5b50949350505050565b6000808030803b906105709061056a606084610caf565b836106be565b8060200190518101906105839190610c47565b93509350935050909192565b6105976103af565b6001600160a01b0316336001600160a01b0316146105c75760405162461bcd60e51b815260040161027a90610be3565b8047101561060c5760405162461bcd60e51b8152602060048201526012602482015271496e73756666696369656e742066756e647360701b604482015260640161027a565b6040516001600160a01b0383169082156108fc029083906000818181858888f19350505050158015610642573d6000803e3d6000fd5b505050565b6000836001600160a01b03163b6000036106a9576000806106688585610773565b509092509050600081600381111561068257610682610cd0565b1480156106a05750856001600160a01b0316826001600160a01b0316145b925050506106b7565b6106b48484846107c0565b90505b9392505050565b6060833b60008190036106e15750506040805160208101909152600081526106b7565b808411156106ff5750506040805160208101909152600081526106b7565b838310156107315760405163162544fd60e11b815260048101829052602481018590526044810184905260640161027a565b83830384820360008282106107465782610748565b815b60408051603f8301601f19168101909152818152955090508087602087018a3c505050509392505050565b600080600083516041036107ad5760208401516040850151606086015160001a61079f8882858561089c565b9550955095505050506107b9565b50508151600091506002905b9250925092565b6000806000856001600160a01b031685856040516024016107e2929190610ce6565b60408051601f198184030181529181526020820180516001600160e01b0316630b135d3f60e11b179052516108179190610d07565b600060405180830381855afa9150503d8060008114610852576040519150601f19603f3d011682016040523d82523d6000602084013e610857565b606091505b509150915081801561086b57506020815110155b801561089257508051630b135d3f60e11b906108909083016020908101908401610c0c565b145b9695505050505050565b600080807f7fffffffffffffffffffffffffffffff5d576e7357a4501ddfe92f46681b20a08411156108d75750600091506003905082610961565b604080516000808252602082018084528a905260ff891692820192909252606081018790526080810186905260019060a0016020604051602081039080840390855afa15801561092b573d6000803e3d6000fd5b5050604051601f1901519150506001600160a01b03811661095757506000925060019150829050610961565b9250600091508190505b9450945094915050565b60006020828403121561097d57600080fd5b81356001600160e01b0319811681146106b757600080fd5b634e487b7160e01b600052604160045260246000fd5b600080604083850312156109be57600080fd5b82359150602083013567ffffffffffffffff8111156109dc57600080fd5b8301601f810185136109ed57600080fd5b803567ffffffffffffffff811115610a0757610a07610995565b604051601f8201601f19908116603f0116810167ffffffffffffffff81118282101715610a3657610a36610995565b604052818152828201602001871015610a4e57600080fd5b816020840160208301376000602083830101528093505050509250929050565b6001600160a01b0381168114610a8357600080fd5b50565b600080600060608486031215610a9b57600080fd5b8335610aa681610a6e565b9250602084013591506040840135610abd81610a6e565b809150509250925092565b60008060008060608587031215610ade57600080fd5b8435610ae981610a6e565b935060208501359250604085013567ffffffffffffffff811115610b0c57600080fd5b8501601f81018713610b1d57600080fd5b803567ffffffffffffffff811115610b3457600080fd5b876020828401011115610b4657600080fd5b949793965060200194505050565b60005b83811015610b6f578181015183820152602001610b57565b50506000910152565b60008151808452610b90816020860160208601610b54565b601f01601f19169290920160200192915050565b6020815260006106b76020830184610b78565b60008060408385031215610bca57600080fd5b8235610bd581610a6e565b946020939093013593505050565b6020808252600f908201526e2737ba103a37b5b2b71037bbb732b960891b604082015260600190565b600060208284031215610c1e57600080fd5b5051919050565b600060208284031215610c3757600080fd5b815180151581146106b757600080fd5b600080600060608486031215610c5c57600080fd5b83516020850151909350610c6f81610a6e565b6040949094015192959394509192915050565b600060208284031215610c9457600080fd5b81516106b781610a6e565b8183823760009101908152919050565b8181038181111561020057634e487b7160e01b600052601160045260246000fd5b634e487b7160e01b600052602160045260246000fd5b828152604060208201526000610cff6040830184610b78565b949350505050565b60008251610d19818460208701610b54565b919091019291505056fea2646970667358221220b29a61cabfed1e56f00f23f08df1a4d5745002df3a855ab65e3be2d49bdca24664736f6c634300081b0033","linkReferences":{}},"methodIdentifiers":{"executeCall(address,uint256,bytes)":"9e5d4c49","isValidSignature(bytes32,bytes)":"1626ba7e","nftInfo()":"b553fe1e","nonce()":"affed0e0","owner()":"8da5cb5b","send(address,uint256)":"d0679d34","sendCustom(address,uint256,address)":"8447305a","supportsInterface(bytes4)":"01ffc9a7"},"id":1}