{"abi":[{"type":"constructor","inputs":[],"stateMutability":"nonpayable"},{"type":"receive","stateMutability":"payable"},{"type":"function","name":"executeCall","inputs":[{"name":"to","type":"address","internalType":"address"},{"name":"value","type":"uint256","internalType":"uint256"},{"name":"data","type":"bytes","internalType":"bytes"}],"outputs":[{"name":"result","type":"bytes","internalType":"bytes"}],"stateMutability":"payable"},{"type":"function","name":"isValidSignature","inputs":[{"name":"hash","type":"bytes32","internalType":"bytes32"},{"name":"signature","type":"bytes","internalType":"bytes"}],"outputs":[{"name":"magicValue","type":"bytes4","internalType":"bytes4"}],"stateMutability":"view"},{"type":"function","name":"nftInfo","inputs":[],"outputs":[{"name":"chainId","type":"uint256","internalType":"uint256"},{"name":"tokenContract","type":"address","internalType":"address"},{"name":"tokenId","type":"uint256","internalType":"uint256"}],"stateMutability":"view"},{"type":"function","name":"nonce","inputs":[],"outputs":[{"name":"","type":"uint256","internalType":"uint256"}],"stateMutability":"view"},{"type":"function","name":"onERC1155BatchReceived","inputs":[{"name":"operator","type":"address","internalType":"address"},{"name":"from","type":"address","internalType":"address"},{"name":"ids","type":"uint256[]","internalType":"uint256[]"},{"name":"values","type":"uint256[]","internalType":"uint256[]"},{"name":"data","type":"bytes","internalType":"bytes"}],"outputs":[{"name":"","type":"bytes4","internalType":"bytes4"}],"stateMutability":"view"},{"type":"function","name":"onERC1155Received","inputs":[{"name":"operator","type":"address","internalType":"address"},{"name":"from","type":"address","internalType":"address"},{"name":"id","type":"uint256","internalType":"uint256"},{"name":"value","type":"uint256","internalType":"uint256"},{"name":"data","type":"bytes","internalType":"bytes"}],"outputs":[{"name":"","type":"bytes4","internalType":"bytes4"}],"stateMutability":"view"},{"type":"function","name":"onERC721Received","inputs":[{"name":"","type":"address","internalType":"address"},{"name":"","type":"address","internalType":"address"},{"name":"","type":"uint256","internalType":"uint256"},{"name":"","type":"bytes","internalType":"bytes"}],"outputs":[{"name":"","type":"bytes4","internalType":"bytes4"}],"stateMutability":"pure"},{"type":"function","name":"owner","inputs":[],"outputs":[{"name":"","type":"address","internalType":"address"}],"stateMutability":"view"},{"type":"function","name":"send","inputs":[{"name":"to","type":"address","internalType":"address payable"},{"name":"amount","type":"uint256","internalType":"uint256"}],"outputs":[],"stateMutability":"payable"},{"type":"function","name":"sendCustom","inputs":[{"name":"to","type":"address","internalType":"address"},{"name":"amount","type":"uint256","internalType":"uint256"},{"name":"erc20contract","type":"address","internalType":"contract IERC20"}],"outputs":[],"stateMutability":"nonpayable"},{"type":"function","name":"supportsInterface","inputs":[{"name":"interfaceId","type":"bytes4","internalType":"bytes4"}],"outputs":[{"name":"","type":"bool","internalType":"bool"}],"stateMutability":"view"},{"type":"event","name":"TransactionExecuted","inputs":[{"name":"target","type":"address","indexed":true,"internalType":"address"},{"name":"value","type":"uint256","indexed":true,"internalType":"uint256"},{"name":"data","type":"bytes","indexed":false,"internalType":"bytes"}],"anonymous":false},{"type":"error","name":"InvalidCodeAtRange","inputs":[{"name":"_size","type":"uint256","internalType":"uint256"},{"name":"_start","type":"uint256","internalType":"uint256"},{"name":"_end","type":"uint256","internalType":"uint256"}]},{"type":"error","name":"ReentrancyGuardReentrantCall","inputs":[]}],"bytecode":{"object":"0x6080604052348015600f57600080fd5b506001600081815560026020527f71203db6a8b906f8e7c7701ea536708e3d7c6018d3ad50e5680c3241edacce17805460ff1990811684179091556302556a7b60e21b9091527f30c4e305b1ced03f259599dfa65cf47846bb70c023dec4739032124287e2509b805490911690911790556111668061008f6000396000f3fe6080604052600436106100a05760003560e01c80639e5d4c49116100645780639e5d4c49146101af578063affed0e0146101cf578063b553fe1e146101ed578063bc197c8114610225578063d0679d3414610254578063f23a6e611461026757600080fd5b806301ffc9a7146100ac578063150b7a02146100fb5780631626ba7e146101405780638447305a146101605780638da5cb5b1461018257600080fd5b366100a757005b600080fd5b3480156100b857600080fd5b506100e66100c7366004610b17565b6001600160e01b03191660009081526002602052604090205460ff1690565b60405190151581526020015b60405180910390f35b34801561010757600080fd5b50610127610116366004610ba2565b630a85bd0160e11b95945050505050565b6040516001600160e01b031990911681526020016100f2565b34801561014c57600080fd5b5061012761015b366004610c2b565b610294565b34801561016c57600080fd5b5061018061017b366004610cee565b6102cd565b005b34801561018e57600080fd5b50610197610487565b6040516001600160a01b0390911681526020016100f2565b6101c26101bd366004610d30565b610577565b6040516100f29190610ddc565b3480156101db57600080fd5b506001546040519081526020016100f2565b3480156101f957600080fd5b50610202610688565b604080519384526001600160a01b039092166020840152908201526060016100f2565b34801561023157600080fd5b50610127610240366004610e34565b63bc197c8160e01b98975050505050505050565b610180610262366004610eff565b6106c4565b34801561027357600080fd5b50610127610282366004610f2b565b63f23a6e6160e01b9695505050505050565b6000806102a96102a2610487565b85856107c9565b905080156102c15750630b135d3f60e11b90506102c7565b50600090505b92915050565b6102d5610840565b6102dd610487565b6001600160a01b0316336001600160a01b0316146103165760405162461bcd60e51b815260040161030d90610fa7565b60405180910390fd5b6001600160a01b03831661033c5760405162461bcd60e51b815260040161030d90610fd0565b6040516370a0823160e01b81523060048201526000906001600160a01b038316906370a0823190602401602060405180830381865afa158015610383573d6000803e3d6000fd5b505050506040513d601f19601f820116820180604052508101906103a79190611000565b9050828110156103ee5760405162461bcd60e51b8152602060048201526012602482015271496e73756666696369656e742066756e647360701b604482015260640161030d565b600180549060006103fe8361102f565b909155505060405163a9059cbb60e01b81526001600160a01b0385811660048301526024820185905283169063a9059cbb906044016020604051808303816000875af1158015610452573d6000803e3d6000fd5b505050506040513d601f19601f820116820180604052508101906104769190611048565b50506104826001600055565b505050565b600080600080306001600160a01b031663b553fe1e6040518163ffffffff1660e01b8152600401606060405180830381865afa1580156104cb573d6000803e3d6000fd5b505050506040513d601f19601f820116820180604052508101906104ef919061106a565b925092509250468314610506576000935050505090565b6040516331a9108f60e11b8152600481018290526001600160a01b03831690636352211e90602401602060405180830381865afa15801561054b573d6000803e3d6000fd5b505050506040513d601f19601f8201168201806040525081019061056f91906110a5565b935050505090565b6060610581610840565b610589610487565b6001600160a01b0316336001600160a01b0316146105b95760405162461bcd60e51b815260040161030d90610fa7565b6001600160a01b0385166105df5760405162461bcd60e51b815260040161030d90610fd0565b600180549060006105ef8361102f565b91905055506000856001600160a01b0316856107d05a61060f91906110c2565b9086866040516106209291906110d5565b600060405180830381858888f193505050503d806000811461065e576040519150601f19603f3d011682016040523d82523d6000602084013e610663565b606091505b50925090508061067557815160208301fd5b506106806001600055565b949350505050565b6000808030803b906106a59061069f6060846110c2565b8361086a565b8060200190518101906106b8919061106a565b93509350935050909192565b6106cc610840565b6106d4610487565b6001600160a01b0316336001600160a01b0316146107045760405162461bcd60e51b815260040161030d90610fa7565b6001600160a01b03821661072a5760405162461bcd60e51b815260040161030d90610fd0565b8047101561076f5760405162461bcd60e51b8152602060048201526012602482015271496e73756666696369656e742066756e647360701b604482015260640161030d565b6001805490600061077f8361102f565b90915550506040516001600160a01b0383169082156108fc029083906000818181858888f193505050501580156107ba573d6000803e3d6000fd5b506107c56001600055565b5050565b6000836001600160a01b03163b60000361082b576000806107ea858561091f565b5090925090506000816003811115610804576108046110e5565b1480156108225750856001600160a01b0316826001600160a01b0316145b92505050610839565b61083684848461096c565b90505b9392505050565b60026000540361086357604051633ee5aeb560e01b815260040160405180910390fd5b6002600055565b6060833b600081900361088d575050604080516020810190915260008152610839565b808411156108ab575050604080516020810190915260008152610839565b838310156108dd5760405163162544fd60e11b815260048101829052602481018590526044810184905260640161030d565b83830384820360008282106108f257826108f4565b815b60408051603f8301601f19168101909152818152955090508087602087018a3c505050509392505050565b600080600083516041036109595760208401516040850151606086015160001a61094b88828585610a48565b955095509550505050610965565b50508151600091506002905b9250925092565b6000806000856001600160a01b0316858560405160240161098e9291906110fb565b60408051601f198184030181529181526020820180516001600160e01b0316630b135d3f60e11b179052516109c39190611114565b600060405180830381855afa9150503d80600081146109fe576040519150601f19603f3d011682016040523d82523d6000602084013e610a03565b606091505b5091509150818015610a1757506020815110155b8015610a3e57508051630b135d3f60e11b90610a3c9083016020908101908401611000565b145b9695505050505050565b600080807f7fffffffffffffffffffffffffffffff5d576e7357a4501ddfe92f46681b20a0841115610a835750600091506003905082610b0d565b604080516000808252602082018084528a905260ff891692820192909252606081018790526080810186905260019060a0016020604051602081039080840390855afa158015610ad7573d6000803e3d6000fd5b5050604051601f1901519150506001600160a01b038116610b0357506000925060019150829050610b0d565b9250600091508190505b9450945094915050565b600060208284031215610b2957600080fd5b81356001600160e01b03198116811461083957600080fd5b6001600160a01b0381168114610b5657600080fd5b50565b60008083601f840112610b6b57600080fd5b50813567ffffffffffffffff811115610b8357600080fd5b602083019150836020828501011115610b9b57600080fd5b9250929050565b600080600080600060808688031215610bba57600080fd5b8535610bc581610b41565b94506020860135610bd581610b41565b935060408601359250606086013567ffffffffffffffff811115610bf857600080fd5b610c0488828901610b59565b969995985093965092949392505050565b634e487b7160e01b600052604160045260246000fd5b60008060408385031215610c3e57600080fd5b82359150602083013567ffffffffffffffff811115610c5c57600080fd5b8301601f81018513610c6d57600080fd5b803567ffffffffffffffff811115610c8757610c87610c15565b604051601f8201601f19908116603f0116810167ffffffffffffffff81118282101715610cb657610cb6610c15565b604052818152828201602001871015610cce57600080fd5b816020840160208301376000602083830101528093505050509250929050565b600080600060608486031215610d0357600080fd5b8335610d0e81610b41565b9250602084013591506040840135610d2581610b41565b809150509250925092565b60008060008060608587031215610d4657600080fd5b8435610d5181610b41565b935060208501359250604085013567ffffffffffffffff811115610d7457600080fd5b610d8087828801610b59565b95989497509550505050565b60005b83811015610da7578181015183820152602001610d8f565b50506000910152565b60008151808452610dc8816020860160208601610d8c565b601f01601f19169290920160200192915050565b6020815260006108396020830184610db0565b60008083601f840112610e0157600080fd5b50813567ffffffffffffffff811115610e1957600080fd5b6020830191508360208260051b8501011115610b9b57600080fd5b60008060008060008060008060a0898b031215610e5057600080fd5b8835610e5b81610b41565b97506020890135610e6b81610b41565b9650604089013567ffffffffffffffff811115610e8757600080fd5b610e938b828c01610def565b909750955050606089013567ffffffffffffffff811115610eb357600080fd5b610ebf8b828c01610def565b909550935050608089013567ffffffffffffffff811115610edf57600080fd5b610eeb8b828c01610b59565b999c989b5096995094979396929594505050565b60008060408385031215610f1257600080fd5b8235610f1d81610b41565b946020939093013593505050565b60008060008060008060a08789031215610f4457600080fd5b8635610f4f81610b41565b95506020870135610f5f81610b41565b94506040870135935060608701359250608087013567ffffffffffffffff811115610f8957600080fd5b610f9589828a01610b59565b979a9699509497509295939492505050565b6020808252600f908201526e2737ba103a37b5b2b71037bbb732b960891b604082015260600190565b602080825260169082015275496e76616c696420746172676574206164647265737360501b604082015260600190565b60006020828403121561101257600080fd5b5051919050565b634e487b7160e01b600052601160045260246000fd5b60006001820161104157611041611019565b5060010190565b60006020828403121561105a57600080fd5b8151801515811461083957600080fd5b60008060006060848603121561107f57600080fd5b8351602085015190935061109281610b41565b6040949094015192959394509192915050565b6000602082840312156110b757600080fd5b815161083981610b41565b818103818111156102c7576102c7611019565b8183823760009101908152919050565b634e487b7160e01b600052602160045260246000fd5b8281526040602082015260006106806040830184610db0565b60008251611126818460208701610d8c565b919091019291505056fea26469706673582212205b3e454894f249d7bc5b4adb0112ebca773d1feb9764441ee45151d95201478364736f6c634300081b0033","linkReferences":{}},"methodIdentifiers":{"executeCall(address,uint256,bytes)":"9e5d4c49","isValidSignature(bytes32,bytes)":"1626ba7e","nftInfo()":"b553fe1e","nonce()":"affed0e0","onERC1155BatchReceived(address,address,uint256[],uint256[],bytes)":"bc197c81","onERC1155Received(address,address,uint256,uint256,bytes)":"f23a6e61","onERC721Received(address,address,uint256,bytes)":"150b7a02","owner()":"8da5cb5b","send(address,uint256)":"d0679d34","sendCustom(address,uint256,address)":"8447305a","supportsInterface(bytes4)":"01ffc9a7"},"id":0}