{"abi":[{"type":"fallback","stateMutability":"payable"},{"type":"receive","stateMutability":"payable"},{"type":"function","name":"batchTransferEth","inputs":[{"name":"to","type":"address[]","internalType":"address[]"},{"name":"amounts","type":"uint256[]","internalType":"uint256[]"}],"outputs":[],"stateMutability":"payable"},{"type":"function","name":"executeCall","inputs":[{"name":"to","type":"address","internalType":"address"},{"name":"value","type":"uint256","internalType":"uint256"},{"name":"data","type":"bytes","internalType":"bytes"}],"outputs":[{"name":"result","type":"bytes","internalType":"bytes"}],"stateMutability":"payable"},{"type":"function","name":"isValidSignature","inputs":[{"name":"hash","type":"bytes32","internalType":"bytes32"},{"name":"signature","type":"bytes","internalType":"bytes"}],"outputs":[{"name":"signValues","type":"bytes4","internalType":"bytes4"}],"stateMutability":"view"},{"type":"function","name":"nftInfo","inputs":[],"outputs":[{"name":"chainId","type":"uint256","internalType":"uint256"},{"name":"tokenContract","type":"address","internalType":"address"},{"name":"tokenId","type":"uint256","internalType":"uint256"}],"stateMutability":"view"},{"type":"function","name":"nonce","inputs":[],"outputs":[{"name":"","type":"uint256","internalType":"uint256"}],"stateMutability":"view"},{"type":"function","name":"owner","inputs":[],"outputs":[{"name":"","type":"address","internalType":"address"}],"stateMutability":"view"},{"type":"function","name":"sendCustomErcTransfer","inputs":[{"name":"to","type":"address","internalType":"address"},{"name":"amount","type":"uint256","internalType":"uint256"},{"name":"erc20contract","type":"address","internalType":"contract IERC20"}],"outputs":[],"stateMutability":"nonpayable"},{"type":"function","name":"simpleEthTransferAccount","inputs":[{"name":"to","type":"address","internalType":"address payable"},{"name":"amount","type":"uint256","internalType":"uint256"}],"outputs":[],"stateMutability":"payable"},{"type":"function","name":"supportsInterface","inputs":[{"name":"interfaceId","type":"bytes4","internalType":"bytes4"}],"outputs":[{"name":"","type":"bool","internalType":"bool"}],"stateMutability":"pure"},{"type":"event","name":"TransactionExecuted","inputs":[{"name":"target","type":"address","indexed":true,"internalType":"address"},{"name":"value","type":"uint256","indexed":true,"internalType":"uint256"},{"name":"data","type":"bytes","indexed":false,"internalType":"bytes"}],"anonymous":false},{"type":"error","name":"ERC6551Account__ExternalCallFailed","inputs":[]},{"type":"error","name":"ERC6551Account__FailedDueToZeroAddressTransfer","inputs":[]},{"type":"error","name":"ERC6551Account__IncorrectArraySize","inputs":[]},{"type":"error","name":"ERC6551Account__LowBalanceToTransferFunds","inputs":[]},{"type":"error","name":"ERC6551Account__LowERC20TokenBalance","inputs":[]},{"type":"error","name":"ERC6551Account__NotOwner","inputs":[]},{"type":"error","name":"InvalidCodeAtRange","inputs":[{"name":"_size","type":"uint256","internalType":"uint256"},{"name":"_start","type":"uint256","internalType":"uint256"},{"name":"_end","type":"uint256","internalType":"uint256"}]},{"type":"error","name":"ReentrancyGuardReentrantCall","inputs":[]}],"bytecode":{"object":"0x6080604052348015600f57600080fd5b5060016000556110de806100246000396000f3fe6080604052600436106100835760003560e01c80633b3b687c116100565780633b3b687c146101265780638da5cb5b146101395780639e5d4c4914610166578063affed0e014610186578063b553fe1e146101a257005b806301ffc9a7146100855780631626ba7e146100ba57806318a70da9146100f357806324bd11e214610106575b005b34801561009157600080fd5b506100a56100a0366004610c31565b6101da565b60405190151581526020015b60405180910390f35b3480156100c657600080fd5b506100da6100d5366004610c71565b610211565b6040516001600160e01b031990911681526020016100b1565b610083610101366004610d4c565b61024d565b34801561011257600080fd5b50610083610121366004610d78565b61035c565b610083610134366004610e06565b6104d9565b34801561014557600080fd5b5061014e6106a1565b6040516001600160a01b0390911681526020016100b1565b610179610174366004610e77565b610791565b6040516100b19190610f53565b34801561019257600080fd5b50604051600081526020016100b1565b3480156101ae57600080fd5b506101b76108a3565b604080519384526001600160a01b039092166020840152908201526060016100b1565b60006001600160e01b031982166301ffc9a760e01b148061020b57506001600160e01b031982166302556a7b60e21b145b92915050565b60008061022661021f6106a1565b85856108df565b9050801561023e5750630b135d3f60e11b905061020b565b5062195b9960ea1b9392505050565b610255610956565b6001600160a01b03821661027c5760405163613488b160e11b815260040160405180910390fd5b6102846106a1565b6001600160a01b0316336001600160a01b0316146102b85760405160016225e6db60e11b0319815260040160405180910390fd5b804710156102d9576040516303ecc75d60e41b815260040160405180910390fd5b6000826001600160a01b03168260405160006040518083038185875af1925050503d8060008114610326576040519150601f19603f3d011682016040523d82523d6000602084013e61032b565b606091505b505090508061034d576040516373c632db60e01b815260040160405180910390fd5b506103586001600055565b5050565b610364610956565b6001600160a01b03831661038b5760405163613488b160e11b815260040160405180910390fd5b6103936106a1565b6001600160a01b0316336001600160a01b0316146103c75760405160016225e6db60e11b0319815260040160405180910390fd5b6040516370a0823160e01b81523060048201526000906001600160a01b038316906370a0823190602401602060405180830381865afa15801561040e573d6000803e3d6000fd5b505050506040513d601f19601f820116820180604052508101906104329190610f66565b9050828110156104555760405163320aefdd60e21b815260040160405180910390fd5b60405163a9059cbb60e01b81526001600160a01b0385811660048301526024820185905283169063a9059cbb906044016020604051808303816000875af11580156104a4573d6000803e3d6000fd5b505050506040513d601f19601f820116820180604052508101906104c89190610f7f565b50506104d46001600055565b505050565b6104e1610956565b6104e96106a1565b6001600160a01b0316336001600160a01b03161461051d5760405160016225e6db60e11b0319815260040160405180910390fd5b828180821461053f576040516308b60f6960e11b815260040160405180910390fd5b60005b8281101561068e5784848281811061055c5761055c610fa1565b90506020020135471015610583576040516303ecc75d60e41b815260040160405180910390fd5b600087878381811061059757610597610fa1565b90506020020160208101906105ac9190610fb7565b6001600160a01b0316036105d35760405163613488b160e11b815260040160405180910390fd5b60008787838181106105e7576105e7610fa1565b90506020020160208101906105fc9190610fb7565b6001600160a01b031686868481811061061757610617610fa1565b9050602002013560405160006040518083038185875af1925050503d806000811461065e576040519150601f19603f3d011682016040523d82523d6000602084013e610663565b606091505b5050905080610685576040516373c632db60e01b815260040160405180910390fd5b50600101610542565b50505061069b6001600055565b50505050565b600080600080306001600160a01b031663b553fe1e6040518163ffffffff1660e01b8152600401606060405180830381865afa1580156106e5573d6000803e3d6000fd5b505050506040513d601f19601f820116820180604052508101906107099190610fd4565b925092509250468314610720576000935050505090565b6040516331a9108f60e11b8152600481018290526001600160a01b03831690636352211e90602401602060405180830381865afa158015610765573d6000803e3d6000fd5b505050506040513d601f19601f82011682018060405250810190610789919061100f565b935050505090565b606061079b610956565b6001600160a01b0385166107c25760405163613488b160e11b815260040160405180910390fd5b6107ca6106a1565b6001600160a01b0316336001600160a01b0316146107fe5760405160016225e6db60e11b0319815260040160405180910390fd5b8347101561081f576040516303ecc75d60e41b815260040160405180910390fd5b6000856001600160a01b031685858560405161083c92919061102c565b60006040518083038185875af1925050503d8060008114610879576040519150601f19603f3d011682016040523d82523d6000602084013e61087e565b606091505b50925090508061089057815160208301fd5b5061089b6001600055565b949350505050565b6000808030803b906108c0906108ba60608461103c565b83610980565b8060200190518101906108d39190610fd4565b93509350935050909192565b6000836001600160a01b03163b600003610941576000806109008585610a39565b509092509050600081600381111561091a5761091a61105d565b1480156109385750856001600160a01b0316826001600160a01b0316145b9250505061094f565b61094c848484610a86565b90505b9392505050565b60026000540361097957604051633ee5aeb560e01b815260040160405180910390fd5b6002600055565b6060833b60008190036109a357505060408051602081019091526000815261094f565b808411156109c157505060408051602081019091526000815261094f565b838310156109f75760405163162544fd60e11b815260048101829052602481018590526044810184905260640160405180910390fd5b8383038482036000828210610a0c5782610a0e565b815b60408051603f8301601f19168101909152818152955090508087602087018a3c505050509392505050565b60008060008351604103610a735760208401516040850151606086015160001a610a6588828585610b62565b955095509550505050610a7f565b50508151600091506002905b9250925092565b6000806000856001600160a01b03168585604051602401610aa8929190611073565b60408051601f198184030181529181526020820180516001600160e01b0316630b135d3f60e11b17905251610add919061108c565b600060405180830381855afa9150503d8060008114610b18576040519150601f19603f3d011682016040523d82523d6000602084013e610b1d565b606091505b5091509150818015610b3157506020815110155b8015610b5857508051630b135d3f60e11b90610b569083016020908101908401610f66565b145b9695505050505050565b600080807f7fffffffffffffffffffffffffffffff5d576e7357a4501ddfe92f46681b20a0841115610b9d5750600091506003905082610c27565b604080516000808252602082018084528a905260ff891692820192909252606081018790526080810186905260019060a0016020604051602081039080840390855afa158015610bf1573d6000803e3d6000fd5b5050604051601f1901519150506001600160a01b038116610c1d57506000925060019150829050610c27565b9250600091508190505b9450945094915050565b600060208284031215610c4357600080fd5b81356001600160e01b03198116811461094f57600080fd5b634e487b7160e01b600052604160045260246000fd5b60008060408385031215610c8457600080fd5b82359150602083013567ffffffffffffffff811115610ca257600080fd5b8301601f81018513610cb357600080fd5b803567ffffffffffffffff811115610ccd57610ccd610c5b565b604051601f8201601f19908116603f0116810167ffffffffffffffff81118282101715610cfc57610cfc610c5b565b604052818152828201602001871015610d1457600080fd5b816020840160208301376000602083830101528093505050509250929050565b6001600160a01b0381168114610d4957600080fd5b50565b60008060408385031215610d5f57600080fd5b8235610d6a81610d34565b946020939093013593505050565b600080600060608486031215610d8d57600080fd5b8335610d9881610d34565b9250602084013591506040840135610daf81610d34565b809150509250925092565b60008083601f840112610dcc57600080fd5b50813567ffffffffffffffff811115610de457600080fd5b6020830191508360208260051b8501011115610dff57600080fd5b9250929050565b60008060008060408587031215610e1c57600080fd5b843567ffffffffffffffff811115610e3357600080fd5b610e3f87828801610dba565b909550935050602085013567ffffffffffffffff811115610e5f57600080fd5b610e6b87828801610dba565b95989497509550505050565b60008060008060608587031215610e8d57600080fd5b8435610e9881610d34565b935060208501359250604085013567ffffffffffffffff811115610ebb57600080fd5b8501601f81018713610ecc57600080fd5b803567ffffffffffffffff811115610ee357600080fd5b876020828401011115610ef557600080fd5b949793965060200194505050565b60005b83811015610f1e578181015183820152602001610f06565b50506000910152565b60008151808452610f3f816020860160208601610f03565b601f01601f19169290920160200192915050565b60208152600061094f6020830184610f27565b600060208284031215610f7857600080fd5b5051919050565b600060208284031215610f9157600080fd5b8151801515811461094f57600080fd5b634e487b7160e01b600052603260045260246000fd5b600060208284031215610fc957600080fd5b813561094f81610d34565b600080600060608486031215610fe957600080fd5b83516020850151909350610ffc81610d34565b6040949094015192959394509192915050565b60006020828403121561102157600080fd5b815161094f81610d34565b8183823760009101908152919050565b8181038181111561020b57634e487b7160e01b600052601160045260246000fd5b634e487b7160e01b600052602160045260246000fd5b82815260406020820152600061089b6040830184610f27565b6000825161109e818460208701610f03565b919091019291505056fea2646970667358221220f6141a2c4445a4577482a99eb224f8ab52e88232e31f7941937b7bc60fea105b64736f6c634300081b0033","linkReferences":{}},"methodIdentifiers":{"batchTransferEth(address[],uint256[])":"3b3b687c","executeCall(address,uint256,bytes)":"9e5d4c49","isValidSignature(bytes32,bytes)":"1626ba7e","nftInfo()":"b553fe1e","nonce()":"affed0e0","owner()":"8da5cb5b","sendCustomErcTransfer(address,uint256,address)":"24bd11e2","simpleEthTransferAccount(address,uint256)":"18a70da9","supportsInterface(bytes4)":"01ffc9a7"},"id":0}