{
  "_format": "hh-sol-artifact-1",
  "contractName": "TradingTools",
  "sourceName": "contracts/TradingTools.sol",
  "abi": [
    {
      "inputs": [
        {
          "internalType": "address",
          "name": "_priceOracle",
          "type": "address"
        },
        {
          "internalType": "address",
          "name": "_treasury",
          "type": "address"
        },
        {
          "internalType": "uint256",
          "name": "_executionFee",
          "type": "uint256"
        },
        {
          "internalType": "uint256",
          "name": "_maxOrdersPerUser",
          "type": "uint256"
        },
        {
          "internalType": "address",
          "name": "_initialOwner",
          "type": "address"
        }
      ],
      "stateMutability": "nonpayable",
      "type": "constructor"
    },
    {
      "inputs": [],
      "name": "DeadlineTooFar",
      "type": "error"
    },
    {
      "inputs": [],
      "name": "EnforcedPause",
      "type": "error"
    },
    {
      "inputs": [],
      "name": "ExcessivePriceImpact",
      "type": "error"
    },
    {
      "inputs": [],
      "name": "ExecutionFailed",
      "type": "error"
    },
    {
      "inputs": [],
      "name": "ExpectedPause",
      "type": "error"
    },
    {
      "inputs": [],
      "name": "InsufficientOutput",
      "type": "error"
    },
    {
      "inputs": [],
      "name": "InvalidAddress",
      "type": "error"
    },
    {
      "inputs": [],
      "name": "InvalidAmount",
      "type": "error"
    },
    {
      "inputs": [],
      "name": "InvalidDeadline",
      "type": "error"
    },
    {
      "inputs": [],
      "name": "InvalidFee",
      "type": "error"
    },
    {
      "inputs": [],
      "name": "InvalidLimitPrice",
      "type": "error"
    },
    {
      "inputs": [],
      "name": "InvalidOrder",
      "type": "error"
    },
    {
      "inputs": [],
      "name": "InvalidPrice",
      "type": "error"
    },
    {
      "inputs": [],
      "name": "InvalidStopLossPrice",
      "type": "error"
    },
    {
      "inputs": [],
      "name": "InvalidTakeProfitPrice",
      "type": "error"
    },
    {
      "inputs": [],
      "name": "MaxOrdersExceeded",
      "type": "error"
    },
    {
      "inputs": [],
      "name": "OrderExpired",
      "type": "error"
    },
    {
      "inputs": [],
      "name": "OrderVolumeLimitExceeded",
      "type": "error"
    },
    {
      "inputs": [
        {
          "internalType": "address",
          "name": "owner",
          "type": "address"
        }
      ],
      "name": "OwnableInvalidOwner",
      "type": "error"
    },
    {
      "inputs": [
        {
          "internalType": "address",
          "name": "account",
          "type": "address"
        }
      ],
      "name": "OwnableUnauthorizedAccount",
      "type": "error"
    },
    {
      "inputs": [],
      "name": "PriceMismatch",
      "type": "error"
    },
    {
      "inputs": [],
      "name": "ReentrancyGuardReentrantCall",
      "type": "error"
    },
    {
      "inputs": [
        {
          "internalType": "address",
          "name": "token",
          "type": "address"
        }
      ],
      "name": "SafeERC20FailedOperation",
      "type": "error"
    },
    {
      "inputs": [],
      "name": "TransferFailed",
      "type": "error"
    },
    {
      "inputs": [],
      "name": "Unauthorized",
      "type": "error"
    },
    {
      "anonymous": false,
      "inputs": [
        {
          "indexed": false,
          "internalType": "address",
          "name": "token",
          "type": "address"
        },
        {
          "indexed": false,
          "internalType": "uint256",
          "name": "amount",
          "type": "uint256"
        }
      ],
      "name": "EmergencyWithdraw",
      "type": "event"
    },
    {
      "anonymous": false,
      "inputs": [
        {
          "indexed": false,
          "internalType": "address",
          "name": "executor",
          "type": "address"
        },
        {
          "indexed": false,
          "internalType": "bool",
          "name": "status",
          "type": "bool"
        }
      ],
      "name": "ExecutorUpdated",
      "type": "event"
    },
    {
      "anonymous": false,
      "inputs": [
        {
          "indexed": false,
          "internalType": "uint256",
          "name": "newFee",
          "type": "uint256"
        }
      ],
      "name": "FeeUpdated",
      "type": "event"
    },
    {
      "anonymous": false,
      "inputs": [
        {
          "indexed": true,
          "internalType": "uint256",
          "name": "orderId",
          "type": "uint256"
        },
        {
          "indexed": true,
          "internalType": "address",
          "name": "canceller",
          "type": "address"
        }
      ],
      "name": "OrderCancelled",
      "type": "event"
    },
    {
      "anonymous": false,
      "inputs": [
        {
          "indexed": true,
          "internalType": "uint256",
          "name": "orderId",
          "type": "uint256"
        },
        {
          "indexed": true,
          "internalType": "address",
          "name": "owner",
          "type": "address"
        },
        {
          "indexed": false,
          "internalType": "enum ITradingTools.OrderType",
          "name": "orderType",
          "type": "uint8"
        },
        {
          "indexed": false,
          "internalType": "address",
          "name": "tokenIn",
          "type": "address"
        },
        {
          "indexed": false,
          "internalType": "address",
          "name": "tokenOut",
          "type": "address"
        },
        {
          "indexed": false,
          "internalType": "uint256",
          "name": "amountIn",
          "type": "uint256"
        },
        {
          "indexed": false,
          "internalType": "uint256",
          "name": "targetPrice",
          "type": "uint256"
        },
        {
          "indexed": false,
          "internalType": "uint256",
          "name": "minAmountOut",
          "type": "uint256"
        }
      ],
      "name": "OrderCreated",
      "type": "event"
    },
    {
      "anonymous": false,
      "inputs": [
        {
          "indexed": true,
          "internalType": "uint256",
          "name": "orderId",
          "type": "uint256"
        },
        {
          "indexed": true,
          "internalType": "address",
          "name": "executor",
          "type": "address"
        },
        {
          "indexed": false,
          "internalType": "uint256",
          "name": "amountIn",
          "type": "uint256"
        },
        {
          "indexed": false,
          "internalType": "uint256",
          "name": "amountOut",
          "type": "uint256"
        },
        {
          "indexed": false,
          "internalType": "uint256",
          "name": "executionPrice",
          "type": "uint256"
        }
      ],
      "name": "OrderExecuted",
      "type": "event"
    },
    {
      "anonymous": false,
      "inputs": [
        {
          "indexed": true,
          "internalType": "address",
          "name": "user",
          "type": "address"
        },
        {
          "indexed": false,
          "internalType": "uint256",
          "name": "totalVolume",
          "type": "uint256"
        }
      ],
      "name": "OrderVolumeUpdated",
      "type": "event"
    },
    {
      "anonymous": false,
      "inputs": [
        {
          "indexed": true,
          "internalType": "address",
          "name": "previousOwner",
          "type": "address"
        },
        {
          "indexed": true,
          "internalType": "address",
          "name": "newOwner",
          "type": "address"
        }
      ],
      "name": "OwnershipTransferred",
      "type": "event"
    },
    {
      "anonymous": false,
      "inputs": [
        {
          "indexed": false,
          "internalType": "address",
          "name": "account",
          "type": "address"
        }
      ],
      "name": "Paused",
      "type": "event"
    },
    {
      "anonymous": false,
      "inputs": [
        {
          "indexed": false,
          "internalType": "uint256",
          "name": "orderId",
          "type": "uint256"
        },
        {
          "indexed": false,
          "internalType": "uint256",
          "name": "priceImpact",
          "type": "uint256"
        }
      ],
      "name": "PriceImpactExceeded",
      "type": "event"
    },
    {
      "anonymous": false,
      "inputs": [
        {
          "indexed": false,
          "internalType": "address",
          "name": "newTreasury",
          "type": "address"
        }
      ],
      "name": "TreasuryUpdated",
      "type": "event"
    },
    {
      "anonymous": false,
      "inputs": [
        {
          "indexed": false,
          "internalType": "address",
          "name": "account",
          "type": "address"
        }
      ],
      "name": "Unpaused",
      "type": "event"
    },
    {
      "inputs": [
        {
          "internalType": "address",
          "name": "_tokenIn",
          "type": "address"
        },
        {
          "internalType": "address",
          "name": "_tokenOut",
          "type": "address"
        },
        {
          "internalType": "uint256",
          "name": "_amountIn",
          "type": "uint256"
        },
        {
          "internalType": "uint256",
          "name": "_targetPrice",
          "type": "uint256"
        },
        {
          "internalType": "uint256",
          "name": "_minAmountOut",
          "type": "uint256"
        },
        {
          "internalType": "uint256",
          "name": "_deadline",
          "type": "uint256"
        },
        {
          "internalType": "enum ITradingTools.OrderType",
          "name": "_orderType",
          "type": "uint8"
        },
        {
          "internalType": "bool",
          "name": "_isBuyOrder",
          "type": "bool"
        }
      ],
      "name": "createOrder",
      "outputs": [
        {
          "internalType": "uint256",
          "name": "",
          "type": "uint256"
        }
      ],
      "stateMutability": "payable",
      "type": "function"
    },
    {
      "inputs": [
        {
          "internalType": "address",
          "name": "_token",
          "type": "address"
        },
        {
          "internalType": "uint256",
          "name": "_amount",
          "type": "uint256"
        }
      ],
      "name": "emergencyWithdraw",
      "outputs": [],
      "stateMutability": "nonpayable",
      "type": "function"
    },
    {
      "inputs": [
        {
          "internalType": "uint256",
          "name": "_orderId",
          "type": "uint256"
        }
      ],
      "name": "executeOrder",
      "outputs": [],
      "stateMutability": "nonpayable",
      "type": "function"
    },
    {
      "inputs": [],
      "name": "getExecutionFee",
      "outputs": [
        {
          "internalType": "uint256",
          "name": "",
          "type": "uint256"
        }
      ],
      "stateMutability": "view",
      "type": "function"
    },
    {
      "inputs": [
        {
          "internalType": "uint256",
          "name": "_orderId",
          "type": "uint256"
        }
      ],
      "name": "getOrder",
      "outputs": [
        {
          "components": [
            {
              "internalType": "address",
              "name": "owner",
              "type": "address"
            },
            {
              "internalType": "address",
              "name": "tokenIn",
              "type": "address"
            },
            {
              "internalType": "address",
              "name": "tokenOut",
              "type": "address"
            },
            {
              "internalType": "uint256",
              "name": "amountIn",
              "type": "uint256"
            },
            {
              "internalType": "uint256",
              "name": "targetPrice",
              "type": "uint256"
            },
            {
              "internalType": "uint256",
              "name": "minAmountOut",
              "type": "uint256"
            },
            {
              "internalType": "uint256",
              "name": "deadline",
              "type": "uint256"
            },
            {
              "internalType": "enum ITradingTools.OrderStatus",
              "name": "status",
              "type": "uint8"
            },
            {
              "internalType": "enum ITradingTools.OrderType",
              "name": "orderType",
              "type": "uint8"
            },
            {
              "internalType": "bool",
              "name": "isBuyOrder",
              "type": "bool"
            },
            {
              "internalType": "uint256",
              "name": "createdAt",
              "type": "uint256"
            },
            {
              "internalType": "uint256",
              "name": "executedAt",
              "type": "uint256"
            },
            {
              "internalType": "address",
              "name": "executor",
              "type": "address"
            }
          ],
          "internalType": "struct ITradingTools.Order",
          "name": "",
          "type": "tuple"
        }
      ],
      "stateMutability": "view",
      "type": "function"
    },
    {
      "inputs": [
        {
          "internalType": "address",
          "name": "_user",
          "type": "address"
        }
      ],
      "name": "getUserOrderCount",
      "outputs": [
        {
          "internalType": "uint256",
          "name": "",
          "type": "uint256"
        }
      ],
      "stateMutability": "view",
      "type": "function"
    },
    {
      "inputs": [
        {
          "internalType": "address",
          "name": "_user",
          "type": "address"
        }
      ],
      "name": "getUserOrderVolume",
      "outputs": [
        {
          "internalType": "uint256",
          "name": "",
          "type": "uint256"
        }
      ],
      "stateMutability": "view",
      "type": "function"
    },
    {
      "inputs": [],
      "name": "owner",
      "outputs": [
        {
          "internalType": "address",
          "name": "",
          "type": "address"
        }
      ],
      "stateMutability": "view",
      "type": "function"
    },
    {
      "inputs": [],
      "name": "pause",
      "outputs": [],
      "stateMutability": "nonpayable",
      "type": "function"
    },
    {
      "inputs": [],
      "name": "paused",
      "outputs": [
        {
          "internalType": "bool",
          "name": "",
          "type": "bool"
        }
      ],
      "stateMutability": "view",
      "type": "function"
    },
    {
      "inputs": [],
      "name": "renounceOwnership",
      "outputs": [],
      "stateMutability": "nonpayable",
      "type": "function"
    },
    {
      "inputs": [
        {
          "internalType": "uint256",
          "name": "_newFee",
          "type": "uint256"
        }
      ],
      "name": "setExecutionFee",
      "outputs": [],
      "stateMutability": "nonpayable",
      "type": "function"
    },
    {
      "inputs": [
        {
          "internalType": "address",
          "name": "_executor",
          "type": "address"
        },
        {
          "internalType": "bool",
          "name": "_status",
          "type": "bool"
        }
      ],
      "name": "setExecutor",
      "outputs": [],
      "stateMutability": "nonpayable",
      "type": "function"
    },
    {
      "inputs": [
        {
          "internalType": "uint256",
          "name": "_maxOrders",
          "type": "uint256"
        }
      ],
      "name": "setMaxOrdersPerUser",
      "outputs": [],
      "stateMutability": "nonpayable",
      "type": "function"
    },
    {
      "inputs": [
        {
          "internalType": "address",
          "name": "_newOracle",
          "type": "address"
        }
      ],
      "name": "setPriceOracle",
      "outputs": [],
      "stateMutability": "nonpayable",
      "type": "function"
    },
    {
      "inputs": [
        {
          "internalType": "address",
          "name": "_newTreasury",
          "type": "address"
        }
      ],
      "name": "setTreasury",
      "outputs": [],
      "stateMutability": "nonpayable",
      "type": "function"
    },
    {
      "inputs": [
        {
          "internalType": "address",
          "name": "newOwner",
          "type": "address"
        }
      ],
      "name": "transferOwnership",
      "outputs": [],
      "stateMutability": "nonpayable",
      "type": "function"
    },
    {
      "inputs": [],
      "name": "unpause",
      "outputs": [],
      "stateMutability": "nonpayable",
      "type": "function"
    }
  ],
  "bytecode": "0x608060405234801561001057600080fd5b50604051613551380380613551833981810160405281019061003291906103cb565b8060016000819055506000600160006101000a81548160ff021916908315150217905550600073ffffffffffffffffffffffffffffffffffffffff168173ffffffffffffffffffffffffffffffffffffffff16036100c85760006040517f1e4fbdf70000000000000000000000000000000000000000000000000000000081526004016100bf9190610455565b60405180910390fd5b6100d78161026f60201b60201c565b50600073ffffffffffffffffffffffffffffffffffffffff168573ffffffffffffffffffffffffffffffffffffffff16148061013f5750600073ffffffffffffffffffffffffffffffffffffffff168473ffffffffffffffffffffffffffffffffffffffff16145b15610176576040517fe6c4247b00000000000000000000000000000000000000000000000000000000815260040160405180910390fd5b66038d7ea4c68000831080610192575067016345785d8a000083115b156101c9576040517f58d620b300000000000000000000000000000000000000000000000000000000815260040160405180910390fd5b84600260080160006101000a81548173ffffffffffffffffffffffffffffffffffffffff021916908373ffffffffffffffffffffffffffffffffffffffff16021790555083600260070160006101000a81548173ffffffffffffffffffffffffffffffffffffffff021916908373ffffffffffffffffffffffffffffffffffffffff16021790555082600260060181905550816002600501819055505050505050610470565b600060018054906101000a900473ffffffffffffffffffffffffffffffffffffffff169050816001806101000a81548173ffffffffffffffffffffffffffffffffffffffff021916908373ffffffffffffffffffffffffffffffffffffffff1602179055508173ffffffffffffffffffffffffffffffffffffffff168173ffffffffffffffffffffffffffffffffffffffff167f8be0079c531659141344cd1fd0a4f28419497f9722a3daafe3b4186f6b6457e060405160405180910390a35050565b600080fd5b600073ffffffffffffffffffffffffffffffffffffffff82169050919050565b600061036282610337565b9050919050565b61037281610357565b811461037d57600080fd5b50565b60008151905061038f81610369565b92915050565b6000819050919050565b6103a881610395565b81146103b357600080fd5b50565b6000815190506103c58161039f565b92915050565b600080600080600060a086880312156103e7576103e6610332565b5b60006103f588828901610380565b955050602061040688828901610380565b9450506040610417888289016103b6565b9350506060610428888289016103b6565b925050608061043988828901610380565b9150509295509295909350565b61044f81610357565b82525050565b600060208201905061046a6000830184610446565b92915050565b6130d28061047f6000396000f3fe6080604052600436106101095760003560e01c80638456cb591161009557806395ccea671161006457806395ccea671461031b578063ce628e6e14610344578063d09ef24114610374578063f0f44260146103b1578063f2fde38b146103da57610109565b80638456cb5914610285578063897293a41461029c5780638da5cb5b146102c757806394f61134146102f257610109565b80633f4ba83a116100dc5780633f4ba83a146101c6578063530e784f146101dd5780635c975abb14610206578063715018a61461023157806383e942181461024857610109565b80631e1bff3f1461010e5780632b639e7c146101375780632cc759671461016057806337a063d21461019d575b600080fd5b34801561011a57600080fd5b506101356004803603810190610130919061286c565b610403565b005b34801561014357600080fd5b5061015e600480360381019061015991906128e2565b610508565b005b34801561016c57600080fd5b506101876004803603810190610182919061290f565b61051d565b604051610194919061294b565b60405180910390f35b3480156101a957600080fd5b506101c460048036038101906101bf91906128e2565b610568565b005b3480156101d257600080fd5b506101db610607565b005b3480156101e957600080fd5b5061020460048036038101906101ff919061290f565b610619565b005b34801561021257600080fd5b5061021b6106ce565b6040516102289190612975565b60405180910390f35b34801561023d57600080fd5b506102466106e5565b005b34801561025457600080fd5b5061026f600480360381019061026a919061290f565b6106f9565b60405161027c919061294b565b60405180910390f35b34801561029157600080fd5b5061029a610745565b005b3480156102a857600080fd5b506102b1610757565b6040516102be919061294b565b60405180910390f35b3480156102d357600080fd5b506102dc610764565b6040516102e9919061299f565b60405180910390f35b3480156102fe57600080fd5b50610319600480360381019061031491906128e2565b61078c565b005b34801561032757600080fd5b50610342600480360381019061033d91906129ba565b611154565b005b61035e60048036038101906103599190612a1f565b6111c4565b60405161036b919061294b565b60405180910390f35b34801561038057600080fd5b5061039b600480360381019061039691906128e2565b6116b1565b6040516103a89190612ccc565b60405180910390f35b3480156103bd57600080fd5b506103d860048036038101906103d3919061290f565b611907565b005b3480156103e657600080fd5b5061040160048036038101906103fc919061290f565b6119f3565b005b61040b611a79565b600073ffffffffffffffffffffffffffffffffffffffff168273ffffffffffffffffffffffffffffffffffffffff1603610471576040517fe6c4247b00000000000000000000000000000000000000000000000000000000815260040160405180910390fd5b80600260010160008473ffffffffffffffffffffffffffffffffffffffff1673ffffffffffffffffffffffffffffffffffffffff16815260200190815260200160002060006101000a81548160ff0219169083151502179055507f9fdbc2d48b8a0db2f62663bf9312ad02f5b1f6414ad600b55a247d09aeec3ea282826040516104fc929190612ce8565b60405180910390a15050565b610510611a79565b8060026005018190555050565b60006002800160008373ffffffffffffffffffffffffffffffffffffffff1673ffffffffffffffffffffffffffffffffffffffff168152602001908152602001600020549050919050565b610570611a79565b66038d7ea4c6800081108061058c575067016345785d8a000081115b156105c3576040517f58d620b300000000000000000000000000000000000000000000000000000000815260040160405180910390fd5b806002600601819055507f8c4d35e54a3f2ef1134138fd8ea3daee6a3c89e10d2665996babdf70261e2c76816040516105fc919061294b565b60405180910390a150565b61060f611a79565b610617611b00565b565b610621611a79565b600073ffffffffffffffffffffffffffffffffffffffff168173ffffffffffffffffffffffffffffffffffffffff1603610687576040517fe6c4247b00000000000000000000000000000000000000000000000000000000815260040160405180910390fd5b80600260080160006101000a81548173ffffffffffffffffffffffffffffffffffffffff021916908373ffffffffffffffffffffffffffffffffffffffff16021790555050565b6000600160009054906101000a900460ff16905090565b6106ed611a79565b6106f76000611b63565b565b6000600260030160008373ffffffffffffffffffffffffffffffffffffffff1673ffffffffffffffffffffffffffffffffffffffff168152602001908152602001600020549050919050565b61074d611a79565b610755611c26565b565b6000600260060154905090565b600060018054906101000a900473ffffffffffffffffffffffffffffffffffffffff16905090565b610794611c88565b61079c611cce565b60006002600001600083815260200190815260200160002090506107bf81611d0f565b6000600260080160009054906101000a900473ffffffffffffffffffffffffffffffffffffffff1673ffffffffffffffffffffffffffffffffffffffff1663ac41865a8360010160009054906101000a900473ffffffffffffffffffffffffffffffffffffffff168460020160009054906101000a900473ffffffffffffffffffffffffffffffffffffffff166040518363ffffffff1660e01b8152600401610869929190612d11565b602060405180830381865afa158015610886573d6000803e3d6000fd5b505050506040513d601f19601f820116820180604052508101906108aa9190612d4f565b9050610ae782604051806101a00160405290816000820160009054906101000a900473ffffffffffffffffffffffffffffffffffffffff1673ffffffffffffffffffffffffffffffffffffffff1673ffffffffffffffffffffffffffffffffffffffff1681526020016001820160009054906101000a900473ffffffffffffffffffffffffffffffffffffffff1673ffffffffffffffffffffffffffffffffffffffff1673ffffffffffffffffffffffffffffffffffffffff1681526020016002820160009054906101000a900473ffffffffffffffffffffffffffffffffffffffff1673ffffffffffffffffffffffffffffffffffffffff1673ffffffffffffffffffffffffffffffffffffffff168152602001600382015481526020016004820154815260200160058201548152602001600682015481526020016007820160009054906101000a900460ff166003811115610a0b57610a0a612af3565b5b6003811115610a1d57610a1c612af3565b5b81526020016007820160019054906101000a900460ff166002811115610a4657610a45612af3565b5b6002811115610a5857610a57612af3565b5b81526020016007820160029054906101000a900460ff161515151581526020016008820154815260200160098201548152602001600a820160009054906101000a900473ffffffffffffffffffffffffffffffffffffffff1673ffffffffffffffffffffffffffffffffffffffff1673ffffffffffffffffffffffffffffffffffffffff168152505082611dbf565b610b1d576040517f43a8b01000000000000000000000000000000000000000000000000000000000815260040160405180910390fd5b6000610d5a83604051806101a00160405290816000820160009054906101000a900473ffffffffffffffffffffffffffffffffffffffff1673ffffffffffffffffffffffffffffffffffffffff1673ffffffffffffffffffffffffffffffffffffffff1681526020016001820160009054906101000a900473ffffffffffffffffffffffffffffffffffffffff1673ffffffffffffffffffffffffffffffffffffffff1673ffffffffffffffffffffffffffffffffffffffff1681526020016002820160009054906101000a900473ffffffffffffffffffffffffffffffffffffffff1673ffffffffffffffffffffffffffffffffffffffff1673ffffffffffffffffffffffffffffffffffffffff168152602001600382015481526020016004820154815260200160058201548152602001600682015481526020016007820160009054906101000a900460ff166003811115610c7e57610c7d612af3565b5b6003811115610c9057610c8f612af3565b5b81526020016007820160019054906101000a900460ff166002811115610cb957610cb8612af3565b5b6002811115610ccb57610cca612af3565b5b81526020016007820160029054906101000a900460ff161515151581526020016008820154815260200160098201548152602001600a820160009054906101000a900473ffffffffffffffffffffffffffffffffffffffff1673ffffffffffffffffffffffffffffffffffffffff1673ffffffffffffffffffffffffffffffffffffffff168152505083611ed2565b90506064811115610dd0577fbefe5e93ed19baec07a1fe3d4d6a114f985e7331cdb34a07dc1a76ac809c949a8482604051610d96929190612d7c565b60405180910390a16040517f9882087000000000000000000000000000000000000000000000000000000000815260040160405180910390fd5b60018360070160006101000a81548160ff02191690836003811115610df857610df7612af3565b5b02179055504283600901819055503383600a0160006101000a81548173ffffffffffffffffffffffffffffffffffffffff021916908373ffffffffffffffffffffffffffffffffffffffff1602179055506002800160008460000160009054906101000a900473ffffffffffffffffffffffffffffffffffffffff1673ffffffffffffffffffffffffffffffffffffffff1673ffffffffffffffffffffffffffffffffffffffff1681526020019081526020016000206000815480929190610ebf90612dd4565b91905055508260030154600260030160008560000160009054906101000a900473ffffffffffffffffffffffffffffffffffffffff1673ffffffffffffffffffffffffffffffffffffffff1673ffffffffffffffffffffffffffffffffffffffff1681526020019081526020016000206000828254610f3e9190612dfd565b925050819055506000600260070160009054906101000a900473ffffffffffffffffffffffffffffffffffffffff1673ffffffffffffffffffffffffffffffffffffffff16600260060154604051610f9590612e62565b60006040518083038185875af1925050503d8060008114610fd2576040519150601f19603f3d011682016040523d82523d6000602084013e610fd7565b606091505b5050905080611012576040517f90b8ec1800000000000000000000000000000000000000000000000000000000815260040160405180910390fd5b3373ffffffffffffffffffffffffffffffffffffffff16857f1cd65e6e4f6a6bfcff65064f4e22d514f481a38dcbe4c2ad13ccde1b22e06941866003015487600501548760405161106593929190612e77565b60405180910390a38360000160009054906101000a900473ffffffffffffffffffffffffffffffffffffffff1673ffffffffffffffffffffffffffffffffffffffff167fe1aa32a05a936d69f047156e8723fb00d08776fbe4d7d6b45187d2248b589bfa600260030160008760000160009054906101000a900473ffffffffffffffffffffffffffffffffffffffff1673ffffffffffffffffffffffffffffffffffffffff1673ffffffffffffffffffffffffffffffffffffffff1681526020019081526020016000205460405161113d919061294b565b60405180910390a250505050611151611fdf565b50565b61115c611a79565b61118733828473ffffffffffffffffffffffffffffffffffffffff16611fe99092919063ffffffff16565b7f5fafa99d0643513820be26656b45130b01e1c03062e1266bf36f88cbd3bd969582826040516111b8929190612eae565b60405180910390a15050565b60006111ce611c88565b6111d6611cce565b6111e68989898989898989612068565b6112133330898c73ffffffffffffffffffffffffffffffffffffffff1661236f909392919063ffffffff16565b60006002600401600081548092919061122b90612ed7565b919050559050604051806101a001604052803373ffffffffffffffffffffffffffffffffffffffff1681526020018b73ffffffffffffffffffffffffffffffffffffffff1681526020018a73ffffffffffffffffffffffffffffffffffffffff168152602001898152602001888152602001878152602001868152602001600060038111156112bd576112bc612af3565b5b81526020018560028111156112d5576112d4612af3565b5b8152602001841515815260200142815260200160008152602001600073ffffffffffffffffffffffffffffffffffffffff168152506002600001600083815260200190815260200160002060008201518160000160006101000a81548173ffffffffffffffffffffffffffffffffffffffff021916908373ffffffffffffffffffffffffffffffffffffffff16021790555060208201518160010160006101000a81548173ffffffffffffffffffffffffffffffffffffffff021916908373ffffffffffffffffffffffffffffffffffffffff16021790555060408201518160020160006101000a81548173ffffffffffffffffffffffffffffffffffffffff021916908373ffffffffffffffffffffffffffffffffffffffff160217905550606082015181600301556080820151816004015560a0820151816005015560c0820151816006015560e08201518160070160006101000a81548160ff0219169083600381111561144857611447612af3565b5b02179055506101008201518160070160016101000a81548160ff0219169083600281111561147957611478612af3565b5b02179055506101208201518160070160026101000a81548160ff0219169083151502179055506101408201518160080155610160820151816009015561018082015181600a0160006101000a81548173ffffffffffffffffffffffffffffffffffffffff021916908373ffffffffffffffffffffffffffffffffffffffff1602179055509050506002800160003373ffffffffffffffffffffffffffffffffffffffff1673ffffffffffffffffffffffffffffffffffffffff168152602001908152602001600020600081548092919061155290612ed7565b919050555087600260030160003373ffffffffffffffffffffffffffffffffffffffff1673ffffffffffffffffffffffffffffffffffffffff16815260200190815260200160002060008282546115a99190612f1f565b925050819055503373ffffffffffffffffffffffffffffffffffffffff16817fc56dbfdf2d2fef9cdf010906e3c04082a9f27b6e6cfa17723ecd3ab83c2de14c868d8d8d8d8d60405161160196959493929190612f62565b60405180910390a33373ffffffffffffffffffffffffffffffffffffffff167fe1aa32a05a936d69f047156e8723fb00d08776fbe4d7d6b45187d2248b589bfa600260030160003373ffffffffffffffffffffffffffffffffffffffff1673ffffffffffffffffffffffffffffffffffffffff16815260200190815260200160002054604051611691919061294b565b60405180910390a2809150506116a5611fdf565b98975050505050505050565b6116b96126eb565b60026000016000838152602001908152602001600020604051806101a00160405290816000820160009054906101000a900473ffffffffffffffffffffffffffffffffffffffff1673ffffffffffffffffffffffffffffffffffffffff1673ffffffffffffffffffffffffffffffffffffffff1681526020016001820160009054906101000a900473ffffffffffffffffffffffffffffffffffffffff1673ffffffffffffffffffffffffffffffffffffffff1673ffffffffffffffffffffffffffffffffffffffff1681526020016002820160009054906101000a900473ffffffffffffffffffffffffffffffffffffffff1673ffffffffffffffffffffffffffffffffffffffff1673ffffffffffffffffffffffffffffffffffffffff168152602001600382015481526020016004820154815260200160058201548152602001600682015481526020016007820160009054906101000a900460ff16600381111561182a57611829612af3565b5b600381111561183c5761183b612af3565b5b81526020016007820160019054906101000a900460ff16600281111561186557611864612af3565b5b600281111561187757611876612af3565b5b81526020016007820160029054906101000a900460ff161515151581526020016008820154815260200160098201548152602001600a820160009054906101000a900473ffffffffffffffffffffffffffffffffffffffff1673ffffffffffffffffffffffffffffffffffffffff1673ffffffffffffffffffffffffffffffffffffffff16815250509050919050565b61190f611a79565b600073ffffffffffffffffffffffffffffffffffffffff168173ffffffffffffffffffffffffffffffffffffffff1603611975576040517fe6c4247b00000000000000000000000000000000000000000000000000000000815260040160405180910390fd5b80600260070160006101000a81548173ffffffffffffffffffffffffffffffffffffffff021916908373ffffffffffffffffffffffffffffffffffffffff1602179055507f7dae230f18360d76a040c81f050aa14eb9d6dc7901b20fc5d855e2a20fe814d1816040516119e8919061299f565b60405180910390a150565b6119fb611a79565b600073ffffffffffffffffffffffffffffffffffffffff168173ffffffffffffffffffffffffffffffffffffffff1603611a6d5760006040517f1e4fbdf7000000000000000000000000000000000000000000000000000000008152600401611a64919061299f565b60405180910390fd5b611a7681611b63565b50565b611a816123f1565b73ffffffffffffffffffffffffffffffffffffffff16611a9f610764565b73ffffffffffffffffffffffffffffffffffffffff1614611afe57611ac26123f1565b6040517f118cdaa7000000000000000000000000000000000000000000000000000000008152600401611af5919061299f565b60405180910390fd5b565b611b086123f9565b6000600160006101000a81548160ff0219169083151502179055507f5db9ee0a495bf2e6ff9c91a7834c1ba4fdd244a5e8aa4e537bd38aeae4b073aa611b4c6123f1565b604051611b59919061299f565b60405180910390a1565b600060018054906101000a900473ffffffffffffffffffffffffffffffffffffffff169050816001806101000a81548173ffffffffffffffffffffffffffffffffffffffff021916908373ffffffffffffffffffffffffffffffffffffffff1602179055508173ffffffffffffffffffffffffffffffffffffffff168173ffffffffffffffffffffffffffffffffffffffff167f8be0079c531659141344cd1fd0a4f28419497f9722a3daafe3b4186f6b6457e060405160405180910390a35050565b611c2e611cce565b60018060006101000a81548160ff0219169083151502179055507f62e78cea01bee320cd4e420270b5ea74000d11b0c9f74754ebdbfc544b05a258611c716123f1565b604051611c7e919061299f565b60405180910390a1565b600260005403611cc4576040517f3ee5aeb500000000000000000000000000000000000000000000000000000000815260040160405180910390fd5b6002600081905550565b611cd66106ce565b15611d0d576040517fd93c066500000000000000000000000000000000000000000000000000000000815260040160405180910390fd5b565b60006003811115611d2357611d22612af3565b5b8160070160009054906101000a900460ff166003811115611d4757611d46612af3565b5b14611d7e576040517faf61069300000000000000000000000000000000000000000000000000000000815260040160405180910390fd5b8060060154421115611dbc576040517fc56873ba00000000000000000000000000000000000000000000000000000000815260040160405180910390fd5b50565b6000806002811115611dd457611dd3612af3565b5b8361010001516002811115611dec57611deb612af3565b5b03611e1857826101200151611e08578260800151821015611e11565b82608001518211155b9050611ecc565b60016002811115611e2c57611e2b612af3565b5b8361010001516002811115611e4457611e43612af3565b5b03611e7057826101200151611e60578260800151821015611e69565b82608001518211155b9050611ecc565b600280811115611e8357611e82612af3565b5b8361010001516002811115611e9b57611e9a612af3565b5b03611ec757826101200151611eb7578260800151821115611ec0565b82608001518210155b9050611ecc565b600090505b92915050565b600080600260080160009054906101000a900473ffffffffffffffffffffffffffffffffffffffff1673ffffffffffffffffffffffffffffffffffffffff1663ac41865a856020015186604001516040518363ffffffff1660e01b8152600401611f3d929190612d11565b602060405180830381865afa158015611f5a573d6000803e3d6000fd5b505050506040513d601f19601f82011682018060405250810190611f7e9190612d4f565b905060008103611f92576000915050611fd9565b6000838211611fac578184611fa79190612dfd565b611fb9565b8382611fb89190612dfd565b5b90508161271082611fca9190612fc3565b611fd49190613034565b925050505b92915050565b6001600081905550565b612063838473ffffffffffffffffffffffffffffffffffffffff1663a9059cbb858560405160240161201c929190612eae565b604051602081830303815290604052915060e01b6020820180517bffffffffffffffffffffffffffffffffffffffffffffffffffffffff8381831617835250505050612439565b505050565b678ac7230489e800008610156120aa576040517f2c5211c600000000000000000000000000000000000000000000000000000000815260040160405180910390fd5b600084036120e4576040517f2c5211c600000000000000000000000000000000000000000000000000000000815260040160405180910390fd5b6002600601543414612122576040517f58d620b300000000000000000000000000000000000000000000000000000000815260040160405180910390fd5b42831161215b576040517f769d11e400000000000000000000000000000000000000000000000000000000815260040160405180910390fd5b62093a804261216a9190612f1f565b8311156121a3576040517f48f0fae600000000000000000000000000000000000000000000000000000000815260040160405180910390fd5b6002600501546002800160003373ffffffffffffffffffffffffffffffffffffffff1673ffffffffffffffffffffffffffffffffffffffff1681526020019081526020016000205410612222576040517f52f9988b00000000000000000000000000000000000000000000000000000000815260040160405180910390fd5b69d3c21bcecceda100000086600260030160003373ffffffffffffffffffffffffffffffffffffffff1673ffffffffffffffffffffffffffffffffffffffff1681526020019081526020016000205461227b9190612f1f565b11156122b3576040517ffff8c96100000000000000000000000000000000000000000000000000000000815260040160405180910390fd5b6000600260080160009054906101000a900473ffffffffffffffffffffffffffffffffffffffff1673ffffffffffffffffffffffffffffffffffffffff1663ac41865a8a8a6040518363ffffffff1660e01b8152600401612315929190612d11565b602060405180830381865afa158015612332573d6000803e3d6000fd5b505050506040513d601f19601f820116820180604052508101906123569190612d4f565b9050612364838383896124db565b505050505050505050565b6123eb848573ffffffffffffffffffffffffffffffffffffffff166323b872dd8686866040516024016123a493929190613065565b604051602081830303815290604052915060e01b6020820180517bffffffffffffffffffffffffffffffffffffffffffffffffffffffff8381831617835250505050612439565b50505050565b600033905090565b6124016106ce565b612437576040517f8dfc202b00000000000000000000000000000000000000000000000000000000815260040160405180910390fd5b565b600080602060008451602086016000885af18061245c576040513d6000823e3d81fd5b3d925060005191505060008214612477576001811415612493565b60008473ffffffffffffffffffffffffffffffffffffffff163b145b156124d557836040517f5274afe70000000000000000000000000000000000000000000000000000000081526004016124cc919061299f565b60405180910390fd5b50505050565b600060028111156124ef576124ee612af3565b5b84600281111561250257612501612af3565b5b0361258a57821561254b57818110612546576040517f5cd9bd3a00000000000000000000000000000000000000000000000000000000815260040160405180910390fd5b612585565b818111612584576040517f5cd9bd3a00000000000000000000000000000000000000000000000000000000815260040160405180910390fd5b5b6126e5565b6001600281111561259e5761259d612af3565b5b8460028111156125b1576125b0612af3565b5b036126395782156125fa578181106125f5576040517f93e7c2c300000000000000000000000000000000000000000000000000000000815260040160405180910390fd5b612634565b818111612633576040517f93e7c2c300000000000000000000000000000000000000000000000000000000815260040160405180910390fd5b5b6126e4565b60028081111561264c5761264b612af3565b5b84600281111561265f5761265e612af3565b5b036126e35782156126a8578181116126a3576040517fa98699de00000000000000000000000000000000000000000000000000000000815260040160405180910390fd5b6126e2565b8181106126e1576040517fa98699de00000000000000000000000000000000000000000000000000000000815260040160405180910390fd5b5b5b5b5b50505050565b604051806101a00160405280600073ffffffffffffffffffffffffffffffffffffffff168152602001600073ffffffffffffffffffffffffffffffffffffffff168152602001600073ffffffffffffffffffffffffffffffffffffffff168152602001600081526020016000815260200160008152602001600081526020016000600381111561277e5761277d612af3565b5b81526020016000600281111561279757612796612af3565b5b81526020016000151581526020016000815260200160008152602001600073ffffffffffffffffffffffffffffffffffffffff1681525090565b600080fd5b600073ffffffffffffffffffffffffffffffffffffffff82169050919050565b6000612801826127d6565b9050919050565b612811816127f6565b811461281c57600080fd5b50565b60008135905061282e81612808565b92915050565b60008115159050919050565b61284981612834565b811461285457600080fd5b50565b60008135905061286681612840565b92915050565b60008060408385031215612883576128826127d1565b5b60006128918582860161281f565b92505060206128a285828601612857565b9150509250929050565b6000819050919050565b6128bf816128ac565b81146128ca57600080fd5b50565b6000813590506128dc816128b6565b92915050565b6000602082840312156128f8576128f76127d1565b5b6000612906848285016128cd565b91505092915050565b600060208284031215612925576129246127d1565b5b60006129338482850161281f565b91505092915050565b612945816128ac565b82525050565b6000602082019050612960600083018461293c565b92915050565b61296f81612834565b82525050565b600060208201905061298a6000830184612966565b92915050565b612999816127f6565b82525050565b60006020820190506129b46000830184612990565b92915050565b600080604083850312156129d1576129d06127d1565b5b60006129df8582860161281f565b92505060206129f0858286016128cd565b9150509250929050565b60038110612a0757600080fd5b50565b600081359050612a19816129fa565b92915050565b600080600080600080600080610100898b031215612a4057612a3f6127d1565b5b6000612a4e8b828c0161281f565b9850506020612a5f8b828c0161281f565b9750506040612a708b828c016128cd565b9650506060612a818b828c016128cd565b9550506080612a928b828c016128cd565b94505060a0612aa38b828c016128cd565b93505060c0612ab48b828c01612a0a565b92505060e0612ac58b828c01612857565b9150509295985092959890939650565b612ade816127f6565b82525050565b612aed816128ac565b82525050565b7f4e487b7100000000000000000000000000000000000000000000000000000000600052602160045260246000fd5b60048110612b3357612b32612af3565b5b50565b6000819050612b4482612b22565b919050565b6000612b5482612b36565b9050919050565b612b6481612b49565b82525050565b60038110612b7b57612b7a612af3565b5b50565b6000819050612b8c82612b6a565b919050565b6000612b9c82612b7e565b9050919050565b612bac81612b91565b82525050565b612bbb81612834565b82525050565b6101a082016000820151612bd86000850182612ad5565b506020820151612beb6020850182612ad5565b506040820151612bfe6040850182612ad5565b506060820151612c116060850182612ae4565b506080820151612c246080850182612ae4565b5060a0820151612c3760a0850182612ae4565b5060c0820151612c4a60c0850182612ae4565b5060e0820151612c5d60e0850182612b5b565b50610100820151612c72610100850182612ba3565b50610120820151612c87610120850182612bb2565b50610140820151612c9c610140850182612ae4565b50610160820151612cb1610160850182612ae4565b50610180820151612cc6610180850182612ad5565b50505050565b60006101a082019050612ce26000830184612bc1565b92915050565b6000604082019050612cfd6000830185612990565b612d0a6020830184612966565b9392505050565b6000604082019050612d266000830185612990565b612d336020830184612990565b9392505050565b600081519050612d49816128b6565b92915050565b600060208284031215612d6557612d646127d1565b5b6000612d7384828501612d3a565b91505092915050565b6000604082019050612d91600083018561293c565b612d9e602083018461293c565b9392505050565b7f4e487b7100000000000000000000000000000000000000000000000000000000600052601160045260246000fd5b6000612ddf826128ac565b915060008203612df257612df1612da5565b5b600182039050919050565b6000612e08826128ac565b9150612e13836128ac565b9250828203905081811115612e2b57612e2a612da5565b5b92915050565b600081905092915050565b50565b6000612e4c600083612e31565b9150612e5782612e3c565b600082019050919050565b6000612e6d82612e3f565b9150819050919050565b6000606082019050612e8c600083018661293c565b612e99602083018561293c565b612ea6604083018461293c565b949350505050565b6000604082019050612ec36000830185612990565b612ed0602083018461293c565b9392505050565b6000612ee2826128ac565b91507fffffffffffffffffffffffffffffffffffffffffffffffffffffffffffffffff8203612f1457612f13612da5565b5b600182019050919050565b6000612f2a826128ac565b9150612f35836128ac565b9250828201905080821115612f4d57612f4c612da5565b5b92915050565b612f5c81612b91565b82525050565b600060c082019050612f776000830189612f53565b612f846020830188612990565b612f916040830187612990565b612f9e606083018661293c565b612fab608083018561293c565b612fb860a083018461293c565b979650505050505050565b6000612fce826128ac565b9150612fd9836128ac565b9250828202612fe7816128ac565b91508282048414831517612ffe57612ffd612da5565b5b5092915050565b7f4e487b7100000000000000000000000000000000000000000000000000000000600052601260045260246000fd5b600061303f826128ac565b915061304a836128ac565b92508261305a57613059613005565b5b828204905092915050565b600060608201905061307a6000830186612990565b6130876020830185612990565b613094604083018461293c565b94935050505056fea2646970667358221220e5f4c17e070e6972d860a2d489211ed9bd18eae1b07a65398ad0d031901b1b4164736f6c634300081b0033",
  "linkReferences": {},
  "deployedLinkReferences": {}
}