{
  "address": "0xCf7Ed3AccA5a467e9e704C703E8D87F634fB0Fc9",
  "abi": [
    {
      "inputs": [
        {
          "internalType": "address",
          "name": "_tokenBoundAccount",
          "type": "address"
        },
        {
          "internalType": "uint256",
          "name": "_timeLockDuration",
          "type": "uint256"
        },
        {
          "internalType": "uint256",
          "name": "_recoveryThreshold",
          "type": "uint256"
        }
      ],
      "stateMutability": "nonpayable",
      "type": "constructor"
    },
    {
      "anonymous": false,
      "inputs": [
        {
          "indexed": true,
          "internalType": "address",
          "name": "initiator",
          "type": "address"
        }
      ],
      "name": "EmergencyStopActivated",
      "type": "event"
    },
    {
      "anonymous": false,
      "inputs": [
        {
          "indexed": true,
          "internalType": "address",
          "name": "guardian",
          "type": "address"
        }
      ],
      "name": "GuardianAdded",
      "type": "event"
    },
    {
      "anonymous": false,
      "inputs": [
        {
          "indexed": true,
          "internalType": "address",
          "name": "guardian",
          "type": "address"
        }
      ],
      "name": "GuardianRemoved",
      "type": "event"
    },
    {
      "anonymous": false,
      "inputs": [
        {
          "indexed": true,
          "internalType": "address",
          "name": "guardian",
          "type": "address"
        }
      ],
      "name": "RecoveryApproved",
      "type": "event"
    },
    {
      "anonymous": false,
      "inputs": [
        {
          "indexed": true,
          "internalType": "address",
          "name": "guardian",
          "type": "address"
        }
      ],
      "name": "RecoveryCanceled",
      "type": "event"
    },
    {
      "anonymous": false,
      "inputs": [
        {
          "indexed": true,
          "internalType": "address",
          "name": "newOwner",
          "type": "address"
        }
      ],
      "name": "RecoveryCompleted",
      "type": "event"
    },
    {
      "anonymous": false,
      "inputs": [
        {
          "indexed": false,
          "internalType": "uint256",
          "name": "startTime",
          "type": "uint256"
        }
      ],
      "name": "RecoveryInitiated",
      "type": "event"
    },
    {
      "inputs": [],
      "name": "activateEmergencyStop",
      "outputs": [],
      "stateMutability": "nonpayable",
      "type": "function"
    },
    {
      "inputs": [
        {
          "internalType": "address",
          "name": "guardian",
          "type": "address"
        }
      ],
      "name": "addGuardian",
      "outputs": [],
      "stateMutability": "nonpayable",
      "type": "function"
    },
    {
      "inputs": [
        {
          "internalType": "uint256",
          "name": "",
          "type": "uint256"
        }
      ],
      "name": "addressList",
      "outputs": [
        {
          "internalType": "address",
          "name": "",
          "type": "address"
        }
      ],
      "stateMutability": "view",
      "type": "function"
    },
    {
      "inputs": [],
      "name": "approvalCount",
      "outputs": [
        {
          "internalType": "uint256",
          "name": "",
          "type": "uint256"
        }
      ],
      "stateMutability": "view",
      "type": "function"
    },
    {
      "inputs": [
        {
          "internalType": "address",
          "name": "",
          "type": "address"
        }
      ],
      "name": "approvals",
      "outputs": [
        {
          "internalType": "bool",
          "name": "",
          "type": "bool"
        }
      ],
      "stateMutability": "view",
      "type": "function"
    },
    {
      "inputs": [],
      "name": "approveRecovery",
      "outputs": [],
      "stateMutability": "nonpayable",
      "type": "function"
    },
    {
      "inputs": [],
      "name": "emergencyStop",
      "outputs": [
        {
          "internalType": "bool",
          "name": "",
          "type": "bool"
        }
      ],
      "stateMutability": "view",
      "type": "function"
    },
    {
      "inputs": [
        {
          "internalType": "address",
          "name": "target",
          "type": "address"
        },
        {
          "internalType": "uint256",
          "name": "value",
          "type": "uint256"
        },
        {
          "internalType": "bytes",
          "name": "data",
          "type": "bytes"
        }
      ],
      "name": "executeAsOwner",
      "outputs": [
        {
          "internalType": "bytes",
          "name": "",
          "type": "bytes"
        }
      ],
      "stateMutability": "nonpayable",
      "type": "function"
    },
    {
      "inputs": [
        {
          "internalType": "address",
          "name": "",
          "type": "address"
        }
      ],
      "name": "guardians",
      "outputs": [
        {
          "internalType": "bool",
          "name": "",
          "type": "bool"
        }
      ],
      "stateMutability": "view",
      "type": "function"
    },
    {
      "inputs": [],
      "name": "initiateRecovery",
      "outputs": [],
      "stateMutability": "nonpayable",
      "type": "function"
    },
    {
      "inputs": [],
      "name": "owner",
      "outputs": [
        {
          "internalType": "address",
          "name": "",
          "type": "address"
        }
      ],
      "stateMutability": "view",
      "type": "function"
    },
    {
      "inputs": [],
      "name": "recoveryInProgress",
      "outputs": [
        {
          "internalType": "bool",
          "name": "",
          "type": "bool"
        }
      ],
      "stateMutability": "view",
      "type": "function"
    },
    {
      "inputs": [],
      "name": "recoveryStartTime",
      "outputs": [
        {
          "internalType": "uint256",
          "name": "",
          "type": "uint256"
        }
      ],
      "stateMutability": "view",
      "type": "function"
    },
    {
      "inputs": [],
      "name": "recoveryThreshold",
      "outputs": [
        {
          "internalType": "uint256",
          "name": "",
          "type": "uint256"
        }
      ],
      "stateMutability": "view",
      "type": "function"
    },
    {
      "inputs": [
        {
          "internalType": "address",
          "name": "guardian",
          "type": "address"
        }
      ],
      "name": "removeGuardian",
      "outputs": [],
      "stateMutability": "nonpayable",
      "type": "function"
    },
    {
      "inputs": [],
      "name": "timeLockDuration",
      "outputs": [
        {
          "internalType": "uint256",
          "name": "",
          "type": "uint256"
        }
      ],
      "stateMutability": "view",
      "type": "function"
    },
    {
      "inputs": [],
      "name": "tokenBoundAccount",
      "outputs": [
        {
          "internalType": "address",
          "name": "",
          "type": "address"
        }
      ],
      "stateMutability": "view",
      "type": "function"
    },
    {
      "inputs": [],
      "name": "vetoRecovery",
      "outputs": [],
      "stateMutability": "nonpayable",
      "type": "function"
    }
  ],
  "transactionHash": "0xc9118eb1da981afe0c79a9e49b98f3cb91ea96e9b43664b0f52d687c5a52dfba",
  "args": [
    "0xf39Fd6e51aad88F6F4ce6aB8827279cffFb92266",
    100,
    3
  ],
  "numDeployments": 1,
  "solcInputHash": "29b7db6c21439bd12fc126e32b4fd138",
  "bytecode": "0x608060405234801561001057600080fd5b50604051611c45380380611c4583398181016040528101906100329190610162565b336000806101000a81548173ffffffffffffffffffffffffffffffffffffffff021916908373ffffffffffffffffffffffffffffffffffffffff16021790555082600160006101000a81548173ffffffffffffffffffffffffffffffffffffffff021916908373ffffffffffffffffffffffffffffffffffffffff16021790555081600481905550806003819055505050506101b5565b600080fd5b600073ffffffffffffffffffffffffffffffffffffffff82169050919050565b60006100f9826100ce565b9050919050565b610109816100ee565b811461011457600080fd5b50565b60008151905061012681610100565b92915050565b6000819050919050565b61013f8161012c565b811461014a57600080fd5b50565b60008151905061015c81610136565b92915050565b60008060006060848603121561017b5761017a6100c9565b5b600061018986828701610117565b935050602061019a8682870161014d565b92505060406101ab8682870161014d565b9150509250925092565b611a81806101c46000396000f3fe608060405234801561001057600080fd5b50600436106101165760003560e01c80638da5cb5b116100a2578063b810fb4311610071578063b810fb4314610297578063db16330d146102c7578063e9bb6ceb146102e5578063fcae8d3814610303578063ff96df441461030d57610116565b80638da5cb5b14610249578063985957ab14610267578063a526d83b14610271578063aa160c3b1461028d57610116565b80635d0341ba116100e95780635d0341ba146101b757806363a599a4146101e75780636884d0a61461020557806371404156146102235780638ac469351461023f57610116565b80630633b14a1461011b57806314f5c2ec1461014b5780631c8123d6146101695780633464156f14610187575b600080fd5b61013560048036038101906101309190611229565b61032b565b6040516101429190611271565b60405180910390f35b61015361034b565b60405161016091906112a5565b60405180910390f35b610171610351565b60405161017e91906112a5565b60405180910390f35b6101a1600480360381019061019c9190611351565b610357565b6040516101ae9190611455565b60405180910390f35b6101d160048036038101906101cc9190611229565b6104ea565b6040516101de9190611271565b60405180910390f35b6101ef61050a565b6040516101fc9190611271565b60405180910390f35b61020d61051d565b60405161021a91906112a5565b60405180910390f35b61023d60048036038101906102389190611229565b610523565b005b61024761064f565b005b6102516107d7565b60405161025e9190611486565b60405180910390f35b61026f6107fb565b005b61028b60048036038101906102869190611229565b6108e9565b005b610295610a15565b005b6102b160048036038101906102ac91906114a1565b610baa565b6040516102be9190611486565b60405180910390f35b6102cf610be9565b6040516102dc9190611271565b60405180910390f35b6102ed610bfc565b6040516102fa9190611486565b60405180910390f35b61030b610c22565b005b610315610f08565b60405161032291906112a5565b60405180910390f35b60066020528060005260406000206000915054906101000a900460ff1681565b60025481565b60035481565b606060008054906101000a900473ffffffffffffffffffffffffffffffffffffffff1673ffffffffffffffffffffffffffffffffffffffff163373ffffffffffffffffffffffffffffffffffffffff16146103e7576040517f08c379a00000000000000000000000000000000000000000000000000000000081526004016103de9061152b565b60405180910390fd5b600560009054906101000a900460ff1615610437576040517f08c379a000000000000000000000000000000000000000000000000000000000815260040161042e90611597565b60405180910390fd5b600160009054906101000a900473ffffffffffffffffffffffffffffffffffffffff1673ffffffffffffffffffffffffffffffffffffffff1663b61d27f6868686866040518563ffffffff1660e01b815260040161049894939291906115f3565b6000604051808303816000875af11580156104b7573d6000803e3d6000fd5b505050506040513d6000823e3d601f19601f820116820180604052508101906104e09190611754565b9050949350505050565b60076020528060005260406000206000915054906101000a900460ff1681565b600560009054906101000a900460ff1681565b60095481565b60008054906101000a900473ffffffffffffffffffffffffffffffffffffffff1673ffffffffffffffffffffffffffffffffffffffff163373ffffffffffffffffffffffffffffffffffffffff16146105b1576040517f08c379a00000000000000000000000000000000000000000000000000000000081526004016105a89061152b565b60405180910390fd5b6000600660008373ffffffffffffffffffffffffffffffffffffffff1673ffffffffffffffffffffffffffffffffffffffff16815260200190815260200160002060006101000a81548160ff0219169083151502179055508073ffffffffffffffffffffffffffffffffffffffff167fb8107d0c6b40be480ce3172ee66ba6d64b71f6b1685a851340036e6e2e3e3c5260405160405180910390a250565b600660003373ffffffffffffffffffffffffffffffffffffffff1673ffffffffffffffffffffffffffffffffffffffff16815260200190815260200160002060009054906101000a900460ff166106db576040517f08c379a00000000000000000000000000000000000000000000000000000000081526004016106d2906117e9565b60405180910390fd5b600560009054906101000a900460ff161561072b576040517f08c379a000000000000000000000000000000000000000000000000000000000815260040161072290611597565b60405180910390fd5b600160149054906101000a900460ff161561077b576040517f08c379a000000000000000000000000000000000000000000000000000000000815260040161077290611855565b60405180910390fd5b60018060146101000a81548160ff021916908315150217905550426002819055507f43397b60d44f3cf1dc5759a2262e27318bdaa283892fa8318891d093368ca1d66002546040516107cd91906112a5565b60405180910390a1565b60008054906101000a900473ffffffffffffffffffffffffffffffffffffffff1681565b60008054906101000a900473ffffffffffffffffffffffffffffffffffffffff1673ffffffffffffffffffffffffffffffffffffffff163373ffffffffffffffffffffffffffffffffffffffff1614610889576040517f08c379a00000000000000000000000000000000000000000000000000000000081526004016108809061152b565b60405180910390fd5b6001600560006101000a81548160ff0219169083151502179055503373ffffffffffffffffffffffffffffffffffffffff167fab041f15b21509a5ebcd65d5f15a4cdb950cfdda572488827e5b44f28b2214e860405160405180910390a2565b60008054906101000a900473ffffffffffffffffffffffffffffffffffffffff1673ffffffffffffffffffffffffffffffffffffffff163373ffffffffffffffffffffffffffffffffffffffff1614610977576040517f08c379a000000000000000000000000000000000000000000000000000000000815260040161096e9061152b565b60405180910390fd5b6001600660008373ffffffffffffffffffffffffffffffffffffffff1673ffffffffffffffffffffffffffffffffffffffff16815260200190815260200160002060006101000a81548160ff0219169083151502179055508073ffffffffffffffffffffffffffffffffffffffff167f038596bb31e2e7d3d9f184d4c98b310103f6d7f5830e5eec32bffe6f1728f96960405160405180910390a250565b60008054906101000a900473ffffffffffffffffffffffffffffffffffffffff1673ffffffffffffffffffffffffffffffffffffffff163373ffffffffffffffffffffffffffffffffffffffff1614610aa3576040517f08c379a0000000000000000000000000000000000000000000000000000000008152600401610a9a9061152b565b60405180910390fd5b600560009054906101000a900460ff1615610af3576040517f08c379a0000000000000000000000000000000000000000000000000000000008152600401610aea90611597565b60405180910390fd5b600160149054906101000a900460ff16610b42576040517f08c379a0000000000000000000000000000000000000000000000000000000008152600401610b39906118c1565b60405180910390fd5b6000600160146101000a81548160ff021916908315150217905550610b65610f0e565b3373ffffffffffffffffffffffffffffffffffffffff167f0d8129d90ef1c9fb74e7942381c7a9a21e58349b5cfc5f672871b8471252247d60405160405180910390a2565b60088181548110610bba57600080fd5b906000526020600020016000915054906101000a900473ffffffffffffffffffffffffffffffffffffffff1681565b600160149054906101000a900460ff1681565b600160009054906101000a900473ffffffffffffffffffffffffffffffffffffffff1681565b600660003373ffffffffffffffffffffffffffffffffffffffff1673ffffffffffffffffffffffffffffffffffffffff16815260200190815260200160002060009054906101000a900460ff16610cae576040517f08c379a0000000000000000000000000000000000000000000000000000000008152600401610ca5906117e9565b60405180910390fd5b600560009054906101000a900460ff1615610cfe576040517f08c379a0000000000000000000000000000000000000000000000000000000008152600401610cf590611597565b60405180910390fd5b600160149054906101000a900460ff16610d4d576040517f08c379a0000000000000000000000000000000000000000000000000000000008152600401610d44906118c1565b60405180910390fd5b600760003373ffffffffffffffffffffffffffffffffffffffff1673ffffffffffffffffffffffffffffffffffffffff16815260200190815260200160002060009054906101000a900460ff1615610dda576040517f08c379a0000000000000000000000000000000000000000000000000000000008152600401610dd19061192d565b60405180910390fd5b6001600760003373ffffffffffffffffffffffffffffffffffffffff1673ffffffffffffffffffffffffffffffffffffffff16815260200190815260200160002060006101000a81548160ff0219169083151502179055506008339080600181540180825580915050600190039060005260206000200160009091909190916101000a81548173ffffffffffffffffffffffffffffffffffffffff021916908373ffffffffffffffffffffffffffffffffffffffff160217905550600160096000828254610ea8919061197c565b925050819055503373ffffffffffffffffffffffffffffffffffffffff167f47032c9dbd3001ab3b46aa359314884f3f192d251eda3b26f0be4cffd76d39c560405160405180910390a260035460095410610f0657610f05610fda565b5b565b60045481565b60005b600880549050811015610fc15760006007600060088481548110610f3857610f376119b0565b5b9060005260206000200160009054906101000a900473ffffffffffffffffffffffffffffffffffffffff1673ffffffffffffffffffffffffffffffffffffffff1673ffffffffffffffffffffffffffffffffffffffff16815260200190815260200160002060006101000a81548160ff0219169083151502179055508080600101915050610f11565b5060086000610fd09190611179565b6000600981905550565b600160149054906101000a900460ff1680156110055750600454600254611001919061197c565b4210155b611044576040517f08c379a000000000000000000000000000000000000000000000000000000000815260040161103b90611a2b565b60405180910390fd5b6000600160146101000a81548160ff021916908315150217905550611067610f0e565b600160009054906101000a900473ffffffffffffffffffffffffffffffffffffffff1673ffffffffffffffffffffffffffffffffffffffff1663e8ea054b60008054906101000a900473ffffffffffffffffffffffffffffffffffffffff166040518263ffffffff1660e01b81526004016110e29190611486565b600060405180830381600087803b1580156110fc57600080fd5b505af1158015611110573d6000803e3d6000fd5b5050505060008054906101000a900473ffffffffffffffffffffffffffffffffffffffff1673ffffffffffffffffffffffffffffffffffffffff167f46f5008939fa0b4beb46ae7f0e8368318bb72b56608910ca71c23e83382f609f60405160405180910390a2565b5080546000825590600052602060002090810190611197919061119a565b50565b5b808211156111b357600081600090555060010161119b565b5090565b6000604051905090565b600080fd5b600080fd5b600073ffffffffffffffffffffffffffffffffffffffff82169050919050565b60006111f6826111cb565b9050919050565b611206816111eb565b811461121157600080fd5b50565b600081359050611223816111fd565b92915050565b60006020828403121561123f5761123e6111c1565b5b600061124d84828501611214565b91505092915050565b60008115159050919050565b61126b81611256565b82525050565b60006020820190506112866000830184611262565b92915050565b6000819050919050565b61129f8161128c565b82525050565b60006020820190506112ba6000830184611296565b92915050565b6112c98161128c565b81146112d457600080fd5b50565b6000813590506112e6816112c0565b92915050565b600080fd5b600080fd5b600080fd5b60008083601f840112611311576113106112ec565b5b8235905067ffffffffffffffff81111561132e5761132d6112f1565b5b60208301915083600182028301111561134a576113496112f6565b5b9250929050565b6000806000806060858703121561136b5761136a6111c1565b5b600061137987828801611214565b945050602061138a878288016112d7565b935050604085013567ffffffffffffffff8111156113ab576113aa6111c6565b5b6113b7878288016112fb565b925092505092959194509250565b600081519050919050565b600082825260208201905092915050565b60005b838110156113ff5780820151818401526020810190506113e4565b60008484015250505050565b6000601f19601f8301169050919050565b6000611427826113c5565b61143181856113d0565b93506114418185602086016113e1565b61144a8161140b565b840191505092915050565b6000602082019050818103600083015261146f818461141c565b905092915050565b611480816111eb565b82525050565b600060208201905061149b6000830184611477565b92915050565b6000602082840312156114b7576114b66111c1565b5b60006114c5848285016112d7565b91505092915050565b600082825260208201905092915050565b7f43616c6c6572206973206e6f7420746865206f776e6572000000000000000000600082015250565b60006115156017836114ce565b9150611520826114df565b602082019050919050565b6000602082019050818103600083015261154481611508565b9050919050565b7f456d657267656e63792073746f70206163746976617465640000000000000000600082015250565b60006115816018836114ce565b915061158c8261154b565b602082019050919050565b600060208201905081810360008301526115b081611574565b9050919050565b82818337600083830152505050565b60006115d283856113d0565b93506115df8385846115b7565b6115e88361140b565b840190509392505050565b60006060820190506116086000830187611477565b6116156020830186611296565b81810360408301526116288184866115c6565b905095945050505050565b600080fd5b7f4e487b7100000000000000000000000000000000000000000000000000000000600052604160045260246000fd5b6116708261140b565b810181811067ffffffffffffffff8211171561168f5761168e611638565b5b80604052505050565b60006116a26111b7565b90506116ae8282611667565b919050565b600067ffffffffffffffff8211156116ce576116cd611638565b5b6116d78261140b565b9050602081019050919050565b60006116f76116f2846116b3565b611698565b90508281526020810184848401111561171357611712611633565b5b61171e8482856113e1565b509392505050565b600082601f83011261173b5761173a6112ec565b5b815161174b8482602086016116e4565b91505092915050565b60006020828403121561176a576117696111c1565b5b600082015167ffffffffffffffff811115611788576117876111c6565b5b61179484828501611726565b91505092915050565b7f43616c6c6572206973206e6f74206120677561726469616e0000000000000000600082015250565b60006117d36018836114ce565b91506117de8261179d565b602082019050919050565b60006020820190508181036000830152611802816117c6565b9050919050565b7f5265636f7665727920616c726561647920696e2070726f677265737300000000600082015250565b600061183f601c836114ce565b915061184a82611809565b602082019050919050565b6000602082019050818103600083015261186e81611832565b9050919050565b7f4e6f207265636f7665727920696e2070726f6772657373000000000000000000600082015250565b60006118ab6017836114ce565b91506118b682611875565b602082019050919050565b600060208201905081810360008301526118da8161189e565b9050919050565b7f477561726469616e20616c726561647920617070726f76656400000000000000600082015250565b60006119176019836114ce565b9150611922826118e1565b602082019050919050565b600060208201905081810360008301526119468161190a565b9050919050565b7f4e487b7100000000000000000000000000000000000000000000000000000000600052601160045260246000fd5b60006119878261128c565b91506119928361128c565b92508282019050808211156119aa576119a961194d565b5b92915050565b7f4e487b7100000000000000000000000000000000000000000000000000000000600052603260045260246000fd5b7f5265636f766572792074696d65206c6f636b206e6f7420706173736564000000600082015250565b6000611a15601d836114ce565b9150611a20826119df565b602082019050919050565b60006020820190508181036000830152611a4481611a08565b905091905056fea2646970667358221220e0a03f02d5c11e3d8bd75d3c40bae046bef4fe40de59274e52afd16d5114166a64736f6c634300081b0033",
  "devdoc": {
    "kind": "dev",
    "methods": {},
    "version": 1
  },
  "userdoc": {
    "kind": "user",
    "methods": {},
    "version": 1
  },
  "storageLayout": {
    "storage": [
      {
        "astId": 1760,
        "contract": "contracts/AdvancedGuardianRecovery.sol:AdvancedGuardianRecovery",
        "label": "owner",
        "offset": 0,
        "slot": "0",
        "type": "t_address"
      },
      {
        "astId": 1762,
        "contract": "contracts/AdvancedGuardianRecovery.sol:AdvancedGuardianRecovery",
        "label": "tokenBoundAccount",
        "offset": 0,
        "slot": "1",
        "type": "t_address"
      },
      {
        "astId": 1764,
        "contract": "contracts/AdvancedGuardianRecovery.sol:AdvancedGuardianRecovery",
        "label": "recoveryInProgress",
        "offset": 20,
        "slot": "1",
        "type": "t_bool"
      },
      {
        "astId": 1766,
        "contract": "contracts/AdvancedGuardianRecovery.sol:AdvancedGuardianRecovery",
        "label": "recoveryStartTime",
        "offset": 0,
        "slot": "2",
        "type": "t_uint256"
      },
      {
        "astId": 1768,
        "contract": "contracts/AdvancedGuardianRecovery.sol:AdvancedGuardianRecovery",
        "label": "recoveryThreshold",
        "offset": 0,
        "slot": "3",
        "type": "t_uint256"
      },
      {
        "astId": 1770,
        "contract": "contracts/AdvancedGuardianRecovery.sol:AdvancedGuardianRecovery",
        "label": "timeLockDuration",
        "offset": 0,
        "slot": "4",
        "type": "t_uint256"
      },
      {
        "astId": 1772,
        "contract": "contracts/AdvancedGuardianRecovery.sol:AdvancedGuardianRecovery",
        "label": "emergencyStop",
        "offset": 0,
        "slot": "5",
        "type": "t_bool"
      },
      {
        "astId": 1776,
        "contract": "contracts/AdvancedGuardianRecovery.sol:AdvancedGuardianRecovery",
        "label": "guardians",
        "offset": 0,
        "slot": "6",
        "type": "t_mapping(t_address,t_bool)"
      },
      {
        "astId": 1780,
        "contract": "contracts/AdvancedGuardianRecovery.sol:AdvancedGuardianRecovery",
        "label": "approvals",
        "offset": 0,
        "slot": "7",
        "type": "t_mapping(t_address,t_bool)"
      },
      {
        "astId": 1783,
        "contract": "contracts/AdvancedGuardianRecovery.sol:AdvancedGuardianRecovery",
        "label": "addressList",
        "offset": 0,
        "slot": "8",
        "type": "t_array(t_address)dyn_storage"
      },
      {
        "astId": 1785,
        "contract": "contracts/AdvancedGuardianRecovery.sol:AdvancedGuardianRecovery",
        "label": "approvalCount",
        "offset": 0,
        "slot": "9",
        "type": "t_uint256"
      }
    ],
    "types": {
      "t_address": {
        "encoding": "inplace",
        "label": "address",
        "numberOfBytes": "20"
      },
      "t_array(t_address)dyn_storage": {
        "base": "t_address",
        "encoding": "dynamic_array",
        "label": "address[]",
        "numberOfBytes": "32"
      },
      "t_bool": {
        "encoding": "inplace",
        "label": "bool",
        "numberOfBytes": "1"
      },
      "t_mapping(t_address,t_bool)": {
        "encoding": "mapping",
        "key": "t_address",
        "label": "mapping(address => bool)",
        "numberOfBytes": "32",
        "value": "t_bool"
      },
      "t_uint256": {
        "encoding": "inplace",
        "label": "uint256",
        "numberOfBytes": "32"
      }
    }
  }
}