{
  "address": "0x9fE46736679d2D9a65F0992F2272dE9f3c7fa6e0",
  "abi": [
    {
      "inputs": [
        {
          "internalType": "address",
          "name": "initialOwner",
          "type": "address"
        }
      ],
      "stateMutability": "nonpayable",
      "type": "constructor"
    },
    {
      "inputs": [],
      "name": "ERC721EnumerableForbiddenBatchMint",
      "type": "error"
    },
    {
      "inputs": [
        {
          "internalType": "address",
          "name": "sender",
          "type": "address"
        },
        {
          "internalType": "uint256",
          "name": "tokenId",
          "type": "uint256"
        },
        {
          "internalType": "address",
          "name": "owner",
          "type": "address"
        }
      ],
      "name": "ERC721IncorrectOwner",
      "type": "error"
    },
    {
      "inputs": [
        {
          "internalType": "address",
          "name": "operator",
          "type": "address"
        },
        {
          "internalType": "uint256",
          "name": "tokenId",
          "type": "uint256"
        }
      ],
      "name": "ERC721InsufficientApproval",
      "type": "error"
    },
    {
      "inputs": [
        {
          "internalType": "address",
          "name": "approver",
          "type": "address"
        }
      ],
      "name": "ERC721InvalidApprover",
      "type": "error"
    },
    {
      "inputs": [
        {
          "internalType": "address",
          "name": "operator",
          "type": "address"
        }
      ],
      "name": "ERC721InvalidOperator",
      "type": "error"
    },
    {
      "inputs": [
        {
          "internalType": "address",
          "name": "owner",
          "type": "address"
        }
      ],
      "name": "ERC721InvalidOwner",
      "type": "error"
    },
    {
      "inputs": [
        {
          "internalType": "address",
          "name": "receiver",
          "type": "address"
        }
      ],
      "name": "ERC721InvalidReceiver",
      "type": "error"
    },
    {
      "inputs": [
        {
          "internalType": "address",
          "name": "sender",
          "type": "address"
        }
      ],
      "name": "ERC721InvalidSender",
      "type": "error"
    },
    {
      "inputs": [
        {
          "internalType": "uint256",
          "name": "tokenId",
          "type": "uint256"
        }
      ],
      "name": "ERC721NonexistentToken",
      "type": "error"
    },
    {
      "inputs": [
        {
          "internalType": "address",
          "name": "owner",
          "type": "address"
        },
        {
          "internalType": "uint256",
          "name": "index",
          "type": "uint256"
        }
      ],
      "name": "ERC721OutOfBoundsIndex",
      "type": "error"
    },
    {
      "inputs": [
        {
          "internalType": "address",
          "name": "owner",
          "type": "address"
        }
      ],
      "name": "OwnableInvalidOwner",
      "type": "error"
    },
    {
      "inputs": [
        {
          "internalType": "address",
          "name": "account",
          "type": "address"
        }
      ],
      "name": "OwnableUnauthorizedAccount",
      "type": "error"
    },
    {
      "anonymous": false,
      "inputs": [
        {
          "indexed": true,
          "internalType": "address",
          "name": "owner",
          "type": "address"
        },
        {
          "indexed": true,
          "internalType": "address",
          "name": "approved",
          "type": "address"
        },
        {
          "indexed": true,
          "internalType": "uint256",
          "name": "tokenId",
          "type": "uint256"
        }
      ],
      "name": "Approval",
      "type": "event"
    },
    {
      "anonymous": false,
      "inputs": [
        {
          "indexed": true,
          "internalType": "address",
          "name": "owner",
          "type": "address"
        },
        {
          "indexed": true,
          "internalType": "address",
          "name": "operator",
          "type": "address"
        },
        {
          "indexed": false,
          "internalType": "bool",
          "name": "approved",
          "type": "bool"
        }
      ],
      "name": "ApprovalForAll",
      "type": "event"
    },
    {
      "anonymous": false,
      "inputs": [
        {
          "indexed": true,
          "internalType": "address",
          "name": "previousOwner",
          "type": "address"
        },
        {
          "indexed": true,
          "internalType": "address",
          "name": "newOwner",
          "type": "address"
        }
      ],
      "name": "OwnershipTransferred",
      "type": "event"
    },
    {
      "anonymous": false,
      "inputs": [
        {
          "indexed": true,
          "internalType": "address",
          "name": "from",
          "type": "address"
        },
        {
          "indexed": true,
          "internalType": "address",
          "name": "to",
          "type": "address"
        },
        {
          "indexed": true,
          "internalType": "uint256",
          "name": "tokenId",
          "type": "uint256"
        }
      ],
      "name": "Transfer",
      "type": "event"
    },
    {
      "inputs": [
        {
          "internalType": "address",
          "name": "to",
          "type": "address"
        },
        {
          "internalType": "uint256",
          "name": "tokenId",
          "type": "uint256"
        }
      ],
      "name": "approve",
      "outputs": [],
      "stateMutability": "nonpayable",
      "type": "function"
    },
    {
      "inputs": [
        {
          "internalType": "address",
          "name": "owner",
          "type": "address"
        }
      ],
      "name": "balanceOf",
      "outputs": [
        {
          "internalType": "uint256",
          "name": "",
          "type": "uint256"
        }
      ],
      "stateMutability": "view",
      "type": "function"
    },
    {
      "inputs": [],
      "name": "baseExtension",
      "outputs": [
        {
          "internalType": "string",
          "name": "",
          "type": "string"
        }
      ],
      "stateMutability": "view",
      "type": "function"
    },
    {
      "inputs": [],
      "name": "baseURI",
      "outputs": [
        {
          "internalType": "string",
          "name": "",
          "type": "string"
        }
      ],
      "stateMutability": "view",
      "type": "function"
    },
    {
      "inputs": [
        {
          "internalType": "uint256",
          "name": "tokenId",
          "type": "uint256"
        }
      ],
      "name": "getApproved",
      "outputs": [
        {
          "internalType": "address",
          "name": "",
          "type": "address"
        }
      ],
      "stateMutability": "view",
      "type": "function"
    },
    {
      "inputs": [
        {
          "internalType": "address",
          "name": "owner",
          "type": "address"
        },
        {
          "internalType": "address",
          "name": "operator",
          "type": "address"
        }
      ],
      "name": "isApprovedForAll",
      "outputs": [
        {
          "internalType": "bool",
          "name": "",
          "type": "bool"
        }
      ],
      "stateMutability": "view",
      "type": "function"
    },
    {
      "inputs": [],
      "name": "maxMintAmount",
      "outputs": [
        {
          "internalType": "uint256",
          "name": "",
          "type": "uint256"
        }
      ],
      "stateMutability": "view",
      "type": "function"
    },
    {
      "inputs": [],
      "name": "maxSupply",
      "outputs": [
        {
          "internalType": "uint256",
          "name": "",
          "type": "uint256"
        }
      ],
      "stateMutability": "view",
      "type": "function"
    },
    {
      "inputs": [
        {
          "internalType": "address",
          "name": "_to",
          "type": "address"
        },
        {
          "internalType": "uint256",
          "name": "_mintAmount",
          "type": "uint256"
        }
      ],
      "name": "mint",
      "outputs": [],
      "stateMutability": "payable",
      "type": "function"
    },
    {
      "inputs": [],
      "name": "name",
      "outputs": [
        {
          "internalType": "string",
          "name": "",
          "type": "string"
        }
      ],
      "stateMutability": "view",
      "type": "function"
    },
    {
      "inputs": [],
      "name": "owner",
      "outputs": [
        {
          "internalType": "address",
          "name": "",
          "type": "address"
        }
      ],
      "stateMutability": "view",
      "type": "function"
    },
    {
      "inputs": [
        {
          "internalType": "uint256",
          "name": "tokenId",
          "type": "uint256"
        }
      ],
      "name": "ownerOf",
      "outputs": [
        {
          "internalType": "address",
          "name": "",
          "type": "address"
        }
      ],
      "stateMutability": "view",
      "type": "function"
    },
    {
      "inputs": [
        {
          "internalType": "bool",
          "name": "_state",
          "type": "bool"
        }
      ],
      "name": "pause",
      "outputs": [],
      "stateMutability": "nonpayable",
      "type": "function"
    },
    {
      "inputs": [],
      "name": "paused",
      "outputs": [
        {
          "internalType": "bool",
          "name": "",
          "type": "bool"
        }
      ],
      "stateMutability": "view",
      "type": "function"
    },
    {
      "inputs": [],
      "name": "renounceOwnership",
      "outputs": [],
      "stateMutability": "nonpayable",
      "type": "function"
    },
    {
      "inputs": [
        {
          "internalType": "address",
          "name": "from",
          "type": "address"
        },
        {
          "internalType": "address",
          "name": "to",
          "type": "address"
        },
        {
          "internalType": "uint256",
          "name": "tokenId",
          "type": "uint256"
        }
      ],
      "name": "safeTransferFrom",
      "outputs": [],
      "stateMutability": "nonpayable",
      "type": "function"
    },
    {
      "inputs": [
        {
          "internalType": "address",
          "name": "from",
          "type": "address"
        },
        {
          "internalType": "address",
          "name": "to",
          "type": "address"
        },
        {
          "internalType": "uint256",
          "name": "tokenId",
          "type": "uint256"
        },
        {
          "internalType": "bytes",
          "name": "data",
          "type": "bytes"
        }
      ],
      "name": "safeTransferFrom",
      "outputs": [],
      "stateMutability": "nonpayable",
      "type": "function"
    },
    {
      "inputs": [
        {
          "internalType": "address",
          "name": "operator",
          "type": "address"
        },
        {
          "internalType": "bool",
          "name": "approved",
          "type": "bool"
        }
      ],
      "name": "setApprovalForAll",
      "outputs": [],
      "stateMutability": "nonpayable",
      "type": "function"
    },
    {
      "inputs": [
        {
          "internalType": "string",
          "name": "_newBaseExtension",
          "type": "string"
        }
      ],
      "name": "setBaseExtension",
      "outputs": [],
      "stateMutability": "nonpayable",
      "type": "function"
    },
    {
      "inputs": [
        {
          "internalType": "string",
          "name": "_newBaseURI",
          "type": "string"
        }
      ],
      "name": "setBaseURI",
      "outputs": [],
      "stateMutability": "nonpayable",
      "type": "function"
    },
    {
      "inputs": [
        {
          "internalType": "uint256",
          "name": "_newmaxMintAmount",
          "type": "uint256"
        }
      ],
      "name": "setmaxMintAmount",
      "outputs": [],
      "stateMutability": "nonpayable",
      "type": "function"
    },
    {
      "inputs": [
        {
          "internalType": "bytes4",
          "name": "interfaceId",
          "type": "bytes4"
        }
      ],
      "name": "supportsInterface",
      "outputs": [
        {
          "internalType": "bool",
          "name": "",
          "type": "bool"
        }
      ],
      "stateMutability": "view",
      "type": "function"
    },
    {
      "inputs": [],
      "name": "symbol",
      "outputs": [
        {
          "internalType": "string",
          "name": "",
          "type": "string"
        }
      ],
      "stateMutability": "view",
      "type": "function"
    },
    {
      "inputs": [
        {
          "internalType": "uint256",
          "name": "index",
          "type": "uint256"
        }
      ],
      "name": "tokenByIndex",
      "outputs": [
        {
          "internalType": "uint256",
          "name": "",
          "type": "uint256"
        }
      ],
      "stateMutability": "view",
      "type": "function"
    },
    {
      "inputs": [
        {
          "internalType": "address",
          "name": "owner",
          "type": "address"
        },
        {
          "internalType": "uint256",
          "name": "index",
          "type": "uint256"
        }
      ],
      "name": "tokenOfOwnerByIndex",
      "outputs": [
        {
          "internalType": "uint256",
          "name": "",
          "type": "uint256"
        }
      ],
      "stateMutability": "view",
      "type": "function"
    },
    {
      "inputs": [
        {
          "internalType": "uint256",
          "name": "tokenId",
          "type": "uint256"
        }
      ],
      "name": "tokenURI",
      "outputs": [
        {
          "internalType": "string",
          "name": "",
          "type": "string"
        }
      ],
      "stateMutability": "view",
      "type": "function"
    },
    {
      "inputs": [],
      "name": "totalSupply",
      "outputs": [
        {
          "internalType": "uint256",
          "name": "",
          "type": "uint256"
        }
      ],
      "stateMutability": "view",
      "type": "function"
    },
    {
      "inputs": [
        {
          "internalType": "address",
          "name": "from",
          "type": "address"
        },
        {
          "internalType": "address",
          "name": "to",
          "type": "address"
        },
        {
          "internalType": "uint256",
          "name": "tokenId",
          "type": "uint256"
        }
      ],
      "name": "transferFrom",
      "outputs": [],
      "stateMutability": "nonpayable",
      "type": "function"
    },
    {
      "inputs": [
        {
          "internalType": "address",
          "name": "newOwner",
          "type": "address"
        }
      ],
      "name": "transferOwnership",
      "outputs": [],
      "stateMutability": "nonpayable",
      "type": "function"
    },
    {
      "inputs": [
        {
          "internalType": "address",
          "name": "_owner",
          "type": "address"
        }
      ],
      "name": "walletOfOwner",
      "outputs": [
        {
          "internalType": "uint256[]",
          "name": "",
          "type": "uint256[]"
        }
      ],
      "stateMutability": "view",
      "type": "function"
    },
    {
      "inputs": [],
      "name": "withdraw",
      "outputs": [],
      "stateMutability": "payable",
      "type": "function"
    }
  ],
  "transactionHash": "0x77eee96a29312c48ccf44edf6e00682ccf097dec75cdc67d41dca453db365278",
  "args": [
    "0x70997970C51812dc3A010C7d01b50e0d17dc79C8"
  ],
  "numDeployments": 1,
  "solcInputHash": "300ff95bc9a6c0724c822d2defa85bce",
  "bytecode": "0x60806040526040518060400160405280600581526020017f2e6a736f6e000000000000000000000000000000000000000000000000000000815250600c908161004891906104cd565b506103e8600d556004600e556000600f60006101000a81548160ff02191690831515021790555034801561007b57600080fd5b50604051613b14380380613b14833981810160405281019061009d9190610602565b806040518060400160405280601681526020017f4e657432446576204e465420436f6c6c656374696f6e000000000000000000008152506040518060400160405280600381526020017f4e32440000000000000000000000000000000000000000000000000000000000815250816000908161011991906104cd565b50806001908161012991906104cd565b505050600073ffffffffffffffffffffffffffffffffffffffff168173ffffffffffffffffffffffffffffffffffffffff160361019e5760006040517f1e4fbdf7000000000000000000000000000000000000000000000000000000008152600401610195919061063e565b60405180910390fd5b6101ad816101b760201b60201c565b5033905050610659565b6000600a60009054906101000a900473ffffffffffffffffffffffffffffffffffffffff16905081600a60006101000a81548173ffffffffffffffffffffffffffffffffffffffff021916908373ffffffffffffffffffffffffffffffffffffffff1602179055508173ffffffffffffffffffffffffffffffffffffffff168173ffffffffffffffffffffffffffffffffffffffff167f8be0079c531659141344cd1fd0a4f28419497f9722a3daafe3b4186f6b6457e060405160405180910390a35050565b600081519050919050565b7f4e487b7100000000000000000000000000000000000000000000000000000000600052604160045260246000fd5b7f4e487b7100000000000000000000000000000000000000000000000000000000600052602260045260246000fd5b600060028204905060018216806102fe57607f821691505b602082108103610311576103106102b7565b5b50919050565b60008190508160005260206000209050919050565b60006020601f8301049050919050565b600082821b905092915050565b6000600883026103797fffffffffffffffffffffffffffffffffffffffffffffffffffffffffffffffff8261033c565b610383868361033c565b95508019841693508086168417925050509392505050565b6000819050919050565b6000819050919050565b60006103ca6103c56103c08461039b565b6103a5565b61039b565b9050919050565b6000819050919050565b6103e4836103af565b6103f86103f0826103d1565b848454610349565b825550505050565b600090565b61040d610400565b6104188184846103db565b505050565b5b8181101561043c57610431600082610405565b60018101905061041e565b5050565b601f8211156104815761045281610317565b61045b8461032c565b8101602085101561046a578190505b61047e6104768561032c565b83018261041d565b50505b505050565b600082821c905092915050565b60006104a460001984600802610486565b1980831691505092915050565b60006104bd8383610493565b9150826002028217905092915050565b6104d68261027d565b67ffffffffffffffff8111156104ef576104ee610288565b5b6104f982546102e6565b610504828285610440565b600060209050601f8311600181146105375760008415610525578287015190505b61052f85826104b1565b865550610597565b601f19841661054586610317565b60005b8281101561056d57848901518255600182019150602085019450602081019050610548565b8683101561058a5784890151610586601f891682610493565b8355505b6001600288020188555050505b505050505050565b600080fd5b600073ffffffffffffffffffffffffffffffffffffffff82169050919050565b60006105cf826105a4565b9050919050565b6105df816105c4565b81146105ea57600080fd5b50565b6000815190506105fc816105d6565b92915050565b6000602082840312156106185761061761059f565b5b6000610626848285016105ed565b91505092915050565b610638816105c4565b82525050565b6000602082019050610653600083018461062f565b92915050565b6134ac806106686000396000f3fe6080604052600436106101d85760003560e01c80635c975abb11610102578063a22cb46511610095578063d5abeb0111610064578063d5abeb01146106a2578063da3ef23f146106cd578063e985e9c5146106f6578063f2fde38b14610733576101d8565b8063a22cb465146105e8578063b88d4fde14610611578063c66828621461063a578063c87b56dd14610665576101d8565b8063715018a6116100d1578063715018a6146105525780637f00c7a6146105695780638da5cb5b1461059257806395d89b41146105bd576101d8565b80635c975abb146104825780636352211e146104ad5780636c0360eb146104ea57806370a0823114610515576101d8565b806323b872dd1161017a57806342842e0e1161014957806342842e0e146103b6578063438b6300146103df5780634f6ccce71461041c57806355f804b314610459576101d8565b806323b872dd1461032a5780632f745c59146103535780633ccfd60b1461039057806340c10f191461039a576101d8565b8063081812fc116101b6578063081812fc1461026e578063095ea7b3146102ab57806318160ddd146102d4578063239c70ae146102ff576101d8565b806301ffc9a7146101dd57806302329a291461021a57806306fdde0314610243575b600080fd5b3480156101e957600080fd5b5061020460048036038101906101ff9190612622565b61075c565b604051610211919061266a565b60405180910390f35b34801561022657600080fd5b50610241600480360381019061023c91906126b1565b6107d6565b005b34801561024f57600080fd5b506102586107fb565b604051610265919061276e565b60405180910390f35b34801561027a57600080fd5b50610295600480360381019061029091906127c6565b61088d565b6040516102a29190612834565b60405180910390f35b3480156102b757600080fd5b506102d260048036038101906102cd919061287b565b6108a9565b005b3480156102e057600080fd5b506102e96108bf565b6040516102f691906128ca565b60405180910390f35b34801561030b57600080fd5b506103146108cc565b60405161032191906128ca565b60405180910390f35b34801561033657600080fd5b50610351600480360381019061034c91906128e5565b6108d2565b005b34801561035f57600080fd5b5061037a6004803603810190610375919061287b565b6109d4565b60405161038791906128ca565b60405180910390f35b610398610a7d565b005b6103b460048036038101906103af919061287b565b610ac5565b005b3480156103c257600080fd5b506103dd60048036038101906103d891906128e5565b610b5d565b005b3480156103eb57600080fd5b5061040660048036038101906104019190612938565b610b7d565b6040516104139190612a23565b60405180910390f35b34801561042857600080fd5b50610443600480360381019061043e91906127c6565b610c25565b60405161045091906128ca565b60405180910390f35b34801561046557600080fd5b50610480600480360381019061047b9190612b7a565b610c9b565b005b34801561048e57600080fd5b50610497610cb6565b6040516104a4919061266a565b60405180910390f35b3480156104b957600080fd5b506104d460048036038101906104cf91906127c6565b610cc9565b6040516104e19190612834565b60405180910390f35b3480156104f657600080fd5b506104ff610cdb565b60405161050c919061276e565b60405180910390f35b34801561052157600080fd5b5061053c60048036038101906105379190612938565b610d69565b60405161054991906128ca565b60405180910390f35b34801561055e57600080fd5b50610567610e23565b005b34801561057557600080fd5b50610590600480360381019061058b91906127c6565b610e37565b005b34801561059e57600080fd5b506105a7610e49565b6040516105b49190612834565b60405180910390f35b3480156105c957600080fd5b506105d2610e73565b6040516105df919061276e565b60405180910390f35b3480156105f457600080fd5b5061060f600480360381019061060a9190612bc3565b610f05565b005b34801561061d57600080fd5b5061063860048036038101906106339190612ca4565b610f1b565b005b34801561064657600080fd5b5061064f610f40565b60405161065c919061276e565b60405180910390f35b34801561067157600080fd5b5061068c600480360381019061068791906127c6565b610fce565b604051610699919061276e565b60405180910390f35b3480156106ae57600080fd5b506106b76110a7565b6040516106c491906128ca565b60405180910390f35b3480156106d957600080fd5b506106f460048036038101906106ef9190612b7a565b6110ad565b005b34801561070257600080fd5b5061071d60048036038101906107189190612d27565b6110c8565b60405161072a919061266a565b60405180910390f35b34801561073f57600080fd5b5061075a60048036038101906107559190612938565b61115c565b005b60007f780e9d63000000000000000000000000000000000000000000000000000000007bffffffffffffffffffffffffffffffffffffffffffffffffffffffff1916827bffffffffffffffffffffffffffffffffffffffffffffffffffffffff191614806107cf57506107ce826111e2565b5b9050919050565b6107de6112c4565b80600f60006101000a81548160ff02191690831515021790555050565b60606000805461080a90612d96565b80601f016020809104026020016040519081016040528092919081815260200182805461083690612d96565b80156108835780601f1061085857610100808354040283529160200191610883565b820191906000526020600020905b81548152906001019060200180831161086657829003601f168201915b5050505050905090565b60006108988261134b565b506108a2826113d3565b9050919050565b6108bb82826108b6611410565b611418565b5050565b6000600880549050905090565b600e5481565b600073ffffffffffffffffffffffffffffffffffffffff168273ffffffffffffffffffffffffffffffffffffffff16036109445760006040517f64a0ae9200000000000000000000000000000000000000000000000000000000815260040161093b9190612834565b60405180910390fd5b60006109588383610953611410565b61142a565b90508373ffffffffffffffffffffffffffffffffffffffff168173ffffffffffffffffffffffffffffffffffffffff16146109ce578382826040517f64283d7b0000000000000000000000000000000000000000000000000000000081526004016109c593929190612dc7565b60405180910390fd5b50505050565b60006109df83610d69565b8210610a245782826040517fa57d13dc000000000000000000000000000000000000000000000000000000008152600401610a1b929190612dfe565b60405180910390fd5b600660008473ffffffffffffffffffffffffffffffffffffffff1673ffffffffffffffffffffffffffffffffffffffff168152602001908152602001600020600083815260200190815260200160002054905092915050565b610a856112c4565b3373ffffffffffffffffffffffffffffffffffffffff166108fc479081150290604051600060405180830381858888f19350505050610ac357600080fd5b565b6000610acf6108bf565b9050600f60009054906101000a900460ff1615610aeb57600080fd5b60008211610af857600080fd5b600e54821115610b0757600080fd5b600d548282610b169190612e56565b1115610b2157600080fd5b6000600190505b828111610b5757610b44848284610b3f9190612e56565b611547565b8080610b4f90612e8a565b915050610b28565b50505050565b610b7883838360405180602001604052806000815250610f1b565b505050565b60606000610b8a83610d69565b905060008167ffffffffffffffff811115610ba857610ba7612a4f565b5b604051908082528060200260200182016040528015610bd65781602001602082028036833780820191505090505b50905060005b82811015610c1a57610bee85826109d4565b828281518110610c0157610c00612ed2565b5b6020026020010181815250508080600101915050610bdc565b508092505050919050565b6000610c2f6108bf565b8210610c75576000826040517fa57d13dc000000000000000000000000000000000000000000000000000000008152600401610c6c929190612dfe565b60405180910390fd5b60088281548110610c8957610c88612ed2565b5b90600052602060002001549050919050565b610ca36112c4565b80600b9081610cb291906130ad565b5050565b600f60009054906101000a900460ff1681565b6000610cd48261134b565b9050919050565b600b8054610ce890612d96565b80601f0160208091040260200160405190810160405280929190818152602001828054610d1490612d96565b8015610d615780601f10610d3657610100808354040283529160200191610d61565b820191906000526020600020905b815481529060010190602001808311610d4457829003601f168201915b505050505081565b60008073ffffffffffffffffffffffffffffffffffffffff168273ffffffffffffffffffffffffffffffffffffffff1603610ddc5760006040517f89c62b64000000000000000000000000000000000000000000000000000000008152600401610dd39190612834565b60405180910390fd5b600360008373ffffffffffffffffffffffffffffffffffffffff1673ffffffffffffffffffffffffffffffffffffffff168152602001908152602001600020549050919050565b610e2b6112c4565b610e356000611565565b565b610e3f6112c4565b80600e8190555050565b6000600a60009054906101000a900473ffffffffffffffffffffffffffffffffffffffff16905090565b606060018054610e8290612d96565b80601f0160208091040260200160405190810160405280929190818152602001828054610eae90612d96565b8015610efb5780601f10610ed057610100808354040283529160200191610efb565b820191906000526020600020905b815481529060010190602001808311610ede57829003601f168201915b5050505050905090565b610f17610f10611410565b838361162b565b5050565b610f268484846108d2565b610f3a610f31611410565b8585858561179a565b50505050565b600c8054610f4d90612d96565b80601f0160208091040260200160405190810160405280929190818152602001828054610f7990612d96565b8015610fc65780601f10610f9b57610100808354040283529160200191610fc6565b820191906000526020600020905b815481529060010190602001808311610fa957829003601f168201915b505050505081565b6060600073ffffffffffffffffffffffffffffffffffffffff16610ff18361194b565b73ffffffffffffffffffffffffffffffffffffffff1603611047576040517f08c379a000000000000000000000000000000000000000000000000000000000815260040161103e906131f1565b60405180910390fd5b6000611051611988565b90506000815111611071576040518060200160405280600081525061109f565b8061107b84611a1a565b600c60405160200161108f939291906132d0565b6040516020818303038152906040525b915050919050565b600d5481565b6110b56112c4565b80600c90816110c491906130ad565b5050565b6000600560008473ffffffffffffffffffffffffffffffffffffffff1673ffffffffffffffffffffffffffffffffffffffff16815260200190815260200160002060008373ffffffffffffffffffffffffffffffffffffffff1673ffffffffffffffffffffffffffffffffffffffff16815260200190815260200160002060009054906101000a900460ff16905092915050565b6111646112c4565b600073ffffffffffffffffffffffffffffffffffffffff168173ffffffffffffffffffffffffffffffffffffffff16036111d65760006040517f1e4fbdf70000000000000000000000000000000000000000000000000000000081526004016111cd9190612834565b60405180910390fd5b6111df81611565565b50565b60007f80ac58cd000000000000000000000000000000000000000000000000000000007bffffffffffffffffffffffffffffffffffffffffffffffffffffffff1916827bffffffffffffffffffffffffffffffffffffffffffffffffffffffff191614806112ad57507f5b5e139f000000000000000000000000000000000000000000000000000000007bffffffffffffffffffffffffffffffffffffffffffffffffffffffff1916827bffffffffffffffffffffffffffffffffffffffffffffffffffffffff1916145b806112bd57506112bc82611ae8565b5b9050919050565b6112cc611410565b73ffffffffffffffffffffffffffffffffffffffff166112ea610e49565b73ffffffffffffffffffffffffffffffffffffffff16146113495761130d611410565b6040517f118cdaa70000000000000000000000000000000000000000000000000000000081526004016113409190612834565b60405180910390fd5b565b6000806113578361194b565b9050600073ffffffffffffffffffffffffffffffffffffffff168173ffffffffffffffffffffffffffffffffffffffff16036113ca57826040517f7e2732890000000000000000000000000000000000000000000000000000000081526004016113c191906128ca565b60405180910390fd5b80915050919050565b60006004600083815260200190815260200160002060009054906101000a900473ffffffffffffffffffffffffffffffffffffffff169050919050565b600033905090565b6114258383836001611b52565b505050565b600080611438858585611d17565b9050600073ffffffffffffffffffffffffffffffffffffffff168173ffffffffffffffffffffffffffffffffffffffff160361147c5761147784611f31565b6114bb565b8473ffffffffffffffffffffffffffffffffffffffff168173ffffffffffffffffffffffffffffffffffffffff16146114ba576114b98185611f7a565b5b5b600073ffffffffffffffffffffffffffffffffffffffff168573ffffffffffffffffffffffffffffffffffffffff16036114fd576114f884612065565b61153c565b8473ffffffffffffffffffffffffffffffffffffffff168173ffffffffffffffffffffffffffffffffffffffff161461153b5761153a8585612136565b5b5b809150509392505050565b6115618282604051806020016040528060008152506121c1565b5050565b6000600a60009054906101000a900473ffffffffffffffffffffffffffffffffffffffff16905081600a60006101000a81548173ffffffffffffffffffffffffffffffffffffffff021916908373ffffffffffffffffffffffffffffffffffffffff1602179055508173ffffffffffffffffffffffffffffffffffffffff168173ffffffffffffffffffffffffffffffffffffffff167f8be0079c531659141344cd1fd0a4f28419497f9722a3daafe3b4186f6b6457e060405160405180910390a35050565b600073ffffffffffffffffffffffffffffffffffffffff168273ffffffffffffffffffffffffffffffffffffffff160361169c57816040517f5b08ba180000000000000000000000000000000000000000000000000000000081526004016116939190612834565b60405180910390fd5b80600560008573ffffffffffffffffffffffffffffffffffffffff1673ffffffffffffffffffffffffffffffffffffffff16815260200190815260200160002060008473ffffffffffffffffffffffffffffffffffffffff1673ffffffffffffffffffffffffffffffffffffffff16815260200190815260200160002060006101000a81548160ff0219169083151502179055508173ffffffffffffffffffffffffffffffffffffffff168373ffffffffffffffffffffffffffffffffffffffff167f17307eab39ab6107e8899845ad3d59bd9653f200f220920489ca2b5937696c318360405161178d919061266a565b60405180910390a3505050565b60008373ffffffffffffffffffffffffffffffffffffffff163b1115611944578273ffffffffffffffffffffffffffffffffffffffff1663150b7a02868685856040518563ffffffff1660e01b81526004016117f99493929190613356565b6020604051808303816000875af192505050801561183557506040513d601f19601f8201168201806040525081019061183291906133b7565b60015b6118b9573d8060008114611865576040519150601f19603f3d011682016040523d82523d6000602084013e61186a565b606091505b5060008151036118b157836040517f64a0ae920000000000000000000000000000000000000000000000000000000081526004016118a89190612834565b60405180910390fd5b805181602001fd5b63150b7a0260e01b7bffffffffffffffffffffffffffffffffffffffffffffffffffffffff1916817bffffffffffffffffffffffffffffffffffffffffffffffffffffffff19161461194257836040517f64a0ae920000000000000000000000000000000000000000000000000000000081526004016119399190612834565b60405180910390fd5b505b5050505050565b60006002600083815260200190815260200160002060009054906101000a900473ffffffffffffffffffffffffffffffffffffffff169050919050565b6060600b805461199790612d96565b80601f01602080910402602001604051908101604052809291908181526020018280546119c390612d96565b8015611a105780601f106119e557610100808354040283529160200191611a10565b820191906000526020600020905b8154815290600101906020018083116119f357829003601f168201915b5050505050905090565b606060006001611a29846121e5565b01905060008167ffffffffffffffff811115611a4857611a47612a4f565b5b6040519080825280601f01601f191660200182016040528015611a7a5781602001600182028036833780820191505090505b509050600082602001820190505b600115611add578080600190039150507f3031323334353637383961626364656600000000000000000000000000000000600a86061a8153600a8581611ad157611ad06133e4565b5b04945060008503611a88575b819350505050919050565b60007f01ffc9a7000000000000000000000000000000000000000000000000000000007bffffffffffffffffffffffffffffffffffffffffffffffffffffffff1916827bffffffffffffffffffffffffffffffffffffffffffffffffffffffff1916149050919050565b8080611b8b5750600073ffffffffffffffffffffffffffffffffffffffff168273ffffffffffffffffffffffffffffffffffffffff1614155b15611cbf576000611b9b8461134b565b9050600073ffffffffffffffffffffffffffffffffffffffff168373ffffffffffffffffffffffffffffffffffffffff1614158015611c0657508273ffffffffffffffffffffffffffffffffffffffff168173ffffffffffffffffffffffffffffffffffffffff1614155b8015611c195750611c1781846110c8565b155b15611c5b57826040517fa9fbf51f000000000000000000000000000000000000000000000000000000008152600401611c529190612834565b60405180910390fd5b8115611cbd57838573ffffffffffffffffffffffffffffffffffffffff168273ffffffffffffffffffffffffffffffffffffffff167f8c5be1e5ebec7d5bd14f71427d1e84f3dd0314c0f7b2291e5b200ac8c7c3b92560405160405180910390a45b505b836004600085815260200190815260200160002060006101000a81548173ffffffffffffffffffffffffffffffffffffffff021916908373ffffffffffffffffffffffffffffffffffffffff16021790555050505050565b600080611d238461194b565b9050600073ffffffffffffffffffffffffffffffffffffffff168373ffffffffffffffffffffffffffffffffffffffff1614611d6557611d64818486612338565b5b600073ffffffffffffffffffffffffffffffffffffffff168173ffffffffffffffffffffffffffffffffffffffff1614611df657611da7600085600080611b52565b6001600360008373ffffffffffffffffffffffffffffffffffffffff1673ffffffffffffffffffffffffffffffffffffffff168152602001908152602001600020600082825403925050819055505b600073ffffffffffffffffffffffffffffffffffffffff168573ffffffffffffffffffffffffffffffffffffffff1614611e79576001600360008773ffffffffffffffffffffffffffffffffffffffff1673ffffffffffffffffffffffffffffffffffffffff168152602001908152602001600020600082825401925050819055505b846002600086815260200190815260200160002060006101000a81548173ffffffffffffffffffffffffffffffffffffffff021916908373ffffffffffffffffffffffffffffffffffffffff160217905550838573ffffffffffffffffffffffffffffffffffffffff168273ffffffffffffffffffffffffffffffffffffffff167fddf252ad1be2c89b69c2b068fc378daa952ba7f163c4a11628f55a4df523b3ef60405160405180910390a4809150509392505050565b6008805490506009600083815260200190815260200160002081905550600881908060018154018082558091505060019003906000526020600020016000909190919091505550565b6000611f8583610d69565b90506000600760008481526020019081526020016000205490506000600660008673ffffffffffffffffffffffffffffffffffffffff1673ffffffffffffffffffffffffffffffffffffffff16815260200190815260200160002090508282146120315760008160008581526020019081526020016000205490508082600085815260200190815260200160002081905550826007600083815260200190815260200160002081905550505b6007600085815260200190815260200160002060009055806000848152602001908152602001600020600090555050505050565b600060016008805490506120799190613413565b90506000600960008481526020019081526020016000205490506000600883815481106120a9576120a8612ed2565b5b9060005260206000200154905080600883815481106120cb576120ca612ed2565b5b90600052602060002001819055508160096000838152602001908152602001600020819055506009600085815260200190815260200160002060009055600880548061211a57612119613447565b5b6001900381819060005260206000200160009055905550505050565b6000600161214384610d69565b61214d9190613413565b905081600660008573ffffffffffffffffffffffffffffffffffffffff1673ffffffffffffffffffffffffffffffffffffffff168152602001908152602001600020600083815260200190815260200160002081905550806007600084815260200190815260200160002081905550505050565b6121cb83836123fc565b6121e06121d6611410565b600085858561179a565b505050565b600080600090507a184f03e93ff9f4daa797ed6e38ed64bf6a1f0100000000000000008310612243577a184f03e93ff9f4daa797ed6e38ed64bf6a1f0100000000000000008381612239576122386133e4565b5b0492506040810190505b6d04ee2d6d415b85acef81000000008310612280576d04ee2d6d415b85acef81000000008381612276576122756133e4565b5b0492506020810190505b662386f26fc1000083106122af57662386f26fc1000083816122a5576122a46133e4565b5b0492506010810190505b6305f5e10083106122d8576305f5e10083816122ce576122cd6133e4565b5b0492506008810190505b61271083106122fd5761271083816122f3576122f26133e4565b5b0492506004810190505b606483106123205760648381612316576123156133e4565b5b0492506002810190505b600a831061232f576001810190505b80915050919050565b6123438383836124f5565b6123f757600073ffffffffffffffffffffffffffffffffffffffff168373ffffffffffffffffffffffffffffffffffffffff16036123b857806040517f7e2732890000000000000000000000000000000000000000000000000000000081526004016123af91906128ca565b60405180910390fd5b81816040517f177e802f0000000000000000000000000000000000000000000000000000000081526004016123ee929190612dfe565b60405180910390fd5b505050565b600073ffffffffffffffffffffffffffffffffffffffff168273ffffffffffffffffffffffffffffffffffffffff160361246e5760006040517f64a0ae920000000000000000000000000000000000000000000000000000000081526004016124659190612834565b60405180910390fd5b600061247c8383600061142a565b9050600073ffffffffffffffffffffffffffffffffffffffff168173ffffffffffffffffffffffffffffffffffffffff16146124f05760006040517f73c6ac6e0000000000000000000000000000000000000000000000000000000081526004016124e79190612834565b60405180910390fd5b505050565b60008073ffffffffffffffffffffffffffffffffffffffff168373ffffffffffffffffffffffffffffffffffffffff16141580156125ad57508273ffffffffffffffffffffffffffffffffffffffff168473ffffffffffffffffffffffffffffffffffffffff16148061256e575061256d84846110c8565b5b806125ac57508273ffffffffffffffffffffffffffffffffffffffff16612594836113d3565b73ffffffffffffffffffffffffffffffffffffffff16145b5b90509392505050565b6000604051905090565b600080fd5b600080fd5b60007fffffffff0000000000000000000000000000000000000000000000000000000082169050919050565b6125ff816125ca565b811461260a57600080fd5b50565b60008135905061261c816125f6565b92915050565b600060208284031215612638576126376125c0565b5b60006126468482850161260d565b91505092915050565b60008115159050919050565b6126648161264f565b82525050565b600060208201905061267f600083018461265b565b92915050565b61268e8161264f565b811461269957600080fd5b50565b6000813590506126ab81612685565b92915050565b6000602082840312156126c7576126c66125c0565b5b60006126d58482850161269c565b91505092915050565b600081519050919050565b600082825260208201905092915050565b60005b838110156127185780820151818401526020810190506126fd565b60008484015250505050565b6000601f19601f8301169050919050565b6000612740826126de565b61274a81856126e9565b935061275a8185602086016126fa565b61276381612724565b840191505092915050565b600060208201905081810360008301526127888184612735565b905092915050565b6000819050919050565b6127a381612790565b81146127ae57600080fd5b50565b6000813590506127c08161279a565b92915050565b6000602082840312156127dc576127db6125c0565b5b60006127ea848285016127b1565b91505092915050565b600073ffffffffffffffffffffffffffffffffffffffff82169050919050565b600061281e826127f3565b9050919050565b61282e81612813565b82525050565b60006020820190506128496000830184612825565b92915050565b61285881612813565b811461286357600080fd5b50565b6000813590506128758161284f565b92915050565b60008060408385031215612892576128916125c0565b5b60006128a085828601612866565b92505060206128b1858286016127b1565b9150509250929050565b6128c481612790565b82525050565b60006020820190506128df60008301846128bb565b92915050565b6000806000606084860312156128fe576128fd6125c0565b5b600061290c86828701612866565b935050602061291d86828701612866565b925050604061292e868287016127b1565b9150509250925092565b60006020828403121561294e5761294d6125c0565b5b600061295c84828501612866565b91505092915050565b600081519050919050565b600082825260208201905092915050565b6000819050602082019050919050565b61299a81612790565b82525050565b60006129ac8383612991565b60208301905092915050565b6000602082019050919050565b60006129d082612965565b6129da8185612970565b93506129e583612981565b8060005b83811015612a165781516129fd88826129a0565b9750612a08836129b8565b9250506001810190506129e9565b5085935050505092915050565b60006020820190508181036000830152612a3d81846129c5565b905092915050565b600080fd5b600080fd5b7f4e487b7100000000000000000000000000000000000000000000000000000000600052604160045260246000fd5b612a8782612724565b810181811067ffffffffffffffff82111715612aa657612aa5612a4f565b5b80604052505050565b6000612ab96125b6565b9050612ac58282612a7e565b919050565b600067ffffffffffffffff821115612ae557612ae4612a4f565b5b612aee82612724565b9050602081019050919050565b82818337600083830152505050565b6000612b1d612b1884612aca565b612aaf565b905082815260208101848484011115612b3957612b38612a4a565b5b612b44848285612afb565b509392505050565b600082601f830112612b6157612b60612a45565b5b8135612b71848260208601612b0a565b91505092915050565b600060208284031215612b9057612b8f6125c0565b5b600082013567ffffffffffffffff811115612bae57612bad6125c5565b5b612bba84828501612b4c565b91505092915050565b60008060408385031215612bda57612bd96125c0565b5b6000612be885828601612866565b9250506020612bf98582860161269c565b9150509250929050565b600067ffffffffffffffff821115612c1e57612c1d612a4f565b5b612c2782612724565b9050602081019050919050565b6000612c47612c4284612c03565b612aaf565b905082815260208101848484011115612c6357612c62612a4a565b5b612c6e848285612afb565b509392505050565b600082601f830112612c8b57612c8a612a45565b5b8135612c9b848260208601612c34565b91505092915050565b60008060008060808587031215612cbe57612cbd6125c0565b5b6000612ccc87828801612866565b9450506020612cdd87828801612866565b9350506040612cee878288016127b1565b925050606085013567ffffffffffffffff811115612d0f57612d0e6125c5565b5b612d1b87828801612c76565b91505092959194509250565b60008060408385031215612d3e57612d3d6125c0565b5b6000612d4c85828601612866565b9250506020612d5d85828601612866565b9150509250929050565b7f4e487b7100000000000000000000000000000000000000000000000000000000600052602260045260246000fd5b60006002820490506001821680612dae57607f821691505b602082108103612dc157612dc0612d67565b5b50919050565b6000606082019050612ddc6000830186612825565b612de960208301856128bb565b612df66040830184612825565b949350505050565b6000604082019050612e136000830185612825565b612e2060208301846128bb565b9392505050565b7f4e487b7100000000000000000000000000000000000000000000000000000000600052601160045260246000fd5b6000612e6182612790565b9150612e6c83612790565b9250828201905080821115612e8457612e83612e27565b5b92915050565b6000612e9582612790565b91507fffffffffffffffffffffffffffffffffffffffffffffffffffffffffffffffff8203612ec757612ec6612e27565b5b600182019050919050565b7f4e487b7100000000000000000000000000000000000000000000000000000000600052603260045260246000fd5b60008190508160005260206000209050919050565b60006020601f8301049050919050565b600082821b905092915050565b600060088302612f637fffffffffffffffffffffffffffffffffffffffffffffffffffffffffffffffff82612f26565b612f6d8683612f26565b95508019841693508086168417925050509392505050565b6000819050919050565b6000612faa612fa5612fa084612790565b612f85565b612790565b9050919050565b6000819050919050565b612fc483612f8f565b612fd8612fd082612fb1565b848454612f33565b825550505050565b600090565b612fed612fe0565b612ff8818484612fbb565b505050565b5b8181101561301c57613011600082612fe5565b600181019050612ffe565b5050565b601f8211156130615761303281612f01565b61303b84612f16565b8101602085101561304a578190505b61305e61305685612f16565b830182612ffd565b50505b505050565b600082821c905092915050565b600061308460001984600802613066565b1980831691505092915050565b600061309d8383613073565b9150826002028217905092915050565b6130b6826126de565b67ffffffffffffffff8111156130cf576130ce612a4f565b5b6130d98254612d96565b6130e4828285613020565b600060209050601f8311600181146131175760008415613105578287015190505b61310f8582613091565b865550613177565b601f19841661312586612f01565b60005b8281101561314d57848901518255600182019150602085019450602081019050613128565b8683101561316a5784890151613166601f891682613073565b8355505b6001600288020188555050505b505050505050565b7f4552433732314d657461646174613a2055524920717565727920666f72206e6f60008201527f6e6578697374656e7420746f6b656e0000000000000000000000000000000000602082015250565b60006131db602f836126e9565b91506131e68261317f565b604082019050919050565b6000602082019050818103600083015261320a816131ce565b9050919050565b600081905092915050565b6000613227826126de565b6132318185613211565b93506132418185602086016126fa565b80840191505092915050565b6000815461325a81612d96565b6132648186613211565b9450600182166000811461327f5760018114613294576132c7565b60ff19831686528115158202860193506132c7565b61329d85612f01565b60005b838110156132bf578154818901526001820191506020810190506132a0565b838801955050505b50505092915050565b60006132dc828661321c565b91506132e8828561321c565b91506132f4828461324d565b9150819050949350505050565b600081519050919050565b600082825260208201905092915050565b600061332882613301565b613332818561330c565b93506133428185602086016126fa565b61334b81612724565b840191505092915050565b600060808201905061336b6000830187612825565b6133786020830186612825565b61338560408301856128bb565b8181036060830152613397818461331d565b905095945050505050565b6000815190506133b1816125f6565b92915050565b6000602082840312156133cd576133cc6125c0565b5b60006133db848285016133a2565b91505092915050565b7f4e487b7100000000000000000000000000000000000000000000000000000000600052601260045260246000fd5b600061341e82612790565b915061342983612790565b925082820390508181111561344157613440612e27565b5b92915050565b7f4e487b7100000000000000000000000000000000000000000000000000000000600052603160045260246000fdfea26469706673582212206f9ab539dfec80d0bdec91d5578cddd0ccd79fa2e6f5568d5edce41725a253d764736f6c634300081b0033",
  "devdoc": {
    "errors": {
      "ERC721EnumerableForbiddenBatchMint()": [
        {
          "details": "Batch mint is not allowed."
        }
      ],
      "ERC721IncorrectOwner(address,uint256,address)": [
        {
          "details": "Indicates an error related to the ownership over a particular token. Used in transfers.",
          "params": {
            "owner": "Address of the current owner of a token.",
            "sender": "Address whose tokens are being transferred.",
            "tokenId": "Identifier number of a token."
          }
        }
      ],
      "ERC721InsufficientApproval(address,uint256)": [
        {
          "details": "Indicates a failure with the `operator`s approval. Used in transfers.",
          "params": {
            "operator": "Address that may be allowed to operate on tokens without being their owner.",
            "tokenId": "Identifier number of a token."
          }
        }
      ],
      "ERC721InvalidApprover(address)": [
        {
          "details": "Indicates a failure with the `approver` of a token to be approved. Used in approvals.",
          "params": {
            "approver": "Address initiating an approval operation."
          }
        }
      ],
      "ERC721InvalidOperator(address)": [
        {
          "details": "Indicates a failure with the `operator` to be approved. Used in approvals.",
          "params": {
            "operator": "Address that may be allowed to operate on tokens without being their owner."
          }
        }
      ],
      "ERC721InvalidOwner(address)": [
        {
          "details": "Indicates that an address can't be an owner. For example, `address(0)` is a forbidden owner in ERC-20. Used in balance queries.",
          "params": {
            "owner": "Address of the current owner of a token."
          }
        }
      ],
      "ERC721InvalidReceiver(address)": [
        {
          "details": "Indicates a failure with the token `receiver`. Used in transfers.",
          "params": {
            "receiver": "Address to which tokens are being transferred."
          }
        }
      ],
      "ERC721InvalidSender(address)": [
        {
          "details": "Indicates a failure with the token `sender`. Used in transfers.",
          "params": {
            "sender": "Address whose tokens are being transferred."
          }
        }
      ],
      "ERC721NonexistentToken(uint256)": [
        {
          "details": "Indicates a `tokenId` whose `owner` is the zero address.",
          "params": {
            "tokenId": "Identifier number of a token."
          }
        }
      ],
      "ERC721OutOfBoundsIndex(address,uint256)": [
        {
          "details": "An `owner`'s token query was out of bounds for `index`. NOTE: The owner being `address(0)` indicates a global out of bounds index."
        }
      ],
      "OwnableInvalidOwner(address)": [
        {
          "details": "The owner is not a valid owner account. (eg. `address(0)`)"
        }
      ],
      "OwnableUnauthorizedAccount(address)": [
        {
          "details": "The caller account is not authorized to perform an operation."
        }
      ]
    },
    "events": {
      "Approval(address,address,uint256)": {
        "details": "Emitted when `owner` enables `approved` to manage the `tokenId` token."
      },
      "ApprovalForAll(address,address,bool)": {
        "details": "Emitted when `owner` enables or disables (`approved`) `operator` to manage all of its assets."
      },
      "Transfer(address,address,uint256)": {
        "details": "Emitted when `tokenId` token is transferred from `from` to `to`."
      }
    },
    "kind": "dev",
    "methods": {
      "approve(address,uint256)": {
        "details": "See {IERC721-approve}."
      },
      "balanceOf(address)": {
        "details": "See {IERC721-balanceOf}."
      },
      "getApproved(uint256)": {
        "details": "See {IERC721-getApproved}."
      },
      "isApprovedForAll(address,address)": {
        "details": "See {IERC721-isApprovedForAll}."
      },
      "name()": {
        "details": "See {IERC721Metadata-name}."
      },
      "owner()": {
        "details": "Returns the address of the current owner."
      },
      "ownerOf(uint256)": {
        "details": "See {IERC721-ownerOf}."
      },
      "renounceOwnership()": {
        "details": "Leaves the contract without owner. It will not be possible to call `onlyOwner` functions. Can only be called by the current owner. NOTE: Renouncing ownership will leave the contract without an owner, thereby disabling any functionality that is only available to the owner."
      },
      "safeTransferFrom(address,address,uint256)": {
        "details": "See {IERC721-safeTransferFrom}."
      },
      "safeTransferFrom(address,address,uint256,bytes)": {
        "details": "See {IERC721-safeTransferFrom}."
      },
      "setApprovalForAll(address,bool)": {
        "details": "See {IERC721-setApprovalForAll}."
      },
      "supportsInterface(bytes4)": {
        "details": "See {IERC165-supportsInterface}."
      },
      "symbol()": {
        "details": "See {IERC721Metadata-symbol}."
      },
      "tokenByIndex(uint256)": {
        "details": "See {IERC721Enumerable-tokenByIndex}."
      },
      "tokenOfOwnerByIndex(address,uint256)": {
        "details": "See {IERC721Enumerable-tokenOfOwnerByIndex}."
      },
      "tokenURI(uint256)": {
        "details": "See {IERC721Metadata-tokenURI}."
      },
      "totalSupply()": {
        "details": "See {IERC721Enumerable-totalSupply}."
      },
      "transferFrom(address,address,uint256)": {
        "details": "See {IERC721-transferFrom}."
      },
      "transferOwnership(address)": {
        "details": "Transfers ownership of the contract to a new account (`newOwner`). Can only be called by the current owner."
      }
    },
    "version": 1
  },
  "userdoc": {
    "kind": "user",
    "methods": {},
    "version": 1
  },
  "storageLayout": {
    "storage": [
      {
        "astId": 1497,
        "contract": "contracts/N2D-Sample-NFT-Collection.sol:Collection",
        "label": "_name",
        "offset": 0,
        "slot": "0",
        "type": "t_string_storage"
      },
      {
        "astId": 1499,
        "contract": "contracts/N2D-Sample-NFT-Collection.sol:Collection",
        "label": "_symbol",
        "offset": 0,
        "slot": "1",
        "type": "t_string_storage"
      },
      {
        "astId": 1503,
        "contract": "contracts/N2D-Sample-NFT-Collection.sol:Collection",
        "label": "_owners",
        "offset": 0,
        "slot": "2",
        "type": "t_mapping(t_uint256,t_address)"
      },
      {
        "astId": 1507,
        "contract": "contracts/N2D-Sample-NFT-Collection.sol:Collection",
        "label": "_balances",
        "offset": 0,
        "slot": "3",
        "type": "t_mapping(t_address,t_uint256)"
      },
      {
        "astId": 1511,
        "contract": "contracts/N2D-Sample-NFT-Collection.sol:Collection",
        "label": "_tokenApprovals",
        "offset": 0,
        "slot": "4",
        "type": "t_mapping(t_uint256,t_address)"
      },
      {
        "astId": 1517,
        "contract": "contracts/N2D-Sample-NFT-Collection.sol:Collection",
        "label": "_operatorApprovals",
        "offset": 0,
        "slot": "5",
        "type": "t_mapping(t_address,t_mapping(t_address,t_bool))"
      },
      {
        "astId": 2575,
        "contract": "contracts/N2D-Sample-NFT-Collection.sol:Collection",
        "label": "_ownedTokens",
        "offset": 0,
        "slot": "6",
        "type": "t_mapping(t_address,t_mapping(t_uint256,t_uint256))"
      },
      {
        "astId": 2579,
        "contract": "contracts/N2D-Sample-NFT-Collection.sol:Collection",
        "label": "_ownedTokensIndex",
        "offset": 0,
        "slot": "7",
        "type": "t_mapping(t_uint256,t_uint256)"
      },
      {
        "astId": 2582,
        "contract": "contracts/N2D-Sample-NFT-Collection.sol:Collection",
        "label": "_allTokens",
        "offset": 0,
        "slot": "8",
        "type": "t_array(t_uint256)dyn_storage"
      },
      {
        "astId": 2586,
        "contract": "contracts/N2D-Sample-NFT-Collection.sol:Collection",
        "label": "_allTokensIndex",
        "offset": 0,
        "slot": "9",
        "type": "t_mapping(t_uint256,t_uint256)"
      },
      {
        "astId": 8,
        "contract": "contracts/N2D-Sample-NFT-Collection.sol:Collection",
        "label": "_owner",
        "offset": 0,
        "slot": "10",
        "type": "t_address"
      },
      {
        "astId": 8821,
        "contract": "contracts/N2D-Sample-NFT-Collection.sol:Collection",
        "label": "baseURI",
        "offset": 0,
        "slot": "11",
        "type": "t_string_storage"
      },
      {
        "astId": 8824,
        "contract": "contracts/N2D-Sample-NFT-Collection.sol:Collection",
        "label": "baseExtension",
        "offset": 0,
        "slot": "12",
        "type": "t_string_storage"
      },
      {
        "astId": 8827,
        "contract": "contracts/N2D-Sample-NFT-Collection.sol:Collection",
        "label": "maxSupply",
        "offset": 0,
        "slot": "13",
        "type": "t_uint256"
      },
      {
        "astId": 8830,
        "contract": "contracts/N2D-Sample-NFT-Collection.sol:Collection",
        "label": "maxMintAmount",
        "offset": 0,
        "slot": "14",
        "type": "t_uint256"
      },
      {
        "astId": 8833,
        "contract": "contracts/N2D-Sample-NFT-Collection.sol:Collection",
        "label": "paused",
        "offset": 0,
        "slot": "15",
        "type": "t_bool"
      }
    ],
    "types": {
      "t_address": {
        "encoding": "inplace",
        "label": "address",
        "numberOfBytes": "20"
      },
      "t_array(t_uint256)dyn_storage": {
        "base": "t_uint256",
        "encoding": "dynamic_array",
        "label": "uint256[]",
        "numberOfBytes": "32"
      },
      "t_bool": {
        "encoding": "inplace",
        "label": "bool",
        "numberOfBytes": "1"
      },
      "t_mapping(t_address,t_bool)": {
        "encoding": "mapping",
        "key": "t_address",
        "label": "mapping(address => bool)",
        "numberOfBytes": "32",
        "value": "t_bool"
      },
      "t_mapping(t_address,t_mapping(t_address,t_bool))": {
        "encoding": "mapping",
        "key": "t_address",
        "label": "mapping(address => mapping(address => bool))",
        "numberOfBytes": "32",
        "value": "t_mapping(t_address,t_bool)"
      },
      "t_mapping(t_address,t_mapping(t_uint256,t_uint256))": {
        "encoding": "mapping",
        "key": "t_address",
        "label": "mapping(address => mapping(uint256 => uint256))",
        "numberOfBytes": "32",
        "value": "t_mapping(t_uint256,t_uint256)"
      },
      "t_mapping(t_address,t_uint256)": {
        "encoding": "mapping",
        "key": "t_address",
        "label": "mapping(address => uint256)",
        "numberOfBytes": "32",
        "value": "t_uint256"
      },
      "t_mapping(t_uint256,t_address)": {
        "encoding": "mapping",
        "key": "t_uint256",
        "label": "mapping(uint256 => address)",
        "numberOfBytes": "32",
        "value": "t_address"
      },
      "t_mapping(t_uint256,t_uint256)": {
        "encoding": "mapping",
        "key": "t_uint256",
        "label": "mapping(uint256 => uint256)",
        "numberOfBytes": "32",
        "value": "t_uint256"
      },
      "t_string_storage": {
        "encoding": "bytes",
        "label": "string",
        "numberOfBytes": "32"
      },
      "t_uint256": {
        "encoding": "inplace",
        "label": "uint256",
        "numberOfBytes": "32"
      }
    }
  }
}