{
  "_format": "hh-sol-artifact-1",
  "contractName": "TokenboundAccount",
  "sourceName": "contracts/TokenboundAccount.sol",
  "abi": [
    {
      "inputs": [
        {
          "internalType": "address",
          "name": "_controller",
          "type": "address"
        }
      ],
      "stateMutability": "nonpayable",
      "type": "constructor"
    },
    {
      "inputs": [],
      "name": "controller",
      "outputs": [
        {
          "internalType": "address",
          "name": "",
          "type": "address"
        }
      ],
      "stateMutability": "view",
      "type": "function"
    },
    {
      "inputs": [
        {
          "internalType": "address",
          "name": "target",
          "type": "address"
        },
        {
          "internalType": "uint256",
          "name": "value",
          "type": "uint256"
        },
        {
          "internalType": "bytes",
          "name": "data",
          "type": "bytes"
        }
      ],
      "name": "execute",
      "outputs": [
        {
          "internalType": "bytes",
          "name": "",
          "type": "bytes"
        }
      ],
      "stateMutability": "nonpayable",
      "type": "function"
    },
    {
      "inputs": [],
      "name": "restrictedFunction",
      "outputs": [],
      "stateMutability": "nonpayable",
      "type": "function"
    },
    {
      "inputs": [
        {
          "internalType": "address",
          "name": "newController",
          "type": "address"
        }
      ],
      "name": "transferController",
      "outputs": [],
      "stateMutability": "nonpayable",
      "type": "function"
    }
  ],
  "bytecode": "0x608060405234801561001057600080fd5b506040516108a73803806108a7833981810160405281019061003291906100db565b806000806101000a81548173ffffffffffffffffffffffffffffffffffffffff021916908373ffffffffffffffffffffffffffffffffffffffff16021790555050610108565b600080fd5b600073ffffffffffffffffffffffffffffffffffffffff82169050919050565b60006100a88261007d565b9050919050565b6100b88161009d565b81146100c357600080fd5b50565b6000815190506100d5816100af565b92915050565b6000602082840312156100f1576100f0610078565b5b60006100ff848285016100c6565b91505092915050565b610790806101176000396000f3fe608060405234801561001057600080fd5b506004361061004c5760003560e01c8063777acf3714610051578063b61d27f61461005b578063e8ea054b1461008b578063f77c4791146100a7575b600080fd5b6100596100c5565b005b6100756004803603810190610070919061049c565b610155565b60405161008291906105a0565b60405180910390f35b6100a560048036038101906100a091906105c2565b6102a4565b005b6100af610375565b6040516100bc91906105fe565b60405180910390f35b60008054906101000a900473ffffffffffffffffffffffffffffffffffffffff1673ffffffffffffffffffffffffffffffffffffffff163373ffffffffffffffffffffffffffffffffffffffff1614610153576040517f08c379a000000000000000000000000000000000000000000000000000000000815260040161014a90610676565b60405180910390fd5b565b606060008054906101000a900473ffffffffffffffffffffffffffffffffffffffff1673ffffffffffffffffffffffffffffffffffffffff163373ffffffffffffffffffffffffffffffffffffffff16146101e5576040517f08c379a00000000000000000000000000000000000000000000000000000000081526004016101dc90610676565b60405180910390fd5b6000808673ffffffffffffffffffffffffffffffffffffffff168686866040516102109291906106d5565b60006040518083038185875af1925050503d806000811461024d576040519150601f19603f3d011682016040523d82523d6000602084013e610252565b606091505b509150915081610297576040517f08c379a000000000000000000000000000000000000000000000000000000000815260040161028e9061073a565b60405180910390fd5b8092505050949350505050565b60008054906101000a900473ffffffffffffffffffffffffffffffffffffffff1673ffffffffffffffffffffffffffffffffffffffff163373ffffffffffffffffffffffffffffffffffffffff1614610332576040517f08c379a000000000000000000000000000000000000000000000000000000000815260040161032990610676565b60405180910390fd5b806000806101000a81548173ffffffffffffffffffffffffffffffffffffffff021916908373ffffffffffffffffffffffffffffffffffffffff16021790555050565b60008054906101000a900473ffffffffffffffffffffffffffffffffffffffff1681565b600080fd5b600080fd5b600073ffffffffffffffffffffffffffffffffffffffff82169050919050565b60006103ce826103a3565b9050919050565b6103de816103c3565b81146103e957600080fd5b50565b6000813590506103fb816103d5565b92915050565b6000819050919050565b61041481610401565b811461041f57600080fd5b50565b6000813590506104318161040b565b92915050565b600080fd5b600080fd5b600080fd5b60008083601f84011261045c5761045b610437565b5b8235905067ffffffffffffffff8111156104795761047861043c565b5b60208301915083600182028301111561049557610494610441565b5b9250929050565b600080600080606085870312156104b6576104b5610399565b5b60006104c4878288016103ec565b94505060206104d587828801610422565b935050604085013567ffffffffffffffff8111156104f6576104f561039e565b5b61050287828801610446565b925092505092959194509250565b600081519050919050565b600082825260208201905092915050565b60005b8381101561054a57808201518184015260208101905061052f565b60008484015250505050565b6000601f19601f8301169050919050565b600061057282610510565b61057c818561051b565b935061058c81856020860161052c565b61059581610556565b840191505092915050565b600060208201905081810360008301526105ba8184610567565b905092915050565b6000602082840312156105d8576105d7610399565b5b60006105e6848285016103ec565b91505092915050565b6105f8816103c3565b82525050565b600060208201905061061360008301846105ef565b92915050565b600082825260208201905092915050565b7f43616c6c6572206973206e6f742074686520636f6e74726f6c6c657200000000600082015250565b6000610660601c83610619565b915061066b8261062a565b602082019050919050565b6000602082019050818103600083015261068f81610653565b9050919050565b600081905092915050565b82818337600083830152505050565b60006106bc8385610696565b93506106c98385846106a1565b82840190509392505050565b60006106e28284866106b0565b91508190509392505050565b7f43616c6c206661696c6564000000000000000000000000000000000000000000600082015250565b6000610724600b83610619565b915061072f826106ee565b602082019050919050565b6000602082019050818103600083015261075381610717565b905091905056fea2646970667358221220796e5b56079435f7043ebdecf9a00804a8c67fa173246770efa310dd193cdb4264736f6c634300081b0033",
  "linkReferences": {},
  "deployedLinkReferences": {}
}