{
  "_format": "hh-sol-artifact-1",
  "contractName": "TokenboundAccount",
  "sourceName": "contracts/TokenboundAccount.sol",
  "abi": [
    {
      "inputs": [
        {
          "internalType": "address",
          "name": "_controller",
          "type": "address"
        }
      ],
      "stateMutability": "nonpayable",
      "type": "constructor"
    },
    {
      "inputs": [],
      "name": "TokenboundAccount__ExecuteCallFailed",
      "type": "error"
    },
    {
      "inputs": [],
      "name": "TokenboundAccount__InvalidController",
      "type": "error"
    },
    {
      "inputs": [],
      "name": "controller",
      "outputs": [
        {
          "internalType": "address",
          "name": "",
          "type": "address"
        }
      ],
      "stateMutability": "view",
      "type": "function"
    },
    {
      "inputs": [
        {
          "internalType": "address",
          "name": "target",
          "type": "address"
        },
        {
          "internalType": "uint256",
          "name": "value",
          "type": "uint256"
        },
        {
          "internalType": "bytes",
          "name": "data",
          "type": "bytes"
        }
      ],
      "name": "execute",
      "outputs": [
        {
          "internalType": "bytes",
          "name": "",
          "type": "bytes"
        }
      ],
      "stateMutability": "nonpayable",
      "type": "function"
    },
    {
      "inputs": [],
      "name": "restrictedFunction",
      "outputs": [],
      "stateMutability": "nonpayable",
      "type": "function"
    },
    {
      "inputs": [
        {
          "internalType": "address",
          "name": "newController",
          "type": "address"
        }
      ],
      "name": "transferController",
      "outputs": [],
      "stateMutability": "nonpayable",
      "type": "function"
    }
  ],
  "bytecode": "0x608060405234801561001057600080fd5b5060405161079a38038061079a833981810160405281019061003291906100db565b806000806101000a81548173ffffffffffffffffffffffffffffffffffffffff021916908373ffffffffffffffffffffffffffffffffffffffff16021790555050610108565b600080fd5b600073ffffffffffffffffffffffffffffffffffffffff82169050919050565b60006100a88261007d565b9050919050565b6100b88161009d565b81146100c357600080fd5b50565b6000815190506100d5816100af565b92915050565b6000602082840312156100f1576100f0610078565b5b60006100ff848285016100c6565b91505092915050565b610683806101176000396000f3fe608060405234801561001057600080fd5b506004361061004c5760003560e01c8063777acf3714610051578063b61d27f61461005b578063e8ea054b1461008b578063f77c4791146100a7575b600080fd5b6100596100c5565b005b61007560048036038101906100709190610478565b61014c565b604051610082919061057c565b60405180910390f35b6100a560048036038101906100a0919061059e565b610289565b005b6100af610351565b6040516100bc91906105da565b60405180910390f35b60008054906101000a900473ffffffffffffffffffffffffffffffffffffffff1673ffffffffffffffffffffffffffffffffffffffff163373ffffffffffffffffffffffffffffffffffffffff161461014a576040517f74abc09300000000000000000000000000000000000000000000000000000000815260040160405180910390fd5b565b606060008054906101000a900473ffffffffffffffffffffffffffffffffffffffff1673ffffffffffffffffffffffffffffffffffffffff163373ffffffffffffffffffffffffffffffffffffffff16146101d3576040517f74abc09300000000000000000000000000000000000000000000000000000000815260040160405180910390fd5b6000808673ffffffffffffffffffffffffffffffffffffffff168686866040516101fe929190610634565b60006040518083038185875af1925050503d806000811461023b576040519150601f19603f3d011682016040523d82523d6000602084013e610240565b606091505b50915091508161027c576040517f9514589500000000000000000000000000000000000000000000000000000000815260040160405180910390fd5b8092505050949350505050565b60008054906101000a900473ffffffffffffffffffffffffffffffffffffffff1673ffffffffffffffffffffffffffffffffffffffff163373ffffffffffffffffffffffffffffffffffffffff161461030e576040517f74abc09300000000000000000000000000000000000000000000000000000000815260040160405180910390fd5b806000806101000a81548173ffffffffffffffffffffffffffffffffffffffff021916908373ffffffffffffffffffffffffffffffffffffffff16021790555050565b60008054906101000a900473ffffffffffffffffffffffffffffffffffffffff1681565b600080fd5b600080fd5b600073ffffffffffffffffffffffffffffffffffffffff82169050919050565b60006103aa8261037f565b9050919050565b6103ba8161039f565b81146103c557600080fd5b50565b6000813590506103d7816103b1565b92915050565b6000819050919050565b6103f0816103dd565b81146103fb57600080fd5b50565b60008135905061040d816103e7565b92915050565b600080fd5b600080fd5b600080fd5b60008083601f84011261043857610437610413565b5b8235905067ffffffffffffffff81111561045557610454610418565b5b6020830191508360018202830111156104715761047061041d565b5b9250929050565b6000806000806060858703121561049257610491610375565b5b60006104a0878288016103c8565b94505060206104b1878288016103fe565b935050604085013567ffffffffffffffff8111156104d2576104d161037a565b5b6104de87828801610422565b925092505092959194509250565b600081519050919050565b600082825260208201905092915050565b60005b8381101561052657808201518184015260208101905061050b565b60008484015250505050565b6000601f19601f8301169050919050565b600061054e826104ec565b61055881856104f7565b9350610568818560208601610508565b61057181610532565b840191505092915050565b600060208201905081810360008301526105968184610543565b905092915050565b6000602082840312156105b4576105b3610375565b5b60006105c2848285016103c8565b91505092915050565b6105d48161039f565b82525050565b60006020820190506105ef60008301846105cb565b92915050565b600081905092915050565b82818337600083830152505050565b600061061b83856105f5565b9350610628838584610600565b82840190509392505050565b600061064182848661060f565b9150819050939250505056fea26469706673582212202876f459ec49e7b9a1d5ab8fec67037821c265883ed79d546aaa8fe73cd7aba664736f6c634300081b0033",
  "linkReferences": {},
  "deployedLinkReferences": {}
}