{"abi":[{"type":"function","name":"account","inputs":[{"name":"implementation","type":"address","internalType":"address"},{"name":"chainId","type":"uint256","internalType":"uint256"},{"name":"tokenContract","type":"address","internalType":"address"},{"name":"tokenId","type":"uint256","internalType":"uint256"},{"name":"salt","type":"uint256","internalType":"uint256"}],"outputs":[{"name":"","type":"address","internalType":"address"}],"stateMutability":"view"},{"type":"function","name":"createAccount","inputs":[{"name":"implementation","type":"address","internalType":"address"},{"name":"chainId","type":"uint256","internalType":"uint256"},{"name":"tokenContract","type":"address","internalType":"address"},{"name":"tokenId","type":"uint256","internalType":"uint256"},{"name":"salt","type":"uint256","internalType":"uint256"},{"name":"initData","type":"bytes","internalType":"bytes"}],"outputs":[{"name":"accountAddress","type":"address","internalType":"address"}],"stateMutability":"nonpayable"},{"type":"event","name":"AccountCreated","inputs":[{"name":"accountAddress","type":"address","indexed":true,"internalType":"address"}],"anonymous":false},{"type":"error","name":"Create2EmptyBytecode","inputs":[]},{"type":"error","name":"FailedDeployment","inputs":[]},{"type":"error","name":"InitializationFailed","inputs":[]},{"type":"error","name":"InsufficientBalance","inputs":[{"name":"balance","type":"uint256","internalType":"uint256"},{"name":"needed","type":"uint256","internalType":"uint256"}]}],"bytecode":{"object":"0x6080604052348015600f57600080fd5b506105908061001f6000396000f3fe608060405234801561001057600080fd5b50600436106100365760003560e01c80635e9bc5361461003b578063da7323b31461006a575b600080fd5b61004e6100493660046103c7565b61007d565b6040516001600160a01b03909116815260200160405180910390f35b61004e610078366004610415565b6100ac565b60008061008d8787878787610264565b805160209091012090506100a183826102cd565b979650505050505050565b60006001600160a01b0388166101025760405162461bcd60e51b815260206004820152601660248201527524b73b30b634b21034b6b83632b6b2b73a30ba34b7b760511b60448201526064015b60405180910390fd5b6001600160a01b0386166101515760405162461bcd60e51b8152602060048201526016602482015275125b9d985b1a59081d1bdad95b8818dbdb9d1c9858dd60521b60448201526064016100f9565b60006101608989898989610264565b90506101768560001b82805190602001206102cd565b91506001600160a01b0382163b1561018e57506100a1565b61019a600086836102e1565b91508215610224576000826001600160a01b031685856040516101be9291906104c9565b6000604051808303816000865af19150503d80600081146101fb576040519150601f19603f3d011682016040523d82523d6000602084013e610200565b606091505b505090508061022257604051630337323560e31b815260040160405180910390fd5b505b6040516001600160a01b038316907f805996f252884581e2f74cf3d2b03564d5ec26ccc90850ae12653dc1b72d1fa290600090a250979650505050505050565b60408051602081018390529081018590526001600160a01b0384166060828101919091526080820184905290869060a00160408051601f19818403018152908290526102b392916020016104d9565b604051602081830303815290604052905095945050505050565b60006102da838330610378565b9392505050565b60008347101561030d5760405163cf47918160e01b8152476004820152602481018590526044016100f9565b815160000361032f57604051631328927760e21b815260040160405180910390fd5b8282516020840186f590503d151981151615610351576040513d6000823e3d81fd5b6001600160a01b0381166102da5760405163b06ebf3d60e01b815260040160405180910390fd5b6000604051836040820152846020820152828152600b8101905060ff8153605590206001600160a01b0316949350505050565b80356001600160a01b03811681146103c257600080fd5b919050565b600080600080600060a086880312156103df57600080fd5b6103e8866103ab565b9450602086013593506103fd604087016103ab565b94979396509394606081013594506080013592915050565b600080600080600080600060c0888a03121561043057600080fd5b610439886103ab565b96506020880135955061044e604089016103ab565b9450606088013593506080880135925060a088013567ffffffffffffffff81111561047857600080fd5b8801601f81018a1361048957600080fd5b803567ffffffffffffffff8111156104a057600080fd5b8a60208284010111156104b257600080fd5b602082019350809250505092959891949750929550565b8183823760009101908152919050565b733d60ad80600a3d3981f3363d3d373d3d3d363d7360601b8152606083901b6bffffffffffffffffffffffff191660148201526e5af43d82803e903d91602b57fd5bf360881b60288201528151600090815b81811015610548576020818601810151603786840101520161052b565b5060009201603701918252509291505056fea26469706673582212201e6ed508b93af6236f2a78a4e89c6e7a7759186038b452b8099b1ad14dca25f364736f6c634300081b0033","linkReferences":{}},"methodIdentifiers":{"account(address,uint256,address,uint256,uint256)":"5e9bc536","createAccount(address,uint256,address,uint256,uint256,bytes)":"da7323b3"},"id":1}