{"abi":[{"type":"function","name":"account","inputs":[{"name":"accountContract","type":"address","internalType":"address"},{"name":"chainId","type":"uint256","internalType":"uint256"},{"name":"nftContract","type":"address","internalType":"address"},{"name":"nftId","type":"uint256","internalType":"uint256"},{"name":"salt","type":"uint256","internalType":"uint256"}],"outputs":[{"name":"","type":"address","internalType":"address"}],"stateMutability":"view"},{"type":"function","name":"createAccount","inputs":[{"name":"accountContract","type":"address","internalType":"address"},{"name":"chainId","type":"uint256","internalType":"uint256"},{"name":"nftContract","type":"address","internalType":"address"},{"name":"nftId","type":"uint256","internalType":"uint256"},{"name":"salt","type":"uint256","internalType":"uint256"}],"outputs":[{"name":"","type":"address","internalType":"address"}],"stateMutability":"nonpayable"},{"type":"event","name":"AccountCreated","inputs":[{"name":"account","type":"address","indexed":false,"internalType":"address"},{"name":"implementation","type":"address","indexed":false,"internalType":"address"},{"name":"chainId","type":"uint256","indexed":false,"internalType":"uint256"},{"name":"tokenContract","type":"address","indexed":false,"internalType":"address"},{"name":"tokenId","type":"uint256","indexed":false,"internalType":"uint256"},{"name":"salt","type":"uint256","indexed":false,"internalType":"uint256"}],"anonymous":false},{"type":"error","name":"Create2EmptyBytecode","inputs":[]},{"type":"error","name":"FailedDeployment","inputs":[]},{"type":"error","name":"InsufficientBalance","inputs":[{"name":"balance","type":"uint256","internalType":"uint256"},{"name":"needed","type":"uint256","internalType":"uint256"}]}],"bytecode":{"object":"0x6080604052348015600f57600080fd5b506103d98061001f6000396000f3fe608060405234801561001057600080fd5b50600436106100365760003560e01c80635e9bc5361461003b578063c1340f691461006a575b600080fd5b61004e6100493660046102d4565b61007d565b6040516001600160a01b03909116815260200160405180910390f35b61004e6100783660046102d4565b6100ae565b60008061008d878787878761016d565b805160209091012090506100a183826101d6565b9150505b95945050505050565b6000806100be878787878761016d565b905060006100d68460001b83805190602001206101d6565b90506001600160a01b0381163b156100f15791506100a59050565b6100fd600085846101ea565b604080516001600160a01b038084168252808c1660208301529181018a905290881660608201526080810187905260a081018690529091507f07fba7bba1191da7ee1155dcfa0030701c9c9a9cc34a93b991fc6fd0c9268d8f9060c00160405180910390a1979650505050505050565b60408051602081018390529081018590526001600160a01b0384166060828101919091526080820184905290869060a00160408051601f19818403018152908290526101bc9291602001610322565b604051602081830303815290604052905095945050505050565b60006101e3838330610285565b9392505050565b60008347101561021a5760405163cf47918160e01b81524760048201526024810185905260440160405180910390fd5b815160000361023c57604051631328927760e21b815260040160405180910390fd5b8282516020840186f590503d15198115161561025e576040513d6000823e3d81fd5b6001600160a01b0381166101e35760405163b06ebf3d60e01b815260040160405180910390fd5b6000604051836040820152846020820152828152600b8101905060ff8153605590206001600160a01b0316949350505050565b80356001600160a01b03811681146102cf57600080fd5b919050565b600080600080600060a086880312156102ec57600080fd5b6102f5866102b8565b94506020860135935061030a604087016102b8565b94979396509394606081013594506080013592915050565b733d60ad80600a3d3981f3363d3d373d3d3d363d7360601b8152606083901b6bffffffffffffffffffffffff191660148201526e5af43d82803e903d91602b57fd5bf360881b60288201528151600090815b818110156103915760208186018101516037868401015201610374565b5060009201603701918252509291505056fea26469706673582212205562fd993228b021c029218eed351ba80e4dd3f97d27307b60102d689b32bf6864736f6c634300081b0033","linkReferences":{}},"methodIdentifiers":{"account(address,uint256,address,uint256,uint256)":"5e9bc536","createAccount(address,uint256,address,uint256,uint256)":"c1340f69"},"id":2}