{
  "_format": "hh-sol-artifact-1",
  "contractName": "USDT",
  "sourceName": "contracts/N2D-Sample-Fake-USDT.sol",
  "abi": [
    {
      "inputs": [
        {
          "internalType": "address",
          "name": "initialOwner",
          "type": "address"
        }
      ],
      "stateMutability": "nonpayable",
      "type": "constructor"
    },
    {
      "inputs": [
        {
          "internalType": "address",
          "name": "spender",
          "type": "address"
        },
        {
          "internalType": "uint256",
          "name": "allowance",
          "type": "uint256"
        },
        {
          "internalType": "uint256",
          "name": "needed",
          "type": "uint256"
        }
      ],
      "name": "ERC20InsufficientAllowance",
      "type": "error"
    },
    {
      "inputs": [
        {
          "internalType": "address",
          "name": "sender",
          "type": "address"
        },
        {
          "internalType": "uint256",
          "name": "balance",
          "type": "uint256"
        },
        {
          "internalType": "uint256",
          "name": "needed",
          "type": "uint256"
        }
      ],
      "name": "ERC20InsufficientBalance",
      "type": "error"
    },
    {
      "inputs": [
        {
          "internalType": "address",
          "name": "approver",
          "type": "address"
        }
      ],
      "name": "ERC20InvalidApprover",
      "type": "error"
    },
    {
      "inputs": [
        {
          "internalType": "address",
          "name": "receiver",
          "type": "address"
        }
      ],
      "name": "ERC20InvalidReceiver",
      "type": "error"
    },
    {
      "inputs": [
        {
          "internalType": "address",
          "name": "sender",
          "type": "address"
        }
      ],
      "name": "ERC20InvalidSender",
      "type": "error"
    },
    {
      "inputs": [
        {
          "internalType": "address",
          "name": "spender",
          "type": "address"
        }
      ],
      "name": "ERC20InvalidSpender",
      "type": "error"
    },
    {
      "inputs": [
        {
          "internalType": "address",
          "name": "owner",
          "type": "address"
        }
      ],
      "name": "OwnableInvalidOwner",
      "type": "error"
    },
    {
      "inputs": [
        {
          "internalType": "address",
          "name": "account",
          "type": "address"
        }
      ],
      "name": "OwnableUnauthorizedAccount",
      "type": "error"
    },
    {
      "anonymous": false,
      "inputs": [
        {
          "indexed": true,
          "internalType": "address",
          "name": "owner",
          "type": "address"
        },
        {
          "indexed": true,
          "internalType": "address",
          "name": "spender",
          "type": "address"
        },
        {
          "indexed": false,
          "internalType": "uint256",
          "name": "value",
          "type": "uint256"
        }
      ],
      "name": "Approval",
      "type": "event"
    },
    {
      "anonymous": false,
      "inputs": [
        {
          "indexed": true,
          "internalType": "address",
          "name": "previousOwner",
          "type": "address"
        },
        {
          "indexed": true,
          "internalType": "address",
          "name": "newOwner",
          "type": "address"
        }
      ],
      "name": "OwnershipTransferred",
      "type": "event"
    },
    {
      "anonymous": false,
      "inputs": [
        {
          "indexed": true,
          "internalType": "address",
          "name": "from",
          "type": "address"
        },
        {
          "indexed": true,
          "internalType": "address",
          "name": "to",
          "type": "address"
        },
        {
          "indexed": false,
          "internalType": "uint256",
          "name": "value",
          "type": "uint256"
        }
      ],
      "name": "Transfer",
      "type": "event"
    },
    {
      "inputs": [
        {
          "internalType": "address",
          "name": "owner",
          "type": "address"
        },
        {
          "internalType": "address",
          "name": "spender",
          "type": "address"
        }
      ],
      "name": "allowance",
      "outputs": [
        {
          "internalType": "uint256",
          "name": "",
          "type": "uint256"
        }
      ],
      "stateMutability": "view",
      "type": "function"
    },
    {
      "inputs": [
        {
          "internalType": "address",
          "name": "spender",
          "type": "address"
        },
        {
          "internalType": "uint256",
          "name": "value",
          "type": "uint256"
        }
      ],
      "name": "approve",
      "outputs": [
        {
          "internalType": "bool",
          "name": "",
          "type": "bool"
        }
      ],
      "stateMutability": "nonpayable",
      "type": "function"
    },
    {
      "inputs": [
        {
          "internalType": "address",
          "name": "account",
          "type": "address"
        }
      ],
      "name": "balanceOf",
      "outputs": [
        {
          "internalType": "uint256",
          "name": "",
          "type": "uint256"
        }
      ],
      "stateMutability": "view",
      "type": "function"
    },
    {
      "inputs": [
        {
          "internalType": "uint256",
          "name": "value",
          "type": "uint256"
        }
      ],
      "name": "burn",
      "outputs": [],
      "stateMutability": "nonpayable",
      "type": "function"
    },
    {
      "inputs": [
        {
          "internalType": "address",
          "name": "account",
          "type": "address"
        },
        {
          "internalType": "uint256",
          "name": "value",
          "type": "uint256"
        }
      ],
      "name": "burnFrom",
      "outputs": [],
      "stateMutability": "nonpayable",
      "type": "function"
    },
    {
      "inputs": [],
      "name": "decimals",
      "outputs": [
        {
          "internalType": "uint8",
          "name": "",
          "type": "uint8"
        }
      ],
      "stateMutability": "view",
      "type": "function"
    },
    {
      "inputs": [
        {
          "internalType": "uint256",
          "name": "amount",
          "type": "uint256"
        }
      ],
      "name": "mint",
      "outputs": [],
      "stateMutability": "nonpayable",
      "type": "function"
    },
    {
      "inputs": [],
      "name": "name",
      "outputs": [
        {
          "internalType": "string",
          "name": "",
          "type": "string"
        }
      ],
      "stateMutability": "view",
      "type": "function"
    },
    {
      "inputs": [],
      "name": "owner",
      "outputs": [
        {
          "internalType": "address",
          "name": "",
          "type": "address"
        }
      ],
      "stateMutability": "view",
      "type": "function"
    },
    {
      "inputs": [],
      "name": "renounceOwnership",
      "outputs": [],
      "stateMutability": "nonpayable",
      "type": "function"
    },
    {
      "inputs": [],
      "name": "symbol",
      "outputs": [
        {
          "internalType": "string",
          "name": "",
          "type": "string"
        }
      ],
      "stateMutability": "view",
      "type": "function"
    },
    {
      "inputs": [],
      "name": "totalSupply",
      "outputs": [
        {
          "internalType": "uint256",
          "name": "",
          "type": "uint256"
        }
      ],
      "stateMutability": "view",
      "type": "function"
    },
    {
      "inputs": [
        {
          "internalType": "address",
          "name": "to",
          "type": "address"
        },
        {
          "internalType": "uint256",
          "name": "value",
          "type": "uint256"
        }
      ],
      "name": "transfer",
      "outputs": [
        {
          "internalType": "bool",
          "name": "",
          "type": "bool"
        }
      ],
      "stateMutability": "nonpayable",
      "type": "function"
    },
    {
      "inputs": [
        {
          "internalType": "address",
          "name": "from",
          "type": "address"
        },
        {
          "internalType": "address",
          "name": "to",
          "type": "address"
        },
        {
          "internalType": "uint256",
          "name": "value",
          "type": "uint256"
        }
      ],
      "name": "transferFrom",
      "outputs": [
        {
          "internalType": "bool",
          "name": "",
          "type": "bool"
        }
      ],
      "stateMutability": "nonpayable",
      "type": "function"
    },
    {
      "inputs": [
        {
          "internalType": "address",
          "name": "newOwner",
          "type": "address"
        }
      ],
      "name": "transferOwnership",
      "outputs": [],
      "stateMutability": "nonpayable",
      "type": "function"
    }
  ],
  "bytecode": "0x60806040523480156200001157600080fd5b50604051620019363803806200193683398181016040528101906200003791906200028b565b806040518060400160405280600a81526020017f54657468657220555344000000000000000000000000000000000000000000008152506040518060400160405280600481526020017f55534454000000000000000000000000000000000000000000000000000000008152508160039081620000b5919062000537565b508060049081620000c7919062000537565b505050600073ffffffffffffffffffffffffffffffffffffffff168173ffffffffffffffffffffffffffffffffffffffff16036200013f5760006040517f1e4fbdf70000000000000000000000000000000000000000000000000000000081526004016200013691906200062f565b60405180910390fd5b62000150816200015b60201b60201c565b50339050506200064c565b6000600560009054906101000a900473ffffffffffffffffffffffffffffffffffffffff16905081600560006101000a81548173ffffffffffffffffffffffffffffffffffffffff021916908373ffffffffffffffffffffffffffffffffffffffff1602179055508173ffffffffffffffffffffffffffffffffffffffff168173ffffffffffffffffffffffffffffffffffffffff167f8be0079c531659141344cd1fd0a4f28419497f9722a3daafe3b4186f6b6457e060405160405180910390a35050565b600080fd5b600073ffffffffffffffffffffffffffffffffffffffff82169050919050565b6000620002538262000226565b9050919050565b620002658162000246565b81146200027157600080fd5b50565b60008151905062000285816200025a565b92915050565b600060208284031215620002a457620002a362000221565b5b6000620002b48482850162000274565b91505092915050565b600081519050919050565b7f4e487b7100000000000000000000000000000000000000000000000000000000600052604160045260246000fd5b7f4e487b7100000000000000000000000000000000000000000000000000000000600052602260045260246000fd5b600060028204905060018216806200033f57607f821691505b602082108103620003555762000354620002f7565b5b50919050565b60008190508160005260206000209050919050565b60006020601f8301049050919050565b600082821b905092915050565b600060088302620003bf7fffffffffffffffffffffffffffffffffffffffffffffffffffffffffffffffff8262000380565b620003cb868362000380565b95508019841693508086168417925050509392505050565b6000819050919050565b6000819050919050565b600062000418620004126200040c84620003e3565b620003ed565b620003e3565b9050919050565b6000819050919050565b6200043483620003f7565b6200044c62000443826200041f565b8484546200038d565b825550505050565b600090565b6200046362000454565b6200047081848462000429565b505050565b5b8181101562000498576200048c60008262000459565b60018101905062000476565b5050565b601f821115620004e757620004b1816200035b565b620004bc8462000370565b81016020851015620004cc578190505b620004e4620004db8562000370565b83018262000475565b50505b505050565b600082821c905092915050565b60006200050c60001984600802620004ec565b1980831691505092915050565b6000620005278383620004f9565b9150826002028217905092915050565b6200054282620002bd565b67ffffffffffffffff8111156200055e576200055d620002c8565b5b6200056a825462000326565b620005778282856200049c565b600060209050601f831160018114620005af57600084156200059a578287015190505b620005a6858262000519565b86555062000616565b601f198416620005bf866200035b565b60005b82811015620005e957848901518255600182019150602085019450602081019050620005c2565b8683101562000609578489015162000605601f891682620004f9565b8355505b6001600288020188555050505b505050505050565b620006298162000246565b82525050565b60006020820190506200064660008301846200061e565b92915050565b6112da806200065c6000396000f3fe608060405234801561001057600080fd5b50600436106100f55760003560e01c8063715018a611610097578063a0712d6811610066578063a0712d6814610262578063a9059cbb1461027e578063dd62ed3e146102ae578063f2fde38b146102de576100f5565b8063715018a61461020057806379cc67901461020a5780638da5cb5b1461022657806395d89b4114610244576100f5565b806323b872dd116100d357806323b872dd14610166578063313ce5671461019657806342966c68146101b457806370a08231146101d0576100f5565b806306fdde03146100fa578063095ea7b31461011857806318160ddd14610148575b600080fd5b6101026102fa565b60405161010f9190610f01565b60405180910390f35b610132600480360381019061012d9190610fbc565b61038c565b60405161013f9190611017565b60405180910390f35b6101506103af565b60405161015d9190611041565b60405180910390f35b610180600480360381019061017b919061105c565b6103b9565b60405161018d9190611017565b60405180910390f35b61019e6103e8565b6040516101ab91906110cb565b60405180910390f35b6101ce60048036038101906101c991906110e6565b6103f1565b005b6101ea60048036038101906101e59190611113565b610405565b6040516101f79190611041565b60405180910390f35b61020861044d565b005b610224600480360381019061021f9190610fbc565b610461565b005b61022e610481565b60405161023b919061114f565b60405180910390f35b61024c6104ab565b6040516102599190610f01565b60405180910390f35b61027c600480360381019061027791906110e6565b61053d565b005b61029860048036038101906102939190610fbc565b610552565b6040516102a59190611017565b60405180910390f35b6102c860048036038101906102c3919061116a565b610575565b6040516102d59190611041565b60405180910390f35b6102f860048036038101906102f39190611113565b6105fc565b005b606060038054610309906111d9565b80601f0160208091040260200160405190810160405280929190818152602001828054610335906111d9565b80156103825780601f1061035757610100808354040283529160200191610382565b820191906000526020600020905b81548152906001019060200180831161036557829003601f168201915b5050505050905090565b600080610397610682565b90506103a481858561068a565b600191505092915050565b6000600254905090565b6000806103c4610682565b90506103d185828561069c565b6103dc858585610730565b60019150509392505050565b60006012905090565b6104026103fc610682565b82610824565b50565b60008060008373ffffffffffffffffffffffffffffffffffffffff1673ffffffffffffffffffffffffffffffffffffffff168152602001908152602001600020549050919050565b6104556108a6565b61045f600061092d565b565b6104738261046d610682565b8361069c565b61047d8282610824565b5050565b6000600560009054906101000a900473ffffffffffffffffffffffffffffffffffffffff16905090565b6060600480546104ba906111d9565b80601f01602080910402602001604051908101604052809291908181526020018280546104e6906111d9565b80156105335780601f1061050857610100808354040283529160200191610533565b820191906000526020600020905b81548152906001019060200180831161051657829003601f168201915b5050505050905090565b6105456108a6565b61054f33826109f3565b50565b60008061055d610682565b905061056a818585610730565b600191505092915050565b6000600160008473ffffffffffffffffffffffffffffffffffffffff1673ffffffffffffffffffffffffffffffffffffffff16815260200190815260200160002060008373ffffffffffffffffffffffffffffffffffffffff1673ffffffffffffffffffffffffffffffffffffffff16815260200190815260200160002054905092915050565b6106046108a6565b600073ffffffffffffffffffffffffffffffffffffffff168173ffffffffffffffffffffffffffffffffffffffff16036106765760006040517f1e4fbdf700000000000000000000000000000000000000000000000000000000815260040161066d919061114f565b60405180910390fd5b61067f8161092d565b50565b600033905090565b6106978383836001610a75565b505050565b60006106a88484610575565b90507fffffffffffffffffffffffffffffffffffffffffffffffffffffffffffffffff811461072a578181101561071a578281836040517ffb8f41b20000000000000000000000000000000000000000000000000000000081526004016107119392919061120a565b60405180910390fd5b61072984848484036000610a75565b5b50505050565b600073ffffffffffffffffffffffffffffffffffffffff168373ffffffffffffffffffffffffffffffffffffffff16036107a25760006040517f96c6fd1e000000000000000000000000000000000000000000000000000000008152600401610799919061114f565b60405180910390fd5b600073ffffffffffffffffffffffffffffffffffffffff168273ffffffffffffffffffffffffffffffffffffffff16036108145760006040517fec442f0500000000000000000000000000000000000000000000000000000000815260040161080b919061114f565b60405180910390fd5b61081f838383610c4c565b505050565b600073ffffffffffffffffffffffffffffffffffffffff168273ffffffffffffffffffffffffffffffffffffffff16036108965760006040517f96c6fd1e00000000000000000000000000000000000000000000000000000000815260040161088d919061114f565b60405180910390fd5b6108a282600083610c4c565b5050565b6108ae610682565b73ffffffffffffffffffffffffffffffffffffffff166108cc610481565b73ffffffffffffffffffffffffffffffffffffffff161461092b576108ef610682565b6040517f118cdaa7000000000000000000000000000000000000000000000000000000008152600401610922919061114f565b60405180910390fd5b565b6000600560009054906101000a900473ffffffffffffffffffffffffffffffffffffffff16905081600560006101000a81548173ffffffffffffffffffffffffffffffffffffffff021916908373ffffffffffffffffffffffffffffffffffffffff1602179055508173ffffffffffffffffffffffffffffffffffffffff168173ffffffffffffffffffffffffffffffffffffffff167f8be0079c531659141344cd1fd0a4f28419497f9722a3daafe3b4186f6b6457e060405160405180910390a35050565b600073ffffffffffffffffffffffffffffffffffffffff168273ffffffffffffffffffffffffffffffffffffffff1603610a655760006040517fec442f05000000000000000000000000000000000000000000000000000000008152600401610a5c919061114f565b60405180910390fd5b610a7160008383610c4c565b5050565b600073ffffffffffffffffffffffffffffffffffffffff168473ffffffffffffffffffffffffffffffffffffffff1603610ae75760006040517fe602df05000000000000000000000000000000000000000000000000000000008152600401610ade919061114f565b60405180910390fd5b600073ffffffffffffffffffffffffffffffffffffffff168373ffffffffffffffffffffffffffffffffffffffff1603610b595760006040517f94280d62000000000000000000000000000000000000000000000000000000008152600401610b50919061114f565b60405180910390fd5b81600160008673ffffffffffffffffffffffffffffffffffffffff1673ffffffffffffffffffffffffffffffffffffffff16815260200190815260200160002060008573ffffffffffffffffffffffffffffffffffffffff1673ffffffffffffffffffffffffffffffffffffffff168152602001908152602001600020819055508015610c46578273ffffffffffffffffffffffffffffffffffffffff168473ffffffffffffffffffffffffffffffffffffffff167f8c5be1e5ebec7d5bd14f71427d1e84f3dd0314c0f7b2291e5b200ac8c7c3b92584604051610c3d9190611041565b60405180910390a35b50505050565b600073ffffffffffffffffffffffffffffffffffffffff168373ffffffffffffffffffffffffffffffffffffffff1603610c9e578060026000828254610c929190611270565b92505081905550610d71565b60008060008573ffffffffffffffffffffffffffffffffffffffff1673ffffffffffffffffffffffffffffffffffffffff16815260200190815260200160002054905081811015610d2a578381836040517fe450d38c000000000000000000000000000000000000000000000000000000008152600401610d219392919061120a565b60405180910390fd5b8181036000808673ffffffffffffffffffffffffffffffffffffffff1673ffffffffffffffffffffffffffffffffffffffff16815260200190815260200160002081905550505b600073ffffffffffffffffffffffffffffffffffffffff168273ffffffffffffffffffffffffffffffffffffffff1603610dba5780600260008282540392505081905550610e07565b806000808473ffffffffffffffffffffffffffffffffffffffff1673ffffffffffffffffffffffffffffffffffffffff168152602001908152602001600020600082825401925050819055505b8173ffffffffffffffffffffffffffffffffffffffff168373ffffffffffffffffffffffffffffffffffffffff167fddf252ad1be2c89b69c2b068fc378daa952ba7f163c4a11628f55a4df523b3ef83604051610e649190611041565b60405180910390a3505050565b600081519050919050565b600082825260208201905092915050565b60005b83811015610eab578082015181840152602081019050610e90565b60008484015250505050565b6000601f19601f8301169050919050565b6000610ed382610e71565b610edd8185610e7c565b9350610eed818560208601610e8d565b610ef681610eb7565b840191505092915050565b60006020820190508181036000830152610f1b8184610ec8565b905092915050565b600080fd5b600073ffffffffffffffffffffffffffffffffffffffff82169050919050565b6000610f5382610f28565b9050919050565b610f6381610f48565b8114610f6e57600080fd5b50565b600081359050610f8081610f5a565b92915050565b6000819050919050565b610f9981610f86565b8114610fa457600080fd5b50565b600081359050610fb681610f90565b92915050565b60008060408385031215610fd357610fd2610f23565b5b6000610fe185828601610f71565b9250506020610ff285828601610fa7565b9150509250929050565b60008115159050919050565b61101181610ffc565b82525050565b600060208201905061102c6000830184611008565b92915050565b61103b81610f86565b82525050565b60006020820190506110566000830184611032565b92915050565b60008060006060848603121561107557611074610f23565b5b600061108386828701610f71565b935050602061109486828701610f71565b92505060406110a586828701610fa7565b9150509250925092565b600060ff82169050919050565b6110c5816110af565b82525050565b60006020820190506110e060008301846110bc565b92915050565b6000602082840312156110fc576110fb610f23565b5b600061110a84828501610fa7565b91505092915050565b60006020828403121561112957611128610f23565b5b600061113784828501610f71565b91505092915050565b61114981610f48565b82525050565b60006020820190506111646000830184611140565b92915050565b6000806040838503121561118157611180610f23565b5b600061118f85828601610f71565b92505060206111a085828601610f71565b9150509250929050565b7f4e487b7100000000000000000000000000000000000000000000000000000000600052602260045260246000fd5b600060028204905060018216806111f157607f821691505b602082108103611204576112036111aa565b5b50919050565b600060608201905061121f6000830186611140565b61122c6020830185611032565b6112396040830184611032565b949350505050565b7f4e487b7100000000000000000000000000000000000000000000000000000000600052601160045260246000fd5b600061127b82610f86565b915061128683610f86565b925082820190508082111561129e5761129d611241565b5b9291505056fea26469706673582212200dc228031438b1222447c5f73820adcb381b7b07c7faaac951ced9c9ca7c3b6064736f6c63430008180033",
  "linkReferences": {},
  "deployedLinkReferences": {}
}