{
  "_format": "hh-sol-artifact-1",
  "contractName": "ERC6551Registry",
  "sourceName": "contracts/N2D-ERC6551-Registry.sol",
  "abi": [
    {
      "inputs": [],
      "name": "Create2EmptyBytecode",
      "type": "error"
    },
    {
      "inputs": [],
      "name": "FailedDeployment",
      "type": "error"
    },
    {
      "inputs": [],
      "name": "InitializationFailed",
      "type": "error"
    },
    {
      "inputs": [
        {
          "internalType": "uint256",
          "name": "balance",
          "type": "uint256"
        },
        {
          "internalType": "uint256",
          "name": "needed",
          "type": "uint256"
        }
      ],
      "name": "InsufficientBalance",
      "type": "error"
    },
    {
      "anonymous": false,
      "inputs": [
        {
          "indexed": true,
          "internalType": "address",
          "name": "accountAddress",
          "type": "address"
        }
      ],
      "name": "AccountCreated",
      "type": "event"
    },
    {
      "inputs": [
        {
          "internalType": "address",
          "name": "implementation",
          "type": "address"
        },
        {
          "internalType": "uint256",
          "name": "chainId",
          "type": "uint256"
        },
        {
          "internalType": "address",
          "name": "tokenContract",
          "type": "address"
        },
        {
          "internalType": "uint256",
          "name": "tokenId",
          "type": "uint256"
        },
        {
          "internalType": "uint256",
          "name": "salt",
          "type": "uint256"
        }
      ],
      "name": "account",
      "outputs": [
        {
          "internalType": "address",
          "name": "",
          "type": "address"
        }
      ],
      "stateMutability": "view",
      "type": "function"
    },
    {
      "inputs": [
        {
          "internalType": "address",
          "name": "implementation",
          "type": "address"
        },
        {
          "internalType": "uint256",
          "name": "chainId",
          "type": "uint256"
        },
        {
          "internalType": "address",
          "name": "tokenContract",
          "type": "address"
        },
        {
          "internalType": "uint256",
          "name": "tokenId",
          "type": "uint256"
        },
        {
          "internalType": "uint256",
          "name": "salt",
          "type": "uint256"
        },
        {
          "internalType": "bytes",
          "name": "initData",
          "type": "bytes"
        }
      ],
      "name": "createAccount",
      "outputs": [
        {
          "internalType": "address",
          "name": "accountAddress",
          "type": "address"
        }
      ],
      "stateMutability": "nonpayable",
      "type": "function"
    }
  ],
  "bytecode": "0x6080604052348015600f57600080fd5b50610aa58061001f6000396000f3fe608060405234801561001057600080fd5b50600436106100365760003560e01c80635e9bc5361461003b578063da7323b31461006b575b600080fd5b61005560048036038101906100509190610569565b61009b565b60405161006291906105f3565b60405180910390f35b61008560048036038101906100809190610673565b6100cd565b60405161009291906105f3565b60405180910390f35b6000806100ab878787878761030e565b8051906020012090506100c18360001b82610362565b91505095945050505050565b60008073ffffffffffffffffffffffffffffffffffffffff168873ffffffffffffffffffffffffffffffffffffffff160361013d576040517f08c379a00000000000000000000000000000000000000000000000000000000081526004016101349061077f565b60405180910390fd5b600073ffffffffffffffffffffffffffffffffffffffff168673ffffffffffffffffffffffffffffffffffffffff16036101ac576040517f08c379a00000000000000000000000000000000000000000000000000000000081526004016101a3906107eb565b60405180910390fd5b60006101bb898989898961030e565b90506101d18560001b8280519060200120610362565b915060008273ffffffffffffffffffffffffffffffffffffffff163b11156101f95750610303565b61020860008660001b83610377565b915060008484905011156102be5760008273ffffffffffffffffffffffffffffffffffffffff16858560405161023f92919061084a565b6000604051808303816000865af19150503d806000811461027c576040519150601f19603f3d011682016040523d82523d6000602084013e610281565b606091505b50509050806102bc576040517f19b991a800000000000000000000000000000000000000000000000000000000815260040160405180910390fd5b505b8173ffffffffffffffffffffffffffffffffffffffff167f805996f252884581e2f74cf3d2b03564d5ec26ccc90850ae12653dc1b72d1fa260405160405180910390a2505b979650505050505050565b606085828686866040516020016103289493929190610872565b604051602081830303815290604052604051602001610348929190610a08565b604051602081830303815290604052905095945050505050565b600061036f83833061048a565b905092915050565b6000834710156103c05747846040517fcf4791810000000000000000000000000000000000000000000000000000000081526004016103b7929190610a46565b60405180910390fd5b60008251036103fb576040517f4ca249dc00000000000000000000000000000000000000000000000000000000815260040160405180910390fd5b8282516020840186f590503d15198115161561041d576040513d6000823e3d81fd5b600073ffffffffffffffffffffffffffffffffffffffff168173ffffffffffffffffffffffffffffffffffffffff1603610483576040517fb06ebf3d00000000000000000000000000000000000000000000000000000000815260040160405180910390fd5b9392505050565b6000604051836040820152846020820152828152600b810160ff815373ffffffffffffffffffffffffffffffffffffffff6055822016925050509392505050565b600080fd5b600080fd5b600073ffffffffffffffffffffffffffffffffffffffff82169050919050565b6000610500826104d5565b9050919050565b610510816104f5565b811461051b57600080fd5b50565b60008135905061052d81610507565b92915050565b6000819050919050565b61054681610533565b811461055157600080fd5b50565b6000813590506105638161053d565b92915050565b600080600080600060a08688031215610585576105846104cb565b5b60006105938882890161051e565b95505060206105a488828901610554565b94505060406105b58882890161051e565b93505060606105c688828901610554565b92505060806105d788828901610554565b9150509295509295909350565b6105ed816104f5565b82525050565b600060208201905061060860008301846105e4565b92915050565b600080fd5b600080fd5b600080fd5b60008083601f8401126106335761063261060e565b5b8235905067ffffffffffffffff8111156106505761064f610613565b5b60208301915083600182028301111561066c5761066b610618565b5b9250929050565b600080600080600080600060c0888a031215610692576106916104cb565b5b60006106a08a828b0161051e565b97505060206106b18a828b01610554565b96505060406106c28a828b0161051e565b95505060606106d38a828b01610554565b94505060806106e48a828b01610554565b93505060a088013567ffffffffffffffff811115610705576107046104d0565b5b6107118a828b0161061d565b925092505092959891949750929550565b600082825260208201905092915050565b7f496e76616c696420696d706c656d656e746174696f6e00000000000000000000600082015250565b6000610769601683610722565b915061077482610733565b602082019050919050565b600060208201905081810360008301526107988161075c565b9050919050565b7f496e76616c696420746f6b656e20636f6e747261637400000000000000000000600082015250565b60006107d5601683610722565b91506107e08261079f565b602082019050919050565b60006020820190508181036000830152610804816107c8565b9050919050565b600081905092915050565b82818337600083830152505050565b6000610831838561080b565b935061083e838584610816565b82840190509392505050565b6000610857828486610825565b91508190509392505050565b61086c81610533565b82525050565b60006080820190506108876000830187610863565b6108946020830186610863565b6108a160408301856105e4565b6108ae6060830184610863565b95945050505050565b600081905092915050565b7f3d60ad80600a3d3981f3363d3d373d3d3d363d73000000000000000000000000600082015250565b60006108f86014836108b7565b9150610903826108c2565b601482019050919050565b60008160601b9050919050565b60006109268261090e565b9050919050565b60006109388261091b565b9050919050565b61095061094b826104f5565b61092d565b82525050565b7f5af43d82803e903d91602b57fd5bf30000000000000000000000000000000000600082015250565b600061098c600f836108b7565b915061099782610956565b600f82019050919050565b600081519050919050565b60005b838110156109cb5780820151818401526020810190506109b0565b60008484015250505050565b60006109e2826109a2565b6109ec818561080b565b93506109fc8185602086016109ad565b80840191505092915050565b6000610a13826108eb565b9150610a1f828561093f565b601482019150610a2e8261097f565b9150610a3a82846109d7565b91508190509392505050565b6000604082019050610a5b6000830185610863565b610a686020830184610863565b939250505056fea2646970667358221220a03d6a4d1236ccc2aa6cccecc8a56e97fc1cf5381281da6fd6a91ad012dd76f464736f6c634300081b0033",
  "linkReferences": {},
  "deployedLinkReferences": {}
}