{
  "_format": "hh-sol-artifact-1",
  "contractName": "ERC6551Registry",
  "sourceName": "contracts/N2D-ERC6551-Registry.sol",
  "abi": [
    {
      "inputs": [],
      "name": "Create2EmptyBytecode",
      "type": "error"
    },
    {
      "inputs": [],
      "name": "FailedDeployment",
      "type": "error"
    },
    {
      "inputs": [
        {
          "internalType": "uint256",
          "name": "balance",
          "type": "uint256"
        },
        {
          "internalType": "uint256",
          "name": "needed",
          "type": "uint256"
        }
      ],
      "name": "InsufficientBalance",
      "type": "error"
    },
    {
      "anonymous": false,
      "inputs": [
        {
          "indexed": false,
          "internalType": "address",
          "name": "account",
          "type": "address"
        },
        {
          "indexed": false,
          "internalType": "address",
          "name": "implementation",
          "type": "address"
        },
        {
          "indexed": false,
          "internalType": "uint256",
          "name": "chainId",
          "type": "uint256"
        },
        {
          "indexed": false,
          "internalType": "address",
          "name": "tokenContract",
          "type": "address"
        },
        {
          "indexed": false,
          "internalType": "uint256",
          "name": "tokenId",
          "type": "uint256"
        },
        {
          "indexed": false,
          "internalType": "uint256",
          "name": "salt",
          "type": "uint256"
        }
      ],
      "name": "AccountCreated",
      "type": "event"
    },
    {
      "inputs": [
        {
          "internalType": "address",
          "name": "accountContract",
          "type": "address"
        },
        {
          "internalType": "uint256",
          "name": "chainId",
          "type": "uint256"
        },
        {
          "internalType": "address",
          "name": "nftContract",
          "type": "address"
        },
        {
          "internalType": "uint256",
          "name": "nftId",
          "type": "uint256"
        },
        {
          "internalType": "uint256",
          "name": "salt",
          "type": "uint256"
        }
      ],
      "name": "account",
      "outputs": [
        {
          "internalType": "address",
          "name": "",
          "type": "address"
        }
      ],
      "stateMutability": "view",
      "type": "function"
    },
    {
      "inputs": [
        {
          "internalType": "address",
          "name": "accountContract",
          "type": "address"
        },
        {
          "internalType": "uint256",
          "name": "chainId",
          "type": "uint256"
        },
        {
          "internalType": "address",
          "name": "nftContract",
          "type": "address"
        },
        {
          "internalType": "uint256",
          "name": "nftId",
          "type": "uint256"
        },
        {
          "internalType": "uint256",
          "name": "salt",
          "type": "uint256"
        }
      ],
      "name": "createAccount",
      "outputs": [
        {
          "internalType": "address",
          "name": "",
          "type": "address"
        }
      ],
      "stateMutability": "nonpayable",
      "type": "function"
    }
  ],
  "bytecode": "0x608060405234801561001057600080fd5b5061072a806100206000396000f3fe608060405234801561001057600080fd5b50600436106100365760003560e01c80635e9bc5361461003b578063c1340f691461006b575b600080fd5b610055600480360381019061005091906103d7565b61009b565b6040516100629190610461565b60405180910390f35b610085600480360381019061008091906103d7565b6100cd565b6040516100929190610461565b60405180910390f35b6000806100ab8787878787610181565b8051906020012090506100c18360001b826101d5565b91505095945050505050565b6000806100dd8787878787610181565b905060006100f58460001b83805190602001206101d5565b905060008173ffffffffffffffffffffffffffffffffffffffff163b14610120578092505050610178565b61012f60008560001b846101ea565b90507f07fba7bba1191da7ee1155dcfa0030701c9c9a9cc34a93b991fc6fd0c9268d8f81898989898960405161016a9695949392919061048b565b60405180910390a180925050505b95945050505050565b6060858286868660405160200161019b94939291906104ec565b6040516020818303038152906040526040516020016101bb92919061068d565b604051602081830303815290604052905095945050505050565b60006101e28383306102fd565b905092915050565b6000834710156102335747846040517fcf47918100000000000000000000000000000000000000000000000000000000815260040161022a9291906106cb565b60405180910390fd5b600082510361026e576040517f4ca249dc00000000000000000000000000000000000000000000000000000000815260040160405180910390fd5b8282516020840186f590503d151981151615610290576040513d6000823e3d81fd5b600073ffffffffffffffffffffffffffffffffffffffff168173ffffffffffffffffffffffffffffffffffffffff16036102f6576040517fb06ebf3d00000000000000000000000000000000000000000000000000000000815260040160405180910390fd5b9392505050565b6000604051836040820152846020820152828152600b810160ff815373ffffffffffffffffffffffffffffffffffffffff6055822016925050509392505050565b600080fd5b600073ffffffffffffffffffffffffffffffffffffffff82169050919050565b600061036e82610343565b9050919050565b61037e81610363565b811461038957600080fd5b50565b60008135905061039b81610375565b92915050565b6000819050919050565b6103b4816103a1565b81146103bf57600080fd5b50565b6000813590506103d1816103ab565b92915050565b600080600080600060a086880312156103f3576103f261033e565b5b60006104018882890161038c565b9550506020610412888289016103c2565b94505060406104238882890161038c565b9350506060610434888289016103c2565b9250506080610445888289016103c2565b9150509295509295909350565b61045b81610363565b82525050565b60006020820190506104766000830184610452565b92915050565b610485816103a1565b82525050565b600060c0820190506104a06000830189610452565b6104ad6020830188610452565b6104ba604083018761047c565b6104c76060830186610452565b6104d4608083018561047c565b6104e160a083018461047c565b979650505050505050565b6000608082019050610501600083018761047c565b61050e602083018661047c565b61051b6040830185610452565b610528606083018461047c565b95945050505050565b600081905092915050565b7f3d60ad80600a3d3981f3363d3d373d3d3d363d73000000000000000000000000600082015250565b6000610572601483610531565b915061057d8261053c565b601482019050919050565b60008160601b9050919050565b60006105a082610588565b9050919050565b60006105b282610595565b9050919050565b6105ca6105c582610363565b6105a7565b82525050565b7f5af43d82803e903d91602b57fd5bf30000000000000000000000000000000000600082015250565b6000610606600f83610531565b9150610611826105d0565b600f82019050919050565b600081519050919050565b600081905092915050565b60005b83811015610650578082015181840152602081019050610635565b60008484015250505050565b60006106678261061c565b6106718185610627565b9350610681818560208601610632565b80840191505092915050565b600061069882610565565b91506106a482856105b9565b6014820191506106b3826105f9565b91506106bf828461065c565b91508190509392505050565b60006040820190506106e0600083018561047c565b6106ed602083018461047c565b939250505056fea2646970667358221220f4f78b2883580f6276d2ddd9e67e18967232093bd6935832324122dfb564cf5264736f6c63430008180033",
  "linkReferences": {},
  "deployedLinkReferences": {}
}