{
  "_format": "hh-sol-artifact-1",
  "contractName": "PriceOracle",
  "sourceName": "contracts/PriceOracle.sol",
  "abi": [
    {
      "inputs": [
        {
          "internalType": "address",
          "name": "initialOwner",
          "type": "address"
        },
        {
          "internalType": "uint256",
          "name": "_stalePriceDelay",
          "type": "uint256"
        }
      ],
      "stateMutability": "nonpayable",
      "type": "constructor"
    },
    {
      "inputs": [],
      "name": "InvalidPriceFeed",
      "type": "error"
    },
    {
      "inputs": [
        {
          "internalType": "address",
          "name": "owner",
          "type": "address"
        }
      ],
      "name": "OwnableInvalidOwner",
      "type": "error"
    },
    {
      "inputs": [
        {
          "internalType": "address",
          "name": "account",
          "type": "address"
        }
      ],
      "name": "OwnableUnauthorizedAccount",
      "type": "error"
    },
    {
      "inputs": [],
      "name": "PriceFeedNotSet",
      "type": "error"
    },
    {
      "inputs": [],
      "name": "StalePrice",
      "type": "error"
    },
    {
      "anonymous": false,
      "inputs": [
        {
          "indexed": true,
          "internalType": "address",
          "name": "previousOwner",
          "type": "address"
        },
        {
          "indexed": true,
          "internalType": "address",
          "name": "newOwner",
          "type": "address"
        }
      ],
      "name": "OwnershipTransferred",
      "type": "event"
    },
    {
      "anonymous": false,
      "inputs": [
        {
          "indexed": false,
          "internalType": "address",
          "name": "token",
          "type": "address"
        },
        {
          "indexed": false,
          "internalType": "address",
          "name": "feed",
          "type": "address"
        }
      ],
      "name": "PriceFeedUpdated",
      "type": "event"
    },
    {
      "anonymous": false,
      "inputs": [
        {
          "indexed": false,
          "internalType": "uint256",
          "name": "newDelay",
          "type": "uint256"
        }
      ],
      "name": "StalePriceDelayUpdated",
      "type": "event"
    },
    {
      "inputs": [],
      "name": "PRICE_PRECISION",
      "outputs": [
        {
          "internalType": "uint256",
          "name": "",
          "type": "uint256"
        }
      ],
      "stateMutability": "view",
      "type": "function"
    },
    {
      "inputs": [
        {
          "internalType": "address",
          "name": "",
          "type": "address"
        }
      ],
      "name": "decimals",
      "outputs": [
        {
          "internalType": "uint8",
          "name": "",
          "type": "uint8"
        }
      ],
      "stateMutability": "view",
      "type": "function"
    },
    {
      "inputs": [
        {
          "internalType": "address",
          "name": "tokenIn",
          "type": "address"
        },
        {
          "internalType": "address",
          "name": "tokenOut",
          "type": "address"
        }
      ],
      "name": "getPrice",
      "outputs": [
        {
          "internalType": "uint256",
          "name": "",
          "type": "uint256"
        }
      ],
      "stateMutability": "view",
      "type": "function"
    },
    {
      "inputs": [],
      "name": "owner",
      "outputs": [
        {
          "internalType": "address",
          "name": "",
          "type": "address"
        }
      ],
      "stateMutability": "view",
      "type": "function"
    },
    {
      "inputs": [
        {
          "internalType": "address",
          "name": "",
          "type": "address"
        }
      ],
      "name": "priceFeeds",
      "outputs": [
        {
          "internalType": "address",
          "name": "",
          "type": "address"
        }
      ],
      "stateMutability": "view",
      "type": "function"
    },
    {
      "inputs": [],
      "name": "renounceOwnership",
      "outputs": [],
      "stateMutability": "nonpayable",
      "type": "function"
    },
    {
      "inputs": [
        {
          "internalType": "address",
          "name": "token",
          "type": "address"
        },
        {
          "internalType": "address",
          "name": "feed",
          "type": "address"
        },
        {
          "internalType": "uint8",
          "name": "_decimals",
          "type": "uint8"
        }
      ],
      "name": "setPriceFeed",
      "outputs": [],
      "stateMutability": "nonpayable",
      "type": "function"
    },
    {
      "inputs": [
        {
          "internalType": "uint256",
          "name": "_stalePriceDelay",
          "type": "uint256"
        }
      ],
      "name": "setStalePriceDelay",
      "outputs": [],
      "stateMutability": "nonpayable",
      "type": "function"
    },
    {
      "inputs": [],
      "name": "stalePriceDelay",
      "outputs": [
        {
          "internalType": "uint256",
          "name": "",
          "type": "uint256"
        }
      ],
      "stateMutability": "view",
      "type": "function"
    },
    {
      "inputs": [
        {
          "internalType": "address",
          "name": "newOwner",
          "type": "address"
        }
      ],
      "name": "transferOwnership",
      "outputs": [],
      "stateMutability": "nonpayable",
      "type": "function"
    }
  ],
  "bytecode": "0x6080604052610e1060035534801561001657600080fd5b5060405161144338038061144383398181016040528101906100389190610226565b81600073ffffffffffffffffffffffffffffffffffffffff168173ffffffffffffffffffffffffffffffffffffffff16036100ab5760006040517f1e4fbdf70000000000000000000000000000000000000000000000000000000081526004016100a29190610275565b60405180910390fd5b6100ba816100c960201b60201c565b50806003819055505050610290565b60008060009054906101000a900473ffffffffffffffffffffffffffffffffffffffff169050816000806101000a81548173ffffffffffffffffffffffffffffffffffffffff021916908373ffffffffffffffffffffffffffffffffffffffff1602179055508173ffffffffffffffffffffffffffffffffffffffff168173ffffffffffffffffffffffffffffffffffffffff167f8be0079c531659141344cd1fd0a4f28419497f9722a3daafe3b4186f6b6457e060405160405180910390a35050565b600080fd5b600073ffffffffffffffffffffffffffffffffffffffff82169050919050565b60006101bd82610192565b9050919050565b6101cd816101b2565b81146101d857600080fd5b50565b6000815190506101ea816101c4565b92915050565b6000819050919050565b610203816101f0565b811461020e57600080fd5b50565b600081519050610220816101fa565b92915050565b6000806040838503121561023d5761023c61018d565b5b600061024b858286016101db565b925050602061025c85828601610211565b9150509250929050565b61026f816101b2565b82525050565b600060208201905061028a6000830184610266565b92915050565b6111a48061029f6000396000f3fe608060405234801561001057600080fd5b506004361061009e5760003560e01c80639dcb511a116100665780639dcb511a14610123578063ac41865a14610153578063d449a83214610183578063f2fde38b146101b3578063fd4690b6146101cf5761009e565b80633a150b69146100a35780635647a646146100bf578063715018a6146100dd5780638da5cb5b146100e757806395082d2514610105575b600080fd5b6100bd60048036038101906100b89190610bb8565b6101eb565b005b6100c7610234565b6040516100d49190610bf4565b60405180910390f35b6100e561023a565b005b6100ef61024e565b6040516100fc9190610c50565b60405180910390f35b61010d610277565b60405161011a9190610bf4565b60405180910390f35b61013d60048036038101906101389190610c97565b610283565b60405161014a9190610c50565b60405180910390f35b61016d60048036038101906101689190610cc4565b6102b6565b60405161017a9190610bf4565b60405180910390f35b61019d60048036038101906101989190610c97565b610802565b6040516101aa9190610d20565b60405180910390f35b6101cd60048036038101906101c89190610c97565b610822565b005b6101e960048036038101906101e49190610d67565b6108a8565b005b6101f3610a2a565b806003819055507ff8283714234dbdd26209d407d9fa7d244821d6514f153f3931135771a88c3e2c816040516102299190610bf4565b60405180910390a150565b60035481565b610242610a2a565b61024c6000610ab1565b565b60008060009054906101000a900473ffffffffffffffffffffffffffffffffffffffff16905090565b670de0b6b3a764000081565b60016020528060005260406000206000915054906101000a900473ffffffffffffffffffffffffffffffffffffffff1681565b60008073ffffffffffffffffffffffffffffffffffffffff16600160008573ffffffffffffffffffffffffffffffffffffffff1673ffffffffffffffffffffffffffffffffffffffff16815260200190815260200160002060009054906101000a900473ffffffffffffffffffffffffffffffffffffffff1673ffffffffffffffffffffffffffffffffffffffff1614806103dc5750600073ffffffffffffffffffffffffffffffffffffffff16600160008473ffffffffffffffffffffffffffffffffffffffff1673ffffffffffffffffffffffffffffffffffffffff16815260200190815260200160002060009054906101000a900473ffffffffffffffffffffffffffffffffffffffff1673ffffffffffffffffffffffffffffffffffffffff16145b15610413576040517f7e68a04500000000000000000000000000000000000000000000000000000000815260040160405180910390fd5b6000806000806000600160008973ffffffffffffffffffffffffffffffffffffffff1673ffffffffffffffffffffffffffffffffffffffff16815260200190815260200160002060009054906101000a900473ffffffffffffffffffffffffffffffffffffffff1673ffffffffffffffffffffffffffffffffffffffff1663feaf968c6040518163ffffffff1660e01b815260040160a060405180830381865afa1580156104c5573d6000803e3d6000fd5b505050506040513d601f19601f820116820180604052508101906104e99190610e47565b945094509450945094506000841315806105035750600082145b8061052557508469ffffffffffffffffffff168169ffffffffffffffffffff16105b8061053c5750600354824261053a9190610ef1565b115b15610573576040517f19abf40e00000000000000000000000000000000000000000000000000000000815260040160405180910390fd5b6000806000806000600160008d73ffffffffffffffffffffffffffffffffffffffff1673ffffffffffffffffffffffffffffffffffffffff16815260200190815260200160002060009054906101000a900473ffffffffffffffffffffffffffffffffffffffff1673ffffffffffffffffffffffffffffffffffffffff1663feaf968c6040518163ffffffff1660e01b815260040160a060405180830381865afa158015610625573d6000803e3d6000fd5b505050506040513d601f19601f820116820180604052508101906106499190610e47565b945094509450945094506000841315806106635750600082145b8061068557508469ffffffffffffffffffff168169ffffffffffffffffffff16105b8061069c5750600354824261069a9190610ef1565b115b156106d3576040517f19abf40e00000000000000000000000000000000000000000000000000000000815260040160405180910390fd5b6000600260008f73ffffffffffffffffffffffffffffffffffffffff1673ffffffffffffffffffffffffffffffffffffffff16815260200190815260200160002060009054906101000a900460ff1660ff16670de0b6b3a76400006107389190610ef1565b600a6107449190611058565b8a61074f91906110a3565b90506000600260008f73ffffffffffffffffffffffffffffffffffffffff1673ffffffffffffffffffffffffffffffffffffffff16815260200190815260200160002060009054906101000a900460ff1660ff16670de0b6b3a76400006107b69190610ef1565b600a6107c29190611058565b866107cd91906110a3565b905080670de0b6b3a7640000836107e491906110a3565b6107ee9190611114565b9c5050505050505050505050505092915050565b60026020528060005260406000206000915054906101000a900460ff1681565b61082a610a2a565b600073ffffffffffffffffffffffffffffffffffffffff168173ffffffffffffffffffffffffffffffffffffffff160361089c5760006040517f1e4fbdf70000000000000000000000000000000000000000000000000000000081526004016108939190610c50565b60405180910390fd5b6108a581610ab1565b50565b6108b0610a2a565b600073ffffffffffffffffffffffffffffffffffffffff168273ffffffffffffffffffffffffffffffffffffffff1603610916576040517f52cc3f7d00000000000000000000000000000000000000000000000000000000815260040160405180910390fd5b81600160008573ffffffffffffffffffffffffffffffffffffffff1673ffffffffffffffffffffffffffffffffffffffff16815260200190815260200160002060006101000a81548173ffffffffffffffffffffffffffffffffffffffff021916908373ffffffffffffffffffffffffffffffffffffffff16021790555080600260008573ffffffffffffffffffffffffffffffffffffffff1673ffffffffffffffffffffffffffffffffffffffff16815260200190815260200160002060006101000a81548160ff021916908360ff1602179055507fa8abe0398416476db5b05737cd4da3b3cbde5012d978a6a6c3fd49d3217535368383604051610a1d929190611145565b60405180910390a1505050565b610a32610b75565b73ffffffffffffffffffffffffffffffffffffffff16610a5061024e565b73ffffffffffffffffffffffffffffffffffffffff1614610aaf57610a73610b75565b6040517f118cdaa7000000000000000000000000000000000000000000000000000000008152600401610aa69190610c50565b60405180910390fd5b565b60008060009054906101000a900473ffffffffffffffffffffffffffffffffffffffff169050816000806101000a81548173ffffffffffffffffffffffffffffffffffffffff021916908373ffffffffffffffffffffffffffffffffffffffff1602179055508173ffffffffffffffffffffffffffffffffffffffff168173ffffffffffffffffffffffffffffffffffffffff167f8be0079c531659141344cd1fd0a4f28419497f9722a3daafe3b4186f6b6457e060405160405180910390a35050565b600033905090565b600080fd5b6000819050919050565b610b9581610b82565b8114610ba057600080fd5b50565b600081359050610bb281610b8c565b92915050565b600060208284031215610bce57610bcd610b7d565b5b6000610bdc84828501610ba3565b91505092915050565b610bee81610b82565b82525050565b6000602082019050610c096000830184610be5565b92915050565b600073ffffffffffffffffffffffffffffffffffffffff82169050919050565b6000610c3a82610c0f565b9050919050565b610c4a81610c2f565b82525050565b6000602082019050610c656000830184610c41565b92915050565b610c7481610c2f565b8114610c7f57600080fd5b50565b600081359050610c9181610c6b565b92915050565b600060208284031215610cad57610cac610b7d565b5b6000610cbb84828501610c82565b91505092915050565b60008060408385031215610cdb57610cda610b7d565b5b6000610ce985828601610c82565b9250506020610cfa85828601610c82565b9150509250929050565b600060ff82169050919050565b610d1a81610d04565b82525050565b6000602082019050610d356000830184610d11565b92915050565b610d4481610d04565b8114610d4f57600080fd5b50565b600081359050610d6181610d3b565b92915050565b600080600060608486031215610d8057610d7f610b7d565b5b6000610d8e86828701610c82565b9350506020610d9f86828701610c82565b9250506040610db086828701610d52565b9150509250925092565b600069ffffffffffffffffffff82169050919050565b610dd981610dba565b8114610de457600080fd5b50565b600081519050610df681610dd0565b92915050565b6000819050919050565b610e0f81610dfc565b8114610e1a57600080fd5b50565b600081519050610e2c81610e06565b92915050565b600081519050610e4181610b8c565b92915050565b600080600080600060a08688031215610e6357610e62610b7d565b5b6000610e7188828901610de7565b9550506020610e8288828901610e1d565b9450506040610e9388828901610e32565b9350506060610ea488828901610e32565b9250506080610eb588828901610de7565b9150509295509295909350565b7f4e487b7100000000000000000000000000000000000000000000000000000000600052601160045260246000fd5b6000610efc82610b82565b9150610f0783610b82565b9250828203905081811115610f1f57610f1e610ec2565b5b92915050565b60008160011c9050919050565b6000808291508390505b6001851115610f7c57808604811115610f5857610f57610ec2565b5b6001851615610f675780820291505b8081029050610f7585610f25565b9450610f3c565b94509492505050565b600082610f955760019050611051565b81610fa35760009050611051565b8160018114610fb95760028114610fc357610ff2565b6001915050611051565b60ff841115610fd557610fd4610ec2565b5b8360020a915084821115610fec57610feb610ec2565b5b50611051565b5060208310610133831016604e8410600b84101617156110275782820a90508381111561102257611021610ec2565b5b611051565b6110348484846001610f32565b9250905081840481111561104b5761104a610ec2565b5b81810290505b9392505050565b600061106382610b82565b915061106e83610b82565b925061109b7fffffffffffffffffffffffffffffffffffffffffffffffffffffffffffffffff8484610f85565b905092915050565b60006110ae82610b82565b91506110b983610b82565b92508282026110c781610b82565b915082820484148315176110de576110dd610ec2565b5b5092915050565b7f4e487b7100000000000000000000000000000000000000000000000000000000600052601260045260246000fd5b600061111f82610b82565b915061112a83610b82565b92508261113a576111396110e5565b5b828204905092915050565b600060408201905061115a6000830185610c41565b6111676020830184610c41565b939250505056fea264697066735822122066984020afdf7ce58823460bfdf9b249f4776cac4adbca8fd6589915a4d12eb264736f6c634300081b0033",
  "linkReferences": {},
  "deployedLinkReferences": {}
}