{
  "_format": "hh-sol-artifact-1",
  "contractName": "AdvancedGuardianRecovery",
  "sourceName": "contracts/AdvancedGuardianRecovery.sol",
  "abi": [
    {
      "inputs": [
        {
          "internalType": "address",
          "name": "_tokenBoundAccount",
          "type": "address"
        },
        {
          "internalType": "uint256",
          "name": "_timeLockDuration",
          "type": "uint256"
        },
        {
          "internalType": "uint256",
          "name": "_recoveryThreshold",
          "type": "uint256"
        }
      ],
      "stateMutability": "nonpayable",
      "type": "constructor"
    },
    {
      "anonymous": false,
      "inputs": [
        {
          "indexed": true,
          "internalType": "address",
          "name": "initiator",
          "type": "address"
        }
      ],
      "name": "EmergencyStopActivated",
      "type": "event"
    },
    {
      "anonymous": false,
      "inputs": [
        {
          "indexed": true,
          "internalType": "address",
          "name": "guardian",
          "type": "address"
        }
      ],
      "name": "GuardianAdded",
      "type": "event"
    },
    {
      "anonymous": false,
      "inputs": [
        {
          "indexed": true,
          "internalType": "address",
          "name": "guardian",
          "type": "address"
        }
      ],
      "name": "GuardianRemoved",
      "type": "event"
    },
    {
      "anonymous": false,
      "inputs": [
        {
          "indexed": true,
          "internalType": "address",
          "name": "guardian",
          "type": "address"
        }
      ],
      "name": "RecoveryApproved",
      "type": "event"
    },
    {
      "anonymous": false,
      "inputs": [
        {
          "indexed": true,
          "internalType": "address",
          "name": "guardian",
          "type": "address"
        }
      ],
      "name": "RecoveryCanceled",
      "type": "event"
    },
    {
      "anonymous": false,
      "inputs": [
        {
          "indexed": true,
          "internalType": "address",
          "name": "newOwner",
          "type": "address"
        }
      ],
      "name": "RecoveryCompleted",
      "type": "event"
    },
    {
      "anonymous": false,
      "inputs": [
        {
          "indexed": false,
          "internalType": "uint256",
          "name": "startTime",
          "type": "uint256"
        }
      ],
      "name": "RecoveryInitiated",
      "type": "event"
    },
    {
      "inputs": [],
      "name": "activateEmergencyStop",
      "outputs": [],
      "stateMutability": "nonpayable",
      "type": "function"
    },
    {
      "inputs": [
        {
          "internalType": "address",
          "name": "guardian",
          "type": "address"
        }
      ],
      "name": "addGuardian",
      "outputs": [],
      "stateMutability": "nonpayable",
      "type": "function"
    },
    {
      "inputs": [],
      "name": "approvalCount",
      "outputs": [
        {
          "internalType": "uint256",
          "name": "",
          "type": "uint256"
        }
      ],
      "stateMutability": "view",
      "type": "function"
    },
    {
      "inputs": [
        {
          "internalType": "address",
          "name": "",
          "type": "address"
        }
      ],
      "name": "approvals",
      "outputs": [
        {
          "internalType": "bool",
          "name": "",
          "type": "bool"
        }
      ],
      "stateMutability": "view",
      "type": "function"
    },
    {
      "inputs": [],
      "name": "approveRecovery",
      "outputs": [],
      "stateMutability": "nonpayable",
      "type": "function"
    },
    {
      "inputs": [],
      "name": "emergencyStop",
      "outputs": [
        {
          "internalType": "bool",
          "name": "",
          "type": "bool"
        }
      ],
      "stateMutability": "view",
      "type": "function"
    },
    {
      "inputs": [
        {
          "internalType": "address",
          "name": "target",
          "type": "address"
        },
        {
          "internalType": "uint256",
          "name": "value",
          "type": "uint256"
        },
        {
          "internalType": "bytes",
          "name": "data",
          "type": "bytes"
        }
      ],
      "name": "executeAsOwner",
      "outputs": [
        {
          "internalType": "bytes",
          "name": "",
          "type": "bytes"
        }
      ],
      "stateMutability": "nonpayable",
      "type": "function"
    },
    {
      "inputs": [
        {
          "internalType": "address",
          "name": "",
          "type": "address"
        }
      ],
      "name": "guardians",
      "outputs": [
        {
          "internalType": "bool",
          "name": "",
          "type": "bool"
        }
      ],
      "stateMutability": "view",
      "type": "function"
    },
    {
      "inputs": [],
      "name": "initiateRecovery",
      "outputs": [],
      "stateMutability": "nonpayable",
      "type": "function"
    },
    {
      "inputs": [],
      "name": "owner",
      "outputs": [
        {
          "internalType": "address",
          "name": "",
          "type": "address"
        }
      ],
      "stateMutability": "view",
      "type": "function"
    },
    {
      "inputs": [],
      "name": "recoveryInProgress",
      "outputs": [
        {
          "internalType": "bool",
          "name": "",
          "type": "bool"
        }
      ],
      "stateMutability": "view",
      "type": "function"
    },
    {
      "inputs": [],
      "name": "recoveryStartTime",
      "outputs": [
        {
          "internalType": "uint256",
          "name": "",
          "type": "uint256"
        }
      ],
      "stateMutability": "view",
      "type": "function"
    },
    {
      "inputs": [],
      "name": "recoveryThreshold",
      "outputs": [
        {
          "internalType": "uint256",
          "name": "",
          "type": "uint256"
        }
      ],
      "stateMutability": "view",
      "type": "function"
    },
    {
      "inputs": [
        {
          "internalType": "address",
          "name": "guardian",
          "type": "address"
        }
      ],
      "name": "removeGuardian",
      "outputs": [],
      "stateMutability": "nonpayable",
      "type": "function"
    },
    {
      "inputs": [],
      "name": "timeLockDuration",
      "outputs": [
        {
          "internalType": "uint256",
          "name": "",
          "type": "uint256"
        }
      ],
      "stateMutability": "view",
      "type": "function"
    },
    {
      "inputs": [],
      "name": "tokenBoundAccount",
      "outputs": [
        {
          "internalType": "address",
          "name": "",
          "type": "address"
        }
      ],
      "stateMutability": "view",
      "type": "function"
    },
    {
      "inputs": [],
      "name": "vetoRecovery",
      "outputs": [],
      "stateMutability": "nonpayable",
      "type": "function"
    }
  ],
  "bytecode": "0x608060405234801561001057600080fd5b50604051611a27380380611a2783398181016040528101906100329190610162565b336000806101000a81548173ffffffffffffffffffffffffffffffffffffffff021916908373ffffffffffffffffffffffffffffffffffffffff16021790555082600160006101000a81548173ffffffffffffffffffffffffffffffffffffffff021916908373ffffffffffffffffffffffffffffffffffffffff16021790555081600481905550806003819055505050506101b5565b600080fd5b600073ffffffffffffffffffffffffffffffffffffffff82169050919050565b60006100f9826100ce565b9050919050565b610109816100ee565b811461011457600080fd5b50565b60008151905061012681610100565b92915050565b6000819050919050565b61013f8161012c565b811461014a57600080fd5b50565b60008151905061015c81610136565b92915050565b60008060006060848603121561017b5761017a6100c9565b5b600061018986828701610117565b935050602061019a8682870161014d565b92505060406101ab8682870161014d565b9150509250925092565b611863806101c46000396000f3fe608060405234801561001057600080fd5b506004361061010b5760003560e01c80638ac46935116100a2578063aa160c3b11610071578063aa160c3b14610282578063db16330d1461028c578063e9bb6ceb146102aa578063fcae8d38146102c8578063ff96df44146102d25761010b565b80638ac46935146102345780638da5cb5b1461023e578063985957ab1461025c578063a526d83b146102665761010b565b80635d0341ba116100de5780635d0341ba146101ac57806363a599a4146101dc5780636884d0a6146101fa57806371404156146102185761010b565b80630633b14a1461011057806314f5c2ec146101405780631c8123d61461015e5780633464156f1461017c575b600080fd5b61012a60048036038101906101259190611067565b6102f0565b60405161013791906110af565b60405180910390f35b610148610310565b60405161015591906110e3565b60405180910390f35b610166610316565b60405161017391906110e3565b60405180910390f35b6101966004803603810190610191919061118f565b61031c565b6040516101a39190611293565b60405180910390f35b6101c660048036038101906101c19190611067565b6104af565b6040516101d391906110af565b60405180910390f35b6101e46104cf565b6040516101f191906110af565b60405180910390f35b6102026104e2565b60405161020f91906110e3565b60405180910390f35b610232600480360381019061022d9190611067565b6104e8565b005b61023c610614565b005b61024661079c565b60405161025391906112c4565b60405180910390f35b6102646107c0565b005b610280600480360381019061027b9190611067565b6108ae565b005b61028a6109da565b005b610294610b6f565b6040516102a191906110af565b60405180910390f35b6102b2610b82565b6040516102bf91906112c4565b60405180910390f35b6102d0610ba8565b005b6102da610e2b565b6040516102e791906110e3565b60405180910390f35b60066020528060005260406000206000915054906101000a900460ff1681565b60025481565b60035481565b606060008054906101000a900473ffffffffffffffffffffffffffffffffffffffff1673ffffffffffffffffffffffffffffffffffffffff163373ffffffffffffffffffffffffffffffffffffffff16146103ac576040517f08c379a00000000000000000000000000000000000000000000000000000000081526004016103a39061133c565b60405180910390fd5b600560009054906101000a900460ff16156103fc576040517f08c379a00000000000000000000000000000000000000000000000000000000081526004016103f3906113a8565b60405180910390fd5b600160009054906101000a900473ffffffffffffffffffffffffffffffffffffffff1673ffffffffffffffffffffffffffffffffffffffff1663b61d27f6868686866040518563ffffffff1660e01b815260040161045d9493929190611404565b6000604051808303816000875af115801561047c573d6000803e3d6000fd5b505050506040513d6000823e3d601f19601f820116820180604052508101906104a59190611565565b9050949350505050565b60076020528060005260406000206000915054906101000a900460ff1681565b600560009054906101000a900460ff1681565b60085481565b60008054906101000a900473ffffffffffffffffffffffffffffffffffffffff1673ffffffffffffffffffffffffffffffffffffffff163373ffffffffffffffffffffffffffffffffffffffff1614610576576040517f08c379a000000000000000000000000000000000000000000000000000000000815260040161056d9061133c565b60405180910390fd5b6000600660008373ffffffffffffffffffffffffffffffffffffffff1673ffffffffffffffffffffffffffffffffffffffff16815260200190815260200160002060006101000a81548160ff0219169083151502179055508073ffffffffffffffffffffffffffffffffffffffff167fb8107d0c6b40be480ce3172ee66ba6d64b71f6b1685a851340036e6e2e3e3c5260405160405180910390a250565b600660003373ffffffffffffffffffffffffffffffffffffffff1673ffffffffffffffffffffffffffffffffffffffff16815260200190815260200160002060009054906101000a900460ff166106a0576040517f08c379a0000000000000000000000000000000000000000000000000000000008152600401610697906115fa565b60405180910390fd5b600560009054906101000a900460ff16156106f0576040517f08c379a00000000000000000000000000000000000000000000000000000000081526004016106e7906113a8565b60405180910390fd5b600160149054906101000a900460ff1615610740576040517f08c379a000000000000000000000000000000000000000000000000000000000815260040161073790611666565b60405180910390fd5b60018060146101000a81548160ff021916908315150217905550426002819055507f43397b60d44f3cf1dc5759a2262e27318bdaa283892fa8318891d093368ca1d660025460405161079291906110e3565b60405180910390a1565b60008054906101000a900473ffffffffffffffffffffffffffffffffffffffff1681565b60008054906101000a900473ffffffffffffffffffffffffffffffffffffffff1673ffffffffffffffffffffffffffffffffffffffff163373ffffffffffffffffffffffffffffffffffffffff161461084e576040517f08c379a00000000000000000000000000000000000000000000000000000000081526004016108459061133c565b60405180910390fd5b6001600560006101000a81548160ff0219169083151502179055503373ffffffffffffffffffffffffffffffffffffffff167fab041f15b21509a5ebcd65d5f15a4cdb950cfdda572488827e5b44f28b2214e860405160405180910390a2565b60008054906101000a900473ffffffffffffffffffffffffffffffffffffffff1673ffffffffffffffffffffffffffffffffffffffff163373ffffffffffffffffffffffffffffffffffffffff161461093c576040517f08c379a00000000000000000000000000000000000000000000000000000000081526004016109339061133c565b60405180910390fd5b6001600660008373ffffffffffffffffffffffffffffffffffffffff1673ffffffffffffffffffffffffffffffffffffffff16815260200190815260200160002060006101000a81548160ff0219169083151502179055508073ffffffffffffffffffffffffffffffffffffffff167f038596bb31e2e7d3d9f184d4c98b310103f6d7f5830e5eec32bffe6f1728f96960405160405180910390a250565b60008054906101000a900473ffffffffffffffffffffffffffffffffffffffff1673ffffffffffffffffffffffffffffffffffffffff163373ffffffffffffffffffffffffffffffffffffffff1614610a68576040517f08c379a0000000000000000000000000000000000000000000000000000000008152600401610a5f9061133c565b60405180910390fd5b600560009054906101000a900460ff1615610ab8576040517f08c379a0000000000000000000000000000000000000000000000000000000008152600401610aaf906113a8565b60405180910390fd5b600160149054906101000a900460ff16610b07576040517f08c379a0000000000000000000000000000000000000000000000000000000008152600401610afe906116d2565b60405180910390fd5b6000600160146101000a81548160ff021916908315150217905550610b2a610e31565b3373ffffffffffffffffffffffffffffffffffffffff167f0d8129d90ef1c9fb74e7942381c7a9a21e58349b5cfc5f672871b8471252247d60405160405180910390a2565b600160149054906101000a900460ff1681565b600160009054906101000a900473ffffffffffffffffffffffffffffffffffffffff1681565b600660003373ffffffffffffffffffffffffffffffffffffffff1673ffffffffffffffffffffffffffffffffffffffff16815260200190815260200160002060009054906101000a900460ff16610c34576040517f08c379a0000000000000000000000000000000000000000000000000000000008152600401610c2b906115fa565b60405180910390fd5b600560009054906101000a900460ff1615610c84576040517f08c379a0000000000000000000000000000000000000000000000000000000008152600401610c7b906113a8565b60405180910390fd5b600160149054906101000a900460ff16610cd3576040517f08c379a0000000000000000000000000000000000000000000000000000000008152600401610cca906116d2565b60405180910390fd5b600760003373ffffffffffffffffffffffffffffffffffffffff1673ffffffffffffffffffffffffffffffffffffffff16815260200190815260200160002060009054906101000a900460ff1615610d60576040517f08c379a0000000000000000000000000000000000000000000000000000000008152600401610d579061173e565b60405180910390fd5b6001600760003373ffffffffffffffffffffffffffffffffffffffff1673ffffffffffffffffffffffffffffffffffffffff16815260200190815260200160002060006101000a81548160ff021916908315150217905550600160086000828254610dcb919061178d565b925050819055503373ffffffffffffffffffffffffffffffffffffffff167f47032c9dbd3001ab3b46aa359314884f3f192d251eda3b26f0be4cffd76d39c560405160405180910390a260035460085410610e2957610e28610e56565b5b565b60045481565b60005b600854811015610e4b578080600101915050610e34565b506000600881905550565b600160149054906101000a900460ff168015610e815750600454600254610e7d919061178d565b4210155b610ec0576040517f08c379a0000000000000000000000000000000000000000000000000000000008152600401610eb79061180d565b60405180910390fd5b6000600160146101000a81548160ff021916908315150217905550610ee3610e31565b600160009054906101000a900473ffffffffffffffffffffffffffffffffffffffff1673ffffffffffffffffffffffffffffffffffffffff1663e8ea054b60008054906101000a900473ffffffffffffffffffffffffffffffffffffffff166040518263ffffffff1660e01b8152600401610f5e91906112c4565b600060405180830381600087803b158015610f7857600080fd5b505af1158015610f8c573d6000803e3d6000fd5b5050505060008054906101000a900473ffffffffffffffffffffffffffffffffffffffff1673ffffffffffffffffffffffffffffffffffffffff167f46f5008939fa0b4beb46ae7f0e8368318bb72b56608910ca71c23e83382f609f60405160405180910390a2565b6000604051905090565b600080fd5b600080fd5b600073ffffffffffffffffffffffffffffffffffffffff82169050919050565b600061103482611009565b9050919050565b61104481611029565b811461104f57600080fd5b50565b6000813590506110618161103b565b92915050565b60006020828403121561107d5761107c610fff565b5b600061108b84828501611052565b91505092915050565b60008115159050919050565b6110a981611094565b82525050565b60006020820190506110c460008301846110a0565b92915050565b6000819050919050565b6110dd816110ca565b82525050565b60006020820190506110f860008301846110d4565b92915050565b611107816110ca565b811461111257600080fd5b50565b600081359050611124816110fe565b92915050565b600080fd5b600080fd5b600080fd5b60008083601f84011261114f5761114e61112a565b5b8235905067ffffffffffffffff81111561116c5761116b61112f565b5b60208301915083600182028301111561118857611187611134565b5b9250929050565b600080600080606085870312156111a9576111a8610fff565b5b60006111b787828801611052565b94505060206111c887828801611115565b935050604085013567ffffffffffffffff8111156111e9576111e8611004565b5b6111f587828801611139565b925092505092959194509250565b600081519050919050565b600082825260208201905092915050565b60005b8381101561123d578082015181840152602081019050611222565b60008484015250505050565b6000601f19601f8301169050919050565b600061126582611203565b61126f818561120e565b935061127f81856020860161121f565b61128881611249565b840191505092915050565b600060208201905081810360008301526112ad818461125a565b905092915050565b6112be81611029565b82525050565b60006020820190506112d960008301846112b5565b92915050565b600082825260208201905092915050565b7f43616c6c6572206973206e6f7420746865206f776e6572000000000000000000600082015250565b60006113266017836112df565b9150611331826112f0565b602082019050919050565b6000602082019050818103600083015261135581611319565b9050919050565b7f456d657267656e63792073746f70206163746976617465640000000000000000600082015250565b60006113926018836112df565b915061139d8261135c565b602082019050919050565b600060208201905081810360008301526113c181611385565b9050919050565b82818337600083830152505050565b60006113e3838561120e565b93506113f08385846113c8565b6113f983611249565b840190509392505050565b600060608201905061141960008301876112b5565b61142660208301866110d4565b81810360408301526114398184866113d7565b905095945050505050565b600080fd5b7f4e487b7100000000000000000000000000000000000000000000000000000000600052604160045260246000fd5b61148182611249565b810181811067ffffffffffffffff821117156114a05761149f611449565b5b80604052505050565b60006114b3610ff5565b90506114bf8282611478565b919050565b600067ffffffffffffffff8211156114df576114de611449565b5b6114e882611249565b9050602081019050919050565b6000611508611503846114c4565b6114a9565b90508281526020810184848401111561152457611523611444565b5b61152f84828561121f565b509392505050565b600082601f83011261154c5761154b61112a565b5b815161155c8482602086016114f5565b91505092915050565b60006020828403121561157b5761157a610fff565b5b600082015167ffffffffffffffff81111561159957611598611004565b5b6115a584828501611537565b91505092915050565b7f43616c6c6572206973206e6f74206120677561726469616e0000000000000000600082015250565b60006115e46018836112df565b91506115ef826115ae565b602082019050919050565b60006020820190508181036000830152611613816115d7565b9050919050565b7f5265636f7665727920616c726561647920696e2070726f677265737300000000600082015250565b6000611650601c836112df565b915061165b8261161a565b602082019050919050565b6000602082019050818103600083015261167f81611643565b9050919050565b7f4e6f207265636f7665727920696e2070726f6772657373000000000000000000600082015250565b60006116bc6017836112df565b91506116c782611686565b602082019050919050565b600060208201905081810360008301526116eb816116af565b9050919050565b7f477561726469616e20616c726561647920617070726f76656400000000000000600082015250565b60006117286019836112df565b9150611733826116f2565b602082019050919050565b600060208201905081810360008301526117578161171b565b9050919050565b7f4e487b7100000000000000000000000000000000000000000000000000000000600052601160045260246000fd5b6000611798826110ca565b91506117a3836110ca565b92508282019050808211156117bb576117ba61175e565b5b92915050565b7f5265636f766572792074696d65206c6f636b206e6f7420706173736564000000600082015250565b60006117f7601d836112df565b9150611802826117c1565b602082019050919050565b60006020820190508181036000830152611826816117ea565b905091905056fea26469706673582212209af69f3224580a7cff2a5e296f3bb43872be40e51dc6b0cc24014f4b6c38e3bb64736f6c634300081b0033",
  "linkReferences": {},
  "deployedLinkReferences": {}
}